{"contracts/Core.sol":{"Core":{"abi":[{"inputs":[{"internalType":"address","name":"usdc","type":"address"},{"internalType":"address","name":"treasury","type":"address"},{"internalType":"address","name":"revenue","type":"address"}],"stateMutability":"nonpayable","type":"constructor"},{"anonymous":false,"inputs":[{"indexed":true,"internalType":"uint256","name":"fromId","type":"uint256"},{"indexed":true,"internalType":"uint256","name":"toId","type":"uint256"},{"indexed":true,"internalType":"address","name":"user","type":"address"},{"indexed":false,"internalType":"uint256","name":"amount","type":"uint256"},{"indexed":false,"internalType":"uint256","name":"fee","type":"uint256"}],"name":"Attack","type":"event"},{"anonymous":false,"inputs":[{"indexed":true,"internalType":"uint256","name":"id","type":"uint256"},{"indexed":false,"internalType":"address","name":"user","type":"address"},{"indexed":false,"internalType":"uint256","name":"amount","type":"uint256"},{"indexed":false,"internalType":"uint256","name":"usdcPaid","type":"uint256"},{"indexed":false,"internalType":"uint256","name":"fee","type":"uint256"}],"name":"Bought","type":"event"},{"anonymous":false,"inputs":[{"indexed":true,"internalType":"uint256","name":"id","type":"uint256"},{"indexed":false,"internalType":"string","name":"name","type":"string"},{"indexed":false,"internalType":"address","name":"token","type":"address"}],"name":"CountryAdded","type":"event"},{"anonymous":false,"inputs":[{"indexed":true,"internalType":"address","name":"previousOwner","type":"address"},{"indexed":true,"internalType":"address","name":"newOwner","type":"address"}],"name":"OwnershipTransferred","type":"event"},{"anonymous":false,"inputs":[{"indexed":false,"internalType":"address","name":"account","type":"address"}],"name":"Paused","type":"event"},{"anonymous":false,"inputs":[{"indexed":true,"internalType":"uint256","name":"id","type":"uint256"},{"indexed":false,"internalType":"address","name":"user","type":"address"},{"indexed":false,"internalType":"uint256","name":"amount","type":"uint256"},{"indexed":false,"internalType":"uint256","name":"usdcReceived","type":"uint256"},{"indexed":false,"internalType":"uint256","name":"fee","type":"uint256"}],"name":"Sold","type":"event"},{"anonymous":false,"inputs":[{"indexed":false,"internalType":"address","name":"account","type":"address"}],"name":"Unpaused","type":"event"},{"inputs":[],"name":"REVENUE","outputs":[{"internalType":"address","name":"","type":"address"}],"stateMutability":"view","type":"function"},{"inputs":[],"name":"TREASURY","outputs":[{"internalType":"address","name":"","type":"address"}],"stateMutability":"view","type":"function"},{"inputs":[],"name":"USDC","outputs":[{"internalType":"address","name":"","type":"address"}],"stateMutability":"view","type":"function"},{"inputs":[{"internalType":"uint256","name":"id","type":"uint256"},{"internalType":"string","name":"name","type":"string"},{"internalType":"address","name":"token","type":"address"},{"internalType":"uint256","name":"price8Start","type":"uint256"},{"internalType":"uint32","name":"kappa8","type":"uint32"},{"internalType":"uint32","name":"lambda8","type":"uint32"},{"internalType":"uint256","name":"priceMin8","type":"uint256"}],"name":"addCountry","outputs":[],"stateMutability":"nonpayable","type":"function"},{"inputs":[{"internalType":"uint256","name":"fromId","type":"uint256"},{"internalType":"uint256","name":"toId","type":"uint256"},{"internalType":"uint256","name":"amountToken18","type":"uint256"}],"name":"attack","outputs":[],"stateMutability":"nonpayable","type":"function"},{"inputs":[{"components":[{"internalType":"uint256","name":"fromId","type":"uint256"},{"internalType":"uint256","name":"toId","type":"uint256"},{"internalType":"uint256","name":"amountToken18","type":"uint256"}],"internalType":"struct Core.AttackItem[]","name":"items","type":"tuple[]"}],"name":"attackBatch","outputs":[],"stateMutability":"nonpayable","type":"function"},{"inputs":[{"internalType":"uint256","name":"id","type":"uint256"},{"internalType":"uint256","name":"amount18","type":"uint256"},{"internalType":"uint256","name":"maxInUSDC6","type":"uint256"},{"internalType":"uint256","name":"deadline","type":"uint256"}],"name":"buy","outputs":[],"stateMutability":"nonpayable","type":"function"},{"inputs":[],"name":"buyFeeBps","outputs":[{"internalType":"uint16","name":"","type":"uint16"}],"stateMutability":"view","type":"function"},{"inputs":[{"internalType":"uint256","name":"","type":"uint256"}],"name":"countries","outputs":[{"internalType":"string","name":"name","type":"string"},{"internalType":"address","name":"token","type":"address"},{"internalType":"bool","name":"exists","type":"bool"},{"internalType":"uint256","name":"price8","type":"uint256"},{"internalType":"uint32","name":"kappa8","type":"uint32"},{"internalType":"uint32","name":"lambda8","type":"uint32"},{"internalType":"uint256","name":"priceMin8","type":"uint256"}],"stateMutability":"view","type":"function"},{"inputs":[{"internalType":"address","name":"user","type":"address"}],"name":"getWarBalanceState","outputs":[{"internalType":"uint256","name":"wb1Count","type":"uint256"},{"internalType":"uint256","name":"wb1Threshold","type":"uint256"},{"internalType":"uint256","name":"wb1Window","type":"uint256"},{"internalType":"uint256","name":"wb1Multiplier","type":"uint256"},{"internalType":"uint256","name":"wb1MulBps","type":"uint256"},{"internalType":"uint256","name":"wb2Count","type":"uint256"},{"internalType":"uint256","name":"wb2Threshold","type":"uint256"},{"internalType":"uint256","name":"wb2Window","type":"uint256"},{"internalType":"uint256","name":"wb2Multiplier","type":"uint256"},{"internalType":"uint256","name":"wb2MulBps","type":"uint256"},{"internalType":"uint256","name":"currentMultiplier","type":"uint256"}],"stateMutability":"view","type":"function"},{"inputs":[{"internalType":"address","name":"","type":"address"}],"name":"isAuthorized","outputs":[{"internalType":"bool","name":"","type":"bool"}],"stateMutability":"view","type":"function"},{"inputs":[{"internalType":"uint256","name":"id","type":"uint256"},{"internalType":"uint256","name":"amount18","type":"uint256"}],"name":"mintCountryTokens","outputs":[],"stateMutability":"nonpayable","type":"function"},{"inputs":[],"name":"owner","outputs":[{"internalType":"address","name":"","type":"address"}],"stateMutability":"view","type":"function"},{"inputs":[],"name":"pause","outputs":[],"stateMutability":"nonpayable","type":"function"},{"inputs":[],"name":"paused","outputs":[{"internalType":"bool","name":"","type":"bool"}],"stateMutability":"view","type":"function"},{"inputs":[{"internalType":"address","name":"user","type":"address"},{"internalType":"uint256","name":"attackerPrice8","type":"uint256"}],"name":"previewAttackFee","outputs":[{"internalType":"uint256","name":"baseFeeUSDC6","type":"uint256"},{"internalType":"uint256","name":"appliedTier","type":"uint256"},{"internalType":"uint256","name":"appliedMulBps","type":"uint256"},{"internalType":"uint256","name":"finalFeeUSDC6","type":"uint256"},{"internalType":"bool","name":"isFreeAttackAvailable","type":"bool"}],"stateMutability":"view","type":"function"},{"inputs":[{"internalType":"address","name":"from","type":"address"},{"internalType":"uint256","name":"amount","type":"uint256"},{"internalType":"address","name":"to","type":"address"}],"name":"pullUSDCFrom","outputs":[],"stateMutability":"nonpayable","type":"function"},{"inputs":[{"internalType":"uint256","name":"id","type":"uint256"},{"internalType":"uint256","name":"amount18","type":"uint256"}],"name":"quoteBuy","outputs":[{"internalType":"uint256","name":"grossUSDC6","type":"uint256"},{"internalType":"uint256","name":"feeUSDC6","type":"uint256"},{"internalType":"uint256","name":"netUSDC6","type":"uint256"}],"stateMutability":"view","type":"function"},{"inputs":[{"internalType":"uint256","name":"id","type":"uint256"},{"internalType":"uint256","name":"amount18","type":"uint256"}],"name":"quoteSell","outputs":[{"internalType":"uint256","name":"grossUSDC6","type":"uint256"},{"internalType":"uint256","name":"feeUSDC6","type":"uint256"},{"internalType":"uint256","name":"netUSDC6","type":"uint256"}],"stateMutability":"view","type":"function"},{"inputs":[{"internalType":"uint256","name":"id","type":"uint256"}],"name":"remainingSupply","outputs":[{"internalType":"uint256","name":"","type":"uint256"}],"stateMutability":"view","type":"function"},{"inputs":[],"name":"renounceOwnership","outputs":[],"stateMutability":"nonpayable","type":"function"},{"inputs":[{"internalType":"uint256","name":"id","type":"uint256"},{"internalType":"uint256","name":"amount18","type":"uint256"},{"internalType":"uint256","name":"minOutUSDC6","type":"uint256"},{"internalType":"uint256","name":"deadline","type":"uint256"}],"name":"sell","outputs":[],"stateMutability":"nonpayable","type":"function"},{"inputs":[],"name":"sellFeeBps","outputs":[{"internalType":"uint16","name":"","type":"uint16"}],"stateMutability":"view","type":"function"},{"inputs":[{"internalType":"uint256","name":"id","type":"uint256"},{"internalType":"uint256","name":"amount18","type":"uint256"},{"internalType":"uint256","name":"minOutUSDC6","type":"uint256"},{"internalType":"uint256","name":"tradeDeadline","type":"uint256"},{"internalType":"uint256","name":"permitDeadline","type":"uint256"},{"internalType":"uint8","name":"v","type":"uint8"},{"internalType":"bytes32","name":"r","type":"bytes32"},{"internalType":"bytes32","name":"s","type":"bytes32"}],"name":"sellWithPermit","outputs":[],"stateMutability":"nonpayable","type":"function"},{"inputs":[{"internalType":"address","name":"who","type":"address"},{"internalType":"bool","name":"v","type":"bool"}],"name":"setAuthorized","outputs":[],"stateMutability":"nonpayable","type":"function"},{"inputs":[{"internalType":"uint16","name":"buyFee","type":"uint16"},{"internalType":"uint16","name":"sellFee","type":"uint16"}],"name":"setFees","outputs":[],"stateMutability":"nonpayable","type":"function"},{"inputs":[{"internalType":"address","name":"newOwner","type":"address"}],"name":"transferOwnership","outputs":[],"stateMutability":"nonpayable","type":"function"},{"inputs":[],"name":"unpause","outputs":[],"stateMutability":"nonpayable","type":"function"}],"evm":{"bytecode":{"linkReferences":{},"object":"60e034620001d457601f620029b238819003918201601f191683019291906001600160401b03841183851017620001d9578160609284926040968752833981010312620001d4576200005181620001ef565b906200006d836200006560208401620001ef565b9201620001ef565b91620000793362000204565b6000805460ff60a01b19169055600180556002805463ffffffff191690556001600160a01b03818116156200019f578083161562000166578316156200012e57620000c43362000204565b60805260a05260c0525161276690816200024c823960805181818161024c01528181610b6a0152818161108401528181611188015281816114de0152818161184c0152611c0a015260a051816119ee015260c051818181610bc7015281816115300152611dbc0152f35b835162461bcd60e51b8152602060048201526011602482015270436f72653a2062616420726576656e756560781b6044820152606490fd5b845162461bcd60e51b8152602060048201526012602482015271436f72653a2062616420747265617375727960701b6044820152606490fd5b845162461bcd60e51b815260206004820152600e60248201526d436f72653a20626164207573646360901b6044820152606490fd5b600080fd5b634e487b7160e01b600052604160045260246000fd5b51906001600160a01b0382168203620001d457565b600080546001600160a01b039283166001600160a01b03198216811783559216907f8be0079c531659141344cd1fd0a4f28419497f9722a3daafe3b4186f6b6457e09080a356fe6080604052600436101561001257600080fd5b600060e08135811c9081630277dd6714611f1157816308e9daa514611deb5781630e3a7dc714611da65781631281311d14611b5b57816323cbe1f314611b3657816327cd270514611a1d5781632d2c5565146119d85781633620875e146117a65781633f4ba83a1461170b578163407f85f8146113db57816347fda41a146113b45781635a807e651461134f5781635c975abb1461132a578163711bf9b2146112d7578163715018a61461127d57816377d2300e1461125b5781637c4e34c6146111145781638456cb59146110b357816389a302711461106e5781638da5cb5b146110475781639ef833d414610f97578163c2b7315414610aba578163cec18a6214610a43578163d0ee7c0c1461068b57508063f2fde38b146105ca578063f998a8651461054f578063fd507d30146101955763fe9fbb801461015457600080fd5b346101925760203660031901126101925760209060ff906040906001600160a01b0361017e61203f565b168152600384522054166040519015158152f35b80fd5b5034610192576101003660031901126101925760043560243560a43560ff811680910361054b576101c46125bb565b6101cc612611565b606435421161050657828452602091600483526101f560ff600160408820015460a01c16612087565b801515806104f4575b610207906121a3565b83855260048352604085209161021d828661250a565b9490915061022f604435861015612232565b6040516370a0823160e01b81523060048201526001600160a01b037f000000000000000000000000000000000000000000000000000000000000000081169490918881602481895afa80156104b05788908c906104bf575b610293925010156122cc565b89600184019183835416803b156104bb5760e48392604051948593849263d505accf60e01b84523360048501523060248501528d60448501526084356064850152608484015260c43560a4840152833560c48401525af180156104b057610480575b50546040516323b872dd60e01b815233600482015230602482015260448101879052918891839160649183918e91165af1801561047557610458575b5060405163a9059cbb60e01b815233600482015260248101869052928690849060449082908c905af1801561044d577f47c2f180f415c943169b11c4bd61c71dbd5f15ed83b496b3a65a47a3a21d63b496610403946103ad92610420575b506003830154670de0b6b3a76400008704911c63ffffffff16612296565b9060028101918254818111600014610415576004916103cb91612318565b915b0154908181101561040d5750905b5560408051338152602081019490945283019390935260608201929092529081906080820190565b0390a26001805580f35b9050906103db565b5050600489916103cd565b61043f90823d8411610446575b6104378183611fa9565b81019061227e565b503861038f565b503d61042d565b6040513d8a823e3d90fd5b61046e90873d8911610446576104378183611fa9565b5038610331565b6040513d8b823e3d90fd5b67ffffffffffffffff819b929b1161049c5760405298386102f5565b634e487b7160e01b82526041600452602482fd5b6040513d8d823e3d90fd5b8280fd5b50508881813d83116104ed575b6104d68183611fa9565b810103126104e957876102939151610287565b8a80fd5b503d6104cc565b50670de0b6b3a76400008106156101fe565b60405162461bcd60e51b815260206004820152601b60248201527f436f72653a20747261646520646561646c696e652070617373656400000000006044820152606490fd5b8380fd5b5034610192576105a960406105c69261058560ff600161056e36611f54565b959094858152600460205220015460a01c16612087565b6105908215156120d3565b6105a4670de0b6b3a7640000830615612113565b612658565b604080519384526020840192909252908201529081906060820190565b0390f35b5034610192576020366003190112610192576105e461203f565b6105ec6126d8565b6001600160a01b039081169081156106375782546001600160a01b0319811683178455167f8be0079c531659141344cd1fd0a4f28419497f9722a3daafe3b4186f6b6457e08380a380f35b60405162461bcd60e51b815260206004820152602660248201527f4f776e61626c653a206e6577206f776e657220697320746865207a65726f206160448201526564647265737360d01b6064820152608490fd5b823461019257816003193601126101925760243567ffffffffffffffff8111610a3f5736602382011215610a3f5780600401356106c78161206b565b916106d56040519384611fa9565b818352366024838301011161054b5781849260246020930183860137830101526106fd612055565b9060843563ffffffff811680910361054b5760a4359063ffffffff8216809203610a3b576107296126d8565b6004358552600460205260ff600160408720015460a01c166109ff576001600160a01b038416156109c85760405195860186811067ffffffffffffffff8211176109b45760405282865260018060a01b0384166020870152600160408701526064356060870152608086015260a085015260c43560c08501526004358352600460205260408320845194855167ffffffffffffffff81116109b4576107ce8354611f6f565b601f8111610973575b506020601f82116001146108e557918160c092600494899a7fe5b1c62001d4083b350e3e63ca7ae764d51d61f1ce596d46255a48b398ca2524999a926108da575b50508160011b916000199060031b1c19161784555b6001840160018060a01b0360208301511681549060ff60a01b6040850151151560a01b16916affffffffffffffffffffff60a81b1617179055606081015160028501556003840163ffffffff60808301511681549067ffffffff0000000060a085015160201b169167ffffffffffffffff19161717905501519101556108be60405191604083526040830190611fe1565b6001600160a01b0390931660208201526004359281900390a280f35b015190508a80610818565b8387526020872097875b601f198416811061095b5750827fe5b1c62001d4083b350e3e63ca7ae764d51d61f1ce596d46255a48b398ca25249798996004959360019360c096601f19811610610942575b505050811b01845561082d565b015160001960f88460031b161c191690558a8080610935565b828201518a55600190990198602092830192016108ef565b83875260208720601f830160051c8101602084106109ad575b601f830160051c820181106109a25750506107d7565b88815560010161098c565b508061098c565b634e487b7160e01b86526041600452602486fd5b60405162461bcd60e51b815260206004820152600f60248201526e21b7b9329d103130b2103a37b5b2b760891b6044820152606490fd5b60405162461bcd60e51b8152602060048201526014602482015273436f72653a20636f756e7472792065786973747360601b6044820152606490fd5b8480fd5b5080fd5b82346101925760403660031901126101925760a090610a6061203f565b50602435633b9aca00811115610a97575060039062061a805b60405192818452602084015281604084015260608301526080820152f35b631dcd65001015610aae5760029062055730610a79565b600190620493e0610a79565b823461019257602080600319360112610a3f5760043567ffffffffffffffff80821161054b573660238301121561054b57816004013590808211610a3b57602460603660246060860287010111610f9357610b136125bb565b610b1b612611565b83151580610f88575b15610f435790869386938596865b838110610c77576040516323b872dd60e01b8152336004820152306024820152604481018a90528890889082908c6001600160a01b037f000000000000000000000000000000000000000000000000000000000000000016848360648187855af1918215610c6c57610bb0610c039387958791610c4f575b506123bd565b60405163a9059cbb60e01b81526001600160a01b037f0000000000000000000000000000000000000000000000000000000000000000166004820152602481019190915293849283919082906044820190565b03925af1908115610c4457610c20928492610c27575b5050612409565b6001805580f35b610c3d9250803d10610446576104378183611fa9565b8380610c19565b6040513d85823e3d90fd5b610c669150863d8811610446576104378183611fa9565b89610baa565b6040513d86823e3d90fd5b9091929394978882028301896023198236030112610f3f576040518a810181811087821117610f2c5791889593918b9c959360409c9b9c528682013590818152610cd98d60448501359083019381855260646040850196013586521415612325565b610cee83518015159081610f19575b506121a3565b80518c5260048d528c8c60ff610d1d60019182604085200154908060a092831c169182610f02575b5050612087565b8351825260048352604060018060a01b0392200154166040519c8d80926370a0823160e01b82523360048301525afa8015610ef7578d9b8d91610eb3575b5090610d708493926001979695511115612371565b80518d5260048c5260408d20600290810154633b9aca00811115610e8a57508d610d9e62061a8080976122bf565b9d8351825260048152604082209085518352610e006040842092670de0b6b3a76400008951049063ffffffff938491600390610df38a85610de88180878701541699168099612455565b1692019182546122bf565b9055860154901c16612455565b16928101928354818111600014610e7f57600491610e1d91612318565b915b0154915081811015610e775750905b555190519151926040519384528d8401527fef329f5fb6c9847cf872e344b0b2e169ffa718dc97ca5b0f306e8c3143c4807760403394a401909195985096959693929193610b32565b905090610e2e565b505060048291610e1f565b631dcd65001015610ea4578d610d9e6205573080976122bf565b8d610d9e620493e080976122bf565b8c8197969594939d92503d8311610ef0575b610ecf8183611fa9565b81010312610eec578c9a610d706001965191929394959650610d5b565b8b80fd5b503d610ec5565b6040513d8e823e3d90fd5b8851865260408620850154901c1690503880610d16565b670de0b6b3a76400009150061538610ce8565b634e487b7160e01b8b526041600452888bfd5b8880fd5b60405162461bcd60e51b815260048101879052601860248201527f436f72653a20696e76616c69642062617463682073697a6500000000000000006044820152606490fd5b506005841115610b24565b8680fd5b82346101925760403660031901126101925760043561ffff908181168091036104bb5760243591821680830361054b57610fcf6126d8565b6101f480831115918261103c575b5050156110015763ffff00006002549260101b169163ffffffff1916171760025580f35b60405162461bcd60e51b8152602060048201526013602482015272086dee4ca7440cccacae640e8dede40d0d2ced606b1b6044820152606490fd5b111590508480610fdd565b8234610192578060031936011261019257546040516001600160a01b039091168152602090f35b82346101925780600319360112610192576040517f00000000000000000000000000000000000000000000000000000000000000006001600160a01b03168152602090f35b82346101925780600319360112610192576110cc6126d8565b6110d4612611565b805460ff60a01b1916600160a01b1781556040513381527f62e78cea01bee320cd4e420270b5ea74000d11b0c9f74754ebdbfc544b05a25890602090a180f35b82346101925760603660031901126101925761112e61203f565b611136612055565b903383526020916003835260ff6040852054161561121f576040516323b872dd60e01b81526001600160a01b0392831660048201529116602480830191909152356044820152818180606481010381867f00000000000000000000000000000000000000000000000000000000000000006001600160a01b03165af1908115610c44578391611202575b50156111ca575080f35b6064906040519062461bcd60e51b82526004820152601160248201527010dbdc994e881c1d5b1b0819985a5b1959607a1b6044820152fd5b6112199150823d8411610446576104378183611fa9565b836111c0565b60405162461bcd60e51b815260048101849052601460248201527310dbdc994e881b9bdd08185d5d1a1bdc9a5e995960621b6044820152606490fd5b8234610192578060031936011261019257602061ffff60025416604051908152f35b82346101925780600319360112610192576112966126d8565b80546001600160a01b03198116825581906001600160a01b03167f8be0079c531659141344cd1fd0a4f28419497f9722a3daafe3b4186f6b6457e08280a380f35b8234610192576040366003190112610192576112f161203f565b602435908115158092036104bb576113076126d8565b60018060a01b031682526003602052604082209060ff8019835416911617905580f35b823461019257806003193601126101925760ff6020915460a01c166040519015158152f35b905034610a3f576020366003190112610a3f576101609161136e61203f565b5080604051928184528160208501528160408501528160608501528160808501528160a08501528160c08501528301528061010083015280610120830152610140820152f35b82346101925760203660031901126101925760206113d3600435612470565b604051908152f35b8234610192576060366003190112610192576044356024356004356113fe6125bb565b611406612611565b61141282821415612325565b821515806116f9575b611424906121a3565b80845260206004815260ff600160408720015460a01c16806116e2575b61144a90612087565b8185526004815260018060a01b039060248183600160408a20015416604051928380926370a0823160e01b82523360048301525afa801561167057869088906116b1575b61149a92501015612371565b828652600481526040862060020154633b9aca00811115611692575062061a80915b6040516323b872dd60e01b8152336004820152306024820152604481018490527f0000000000000000000000000000000000000000000000000000000000000000919091169082816064818b865af1801561044d5761152191899161167b57506123bd565b60405163a9059cbb60e01b81527f00000000000000000000000000000000000000000000000000000000000000006001600160a01b0316600482015260248101849052908290829060449082908b905af1801561167057611589918891611653575b50612409565b828652600481526040862084875260408720906115da8763ffffffff926115ca600285610de881670de0b6b3a7640000816003880154169704168096612455565b9055826003850154861c16612455565b169060028101918254818111600014611648576004916115f991612318565b915b015490818110156116405750905b556040519485528401527fef329f5fb6c9847cf872e344b0b2e169ffa718dc97ca5b0f306e8c3143c4807760403394a46001805580f35b905090611609565b5050600488916115fb565b61166a9150833d8511610446576104378183611fa9565b88611583565b6040513d89823e3d90fd5b610c669150843d8611610446576104378183611fa9565b631dcd650010156116a75762055730916114bc565b620493e0916114bc565b50508181813d83116116db575b6116c88183611fa9565b81010312610f93578561149a915161148e565b503d6116be565b50828552604085206001015460a01c60ff16611441565b50670de0b6b3a764000083061561141b565b82346101925780600319360112610192576117246126d8565b805460ff8160a01c161561176a5760ff60a01b191681556040513381527f5db9ee0a495bf2e6ff9c91a7834c1ba4fdd244a5e8aa4e537bd38aeae4b073aa90602090a180f35b60405162461bcd60e51b815260206004820152601460248201527314185d5cd8589b194e881b9bdd081c185d5cd95960621b6044820152606490fd5b82346101925761182f6117d96117bb36612021565b6117c99593959491946125bb565b6117d1612611565b42111561215f565b838552602092600484526117f960ff600160408920015460a01c16612087565b811515806119c6575b61180b906121a3565b848652600484526040862090611821838761250a565b809692509290921015612232565b6040516370a0823160e01b81523060048201526001600160a01b037f0000000000000000000000000000000000000000000000000000000000000000811693918781602481885afa80156119bb5787908b90611986575b611892925010156122cc565b60018201546040516323b872dd60e01b815233600482015230602482015260448101879052918891839160649183918e91165af1801561047557611969575b5060405163a9059cbb60e01b815233600482015260248101869052928690849060449082908c905af1801561044d577f47c2f180f415c943169b11c4bd61c71dbd5f15ed83b496b3a65a47a3a21d63b496610403946103ad9261194c57506003830154670de0b6b3a76400008704911c63ffffffff16612296565b61196290823d8411610446576104378183611fa9565b508a61038f565b61197f90873d8911610446576104378183611fa9565b50886118d1565b50508781813d83116119b4575b61199d8183611fa9565b810103126119b057866118929151611886565b8980fd5b503d611993565b6040513d8c823e3d90fd5b50670de0b6b3a7640000820615611802565b82346101925780600319360112610192576040517f00000000000000000000000000000000000000000000000000000000000000006001600160a01b03168152602090f35b8234610192578080611a2e36611f54565b90611a376126d8565b8083526004602052611a5560ff600160408620015460a01c16612087565b81151580611b24575b611a67906121a3565b82526004602090815260408084206001015490516340c10f1960e01b9281019283523060248201526044808201949094529283526001600160a01b0316918390611ab2606482611fa9565b51925af13d15611b1f573d611ac68161206b565b90611ad46040519283611fa9565b81528260203d92013e5b15611ae65780f35b60405162461bcd60e51b815260206004820152601160248201527010dbdc994e881b5a5b9d0819985a5b1959607a1b6044820152606490fd5b611ade565b50670de0b6b3a7640000820615611a5e565b8234610192578060031936011261019257602061ffff60025460101c16604051908152f35b823461019257611bd9611b706117bb36612021565b838552602060048152611b8f60ff600160408920015460a01c16612087565b81151580611d94575b611ba1906121a3565b848652600481526040862093611bc183611bba88612470565b10156121e6565b611bcb8387612658565b809692509290921115612232565b6040516323b872dd60e01b8152336004820152306024820152604481018590526001600160a01b039083816064818c7f000000000000000000000000000000000000000000000000000000000000000087165af1801561047557611d77575b50600186015416946040516370a0823160e01b815230600482015283816024818a5afa80156104755785908a90611d46575b611c76925010156121e6565b60405163a9059cbb60e01b815233600482015260248101859052958390879060449082908c905af192831561044d577faf6c8baebc55f540953b129965caf1e3f48010ed731c2cea5ed61e71ebc571539661040394611d28575b5050611cff6002611cf5670de0b6b3a7640000870463ffffffff600386015416612296565b92019182546122bf565b905560408051338152602081019490945283019390935260608201929092529081906080820190565b81611d3e92903d10610446576104378183611fa9565b508880611cd0565b50508381813d8311611d70575b611d5d8183611fa9565b81010312610f3f5784611c769151611c6a565b503d611d53565b611d8d90843d8611610446576104378183611fa9565b5088611c38565b50670de0b6b3a7640000820615611b98565b82346101925780600319360112610192576040517f00000000000000000000000000000000000000000000000000000000000000006001600160a01b03168152602090f35b905034610a3f576020806003193601126104bb5760043583526004815260408320906040519384818454611e1e81611f6f565b9384845260019186600182169182600014611eef575050600114611eb4575b5050611e4b92500385611fa9565b600182015491600281015491600382015490600463ffffffff9301549360ff611e7e60405199898b9a8b528a0190611fe1565b9660018060a01b038116848a015260a01c1615156040880152606087015282821660808701521c1660a084015260c08301520390f35b908592508682528282205b858310611ed7575050611e4b93508201013880611e3d565b8054838b018501528994508693909201918101611ebf565b9250935050611e4b94915060ff191682840152151560051b8201013880611e3d565b8234610192576105a960406105c692611f3060ff600161056e36611f54565b611f3b8215156120d3565b611f4f670de0b6b3a7640000830615612113565b61250a565b6040906003190112611f6a576004359060243590565b600080fd5b90600182811c92168015611f9f575b6020831014611f8957565b634e487b7160e01b600052602260045260246000fd5b91607f1691611f7e565b90601f8019910116810190811067ffffffffffffffff821117611fcb57604052565b634e487b7160e01b600052604160045260246000fd5b919082519283825260005b84811061200d575050826000602080949584010152601f8019910116010190565b602081830181015184830182015201611fec565b6080906003190112611f6a5760043590602435906044359060643590565b600435906001600160a01b0382168203611f6a57565b604435906001600160a01b0382168203611f6a57565b67ffffffffffffffff8111611fcb57601f01601f191660200190565b1561208e57565b60405162461bcd60e51b815260206004820152601760248201527f436f72653a20636f756e747279206e6f7420666f756e640000000000000000006044820152606490fd5b156120da57565b60405162461bcd60e51b8152602060048201526011602482015270436f72653a20616d6f756e74207a65726f60781b6044820152606490fd5b1561211a57565b60405162461bcd60e51b815260206004820152601760248201527f436f72653a2077686f6c6520746f6b656e73206f6e6c790000000000000000006044820152606490fd5b1561216657565b60405162461bcd60e51b815260206004820152601560248201527410dbdc994e88191958591b1a5b99481c185cdcd959605a1b6044820152606490fd5b156121aa57565b60405162461bcd60e51b815260206004820152601460248201527310dbdc994e881a5b9d985b1a5908185b5bdd5b9d60621b6044820152606490fd5b156121ed57565b60405162461bcd60e51b815260206004820152601960248201527f436f72653a20696e73756666696369656e7420737570706c79000000000000006044820152606490fd5b1561223957565b60405162461bcd60e51b815260206004820152601760248201527f436f72653a20736c6970706167652065786365656465640000000000000000006044820152606490fd5b90816020910312611f6a57518015158103611f6a5790565b818102929181159184041417156122a957565b634e487b7160e01b600052601160045260246000fd5b919082018092116122a957565b156122d357565b60405162461bcd60e51b815260206004820152601760248201527f436f72653a20696e73756666696369656e7420555344430000000000000000006044820152606490fd5b919082039182116122a957565b1561232c57565b60405162461bcd60e51b815260206004820152601860248201527f436f72653a2063616e6e6f742061747461636b2073656c6600000000000000006044820152606490fd5b1561237857565b60405162461bcd60e51b815260206004820152601f60248201527f436f72653a20696e73756666696369656e7420666c61672062616c616e6365006044820152606490fd5b156123c457565b60405162461bcd60e51b815260206004820152601960248201527f436f72653a20666565207472616e73666572206661696c6564000000000000006044820152606490fd5b1561241057565b60405162461bcd60e51b815260206004820152601d60248201527f436f72653a20726576656e7565207472616e73666572206661696c65640000006044820152606490fd5b91909163ffffffff808094169116029182169182036122a957565b60009081526004602052600160408220015460ff8160a01c1615612506576040516370a0823160e01b815230600482015290602090829060249082906001600160a01b03165afa9182156124fa5780926124c957505090565b9091506020823d6020116124f2575b816124e560209383611fa9565b8101031261019257505190565b3d91506124d8565b604051903d90823e3d90fd5b5090565b9060009182526004602052670de0b6b3a76400006040832091046125498163ffffffff600361253d600287015484612296565b95015460201c16612296565b60001982019182116125a757606493929161256391612296565b60011c90818111156125a0576125799250612318565b049061271061259161ffff60025460101c1684612296565b049061259d8284612318565b90565b5050612579565b634e487b7160e01b84526011600452602484fd5b6002600154146125cc576002600155565b60405162461bcd60e51b815260206004820152601f60248201527f5265656e7472616e637947756172643a207265656e7472616e742063616c6c006044820152606490fd5b60ff60005460a01c1661262057565b60405162461bcd60e51b815260206004820152601060248201526f14185d5cd8589b194e881c185d5cd95960821b6044820152606490fd5b6000526004602052670de0b6b3a7640000604060002091046126928163ffffffff6003612689600287015484612296565b95015416612296565b9160001982019182116122a9576126ae6126b792606494612296565b60011c906122bf565b04906127106126cc61ffff6002541684612296565b049061259d82846122bf565b6000546001600160a01b031633036126ec57565b606460405162461bcd60e51b815260206004820152602060248201527f4f776e61626c653a2063616c6c6572206973206e6f7420746865206f776e65726044820152fdfea2646970667358221220ad1ab3d8bf4f7a82409e4ed0814dd10c506d6f3dc0b3de4e0ea0e2acce4c9fb464736f6c63430008180033","opcodes":"PUSH1 0xE0 CALLVALUE PUSH3 0x1D4 JUMPI PUSH1 0x1F PUSH3 0x29B2 CODESIZE DUP2 SWAP1 SUB SWAP2 DUP3 ADD PUSH1 0x1F NOT AND DUP4 ADD SWAP3 SWAP2 SWAP1 PUSH1 0x1 PUSH1 0x1 PUSH1 0x40 SHL SUB DUP5 GT DUP4 DUP6 LT OR PUSH3 0x1D9 JUMPI DUP2 PUSH1 0x60 SWAP3 DUP5 SWAP3 PUSH1 0x40 SWAP7 DUP8 MSTORE DUP4 CODECOPY DUP2 ADD SUB SLT PUSH3 0x1D4 JUMPI PUSH3 0x51 DUP2 PUSH3 0x1EF JUMP JUMPDEST SWAP1 PUSH3 0x6D DUP4 PUSH3 0x65 PUSH1 0x20 DUP5 ADD PUSH3 0x1EF JUMP JUMPDEST SWAP3 ADD PUSH3 0x1EF JUMP JUMPDEST SWAP2 PUSH3 0x79 CALLER PUSH3 0x204 JUMP JUMPDEST PUSH1 0x0 DUP1 SLOAD PUSH1 0xFF PUSH1 0xA0 SHL NOT AND SWAP1 SSTORE PUSH1 0x1 DUP1 SSTORE PUSH1 0x2 DUP1 SLOAD PUSH4 0xFFFFFFFF NOT AND SWAP1 SSTORE PUSH1 0x1 PUSH1 0x1 PUSH1 0xA0 SHL SUB DUP2 DUP2 AND ISZERO PUSH3 0x19F JUMPI DUP1 DUP4 AND ISZERO PUSH3 0x166 JUMPI DUP4 AND ISZERO PUSH3 0x12E JUMPI PUSH3 0xC4 CALLER PUSH3 0x204 JUMP JUMPDEST PUSH1 0x80 MSTORE PUSH1 0xA0 MSTORE PUSH1 0xC0 MSTORE MLOAD PUSH2 0x2766 SWAP1 DUP2 PUSH3 0x24C DUP3 CODECOPY PUSH1 0x80 MLOAD DUP2 DUP2 DUP2 PUSH2 0x24C ADD MSTORE DUP2 DUP2 PUSH2 0xB6A ADD MSTORE DUP2 DUP2 PUSH2 0x1084 ADD MSTORE DUP2 DUP2 PUSH2 0x1188 ADD MSTORE DUP2 DUP2 PUSH2 0x14DE ADD MSTORE DUP2 DUP2 PUSH2 0x184C ADD MSTORE PUSH2 0x1C0A ADD MSTORE PUSH1 0xA0 MLOAD DUP2 PUSH2 0x19EE ADD MSTORE PUSH1 0xC0 MLOAD DUP2 DUP2 DUP2 PUSH2 0xBC7 ADD MSTORE DUP2 DUP2 PUSH2 0x1530 ADD MSTORE PUSH2 0x1DBC ADD MSTORE RETURN JUMPDEST DUP4 MLOAD PUSH3 0x461BCD PUSH1 0xE5 SHL DUP2 MSTORE PUSH1 0x20 PUSH1 0x4 DUP3 ADD MSTORE PUSH1 0x11 PUSH1 0x24 DUP3 ADD MSTORE PUSH17 0x436F72653A2062616420726576656E7565 PUSH1 0x78 SHL PUSH1 0x44 DUP3 ADD MSTORE PUSH1 0x64 SWAP1 REVERT JUMPDEST DUP5 MLOAD PUSH3 0x461BCD PUSH1 0xE5 SHL DUP2 MSTORE PUSH1 0x20 PUSH1 0x4 DUP3 ADD MSTORE PUSH1 0x12 PUSH1 0x24 DUP3 ADD MSTORE PUSH18 0x436F72653A20626164207472656173757279 PUSH1 0x70 SHL PUSH1 0x44 DUP3 ADD MSTORE PUSH1 0x64 SWAP1 REVERT JUMPDEST DUP5 MLOAD PUSH3 0x461BCD PUSH1 0xE5 SHL DUP2 MSTORE PUSH1 0x20 PUSH1 0x4 DUP3 ADD MSTORE PUSH1 0xE PUSH1 0x24 DUP3 ADD MSTORE PUSH14 0x436F72653A206261642075736463 PUSH1 0x90 SHL PUSH1 0x44 DUP3 ADD MSTORE PUSH1 0x64 SWAP1 REVERT JUMPDEST PUSH1 0x0 DUP1 REVERT JUMPDEST PUSH4 0x4E487B71 PUSH1 0xE0 SHL PUSH1 0x0 MSTORE PUSH1 0x41 PUSH1 0x4 MSTORE PUSH1 0x24 PUSH1 0x0 REVERT JUMPDEST MLOAD SWAP1 PUSH1 0x1 PUSH1 0x1 PUSH1 0xA0 SHL SUB DUP3 AND DUP3 SUB PUSH3 0x1D4 JUMPI JUMP JUMPDEST PUSH1 0x0 DUP1 SLOAD PUSH1 0x1 PUSH1 0x1 PUSH1 0xA0 SHL SUB SWAP3 DUP4 AND PUSH1 0x1 PUSH1 0x1 PUSH1 0xA0 SHL SUB NOT DUP3 AND DUP2 OR DUP4 SSTORE SWAP3 AND SWAP1 PUSH32 0x8BE0079C531659141344CD1FD0A4F28419497F9722A3DAAFE3B4186F6B6457E0 SWAP1 DUP1 LOG3 JUMP INVALID PUSH1 0x80 PUSH1 0x40 MSTORE PUSH1 0x4 CALLDATASIZE LT ISZERO PUSH2 0x12 JUMPI PUSH1 0x0 DUP1 REVERT JUMPDEST PUSH1 0x0 PUSH1 0xE0 DUP2 CALLDATALOAD DUP2 SHR SWAP1 DUP2 PUSH4 0x277DD67 EQ PUSH2 0x1F11 JUMPI DUP2 PUSH4 0x8E9DAA5 EQ PUSH2 0x1DEB JUMPI DUP2 PUSH4 0xE3A7DC7 EQ PUSH2 0x1DA6 JUMPI DUP2 PUSH4 0x1281311D EQ PUSH2 0x1B5B JUMPI DUP2 PUSH4 0x23CBE1F3 EQ PUSH2 0x1B36 JUMPI DUP2 PUSH4 0x27CD2705 EQ PUSH2 0x1A1D JUMPI DUP2 PUSH4 0x2D2C5565 EQ PUSH2 0x19D8 JUMPI DUP2 PUSH4 0x3620875E EQ PUSH2 0x17A6 JUMPI DUP2 PUSH4 0x3F4BA83A EQ PUSH2 0x170B JUMPI DUP2 PUSH4 0x407F85F8 EQ PUSH2 0x13DB JUMPI DUP2 PUSH4 0x47FDA41A EQ PUSH2 0x13B4 JUMPI DUP2 PUSH4 0x5A807E65 EQ PUSH2 0x134F JUMPI DUP2 PUSH4 0x5C975ABB EQ PUSH2 0x132A JUMPI DUP2 PUSH4 0x711BF9B2 EQ PUSH2 0x12D7 JUMPI DUP2 PUSH4 0x715018A6 EQ PUSH2 0x127D JUMPI DUP2 PUSH4 0x77D2300E EQ PUSH2 0x125B JUMPI DUP2 PUSH4 0x7C4E34C6 EQ PUSH2 0x1114 JUMPI DUP2 PUSH4 0x8456CB59 EQ PUSH2 0x10B3 JUMPI DUP2 PUSH4 0x89A30271 EQ PUSH2 0x106E JUMPI DUP2 PUSH4 0x8DA5CB5B EQ PUSH2 0x1047 JUMPI DUP2 PUSH4 0x9EF833D4 EQ PUSH2 0xF97 JUMPI DUP2 PUSH4 0xC2B73154 EQ PUSH2 0xABA JUMPI DUP2 PUSH4 0xCEC18A62 EQ PUSH2 0xA43 JUMPI DUP2 PUSH4 0xD0EE7C0C EQ PUSH2 0x68B JUMPI POP DUP1 PUSH4 0xF2FDE38B EQ PUSH2 0x5CA JUMPI DUP1 PUSH4 0xF998A865 EQ PUSH2 0x54F JUMPI DUP1 PUSH4 0xFD507D30 EQ PUSH2 0x195 JUMPI PUSH4 0xFE9FBB80 EQ PUSH2 0x154 JUMPI PUSH1 0x0 DUP1 REVERT JUMPDEST CALLVALUE PUSH2 0x192 JUMPI PUSH1 0x20 CALLDATASIZE PUSH1 0x3 NOT ADD SLT PUSH2 0x192 JUMPI PUSH1 0x20 SWAP1 PUSH1 0xFF SWAP1 PUSH1 0x40 SWAP1 PUSH1 0x1 PUSH1 0x1 PUSH1 0xA0 SHL SUB PUSH2 0x17E PUSH2 0x203F JUMP JUMPDEST AND DUP2 MSTORE PUSH1 0x3 DUP5 MSTORE KECCAK256 SLOAD AND PUSH1 0x40 MLOAD SWAP1 ISZERO ISZERO DUP2 MSTORE RETURN JUMPDEST DUP1 REVERT JUMPDEST POP CALLVALUE PUSH2 0x192 JUMPI PUSH2 0x100 CALLDATASIZE PUSH1 0x3 NOT ADD SLT PUSH2 0x192 JUMPI PUSH1 0x4 CALLDATALOAD PUSH1 0x24 CALLDATALOAD PUSH1 0xA4 CALLDATALOAD PUSH1 0xFF DUP2 AND DUP1 SWAP2 SUB PUSH2 0x54B JUMPI PUSH2 0x1C4 PUSH2 0x25BB JUMP JUMPDEST PUSH2 0x1CC PUSH2 0x2611 JUMP JUMPDEST PUSH1 0x64 CALLDATALOAD TIMESTAMP GT PUSH2 0x506 JUMPI DUP3 DUP5 MSTORE PUSH1 0x20 SWAP2 PUSH1 0x4 DUP4 MSTORE PUSH2 0x1F5 PUSH1 0xFF PUSH1 0x1 PUSH1 0x40 DUP9 KECCAK256 ADD SLOAD PUSH1 0xA0 SHR AND PUSH2 0x2087 JUMP JUMPDEST DUP1 ISZERO ISZERO DUP1 PUSH2 0x4F4 JUMPI JUMPDEST PUSH2 0x207 SWAP1 PUSH2 0x21A3 JUMP JUMPDEST DUP4 DUP6 MSTORE PUSH1 0x4 DUP4 MSTORE PUSH1 0x40 DUP6 KECCAK256 SWAP2 PUSH2 0x21D DUP3 DUP7 PUSH2 0x250A JUMP JUMPDEST SWAP5 SWAP1 SWAP2 POP PUSH2 0x22F PUSH1 0x44 CALLDATALOAD DUP7 LT ISZERO PUSH2 0x2232 JUMP JUMPDEST PUSH1 0x40 MLOAD PUSH4 0x70A08231 PUSH1 0xE0 SHL DUP2 MSTORE ADDRESS PUSH1 0x4 DUP3 ADD MSTORE PUSH1 0x1 PUSH1 0x1 PUSH1 0xA0 SHL SUB PUSH32 0x0 DUP2 AND SWAP5 SWAP1 SWAP2 DUP9 DUP2 PUSH1 0x24 DUP2 DUP10 GAS STATICCALL DUP1 ISZERO PUSH2 0x4B0 JUMPI DUP9 SWAP1 DUP13 SWAP1 PUSH2 0x4BF JUMPI JUMPDEST PUSH2 0x293 SWAP3 POP LT ISZERO PUSH2 0x22CC JUMP JUMPDEST DUP10 PUSH1 0x1 DUP5 ADD SWAP2 DUP4 DUP4 SLOAD AND DUP1 EXTCODESIZE ISZERO PUSH2 0x4BB JUMPI PUSH1 0xE4 DUP4 SWAP3 PUSH1 0x40 MLOAD SWAP5 DUP6 SWAP4 DUP5 SWAP3 PUSH4 0xD505ACCF PUSH1 0xE0 SHL DUP5 MSTORE CALLER PUSH1 0x4 DUP6 ADD MSTORE ADDRESS PUSH1 0x24 DUP6 ADD MSTORE DUP14 PUSH1 0x44 DUP6 ADD MSTORE PUSH1 0x84 CALLDATALOAD PUSH1 0x64 DUP6 ADD MSTORE PUSH1 0x84 DUP5 ADD MSTORE PUSH1 0xC4 CALLDATALOAD PUSH1 0xA4 DUP5 ADD MSTORE DUP4 CALLDATALOAD PUSH1 0xC4 DUP5 ADD MSTORE GAS CALL DUP1 ISZERO PUSH2 0x4B0 JUMPI PUSH2 0x480 JUMPI JUMPDEST POP SLOAD PUSH1 0x40 MLOAD PUSH4 0x23B872DD PUSH1 0xE0 SHL DUP2 MSTORE CALLER PUSH1 0x4 DUP3 ADD MSTORE ADDRESS PUSH1 0x24 DUP3 ADD MSTORE PUSH1 0x44 DUP2 ADD DUP8 SWAP1 MSTORE SWAP2 DUP9 SWAP2 DUP4 SWAP2 PUSH1 0x64 SWAP2 DUP4 SWAP2 DUP15 SWAP2 AND GAS CALL DUP1 ISZERO PUSH2 0x475 JUMPI PUSH2 0x458 JUMPI JUMPDEST POP PUSH1 0x40 MLOAD PUSH4 0xA9059CBB PUSH1 0xE0 SHL DUP2 MSTORE CALLER PUSH1 0x4 DUP3 ADD MSTORE PUSH1 0x24 DUP2 ADD DUP7 SWAP1 MSTORE SWAP3 DUP7 SWAP1 DUP5 SWAP1 PUSH1 0x44 SWAP1 DUP3 SWAP1 DUP13 SWAP1 GAS CALL DUP1 ISZERO PUSH2 0x44D JUMPI PUSH32 0x47C2F180F415C943169B11C4BD61C71DBD5F15ED83B496B3A65A47A3A21D63B4 SWAP7 PUSH2 0x403 SWAP5 PUSH2 0x3AD SWAP3 PUSH2 0x420 JUMPI JUMPDEST POP PUSH1 0x3 DUP4 ADD SLOAD PUSH8 0xDE0B6B3A7640000 DUP8 DIV SWAP2 SHR PUSH4 0xFFFFFFFF AND PUSH2 0x2296 JUMP JUMPDEST SWAP1 PUSH1 0x2 DUP2 ADD SWAP2 DUP3 SLOAD DUP2 DUP2 GT PUSH1 0x0 EQ PUSH2 0x415 JUMPI PUSH1 0x4 SWAP2 PUSH2 0x3CB SWAP2 PUSH2 0x2318 JUMP JUMPDEST SWAP2 JUMPDEST ADD SLOAD SWAP1 DUP2 DUP2 LT ISZERO PUSH2 0x40D JUMPI POP SWAP1 JUMPDEST SSTORE PUSH1 0x40 DUP1 MLOAD CALLER DUP2 MSTORE PUSH1 0x20 DUP2 ADD SWAP5 SWAP1 SWAP5 MSTORE DUP4 ADD SWAP4 SWAP1 SWAP4 MSTORE PUSH1 0x60 DUP3 ADD SWAP3 SWAP1 SWAP3 MSTORE SWAP1 DUP2 SWAP1 PUSH1 0x80 DUP3 ADD SWAP1 JUMP JUMPDEST SUB SWAP1 LOG2 PUSH1 0x1 DUP1 SSTORE DUP1 RETURN JUMPDEST SWAP1 POP SWAP1 PUSH2 0x3DB JUMP JUMPDEST POP POP PUSH1 0x4 DUP10 SWAP2 PUSH2 0x3CD JUMP JUMPDEST PUSH2 0x43F SWAP1 DUP3 RETURNDATASIZE DUP5 GT PUSH2 0x446 JUMPI JUMPDEST PUSH2 0x437 DUP2 DUP4 PUSH2 0x1FA9 JUMP JUMPDEST DUP2 ADD SWAP1 PUSH2 0x227E JUMP JUMPDEST POP CODESIZE PUSH2 0x38F JUMP JUMPDEST POP RETURNDATASIZE PUSH2 0x42D JUMP JUMPDEST PUSH1 0x40 MLOAD RETURNDATASIZE DUP11 DUP3 RETURNDATACOPY RETURNDATASIZE SWAP1 REVERT JUMPDEST PUSH2 0x46E SWAP1 DUP8 RETURNDATASIZE DUP10 GT PUSH2 0x446 JUMPI PUSH2 0x437 DUP2 DUP4 PUSH2 0x1FA9 JUMP JUMPDEST POP CODESIZE PUSH2 0x331 JUMP JUMPDEST PUSH1 0x40 MLOAD RETURNDATASIZE DUP12 DUP3 RETURNDATACOPY RETURNDATASIZE SWAP1 REVERT JUMPDEST PUSH8 0xFFFFFFFFFFFFFFFF DUP2 SWAP12 SWAP3 SWAP12 GT PUSH2 0x49C JUMPI PUSH1 0x40 MSTORE SWAP9 CODESIZE PUSH2 0x2F5 JUMP JUMPDEST PUSH4 0x4E487B71 PUSH1 0xE0 SHL DUP3 MSTORE PUSH1 0x41 PUSH1 0x4 MSTORE PUSH1 0x24 DUP3 REVERT JUMPDEST PUSH1 0x40 MLOAD RETURNDATASIZE DUP14 DUP3 RETURNDATACOPY RETURNDATASIZE SWAP1 REVERT JUMPDEST DUP3 DUP1 REVERT JUMPDEST POP POP DUP9 DUP2 DUP2 RETURNDATASIZE DUP4 GT PUSH2 0x4ED JUMPI JUMPDEST PUSH2 0x4D6 DUP2 DUP4 PUSH2 0x1FA9 JUMP JUMPDEST DUP2 ADD SUB SLT PUSH2 0x4E9 JUMPI DUP8 PUSH2 0x293 SWAP2 MLOAD PUSH2 0x287 JUMP JUMPDEST DUP11 DUP1 REVERT JUMPDEST POP RETURNDATASIZE PUSH2 0x4CC JUMP JUMPDEST POP PUSH8 0xDE0B6B3A7640000 DUP2 MOD ISZERO PUSH2 0x1FE JUMP JUMPDEST PUSH1 0x40 MLOAD PUSH3 0x461BCD PUSH1 0xE5 SHL DUP2 MSTORE PUSH1 0x20 PUSH1 0x4 DUP3 ADD MSTORE PUSH1 0x1B PUSH1 0x24 DUP3 ADD MSTORE PUSH32 0x436F72653A20747261646520646561646C696E65207061737365640000000000 PUSH1 0x44 DUP3 ADD MSTORE PUSH1 0x64 SWAP1 REVERT JUMPDEST DUP4 DUP1 REVERT JUMPDEST POP CALLVALUE PUSH2 0x192 JUMPI PUSH2 0x5A9 PUSH1 0x40 PUSH2 0x5C6 SWAP3 PUSH2 0x585 PUSH1 0xFF PUSH1 0x1 PUSH2 0x56E CALLDATASIZE PUSH2 0x1F54 JUMP JUMPDEST SWAP6 SWAP1 SWAP5 DUP6 DUP2 MSTORE PUSH1 0x4 PUSH1 0x20 MSTORE KECCAK256 ADD SLOAD PUSH1 0xA0 SHR AND PUSH2 0x2087 JUMP JUMPDEST PUSH2 0x590 DUP3 ISZERO ISZERO PUSH2 0x20D3 JUMP JUMPDEST PUSH2 0x5A4 PUSH8 0xDE0B6B3A7640000 DUP4 MOD ISZERO PUSH2 0x2113 JUMP JUMPDEST PUSH2 0x2658 JUMP JUMPDEST PUSH1 0x40 DUP1 MLOAD SWAP4 DUP5 MSTORE PUSH1 0x20 DUP5 ADD SWAP3 SWAP1 SWAP3 MSTORE SWAP1 DUP3 ADD MSTORE SWAP1 DUP2 SWAP1 PUSH1 0x60 DUP3 ADD SWAP1 JUMP JUMPDEST SUB SWAP1 RETURN JUMPDEST POP CALLVALUE PUSH2 0x192 JUMPI PUSH1 0x20 CALLDATASIZE PUSH1 0x3 NOT ADD SLT PUSH2 0x192 JUMPI PUSH2 0x5E4 PUSH2 0x203F JUMP JUMPDEST PUSH2 0x5EC PUSH2 0x26D8 JUMP JUMPDEST PUSH1 0x1 PUSH1 0x1 PUSH1 0xA0 SHL SUB SWAP1 DUP2 AND SWAP1 DUP2 ISZERO PUSH2 0x637 JUMPI DUP3 SLOAD PUSH1 0x1 PUSH1 0x1 PUSH1 0xA0 SHL SUB NOT DUP2 AND DUP4 OR DUP5 SSTORE AND PUSH32 0x8BE0079C531659141344CD1FD0A4F28419497F9722A3DAAFE3B4186F6B6457E0 DUP4 DUP1 LOG3 DUP1 RETURN JUMPDEST PUSH1 0x40 MLOAD PUSH3 0x461BCD PUSH1 0xE5 SHL DUP2 MSTORE PUSH1 0x20 PUSH1 0x4 DUP3 ADD MSTORE PUSH1 0x26 PUSH1 0x24 DUP3 ADD MSTORE PUSH32 0x4F776E61626C653A206E6577206F776E657220697320746865207A65726F2061 PUSH1 0x44 DUP3 ADD MSTORE PUSH6 0x646472657373 PUSH1 0xD0 SHL PUSH1 0x64 DUP3 ADD MSTORE PUSH1 0x84 SWAP1 REVERT JUMPDEST DUP3 CALLVALUE PUSH2 0x192 JUMPI DUP2 PUSH1 0x3 NOT CALLDATASIZE ADD SLT PUSH2 0x192 JUMPI PUSH1 0x24 CALLDATALOAD PUSH8 0xFFFFFFFFFFFFFFFF DUP2 GT PUSH2 0xA3F JUMPI CALLDATASIZE PUSH1 0x23 DUP3 ADD SLT ISZERO PUSH2 0xA3F JUMPI DUP1 PUSH1 0x4 ADD CALLDATALOAD PUSH2 0x6C7 DUP2 PUSH2 0x206B JUMP JUMPDEST SWAP2 PUSH2 0x6D5 PUSH1 0x40 MLOAD SWAP4 DUP5 PUSH2 0x1FA9 JUMP JUMPDEST DUP2 DUP4 MSTORE CALLDATASIZE PUSH1 0x24 DUP4 DUP4 ADD ADD GT PUSH2 0x54B JUMPI DUP2 DUP5 SWAP3 PUSH1 0x24 PUSH1 0x20 SWAP4 ADD DUP4 DUP7 ADD CALLDATACOPY DUP4 ADD ADD MSTORE PUSH2 0x6FD PUSH2 0x2055 JUMP JUMPDEST SWAP1 PUSH1 0x84 CALLDATALOAD PUSH4 0xFFFFFFFF DUP2 AND DUP1 SWAP2 SUB PUSH2 0x54B JUMPI PUSH1 0xA4 CALLDATALOAD SWAP1 PUSH4 0xFFFFFFFF DUP3 AND DUP1 SWAP3 SUB PUSH2 0xA3B JUMPI PUSH2 0x729 PUSH2 0x26D8 JUMP JUMPDEST PUSH1 0x4 CALLDATALOAD DUP6 MSTORE PUSH1 0x4 PUSH1 0x20 MSTORE PUSH1 0xFF PUSH1 0x1 PUSH1 0x40 DUP8 KECCAK256 ADD SLOAD PUSH1 0xA0 SHR AND PUSH2 0x9FF JUMPI PUSH1 0x1 PUSH1 0x1 PUSH1 0xA0 SHL SUB DUP5 AND ISZERO PUSH2 0x9C8 JUMPI PUSH1 0x40 MLOAD SWAP6 DUP7 ADD DUP7 DUP2 LT PUSH8 0xFFFFFFFFFFFFFFFF DUP3 GT OR PUSH2 0x9B4 JUMPI PUSH1 0x40 MSTORE DUP3 DUP7 MSTORE PUSH1 0x1 DUP1 PUSH1 0xA0 SHL SUB DUP5 AND PUSH1 0x20 DUP8 ADD MSTORE PUSH1 0x1 PUSH1 0x40 DUP8 ADD MSTORE PUSH1 0x64 CALLDATALOAD PUSH1 0x60 DUP8 ADD MSTORE PUSH1 0x80 DUP7 ADD MSTORE PUSH1 0xA0 DUP6 ADD MSTORE PUSH1 0xC4 CALLDATALOAD PUSH1 0xC0 DUP6 ADD MSTORE PUSH1 0x4 CALLDATALOAD DUP4 MSTORE PUSH1 0x4 PUSH1 0x20 MSTORE PUSH1 0x40 DUP4 KECCAK256 DUP5 MLOAD SWAP5 DUP6 MLOAD PUSH8 0xFFFFFFFFFFFFFFFF DUP2 GT PUSH2 0x9B4 JUMPI PUSH2 0x7CE DUP4 SLOAD PUSH2 0x1F6F JUMP JUMPDEST PUSH1 0x1F DUP2 GT PUSH2 0x973 JUMPI JUMPDEST POP PUSH1 0x20 PUSH1 0x1F DUP3 GT PUSH1 0x1 EQ PUSH2 0x8E5 JUMPI SWAP2 DUP2 PUSH1 0xC0 SWAP3 PUSH1 0x4 SWAP5 DUP10 SWAP11 PUSH32 0xE5B1C62001D4083B350E3E63CA7AE764D51D61F1CE596D46255A48B398CA2524 SWAP10 SWAP11 SWAP3 PUSH2 0x8DA JUMPI JUMPDEST POP POP DUP2 PUSH1 0x1 SHL SWAP2 PUSH1 0x0 NOT SWAP1 PUSH1 0x3 SHL SHR NOT AND OR DUP5 SSTORE JUMPDEST PUSH1 0x1 DUP5 ADD PUSH1 0x1 DUP1 PUSH1 0xA0 SHL SUB PUSH1 0x20 DUP4 ADD MLOAD AND DUP2 SLOAD SWAP1 PUSH1 0xFF PUSH1 0xA0 SHL PUSH1 0x40 DUP6 ADD MLOAD ISZERO ISZERO PUSH1 0xA0 SHL AND SWAP2 PUSH11 0xFFFFFFFFFFFFFFFFFFFFFF PUSH1 0xA8 SHL AND OR OR SWAP1 SSTORE PUSH1 0x60 DUP2 ADD MLOAD PUSH1 0x2 DUP6 ADD SSTORE PUSH1 0x3 DUP5 ADD PUSH4 0xFFFFFFFF PUSH1 0x80 DUP4 ADD MLOAD AND DUP2 SLOAD SWAP1 PUSH8 0xFFFFFFFF00000000 PUSH1 0xA0 DUP6 ADD MLOAD PUSH1 0x20 SHL AND SWAP2 PUSH8 0xFFFFFFFFFFFFFFFF NOT AND OR OR SWAP1 SSTORE ADD MLOAD SWAP2 ADD SSTORE PUSH2 0x8BE PUSH1 0x40 MLOAD SWAP2 PUSH1 0x40 DUP4 MSTORE PUSH1 0x40 DUP4 ADD SWAP1 PUSH2 0x1FE1 JUMP JUMPDEST PUSH1 0x1 PUSH1 0x1 PUSH1 0xA0 SHL SUB SWAP1 SWAP4 AND PUSH1 0x20 DUP3 ADD MSTORE PUSH1 0x4 CALLDATALOAD SWAP3 DUP2 SWAP1 SUB SWAP1 LOG2 DUP1 RETURN JUMPDEST ADD MLOAD SWAP1 POP DUP11 DUP1 PUSH2 0x818 JUMP JUMPDEST DUP4 DUP8 MSTORE PUSH1 0x20 DUP8 KECCAK256 SWAP8 DUP8 JUMPDEST PUSH1 0x1F NOT DUP5 AND DUP2 LT PUSH2 0x95B JUMPI POP DUP3 PUSH32 0xE5B1C62001D4083B350E3E63CA7AE764D51D61F1CE596D46255A48B398CA2524 SWAP8 SWAP9 SWAP10 PUSH1 0x4 SWAP6 SWAP4 PUSH1 0x1 SWAP4 PUSH1 0xC0 SWAP7 PUSH1 0x1F NOT DUP2 AND LT PUSH2 0x942 JUMPI JUMPDEST POP POP POP DUP2 SHL ADD DUP5 SSTORE PUSH2 0x82D JUMP JUMPDEST ADD MLOAD PUSH1 0x0 NOT PUSH1 0xF8 DUP5 PUSH1 0x3 SHL AND SHR NOT AND SWAP1 SSTORE DUP11 DUP1 DUP1 PUSH2 0x935 JUMP JUMPDEST DUP3 DUP3 ADD MLOAD DUP11 SSTORE PUSH1 0x1 SWAP1 SWAP10 ADD SWAP9 PUSH1 0x20 SWAP3 DUP4 ADD SWAP3 ADD PUSH2 0x8EF JUMP JUMPDEST DUP4 DUP8 MSTORE PUSH1 0x20 DUP8 KECCAK256 PUSH1 0x1F DUP4 ADD PUSH1 0x5 SHR DUP2 ADD PUSH1 0x20 DUP5 LT PUSH2 0x9AD JUMPI JUMPDEST PUSH1 0x1F DUP4 ADD PUSH1 0x5 SHR DUP3 ADD DUP2 LT PUSH2 0x9A2 JUMPI POP POP PUSH2 0x7D7 JUMP JUMPDEST DUP9 DUP2 SSTORE PUSH1 0x1 ADD PUSH2 0x98C JUMP JUMPDEST POP DUP1 PUSH2 0x98C JUMP JUMPDEST PUSH4 0x4E487B71 PUSH1 0xE0 SHL DUP7 MSTORE PUSH1 0x41 PUSH1 0x4 MSTORE PUSH1 0x24 DUP7 REVERT JUMPDEST PUSH1 0x40 MLOAD PUSH3 0x461BCD PUSH1 0xE5 SHL DUP2 MSTORE PUSH1 0x20 PUSH1 0x4 DUP3 ADD MSTORE PUSH1 0xF PUSH1 0x24 DUP3 ADD MSTORE PUSH15 0x21B7B9329D103130B2103A37B5B2B7 PUSH1 0x89 SHL PUSH1 0x44 DUP3 ADD MSTORE PUSH1 0x64 SWAP1 REVERT JUMPDEST PUSH1 0x40 MLOAD PUSH3 0x461BCD PUSH1 0xE5 SHL DUP2 MSTORE PUSH1 0x20 PUSH1 0x4 DUP3 ADD MSTORE PUSH1 0x14 PUSH1 0x24 DUP3 ADD MSTORE PUSH20 0x436F72653A20636F756E74727920657869737473 PUSH1 0x60 SHL PUSH1 0x44 DUP3 ADD MSTORE PUSH1 0x64 SWAP1 REVERT JUMPDEST DUP5 DUP1 REVERT JUMPDEST POP DUP1 REVERT JUMPDEST DUP3 CALLVALUE PUSH2 0x192 JUMPI PUSH1 0x40 CALLDATASIZE PUSH1 0x3 NOT ADD SLT PUSH2 0x192 JUMPI PUSH1 0xA0 SWAP1 PUSH2 0xA60 PUSH2 0x203F JUMP JUMPDEST POP PUSH1 0x24 CALLDATALOAD PUSH4 0x3B9ACA00 DUP2 GT ISZERO PUSH2 0xA97 JUMPI POP PUSH1 0x3 SWAP1 PUSH3 0x61A80 JUMPDEST PUSH1 0x40 MLOAD SWAP3 DUP2 DUP5 MSTORE PUSH1 0x20 DUP5 ADD MSTORE DUP2 PUSH1 0x40 DUP5 ADD MSTORE PUSH1 0x60 DUP4 ADD MSTORE PUSH1 0x80 DUP3 ADD MSTORE RETURN JUMPDEST PUSH4 0x1DCD6500 LT ISZERO PUSH2 0xAAE JUMPI PUSH1 0x2 SWAP1 PUSH3 0x55730 PUSH2 0xA79 JUMP JUMPDEST PUSH1 0x1 SWAP1 PUSH3 0x493E0 PUSH2 0xA79 JUMP JUMPDEST DUP3 CALLVALUE PUSH2 0x192 JUMPI PUSH1 0x20 DUP1 PUSH1 0x3 NOT CALLDATASIZE ADD SLT PUSH2 0xA3F JUMPI PUSH1 0x4 CALLDATALOAD PUSH8 0xFFFFFFFFFFFFFFFF DUP1 DUP3 GT PUSH2 0x54B JUMPI CALLDATASIZE PUSH1 0x23 DUP4 ADD SLT ISZERO PUSH2 0x54B JUMPI DUP2 PUSH1 0x4 ADD CALLDATALOAD SWAP1 DUP1 DUP3 GT PUSH2 0xA3B JUMPI PUSH1 0x24 PUSH1 0x60 CALLDATASIZE PUSH1 0x24 PUSH1 0x60 DUP7 MUL DUP8 ADD ADD GT PUSH2 0xF93 JUMPI PUSH2 0xB13 PUSH2 0x25BB JUMP JUMPDEST PUSH2 0xB1B PUSH2 0x2611 JUMP JUMPDEST DUP4 ISZERO ISZERO DUP1 PUSH2 0xF88 JUMPI JUMPDEST ISZERO PUSH2 0xF43 JUMPI SWAP1 DUP7 SWAP4 DUP7 SWAP4 DUP6 SWAP7 DUP7 JUMPDEST DUP4 DUP2 LT PUSH2 0xC77 JUMPI PUSH1 0x40 MLOAD PUSH4 0x23B872DD PUSH1 0xE0 SHL DUP2 MSTORE CALLER PUSH1 0x4 DUP3 ADD MSTORE ADDRESS PUSH1 0x24 DUP3 ADD MSTORE PUSH1 0x44 DUP2 ADD DUP11 SWAP1 MSTORE DUP9 SWAP1 DUP9 SWAP1 DUP3 SWAP1 DUP13 PUSH1 0x1 PUSH1 0x1 PUSH1 0xA0 SHL SUB PUSH32 0x0 AND DUP5 DUP4 PUSH1 0x64 DUP2 DUP8 DUP6 GAS CALL SWAP2 DUP3 ISZERO PUSH2 0xC6C JUMPI PUSH2 0xBB0 PUSH2 0xC03 SWAP4 DUP8 SWAP6 DUP8 SWAP2 PUSH2 0xC4F JUMPI JUMPDEST POP PUSH2 0x23BD JUMP JUMPDEST PUSH1 0x40 MLOAD PUSH4 0xA9059CBB PUSH1 0xE0 SHL DUP2 MSTORE PUSH1 0x1 PUSH1 0x1 PUSH1 0xA0 SHL SUB PUSH32 0x0 AND PUSH1 0x4 DUP3 ADD MSTORE PUSH1 0x24 DUP2 ADD SWAP2 SWAP1 SWAP2 MSTORE SWAP4 DUP5 SWAP3 DUP4 SWAP2 SWAP1 DUP3 SWAP1 PUSH1 0x44 DUP3 ADD SWAP1 JUMP JUMPDEST SUB SWAP3 GAS CALL SWAP1 DUP2 ISZERO PUSH2 0xC44 JUMPI PUSH2 0xC20 SWAP3 DUP5 SWAP3 PUSH2 0xC27 JUMPI JUMPDEST POP POP PUSH2 0x2409 JUMP JUMPDEST PUSH1 0x1 DUP1 SSTORE DUP1 RETURN JUMPDEST PUSH2 0xC3D SWAP3 POP DUP1 RETURNDATASIZE LT PUSH2 0x446 JUMPI PUSH2 0x437 DUP2 DUP4 PUSH2 0x1FA9 JUMP JUMPDEST DUP4 DUP1 PUSH2 0xC19 JUMP JUMPDEST PUSH1 0x40 MLOAD RETURNDATASIZE DUP6 DUP3 RETURNDATACOPY RETURNDATASIZE SWAP1 REVERT JUMPDEST PUSH2 0xC66 SWAP2 POP DUP7 RETURNDATASIZE DUP9 GT PUSH2 0x446 JUMPI PUSH2 0x437 DUP2 DUP4 PUSH2 0x1FA9 JUMP JUMPDEST DUP10 PUSH2 0xBAA JUMP JUMPDEST PUSH1 0x40 MLOAD RETURNDATASIZE DUP7 DUP3 RETURNDATACOPY RETURNDATASIZE SWAP1 REVERT JUMPDEST SWAP1 SWAP2 SWAP3 SWAP4 SWAP5 SWAP8 DUP9 DUP3 MUL DUP4 ADD DUP10 PUSH1 0x23 NOT DUP3 CALLDATASIZE SUB ADD SLT PUSH2 0xF3F JUMPI PUSH1 0x40 MLOAD DUP11 DUP2 ADD DUP2 DUP2 LT DUP8 DUP3 GT OR PUSH2 0xF2C JUMPI SWAP2 DUP9 SWAP6 SWAP4 SWAP2 DUP12 SWAP13 SWAP6 SWAP4 PUSH1 0x40 SWAP13 SWAP12 SWAP13 MSTORE DUP7 DUP3 ADD CALLDATALOAD SWAP1 DUP2 DUP2 MSTORE PUSH2 0xCD9 DUP14 PUSH1 0x44 DUP6 ADD CALLDATALOAD SWAP1 DUP4 ADD SWAP4 DUP2 DUP6 MSTORE PUSH1 0x64 PUSH1 0x40 DUP6 ADD SWAP7 ADD CALLDATALOAD DUP7 MSTORE EQ ISZERO PUSH2 0x2325 JUMP JUMPDEST PUSH2 0xCEE DUP4 MLOAD DUP1 ISZERO ISZERO SWAP1 DUP2 PUSH2 0xF19 JUMPI JUMPDEST POP PUSH2 0x21A3 JUMP JUMPDEST DUP1 MLOAD DUP13 MSTORE PUSH1 0x4 DUP14 MSTORE DUP13 DUP13 PUSH1 0xFF PUSH2 0xD1D PUSH1 0x1 SWAP2 DUP3 PUSH1 0x40 DUP6 KECCAK256 ADD SLOAD SWAP1 DUP1 PUSH1 0xA0 SWAP3 DUP4 SHR AND SWAP2 DUP3 PUSH2 0xF02 JUMPI JUMPDEST POP POP PUSH2 0x2087 JUMP JUMPDEST DUP4 MLOAD DUP3 MSTORE PUSH1 0x4 DUP4 MSTORE PUSH1 0x40 PUSH1 0x1 DUP1 PUSH1 0xA0 SHL SUB SWAP3 KECCAK256 ADD SLOAD AND PUSH1 0x40 MLOAD SWAP13 DUP14 DUP1 SWAP3 PUSH4 0x70A08231 PUSH1 0xE0 SHL DUP3 MSTORE CALLER PUSH1 0x4 DUP4 ADD MSTORE GAS STATICCALL DUP1 ISZERO PUSH2 0xEF7 JUMPI DUP14 SWAP12 DUP14 SWAP2 PUSH2 0xEB3 JUMPI JUMPDEST POP SWAP1 PUSH2 0xD70 DUP5 SWAP4 SWAP3 PUSH1 0x1 SWAP8 SWAP7 SWAP6 MLOAD GT ISZERO PUSH2 0x2371 JUMP JUMPDEST DUP1 MLOAD DUP14 MSTORE PUSH1 0x4 DUP13 MSTORE PUSH1 0x40 DUP14 KECCAK256 PUSH1 0x2 SWAP1 DUP2 ADD SLOAD PUSH4 0x3B9ACA00 DUP2 GT ISZERO PUSH2 0xE8A JUMPI POP DUP14 PUSH2 0xD9E PUSH3 0x61A80 DUP1 SWAP8 PUSH2 0x22BF JUMP JUMPDEST SWAP14 DUP4 MLOAD DUP3 MSTORE PUSH1 0x4 DUP2 MSTORE PUSH1 0x40 DUP3 KECCAK256 SWAP1 DUP6 MLOAD DUP4 MSTORE PUSH2 0xE00 PUSH1 0x40 DUP5 KECCAK256 SWAP3 PUSH8 0xDE0B6B3A7640000 DUP10 MLOAD DIV SWAP1 PUSH4 0xFFFFFFFF SWAP4 DUP5 SWAP2 PUSH1 0x3 SWAP1 PUSH2 0xDF3 DUP11 DUP6 PUSH2 0xDE8 DUP2 DUP1 DUP8 DUP8 ADD SLOAD AND SWAP10 AND DUP1 SWAP10 PUSH2 0x2455 JUMP JUMPDEST AND SWAP3 ADD SWAP2 DUP3 SLOAD PUSH2 0x22BF JUMP JUMPDEST SWAP1 SSTORE DUP7 ADD SLOAD SWAP1 SHR AND PUSH2 0x2455 JUMP JUMPDEST AND SWAP3 DUP2 ADD SWAP3 DUP4 SLOAD DUP2 DUP2 GT PUSH1 0x0 EQ PUSH2 0xE7F JUMPI PUSH1 0x4 SWAP2 PUSH2 0xE1D SWAP2 PUSH2 0x2318 JUMP JUMPDEST SWAP2 JUMPDEST ADD SLOAD SWAP2 POP DUP2 DUP2 LT ISZERO PUSH2 0xE77 JUMPI POP SWAP1 JUMPDEST SSTORE MLOAD SWAP1 MLOAD SWAP2 MLOAD SWAP3 PUSH1 0x40 MLOAD SWAP4 DUP5 MSTORE DUP14 DUP5 ADD MSTORE PUSH32 0xEF329F5FB6C9847CF872E344B0B2E169FFA718DC97CA5B0F306E8C3143C48077 PUSH1 0x40 CALLER SWAP5 LOG4 ADD SWAP1 SWAP2 SWAP6 SWAP9 POP SWAP7 SWAP6 SWAP7 SWAP4 SWAP3 SWAP2 SWAP4 PUSH2 0xB32 JUMP JUMPDEST SWAP1 POP SWAP1 PUSH2 0xE2E JUMP JUMPDEST POP POP PUSH1 0x4 DUP3 SWAP2 PUSH2 0xE1F JUMP JUMPDEST PUSH4 0x1DCD6500 LT ISZERO PUSH2 0xEA4 JUMPI DUP14 PUSH2 0xD9E PUSH3 0x55730 DUP1 SWAP8 PUSH2 0x22BF JUMP JUMPDEST DUP14 PUSH2 0xD9E PUSH3 0x493E0 DUP1 SWAP8 PUSH2 0x22BF JUMP JUMPDEST DUP13 DUP2 SWAP8 SWAP7 SWAP6 SWAP5 SWAP4 SWAP14 SWAP3 POP RETURNDATASIZE DUP4 GT PUSH2 0xEF0 JUMPI JUMPDEST PUSH2 0xECF DUP2 DUP4 PUSH2 0x1FA9 JUMP JUMPDEST DUP2 ADD SUB SLT PUSH2 0xEEC JUMPI DUP13 SWAP11 PUSH2 0xD70 PUSH1 0x1 SWAP7 MLOAD SWAP2 SWAP3 SWAP4 SWAP5 SWAP6 SWAP7 POP PUSH2 0xD5B JUMP JUMPDEST DUP12 DUP1 REVERT JUMPDEST POP RETURNDATASIZE PUSH2 0xEC5 JUMP JUMPDEST PUSH1 0x40 MLOAD RETURNDATASIZE DUP15 DUP3 RETURNDATACOPY RETURNDATASIZE SWAP1 REVERT JUMPDEST DUP9 MLOAD DUP7 MSTORE PUSH1 0x40 DUP7 KECCAK256 DUP6 ADD SLOAD SWAP1 SHR AND SWAP1 POP CODESIZE DUP1 PUSH2 0xD16 JUMP JUMPDEST PUSH8 0xDE0B6B3A7640000 SWAP2 POP MOD ISZERO CODESIZE PUSH2 0xCE8 JUMP JUMPDEST PUSH4 0x4E487B71 PUSH1 0xE0 SHL DUP12 MSTORE PUSH1 0x41 PUSH1 0x4 MSTORE DUP9 DUP12 REVERT JUMPDEST DUP9 DUP1 REVERT JUMPDEST PUSH1 0x40 MLOAD PUSH3 0x461BCD PUSH1 0xE5 SHL DUP2 MSTORE PUSH1 0x4 DUP2 ADD DUP8 SWAP1 MSTORE PUSH1 0x18 PUSH1 0x24 DUP3 ADD MSTORE PUSH32 0x436F72653A20696E76616C69642062617463682073697A650000000000000000 PUSH1 0x44 DUP3 ADD MSTORE PUSH1 0x64 SWAP1 REVERT JUMPDEST POP PUSH1 0x5 DUP5 GT ISZERO PUSH2 0xB24 JUMP JUMPDEST DUP7 DUP1 REVERT JUMPDEST DUP3 CALLVALUE PUSH2 0x192 JUMPI PUSH1 0x40 CALLDATASIZE PUSH1 0x3 NOT ADD SLT PUSH2 0x192 JUMPI PUSH1 0x4 CALLDATALOAD PUSH2 0xFFFF SWAP1 DUP2 DUP2 AND DUP1 SWAP2 SUB PUSH2 0x4BB JUMPI PUSH1 0x24 CALLDATALOAD SWAP2 DUP3 AND DUP1 DUP4 SUB PUSH2 0x54B JUMPI PUSH2 0xFCF PUSH2 0x26D8 JUMP JUMPDEST PUSH2 0x1F4 DUP1 DUP4 GT ISZERO SWAP2 DUP3 PUSH2 0x103C JUMPI JUMPDEST POP POP ISZERO PUSH2 0x1001 JUMPI PUSH4 0xFFFF0000 PUSH1 0x2 SLOAD SWAP3 PUSH1 0x10 SHL AND SWAP2 PUSH4 0xFFFFFFFF NOT AND OR OR PUSH1 0x2 SSTORE DUP1 RETURN JUMPDEST PUSH1 0x40 MLOAD PUSH3 0x461BCD PUSH1 0xE5 SHL DUP2 MSTORE PUSH1 0x20 PUSH1 0x4 DUP3 ADD MSTORE PUSH1 0x13 PUSH1 0x24 DUP3 ADD MSTORE PUSH19 0x86DEE4CA7440CCCACAE640E8DEDE40D0D2CED PUSH1 0x6B SHL PUSH1 0x44 DUP3 ADD MSTORE PUSH1 0x64 SWAP1 REVERT JUMPDEST GT ISZERO SWAP1 POP DUP5 DUP1 PUSH2 0xFDD JUMP JUMPDEST DUP3 CALLVALUE PUSH2 0x192 JUMPI DUP1 PUSH1 0x3 NOT CALLDATASIZE ADD SLT PUSH2 0x192 JUMPI SLOAD PUSH1 0x40 MLOAD PUSH1 0x1 PUSH1 0x1 PUSH1 0xA0 SHL SUB SWAP1 SWAP2 AND DUP2 MSTORE PUSH1 0x20 SWAP1 RETURN JUMPDEST DUP3 CALLVALUE PUSH2 0x192 JUMPI DUP1 PUSH1 0x3 NOT CALLDATASIZE ADD SLT PUSH2 0x192 JUMPI PUSH1 0x40 MLOAD PUSH32 0x0 PUSH1 0x1 PUSH1 0x1 PUSH1 0xA0 SHL SUB AND DUP2 MSTORE PUSH1 0x20 SWAP1 RETURN JUMPDEST DUP3 CALLVALUE PUSH2 0x192 JUMPI DUP1 PUSH1 0x3 NOT CALLDATASIZE ADD SLT PUSH2 0x192 JUMPI PUSH2 0x10CC PUSH2 0x26D8 JUMP JUMPDEST PUSH2 0x10D4 PUSH2 0x2611 JUMP JUMPDEST DUP1 SLOAD PUSH1 0xFF PUSH1 0xA0 SHL NOT AND PUSH1 0x1 PUSH1 0xA0 SHL OR DUP2 SSTORE PUSH1 0x40 MLOAD CALLER DUP2 MSTORE PUSH32 0x62E78CEA01BEE320CD4E420270B5EA74000D11B0C9F74754EBDBFC544B05A258 SWAP1 PUSH1 0x20 SWAP1 LOG1 DUP1 RETURN JUMPDEST DUP3 CALLVALUE PUSH2 0x192 JUMPI PUSH1 0x60 CALLDATASIZE PUSH1 0x3 NOT ADD SLT PUSH2 0x192 JUMPI PUSH2 0x112E PUSH2 0x203F JUMP JUMPDEST PUSH2 0x1136 PUSH2 0x2055 JUMP JUMPDEST SWAP1 CALLER DUP4 MSTORE PUSH1 0x20 SWAP2 PUSH1 0x3 DUP4 MSTORE PUSH1 0xFF PUSH1 0x40 DUP6 KECCAK256 SLOAD AND ISZERO PUSH2 0x121F JUMPI PUSH1 0x40 MLOAD PUSH4 0x23B872DD PUSH1 0xE0 SHL DUP2 MSTORE PUSH1 0x1 PUSH1 0x1 PUSH1 0xA0 SHL SUB SWAP3 DUP4 AND PUSH1 0x4 DUP3 ADD MSTORE SWAP2 AND PUSH1 0x24 DUP1 DUP4 ADD SWAP2 SWAP1 SWAP2 MSTORE CALLDATALOAD PUSH1 0x44 DUP3 ADD MSTORE DUP2 DUP2 DUP1 PUSH1 0x64 DUP2 ADD SUB DUP2 DUP7 PUSH32 0x0 PUSH1 0x1 PUSH1 0x1 PUSH1 0xA0 SHL SUB AND GAS CALL SWAP1 DUP2 ISZERO PUSH2 0xC44 JUMPI DUP4 SWAP2 PUSH2 0x1202 JUMPI JUMPDEST POP ISZERO PUSH2 0x11CA JUMPI POP DUP1 RETURN JUMPDEST PUSH1 0x64 SWAP1 PUSH1 0x40 MLOAD SWAP1 PUSH3 0x461BCD PUSH1 0xE5 SHL DUP3 MSTORE PUSH1 0x4 DUP3 ADD MSTORE PUSH1 0x11 PUSH1 0x24 DUP3 ADD MSTORE PUSH17 0x10DBDC994E881C1D5B1B0819985A5B1959 PUSH1 0x7A SHL PUSH1 0x44 DUP3 ADD MSTORE REVERT JUMPDEST PUSH2 0x1219 SWAP2 POP DUP3 RETURNDATASIZE DUP5 GT PUSH2 0x446 JUMPI PUSH2 0x437 DUP2 DUP4 PUSH2 0x1FA9 JUMP JUMPDEST DUP4 PUSH2 0x11C0 JUMP JUMPDEST PUSH1 0x40 MLOAD PUSH3 0x461BCD PUSH1 0xE5 SHL DUP2 MSTORE PUSH1 0x4 DUP2 ADD DUP5 SWAP1 MSTORE PUSH1 0x14 PUSH1 0x24 DUP3 ADD MSTORE PUSH20 0x10DBDC994E881B9BDD08185D5D1A1BDC9A5E9959 PUSH1 0x62 SHL PUSH1 0x44 DUP3 ADD MSTORE PUSH1 0x64 SWAP1 REVERT JUMPDEST DUP3 CALLVALUE PUSH2 0x192 JUMPI DUP1 PUSH1 0x3 NOT CALLDATASIZE ADD SLT PUSH2 0x192 JUMPI PUSH1 0x20 PUSH2 0xFFFF PUSH1 0x2 SLOAD AND PUSH1 0x40 MLOAD SWAP1 DUP2 MSTORE RETURN JUMPDEST DUP3 CALLVALUE PUSH2 0x192 JUMPI DUP1 PUSH1 0x3 NOT CALLDATASIZE ADD SLT PUSH2 0x192 JUMPI PUSH2 0x1296 PUSH2 0x26D8 JUMP JUMPDEST DUP1 SLOAD PUSH1 0x1 PUSH1 0x1 PUSH1 0xA0 SHL SUB NOT DUP2 AND DUP3 SSTORE DUP2 SWAP1 PUSH1 0x1 PUSH1 0x1 PUSH1 0xA0 SHL SUB AND PUSH32 0x8BE0079C531659141344CD1FD0A4F28419497F9722A3DAAFE3B4186F6B6457E0 DUP3 DUP1 LOG3 DUP1 RETURN JUMPDEST DUP3 CALLVALUE PUSH2 0x192 JUMPI PUSH1 0x40 CALLDATASIZE PUSH1 0x3 NOT ADD SLT PUSH2 0x192 JUMPI PUSH2 0x12F1 PUSH2 0x203F JUMP JUMPDEST PUSH1 0x24 CALLDATALOAD SWAP1 DUP2 ISZERO ISZERO DUP1 SWAP3 SUB PUSH2 0x4BB JUMPI PUSH2 0x1307 PUSH2 0x26D8 JUMP JUMPDEST PUSH1 0x1 DUP1 PUSH1 0xA0 SHL SUB AND DUP3 MSTORE PUSH1 0x3 PUSH1 0x20 MSTORE PUSH1 0x40 DUP3 KECCAK256 SWAP1 PUSH1 0xFF DUP1 NOT DUP4 SLOAD AND SWAP2 AND OR SWAP1 SSTORE DUP1 RETURN JUMPDEST DUP3 CALLVALUE PUSH2 0x192 JUMPI DUP1 PUSH1 0x3 NOT CALLDATASIZE ADD SLT PUSH2 0x192 JUMPI PUSH1 0xFF PUSH1 0x20 SWAP2 SLOAD PUSH1 0xA0 SHR AND PUSH1 0x40 MLOAD SWAP1 ISZERO ISZERO DUP2 MSTORE RETURN JUMPDEST SWAP1 POP CALLVALUE PUSH2 0xA3F JUMPI PUSH1 0x20 CALLDATASIZE PUSH1 0x3 NOT ADD SLT PUSH2 0xA3F JUMPI PUSH2 0x160 SWAP2 PUSH2 0x136E PUSH2 0x203F JUMP JUMPDEST POP DUP1 PUSH1 0x40 MLOAD SWAP3 DUP2 DUP5 MSTORE DUP2 PUSH1 0x20 DUP6 ADD MSTORE DUP2 PUSH1 0x40 DUP6 ADD MSTORE DUP2 PUSH1 0x60 DUP6 ADD MSTORE DUP2 PUSH1 0x80 DUP6 ADD MSTORE DUP2 PUSH1 0xA0 DUP6 ADD MSTORE DUP2 PUSH1 0xC0 DUP6 ADD MSTORE DUP4 ADD MSTORE DUP1 PUSH2 0x100 DUP4 ADD MSTORE DUP1 PUSH2 0x120 DUP4 ADD MSTORE PUSH2 0x140 DUP3 ADD MSTORE RETURN JUMPDEST DUP3 CALLVALUE PUSH2 0x192 JUMPI PUSH1 0x20 CALLDATASIZE PUSH1 0x3 NOT ADD SLT PUSH2 0x192 JUMPI PUSH1 0x20 PUSH2 0x13D3 PUSH1 0x4 CALLDATALOAD PUSH2 0x2470 JUMP JUMPDEST PUSH1 0x40 MLOAD SWAP1 DUP2 MSTORE RETURN JUMPDEST DUP3 CALLVALUE PUSH2 0x192 JUMPI PUSH1 0x60 CALLDATASIZE PUSH1 0x3 NOT ADD SLT PUSH2 0x192 JUMPI PUSH1 0x44 CALLDATALOAD PUSH1 0x24 CALLDATALOAD PUSH1 0x4 CALLDATALOAD PUSH2 0x13FE PUSH2 0x25BB JUMP JUMPDEST PUSH2 0x1406 PUSH2 0x2611 JUMP JUMPDEST PUSH2 0x1412 DUP3 DUP3 EQ ISZERO PUSH2 0x2325 JUMP JUMPDEST DUP3 ISZERO ISZERO DUP1 PUSH2 0x16F9 JUMPI JUMPDEST PUSH2 0x1424 SWAP1 PUSH2 0x21A3 JUMP JUMPDEST DUP1 DUP5 MSTORE PUSH1 0x20 PUSH1 0x4 DUP2 MSTORE PUSH1 0xFF PUSH1 0x1 PUSH1 0x40 DUP8 KECCAK256 ADD SLOAD PUSH1 0xA0 SHR AND DUP1 PUSH2 0x16E2 JUMPI JUMPDEST PUSH2 0x144A SWAP1 PUSH2 0x2087 JUMP JUMPDEST DUP2 DUP6 MSTORE PUSH1 0x4 DUP2 MSTORE PUSH1 0x1 DUP1 PUSH1 0xA0 SHL SUB SWAP1 PUSH1 0x24 DUP2 DUP4 PUSH1 0x1 PUSH1 0x40 DUP11 KECCAK256 ADD SLOAD AND PUSH1 0x40 MLOAD SWAP3 DUP4 DUP1 SWAP3 PUSH4 0x70A08231 PUSH1 0xE0 SHL DUP3 MSTORE CALLER PUSH1 0x4 DUP4 ADD MSTORE GAS STATICCALL DUP1 ISZERO PUSH2 0x1670 JUMPI DUP7 SWAP1 DUP9 SWAP1 PUSH2 0x16B1 JUMPI JUMPDEST PUSH2 0x149A SWAP3 POP LT ISZERO PUSH2 0x2371 JUMP JUMPDEST DUP3 DUP7 MSTORE PUSH1 0x4 DUP2 MSTORE PUSH1 0x40 DUP7 KECCAK256 PUSH1 0x2 ADD SLOAD PUSH4 0x3B9ACA00 DUP2 GT ISZERO PUSH2 0x1692 JUMPI POP PUSH3 0x61A80 SWAP2 JUMPDEST PUSH1 0x40 MLOAD PUSH4 0x23B872DD PUSH1 0xE0 SHL DUP2 MSTORE CALLER PUSH1 0x4 DUP3 ADD MSTORE ADDRESS PUSH1 0x24 DUP3 ADD MSTORE PUSH1 0x44 DUP2 ADD DUP5 SWAP1 MSTORE PUSH32 0x0 SWAP2 SWAP1 SWAP2 AND SWAP1 DUP3 DUP2 PUSH1 0x64 DUP2 DUP12 DUP7 GAS CALL DUP1 ISZERO PUSH2 0x44D JUMPI PUSH2 0x1521 SWAP2 DUP10 SWAP2 PUSH2 0x167B JUMPI POP PUSH2 0x23BD JUMP JUMPDEST PUSH1 0x40 MLOAD PUSH4 0xA9059CBB PUSH1 0xE0 SHL DUP2 MSTORE PUSH32 0x0 PUSH1 0x1 PUSH1 0x1 PUSH1 0xA0 SHL SUB AND PUSH1 0x4 DUP3 ADD MSTORE PUSH1 0x24 DUP2 ADD DUP5 SWAP1 MSTORE SWAP1 DUP3 SWAP1 DUP3 SWAP1 PUSH1 0x44 SWAP1 DUP3 SWAP1 DUP12 SWAP1 GAS CALL DUP1 ISZERO PUSH2 0x1670 JUMPI PUSH2 0x1589 SWAP2 DUP9 SWAP2 PUSH2 0x1653 JUMPI JUMPDEST POP PUSH2 0x2409 JUMP JUMPDEST DUP3 DUP7 MSTORE PUSH1 0x4 DUP2 MSTORE PUSH1 0x40 DUP7 KECCAK256 DUP5 DUP8 MSTORE PUSH1 0x40 DUP8 KECCAK256 SWAP1 PUSH2 0x15DA DUP8 PUSH4 0xFFFFFFFF SWAP3 PUSH2 0x15CA PUSH1 0x2 DUP6 PUSH2 0xDE8 DUP2 PUSH8 0xDE0B6B3A7640000 DUP2 PUSH1 0x3 DUP9 ADD SLOAD AND SWAP8 DIV AND DUP1 SWAP7 PUSH2 0x2455 JUMP JUMPDEST SWAP1 SSTORE DUP3 PUSH1 0x3 DUP6 ADD SLOAD DUP7 SHR AND PUSH2 0x2455 JUMP JUMPDEST AND SWAP1 PUSH1 0x2 DUP2 ADD SWAP2 DUP3 SLOAD DUP2 DUP2 GT PUSH1 0x0 EQ PUSH2 0x1648 JUMPI PUSH1 0x4 SWAP2 PUSH2 0x15F9 SWAP2 PUSH2 0x2318 JUMP JUMPDEST SWAP2 JUMPDEST ADD SLOAD SWAP1 DUP2 DUP2 LT ISZERO PUSH2 0x1640 JUMPI POP SWAP1 JUMPDEST SSTORE PUSH1 0x40 MLOAD SWAP5 DUP6 MSTORE DUP5 ADD MSTORE PUSH32 0xEF329F5FB6C9847CF872E344B0B2E169FFA718DC97CA5B0F306E8C3143C48077 PUSH1 0x40 CALLER SWAP5 LOG4 PUSH1 0x1 DUP1 SSTORE DUP1 RETURN JUMPDEST SWAP1 POP SWAP1 PUSH2 0x1609 JUMP JUMPDEST POP POP PUSH1 0x4 DUP9 SWAP2 PUSH2 0x15FB JUMP JUMPDEST PUSH2 0x166A SWAP2 POP DUP4 RETURNDATASIZE DUP6 GT PUSH2 0x446 JUMPI PUSH2 0x437 DUP2 DUP4 PUSH2 0x1FA9 JUMP JUMPDEST DUP9 PUSH2 0x1583 JUMP JUMPDEST PUSH1 0x40 MLOAD RETURNDATASIZE DUP10 DUP3 RETURNDATACOPY RETURNDATASIZE SWAP1 REVERT JUMPDEST PUSH2 0xC66 SWAP2 POP DUP5 RETURNDATASIZE DUP7 GT PUSH2 0x446 JUMPI PUSH2 0x437 DUP2 DUP4 PUSH2 0x1FA9 JUMP JUMPDEST PUSH4 0x1DCD6500 LT ISZERO PUSH2 0x16A7 JUMPI PUSH3 0x55730 SWAP2 PUSH2 0x14BC JUMP JUMPDEST PUSH3 0x493E0 SWAP2 PUSH2 0x14BC JUMP JUMPDEST POP POP DUP2 DUP2 DUP2 RETURNDATASIZE DUP4 GT PUSH2 0x16DB JUMPI JUMPDEST PUSH2 0x16C8 DUP2 DUP4 PUSH2 0x1FA9 JUMP JUMPDEST DUP2 ADD SUB SLT PUSH2 0xF93 JUMPI DUP6 PUSH2 0x149A SWAP2 MLOAD PUSH2 0x148E JUMP JUMPDEST POP RETURNDATASIZE PUSH2 0x16BE JUMP JUMPDEST POP DUP3 DUP6 MSTORE PUSH1 0x40 DUP6 KECCAK256 PUSH1 0x1 ADD SLOAD PUSH1 0xA0 SHR PUSH1 0xFF AND PUSH2 0x1441 JUMP JUMPDEST POP PUSH8 0xDE0B6B3A7640000 DUP4 MOD ISZERO PUSH2 0x141B JUMP JUMPDEST DUP3 CALLVALUE PUSH2 0x192 JUMPI DUP1 PUSH1 0x3 NOT CALLDATASIZE ADD SLT PUSH2 0x192 JUMPI PUSH2 0x1724 PUSH2 0x26D8 JUMP JUMPDEST DUP1 SLOAD PUSH1 0xFF DUP2 PUSH1 0xA0 SHR AND ISZERO PUSH2 0x176A JUMPI PUSH1 0xFF PUSH1 0xA0 SHL NOT AND DUP2 SSTORE PUSH1 0x40 MLOAD CALLER DUP2 MSTORE PUSH32 0x5DB9EE0A495BF2E6FF9C91A7834C1BA4FDD244A5E8AA4E537BD38AEAE4B073AA SWAP1 PUSH1 0x20 SWAP1 LOG1 DUP1 RETURN JUMPDEST PUSH1 0x40 MLOAD PUSH3 0x461BCD PUSH1 0xE5 SHL DUP2 MSTORE PUSH1 0x20 PUSH1 0x4 DUP3 ADD MSTORE PUSH1 0x14 PUSH1 0x24 DUP3 ADD MSTORE PUSH20 0x14185D5CD8589B194E881B9BDD081C185D5CD959 PUSH1 0x62 SHL PUSH1 0x44 DUP3 ADD MSTORE PUSH1 0x64 SWAP1 REVERT JUMPDEST DUP3 CALLVALUE PUSH2 0x192 JUMPI PUSH2 0x182F PUSH2 0x17D9 PUSH2 0x17BB CALLDATASIZE PUSH2 0x2021 JUMP JUMPDEST PUSH2 0x17C9 SWAP6 SWAP4 SWAP6 SWAP5 SWAP2 SWAP5 PUSH2 0x25BB JUMP JUMPDEST PUSH2 0x17D1 PUSH2 0x2611 JUMP JUMPDEST TIMESTAMP GT ISZERO PUSH2 0x215F JUMP JUMPDEST DUP4 DUP6 MSTORE PUSH1 0x20 SWAP3 PUSH1 0x4 DUP5 MSTORE PUSH2 0x17F9 PUSH1 0xFF PUSH1 0x1 PUSH1 0x40 DUP10 KECCAK256 ADD SLOAD PUSH1 0xA0 SHR AND PUSH2 0x2087 JUMP JUMPDEST DUP2 ISZERO ISZERO DUP1 PUSH2 0x19C6 JUMPI JUMPDEST PUSH2 0x180B SWAP1 PUSH2 0x21A3 JUMP JUMPDEST DUP5 DUP7 MSTORE PUSH1 0x4 DUP5 MSTORE PUSH1 0x40 DUP7 KECCAK256 SWAP1 PUSH2 0x1821 DUP4 DUP8 PUSH2 0x250A JUMP JUMPDEST DUP1 SWAP7 SWAP3 POP SWAP3 SWAP1 SWAP3 LT ISZERO PUSH2 0x2232 JUMP JUMPDEST PUSH1 0x40 MLOAD PUSH4 0x70A08231 PUSH1 0xE0 SHL DUP2 MSTORE ADDRESS PUSH1 0x4 DUP3 ADD MSTORE PUSH1 0x1 PUSH1 0x1 PUSH1 0xA0 SHL SUB PUSH32 0x0 DUP2 AND SWAP4 SWAP2 DUP8 DUP2 PUSH1 0x24 DUP2 DUP9 GAS STATICCALL DUP1 ISZERO PUSH2 0x19BB JUMPI DUP8 SWAP1 DUP12 SWAP1 PUSH2 0x1986 JUMPI JUMPDEST PUSH2 0x1892 SWAP3 POP LT ISZERO PUSH2 0x22CC JUMP JUMPDEST PUSH1 0x1 DUP3 ADD SLOAD PUSH1 0x40 MLOAD PUSH4 0x23B872DD PUSH1 0xE0 SHL DUP2 MSTORE CALLER PUSH1 0x4 DUP3 ADD MSTORE ADDRESS PUSH1 0x24 DUP3 ADD MSTORE PUSH1 0x44 DUP2 ADD DUP8 SWAP1 MSTORE SWAP2 DUP9 SWAP2 DUP4 SWAP2 PUSH1 0x64 SWAP2 DUP4 SWAP2 DUP15 SWAP2 AND GAS CALL DUP1 ISZERO PUSH2 0x475 JUMPI PUSH2 0x1969 JUMPI JUMPDEST POP PUSH1 0x40 MLOAD PUSH4 0xA9059CBB PUSH1 0xE0 SHL DUP2 MSTORE CALLER PUSH1 0x4 DUP3 ADD MSTORE PUSH1 0x24 DUP2 ADD DUP7 SWAP1 MSTORE SWAP3 DUP7 SWAP1 DUP5 SWAP1 PUSH1 0x44 SWAP1 DUP3 SWAP1 DUP13 SWAP1 GAS CALL DUP1 ISZERO PUSH2 0x44D JUMPI PUSH32 0x47C2F180F415C943169B11C4BD61C71DBD5F15ED83B496B3A65A47A3A21D63B4 SWAP7 PUSH2 0x403 SWAP5 PUSH2 0x3AD SWAP3 PUSH2 0x194C JUMPI POP PUSH1 0x3 DUP4 ADD SLOAD PUSH8 0xDE0B6B3A7640000 DUP8 DIV SWAP2 SHR PUSH4 0xFFFFFFFF AND PUSH2 0x2296 JUMP JUMPDEST PUSH2 0x1962 SWAP1 DUP3 RETURNDATASIZE DUP5 GT PUSH2 0x446 JUMPI PUSH2 0x437 DUP2 DUP4 PUSH2 0x1FA9 JUMP JUMPDEST POP DUP11 PUSH2 0x38F JUMP JUMPDEST PUSH2 0x197F SWAP1 DUP8 RETURNDATASIZE DUP10 GT PUSH2 0x446 JUMPI PUSH2 0x437 DUP2 DUP4 PUSH2 0x1FA9 JUMP JUMPDEST POP DUP9 PUSH2 0x18D1 JUMP JUMPDEST POP POP DUP8 DUP2 DUP2 RETURNDATASIZE DUP4 GT PUSH2 0x19B4 JUMPI JUMPDEST PUSH2 0x199D DUP2 DUP4 PUSH2 0x1FA9 JUMP JUMPDEST DUP2 ADD SUB SLT PUSH2 0x19B0 JUMPI DUP7 PUSH2 0x1892 SWAP2 MLOAD PUSH2 0x1886 JUMP JUMPDEST DUP10 DUP1 REVERT JUMPDEST POP RETURNDATASIZE PUSH2 0x1993 JUMP JUMPDEST PUSH1 0x40 MLOAD RETURNDATASIZE DUP13 DUP3 RETURNDATACOPY RETURNDATASIZE SWAP1 REVERT JUMPDEST POP PUSH8 0xDE0B6B3A7640000 DUP3 MOD ISZERO PUSH2 0x1802 JUMP JUMPDEST DUP3 CALLVALUE PUSH2 0x192 JUMPI DUP1 PUSH1 0x3 NOT CALLDATASIZE ADD SLT PUSH2 0x192 JUMPI PUSH1 0x40 MLOAD PUSH32 0x0 PUSH1 0x1 PUSH1 0x1 PUSH1 0xA0 SHL SUB AND DUP2 MSTORE PUSH1 0x20 SWAP1 RETURN JUMPDEST DUP3 CALLVALUE PUSH2 0x192 JUMPI DUP1 DUP1 PUSH2 0x1A2E CALLDATASIZE PUSH2 0x1F54 JUMP JUMPDEST SWAP1 PUSH2 0x1A37 PUSH2 0x26D8 JUMP JUMPDEST DUP1 DUP4 MSTORE PUSH1 0x4 PUSH1 0x20 MSTORE PUSH2 0x1A55 PUSH1 0xFF PUSH1 0x1 PUSH1 0x40 DUP7 KECCAK256 ADD SLOAD PUSH1 0xA0 SHR AND PUSH2 0x2087 JUMP JUMPDEST DUP2 ISZERO ISZERO DUP1 PUSH2 0x1B24 JUMPI JUMPDEST PUSH2 0x1A67 SWAP1 PUSH2 0x21A3 JUMP JUMPDEST DUP3 MSTORE PUSH1 0x4 PUSH1 0x20 SWAP1 DUP2 MSTORE PUSH1 0x40 DUP1 DUP5 KECCAK256 PUSH1 0x1 ADD SLOAD SWAP1 MLOAD PUSH4 0x40C10F19 PUSH1 0xE0 SHL SWAP3 DUP2 ADD SWAP3 DUP4 MSTORE ADDRESS PUSH1 0x24 DUP3 ADD MSTORE PUSH1 0x44 DUP1 DUP3 ADD SWAP5 SWAP1 SWAP5 MSTORE SWAP3 DUP4 MSTORE PUSH1 0x1 PUSH1 0x1 PUSH1 0xA0 SHL SUB AND SWAP2 DUP4 SWAP1 PUSH2 0x1AB2 PUSH1 0x64 DUP3 PUSH2 0x1FA9 JUMP JUMPDEST MLOAD SWAP3 GAS CALL RETURNDATASIZE ISZERO PUSH2 0x1B1F JUMPI RETURNDATASIZE PUSH2 0x1AC6 DUP2 PUSH2 0x206B JUMP JUMPDEST SWAP1 PUSH2 0x1AD4 PUSH1 0x40 MLOAD SWAP3 DUP4 PUSH2 0x1FA9 JUMP JUMPDEST DUP2 MSTORE DUP3 PUSH1 0x20 RETURNDATASIZE SWAP3 ADD RETURNDATACOPY JUMPDEST ISZERO PUSH2 0x1AE6 JUMPI DUP1 RETURN JUMPDEST PUSH1 0x40 MLOAD PUSH3 0x461BCD PUSH1 0xE5 SHL DUP2 MSTORE PUSH1 0x20 PUSH1 0x4 DUP3 ADD MSTORE PUSH1 0x11 PUSH1 0x24 DUP3 ADD MSTORE PUSH17 0x10DBDC994E881B5A5B9D0819985A5B1959 PUSH1 0x7A SHL PUSH1 0x44 DUP3 ADD MSTORE PUSH1 0x64 SWAP1 REVERT JUMPDEST PUSH2 0x1ADE JUMP JUMPDEST POP PUSH8 0xDE0B6B3A7640000 DUP3 MOD ISZERO PUSH2 0x1A5E JUMP JUMPDEST DUP3 CALLVALUE PUSH2 0x192 JUMPI DUP1 PUSH1 0x3 NOT CALLDATASIZE ADD SLT PUSH2 0x192 JUMPI PUSH1 0x20 PUSH2 0xFFFF PUSH1 0x2 SLOAD PUSH1 0x10 SHR AND PUSH1 0x40 MLOAD SWAP1 DUP2 MSTORE RETURN JUMPDEST DUP3 CALLVALUE PUSH2 0x192 JUMPI PUSH2 0x1BD9 PUSH2 0x1B70 PUSH2 0x17BB CALLDATASIZE PUSH2 0x2021 JUMP JUMPDEST DUP4 DUP6 MSTORE PUSH1 0x20 PUSH1 0x4 DUP2 MSTORE PUSH2 0x1B8F PUSH1 0xFF PUSH1 0x1 PUSH1 0x40 DUP10 KECCAK256 ADD SLOAD PUSH1 0xA0 SHR AND PUSH2 0x2087 JUMP JUMPDEST DUP2 ISZERO ISZERO DUP1 PUSH2 0x1D94 JUMPI JUMPDEST PUSH2 0x1BA1 SWAP1 PUSH2 0x21A3 JUMP JUMPDEST DUP5 DUP7 MSTORE PUSH1 0x4 DUP2 MSTORE PUSH1 0x40 DUP7 KECCAK256 SWAP4 PUSH2 0x1BC1 DUP4 PUSH2 0x1BBA DUP9 PUSH2 0x2470 JUMP JUMPDEST LT ISZERO PUSH2 0x21E6 JUMP JUMPDEST PUSH2 0x1BCB DUP4 DUP8 PUSH2 0x2658 JUMP JUMPDEST DUP1 SWAP7 SWAP3 POP SWAP3 SWAP1 SWAP3 GT ISZERO PUSH2 0x2232 JUMP JUMPDEST PUSH1 0x40 MLOAD PUSH4 0x23B872DD PUSH1 0xE0 SHL DUP2 MSTORE CALLER PUSH1 0x4 DUP3 ADD MSTORE ADDRESS PUSH1 0x24 DUP3 ADD MSTORE PUSH1 0x44 DUP2 ADD DUP6 SWAP1 MSTORE PUSH1 0x1 PUSH1 0x1 PUSH1 0xA0 SHL SUB SWAP1 DUP4 DUP2 PUSH1 0x64 DUP2 DUP13 PUSH32 0x0 DUP8 AND GAS CALL DUP1 ISZERO PUSH2 0x475 JUMPI PUSH2 0x1D77 JUMPI JUMPDEST POP PUSH1 0x1 DUP7 ADD SLOAD AND SWAP5 PUSH1 0x40 MLOAD PUSH4 0x70A08231 PUSH1 0xE0 SHL DUP2 MSTORE ADDRESS PUSH1 0x4 DUP3 ADD MSTORE DUP4 DUP2 PUSH1 0x24 DUP2 DUP11 GAS STATICCALL DUP1 ISZERO PUSH2 0x475 JUMPI DUP6 SWAP1 DUP11 SWAP1 PUSH2 0x1D46 JUMPI JUMPDEST PUSH2 0x1C76 SWAP3 POP LT ISZERO PUSH2 0x21E6 JUMP JUMPDEST PUSH1 0x40 MLOAD PUSH4 0xA9059CBB PUSH1 0xE0 SHL DUP2 MSTORE CALLER PUSH1 0x4 DUP3 ADD MSTORE PUSH1 0x24 DUP2 ADD DUP6 SWAP1 MSTORE SWAP6 DUP4 SWAP1 DUP8 SWAP1 PUSH1 0x44 SWAP1 DUP3 SWAP1 DUP13 SWAP1 GAS CALL SWAP3 DUP4 ISZERO PUSH2 0x44D JUMPI PUSH32 0xAF6C8BAEBC55F540953B129965CAF1E3F48010ED731C2CEA5ED61E71EBC57153 SWAP7 PUSH2 0x403 SWAP5 PUSH2 0x1D28 JUMPI JUMPDEST POP POP PUSH2 0x1CFF PUSH1 0x2 PUSH2 0x1CF5 PUSH8 0xDE0B6B3A7640000 DUP8 DIV PUSH4 0xFFFFFFFF PUSH1 0x3 DUP7 ADD SLOAD AND PUSH2 0x2296 JUMP JUMPDEST SWAP3 ADD SWAP2 DUP3 SLOAD PUSH2 0x22BF JUMP JUMPDEST SWAP1 SSTORE PUSH1 0x40 DUP1 MLOAD CALLER DUP2 MSTORE PUSH1 0x20 DUP2 ADD SWAP5 SWAP1 SWAP5 MSTORE DUP4 ADD SWAP4 SWAP1 SWAP4 MSTORE PUSH1 0x60 DUP3 ADD SWAP3 SWAP1 SWAP3 MSTORE SWAP1 DUP2 SWAP1 PUSH1 0x80 DUP3 ADD SWAP1 JUMP JUMPDEST DUP2 PUSH2 0x1D3E SWAP3 SWAP1 RETURNDATASIZE LT PUSH2 0x446 JUMPI PUSH2 0x437 DUP2 DUP4 PUSH2 0x1FA9 JUMP JUMPDEST POP DUP9 DUP1 PUSH2 0x1CD0 JUMP JUMPDEST POP POP DUP4 DUP2 DUP2 RETURNDATASIZE DUP4 GT PUSH2 0x1D70 JUMPI JUMPDEST PUSH2 0x1D5D DUP2 DUP4 PUSH2 0x1FA9 JUMP JUMPDEST DUP2 ADD SUB SLT PUSH2 0xF3F JUMPI DUP5 PUSH2 0x1C76 SWAP2 MLOAD PUSH2 0x1C6A JUMP JUMPDEST POP RETURNDATASIZE PUSH2 0x1D53 JUMP JUMPDEST PUSH2 0x1D8D SWAP1 DUP5 RETURNDATASIZE DUP7 GT PUSH2 0x446 JUMPI PUSH2 0x437 DUP2 DUP4 PUSH2 0x1FA9 JUMP JUMPDEST POP DUP9 PUSH2 0x1C38 JUMP JUMPDEST POP PUSH8 0xDE0B6B3A7640000 DUP3 MOD ISZERO PUSH2 0x1B98 JUMP JUMPDEST DUP3 CALLVALUE PUSH2 0x192 JUMPI DUP1 PUSH1 0x3 NOT CALLDATASIZE ADD SLT PUSH2 0x192 JUMPI PUSH1 0x40 MLOAD PUSH32 0x0 PUSH1 0x1 PUSH1 0x1 PUSH1 0xA0 SHL SUB AND DUP2 MSTORE PUSH1 0x20 SWAP1 RETURN JUMPDEST SWAP1 POP CALLVALUE PUSH2 0xA3F JUMPI PUSH1 0x20 DUP1 PUSH1 0x3 NOT CALLDATASIZE ADD SLT PUSH2 0x4BB JUMPI PUSH1 0x4 CALLDATALOAD DUP4 MSTORE PUSH1 0x4 DUP2 MSTORE PUSH1 0x40 DUP4 KECCAK256 SWAP1 PUSH1 0x40 MLOAD SWAP4 DUP5 DUP2 DUP5 SLOAD PUSH2 0x1E1E DUP2 PUSH2 0x1F6F JUMP JUMPDEST SWAP4 DUP5 DUP5 MSTORE PUSH1 0x1 SWAP2 DUP7 PUSH1 0x1 DUP3 AND SWAP2 DUP3 PUSH1 0x0 EQ PUSH2 0x1EEF JUMPI POP POP PUSH1 0x1 EQ PUSH2 0x1EB4 JUMPI JUMPDEST POP POP PUSH2 0x1E4B SWAP3 POP SUB DUP6 PUSH2 0x1FA9 JUMP JUMPDEST PUSH1 0x1 DUP3 ADD SLOAD SWAP2 PUSH1 0x2 DUP2 ADD SLOAD SWAP2 PUSH1 0x3 DUP3 ADD SLOAD SWAP1 PUSH1 0x4 PUSH4 0xFFFFFFFF SWAP4 ADD SLOAD SWAP4 PUSH1 0xFF PUSH2 0x1E7E PUSH1 0x40 MLOAD SWAP10 DUP10 DUP12 SWAP11 DUP12 MSTORE DUP11 ADD SWAP1 PUSH2 0x1FE1 JUMP JUMPDEST SWAP7 PUSH1 0x1 DUP1 PUSH1 0xA0 SHL SUB DUP2 AND DUP5 DUP11 ADD MSTORE PUSH1 0xA0 SHR AND ISZERO ISZERO PUSH1 0x40 DUP9 ADD MSTORE PUSH1 0x60 DUP8 ADD MSTORE DUP3 DUP3 AND PUSH1 0x80 DUP8 ADD MSTORE SHR AND PUSH1 0xA0 DUP5 ADD MSTORE PUSH1 0xC0 DUP4 ADD MSTORE SUB SWAP1 RETURN JUMPDEST SWAP1 DUP6 SWAP3 POP DUP7 DUP3 MSTORE DUP3 DUP3 KECCAK256 JUMPDEST DUP6 DUP4 LT PUSH2 0x1ED7 JUMPI POP POP PUSH2 0x1E4B SWAP4 POP DUP3 ADD ADD CODESIZE DUP1 PUSH2 0x1E3D JUMP JUMPDEST DUP1 SLOAD DUP4 DUP12 ADD DUP6 ADD MSTORE DUP10 SWAP5 POP DUP7 SWAP4 SWAP1 SWAP3 ADD SWAP2 DUP2 ADD PUSH2 0x1EBF JUMP JUMPDEST SWAP3 POP SWAP4 POP POP PUSH2 0x1E4B SWAP5 SWAP2 POP PUSH1 0xFF NOT AND DUP3 DUP5 ADD MSTORE ISZERO ISZERO PUSH1 0x5 SHL DUP3 ADD ADD CODESIZE DUP1 PUSH2 0x1E3D JUMP JUMPDEST DUP3 CALLVALUE PUSH2 0x192 JUMPI PUSH2 0x5A9 PUSH1 0x40 PUSH2 0x5C6 SWAP3 PUSH2 0x1F30 PUSH1 0xFF PUSH1 0x1 PUSH2 0x56E CALLDATASIZE PUSH2 0x1F54 JUMP JUMPDEST PUSH2 0x1F3B DUP3 ISZERO ISZERO PUSH2 0x20D3 JUMP JUMPDEST PUSH2 0x1F4F PUSH8 0xDE0B6B3A7640000 DUP4 MOD ISZERO PUSH2 0x2113 JUMP JUMPDEST PUSH2 0x250A JUMP JUMPDEST PUSH1 0x40 SWAP1 PUSH1 0x3 NOT ADD SLT PUSH2 0x1F6A JUMPI PUSH1 0x4 CALLDATALOAD SWAP1 PUSH1 0x24 CALLDATALOAD SWAP1 JUMP JUMPDEST PUSH1 0x0 DUP1 REVERT JUMPDEST SWAP1 PUSH1 0x1 DUP3 DUP2 SHR SWAP3 AND DUP1 ISZERO PUSH2 0x1F9F JUMPI JUMPDEST PUSH1 0x20 DUP4 LT EQ PUSH2 0x1F89 JUMPI JUMP JUMPDEST PUSH4 0x4E487B71 PUSH1 0xE0 SHL PUSH1 0x0 MSTORE PUSH1 0x22 PUSH1 0x4 MSTORE PUSH1 0x24 PUSH1 0x0 REVERT JUMPDEST SWAP2 PUSH1 0x7F AND SWAP2 PUSH2 0x1F7E JUMP JUMPDEST SWAP1 PUSH1 0x1F DUP1 NOT SWAP2 ADD AND DUP2 ADD SWAP1 DUP2 LT PUSH8 0xFFFFFFFFFFFFFFFF DUP3 GT OR PUSH2 0x1FCB JUMPI PUSH1 0x40 MSTORE JUMP JUMPDEST PUSH4 0x4E487B71 PUSH1 0xE0 SHL PUSH1 0x0 MSTORE PUSH1 0x41 PUSH1 0x4 MSTORE PUSH1 0x24 PUSH1 0x0 REVERT JUMPDEST SWAP2 SWAP1 DUP3 MLOAD SWAP3 DUP4 DUP3 MSTORE PUSH1 0x0 JUMPDEST DUP5 DUP2 LT PUSH2 0x200D JUMPI POP POP DUP3 PUSH1 0x0 PUSH1 0x20 DUP1 SWAP5 SWAP6 DUP5 ADD ADD MSTORE PUSH1 0x1F DUP1 NOT SWAP2 ADD AND ADD ADD SWAP1 JUMP JUMPDEST PUSH1 0x20 DUP2 DUP4 ADD DUP2 ADD MLOAD DUP5 DUP4 ADD DUP3 ADD MSTORE ADD PUSH2 0x1FEC JUMP JUMPDEST PUSH1 0x80 SWAP1 PUSH1 0x3 NOT ADD SLT PUSH2 0x1F6A JUMPI PUSH1 0x4 CALLDATALOAD SWAP1 PUSH1 0x24 CALLDATALOAD SWAP1 PUSH1 0x44 CALLDATALOAD SWAP1 PUSH1 0x64 CALLDATALOAD SWAP1 JUMP JUMPDEST PUSH1 0x4 CALLDATALOAD SWAP1 PUSH1 0x1 PUSH1 0x1 PUSH1 0xA0 SHL SUB DUP3 AND DUP3 SUB PUSH2 0x1F6A JUMPI JUMP JUMPDEST PUSH1 0x44 CALLDATALOAD SWAP1 PUSH1 0x1 PUSH1 0x1 PUSH1 0xA0 SHL SUB DUP3 AND DUP3 SUB PUSH2 0x1F6A JUMPI JUMP JUMPDEST PUSH8 0xFFFFFFFFFFFFFFFF DUP2 GT PUSH2 0x1FCB JUMPI PUSH1 0x1F ADD PUSH1 0x1F NOT AND PUSH1 0x20 ADD SWAP1 JUMP JUMPDEST ISZERO PUSH2 0x208E JUMPI JUMP JUMPDEST PUSH1 0x40 MLOAD PUSH3 0x461BCD PUSH1 0xE5 SHL DUP2 MSTORE PUSH1 0x20 PUSH1 0x4 DUP3 ADD MSTORE PUSH1 0x17 PUSH1 0x24 DUP3 ADD MSTORE PUSH32 0x436F72653A20636F756E747279206E6F7420666F756E64000000000000000000 PUSH1 0x44 DUP3 ADD MSTORE PUSH1 0x64 SWAP1 REVERT JUMPDEST ISZERO PUSH2 0x20DA JUMPI JUMP JUMPDEST PUSH1 0x40 MLOAD PUSH3 0x461BCD PUSH1 0xE5 SHL DUP2 MSTORE PUSH1 0x20 PUSH1 0x4 DUP3 ADD MSTORE PUSH1 0x11 PUSH1 0x24 DUP3 ADD MSTORE PUSH17 0x436F72653A20616D6F756E74207A65726F PUSH1 0x78 SHL PUSH1 0x44 DUP3 ADD MSTORE PUSH1 0x64 SWAP1 REVERT JUMPDEST ISZERO PUSH2 0x211A JUMPI JUMP JUMPDEST PUSH1 0x40 MLOAD PUSH3 0x461BCD PUSH1 0xE5 SHL DUP2 MSTORE PUSH1 0x20 PUSH1 0x4 DUP3 ADD MSTORE PUSH1 0x17 PUSH1 0x24 DUP3 ADD MSTORE PUSH32 0x436F72653A2077686F6C6520746F6B656E73206F6E6C79000000000000000000 PUSH1 0x44 DUP3 ADD MSTORE PUSH1 0x64 SWAP1 REVERT JUMPDEST ISZERO PUSH2 0x2166 JUMPI JUMP JUMPDEST PUSH1 0x40 MLOAD PUSH3 0x461BCD PUSH1 0xE5 SHL DUP2 MSTORE PUSH1 0x20 PUSH1 0x4 DUP3 ADD MSTORE PUSH1 0x15 PUSH1 0x24 DUP3 ADD MSTORE PUSH21 0x10DBDC994E88191958591B1A5B99481C185CDCD959 PUSH1 0x5A SHL PUSH1 0x44 DUP3 ADD MSTORE PUSH1 0x64 SWAP1 REVERT JUMPDEST ISZERO PUSH2 0x21AA JUMPI JUMP JUMPDEST PUSH1 0x40 MLOAD PUSH3 0x461BCD PUSH1 0xE5 SHL DUP2 MSTORE PUSH1 0x20 PUSH1 0x4 DUP3 ADD MSTORE PUSH1 0x14 PUSH1 0x24 DUP3 ADD MSTORE PUSH20 0x10DBDC994E881A5B9D985B1A5908185B5BDD5B9D PUSH1 0x62 SHL PUSH1 0x44 DUP3 ADD MSTORE PUSH1 0x64 SWAP1 REVERT JUMPDEST ISZERO PUSH2 0x21ED JUMPI JUMP JUMPDEST PUSH1 0x40 MLOAD PUSH3 0x461BCD PUSH1 0xE5 SHL DUP2 MSTORE PUSH1 0x20 PUSH1 0x4 DUP3 ADD MSTORE PUSH1 0x19 PUSH1 0x24 DUP3 ADD MSTORE PUSH32 0x436F72653A20696E73756666696369656E7420737570706C7900000000000000 PUSH1 0x44 DUP3 ADD MSTORE PUSH1 0x64 SWAP1 REVERT JUMPDEST ISZERO PUSH2 0x2239 JUMPI JUMP JUMPDEST PUSH1 0x40 MLOAD PUSH3 0x461BCD PUSH1 0xE5 SHL DUP2 MSTORE PUSH1 0x20 PUSH1 0x4 DUP3 ADD MSTORE PUSH1 0x17 PUSH1 0x24 DUP3 ADD MSTORE PUSH32 0x436F72653A20736C697070616765206578636565646564000000000000000000 PUSH1 0x44 DUP3 ADD MSTORE PUSH1 0x64 SWAP1 REVERT JUMPDEST SWAP1 DUP2 PUSH1 0x20 SWAP2 SUB SLT PUSH2 0x1F6A JUMPI MLOAD DUP1 ISZERO ISZERO DUP2 SUB PUSH2 0x1F6A JUMPI SWAP1 JUMP JUMPDEST DUP2 DUP2 MUL SWAP3 SWAP2 DUP2 ISZERO SWAP2 DUP5 DIV EQ OR ISZERO PUSH2 0x22A9 JUMPI JUMP JUMPDEST PUSH4 0x4E487B71 PUSH1 0xE0 SHL PUSH1 0x0 MSTORE PUSH1 0x11 PUSH1 0x4 MSTORE PUSH1 0x24 PUSH1 0x0 REVERT JUMPDEST SWAP2 SWAP1 DUP3 ADD DUP1 SWAP3 GT PUSH2 0x22A9 JUMPI JUMP JUMPDEST ISZERO PUSH2 0x22D3 JUMPI JUMP JUMPDEST PUSH1 0x40 MLOAD PUSH3 0x461BCD PUSH1 0xE5 SHL DUP2 MSTORE PUSH1 0x20 PUSH1 0x4 DUP3 ADD MSTORE PUSH1 0x17 PUSH1 0x24 DUP3 ADD MSTORE PUSH32 0x436F72653A20696E73756666696369656E742055534443000000000000000000 PUSH1 0x44 DUP3 ADD MSTORE PUSH1 0x64 SWAP1 REVERT JUMPDEST SWAP2 SWAP1 DUP3 SUB SWAP2 DUP3 GT PUSH2 0x22A9 JUMPI JUMP JUMPDEST ISZERO PUSH2 0x232C JUMPI JUMP JUMPDEST PUSH1 0x40 MLOAD PUSH3 0x461BCD PUSH1 0xE5 SHL DUP2 MSTORE PUSH1 0x20 PUSH1 0x4 DUP3 ADD MSTORE PUSH1 0x18 PUSH1 0x24 DUP3 ADD MSTORE PUSH32 0x436F72653A2063616E6E6F742061747461636B2073656C660000000000000000 PUSH1 0x44 DUP3 ADD MSTORE PUSH1 0x64 SWAP1 REVERT JUMPDEST ISZERO PUSH2 0x2378 JUMPI JUMP JUMPDEST PUSH1 0x40 MLOAD PUSH3 0x461BCD PUSH1 0xE5 SHL DUP2 MSTORE PUSH1 0x20 PUSH1 0x4 DUP3 ADD MSTORE PUSH1 0x1F PUSH1 0x24 DUP3 ADD MSTORE PUSH32 0x436F72653A20696E73756666696369656E7420666C61672062616C616E636500 PUSH1 0x44 DUP3 ADD MSTORE PUSH1 0x64 SWAP1 REVERT JUMPDEST ISZERO PUSH2 0x23C4 JUMPI JUMP JUMPDEST PUSH1 0x40 MLOAD PUSH3 0x461BCD PUSH1 0xE5 SHL DUP2 MSTORE PUSH1 0x20 PUSH1 0x4 DUP3 ADD MSTORE PUSH1 0x19 PUSH1 0x24 DUP3 ADD MSTORE PUSH32 0x436F72653A20666565207472616E73666572206661696C656400000000000000 PUSH1 0x44 DUP3 ADD MSTORE PUSH1 0x64 SWAP1 REVERT JUMPDEST ISZERO PUSH2 0x2410 JUMPI JUMP JUMPDEST PUSH1 0x40 MLOAD PUSH3 0x461BCD PUSH1 0xE5 SHL DUP2 MSTORE PUSH1 0x20 PUSH1 0x4 DUP3 ADD MSTORE PUSH1 0x1D PUSH1 0x24 DUP3 ADD MSTORE PUSH32 0x436F72653A20726576656E7565207472616E73666572206661696C6564000000 PUSH1 0x44 DUP3 ADD MSTORE PUSH1 0x64 SWAP1 REVERT JUMPDEST SWAP2 SWAP1 SWAP2 PUSH4 0xFFFFFFFF DUP1 DUP1 SWAP5 AND SWAP2 AND MUL SWAP2 DUP3 AND SWAP2 DUP3 SUB PUSH2 0x22A9 JUMPI JUMP JUMPDEST PUSH1 0x0 SWAP1 DUP2 MSTORE PUSH1 0x4 PUSH1 0x20 MSTORE PUSH1 0x1 PUSH1 0x40 DUP3 KECCAK256 ADD SLOAD PUSH1 0xFF DUP2 PUSH1 0xA0 SHR AND ISZERO PUSH2 0x2506 JUMPI PUSH1 0x40 MLOAD PUSH4 0x70A08231 PUSH1 0xE0 SHL DUP2 MSTORE ADDRESS PUSH1 0x4 DUP3 ADD MSTORE SWAP1 PUSH1 0x20 SWAP1 DUP3 SWAP1 PUSH1 0x24 SWAP1 DUP3 SWAP1 PUSH1 0x1 PUSH1 0x1 PUSH1 0xA0 SHL SUB AND GAS STATICCALL SWAP2 DUP3 ISZERO PUSH2 0x24FA JUMPI DUP1 SWAP3 PUSH2 0x24C9 JUMPI POP POP SWAP1 JUMP JUMPDEST SWAP1 SWAP2 POP PUSH1 0x20 DUP3 RETURNDATASIZE PUSH1 0x20 GT PUSH2 0x24F2 JUMPI JUMPDEST DUP2 PUSH2 0x24E5 PUSH1 0x20 SWAP4 DUP4 PUSH2 0x1FA9 JUMP JUMPDEST DUP2 ADD SUB SLT PUSH2 0x192 JUMPI POP MLOAD SWAP1 JUMP JUMPDEST RETURNDATASIZE SWAP2 POP PUSH2 0x24D8 JUMP JUMPDEST PUSH1 0x40 MLOAD SWAP1 RETURNDATASIZE SWAP1 DUP3 RETURNDATACOPY RETURNDATASIZE SWAP1 REVERT JUMPDEST POP SWAP1 JUMP JUMPDEST SWAP1 PUSH1 0x0 SWAP2 DUP3 MSTORE PUSH1 0x4 PUSH1 0x20 MSTORE PUSH8 0xDE0B6B3A7640000 PUSH1 0x40 DUP4 KECCAK256 SWAP2 DIV PUSH2 0x2549 DUP2 PUSH4 0xFFFFFFFF PUSH1 0x3 PUSH2 0x253D PUSH1 0x2 DUP8 ADD SLOAD DUP5 PUSH2 0x2296 JUMP JUMPDEST SWAP6 ADD SLOAD PUSH1 0x20 SHR AND PUSH2 0x2296 JUMP JUMPDEST PUSH1 0x0 NOT DUP3 ADD SWAP2 DUP3 GT PUSH2 0x25A7 JUMPI PUSH1 0x64 SWAP4 SWAP3 SWAP2 PUSH2 0x2563 SWAP2 PUSH2 0x2296 JUMP JUMPDEST PUSH1 0x1 SHR SWAP1 DUP2 DUP2 GT ISZERO PUSH2 0x25A0 JUMPI PUSH2 0x2579 SWAP3 POP PUSH2 0x2318 JUMP JUMPDEST DIV SWAP1 PUSH2 0x2710 PUSH2 0x2591 PUSH2 0xFFFF PUSH1 0x2 SLOAD PUSH1 0x10 SHR AND DUP5 PUSH2 0x2296 JUMP JUMPDEST DIV SWAP1 PUSH2 0x259D DUP3 DUP5 PUSH2 0x2318 JUMP JUMPDEST SWAP1 JUMP JUMPDEST POP POP PUSH2 0x2579 JUMP JUMPDEST PUSH4 0x4E487B71 PUSH1 0xE0 SHL DUP5 MSTORE PUSH1 0x11 PUSH1 0x4 MSTORE PUSH1 0x24 DUP5 REVERT JUMPDEST PUSH1 0x2 PUSH1 0x1 SLOAD EQ PUSH2 0x25CC JUMPI PUSH1 0x2 PUSH1 0x1 SSTORE JUMP JUMPDEST PUSH1 0x40 MLOAD PUSH3 0x461BCD PUSH1 0xE5 SHL DUP2 MSTORE PUSH1 0x20 PUSH1 0x4 DUP3 ADD MSTORE PUSH1 0x1F PUSH1 0x24 DUP3 ADD MSTORE PUSH32 0x5265656E7472616E637947756172643A207265656E7472616E742063616C6C00 PUSH1 0x44 DUP3 ADD MSTORE PUSH1 0x64 SWAP1 REVERT JUMPDEST PUSH1 0xFF PUSH1 0x0 SLOAD PUSH1 0xA0 SHR AND PUSH2 0x2620 JUMPI JUMP JUMPDEST PUSH1 0x40 MLOAD PUSH3 0x461BCD PUSH1 0xE5 SHL DUP2 MSTORE PUSH1 0x20 PUSH1 0x4 DUP3 ADD MSTORE PUSH1 0x10 PUSH1 0x24 DUP3 ADD MSTORE PUSH16 0x14185D5CD8589B194E881C185D5CD959 PUSH1 0x82 SHL PUSH1 0x44 DUP3 ADD MSTORE PUSH1 0x64 SWAP1 REVERT JUMPDEST PUSH1 0x0 MSTORE PUSH1 0x4 PUSH1 0x20 MSTORE PUSH8 0xDE0B6B3A7640000 PUSH1 0x40 PUSH1 0x0 KECCAK256 SWAP2 DIV PUSH2 0x2692 DUP2 PUSH4 0xFFFFFFFF PUSH1 0x3 PUSH2 0x2689 PUSH1 0x2 DUP8 ADD SLOAD DUP5 PUSH2 0x2296 JUMP JUMPDEST SWAP6 ADD SLOAD AND PUSH2 0x2296 JUMP JUMPDEST SWAP2 PUSH1 0x0 NOT DUP3 ADD SWAP2 DUP3 GT PUSH2 0x22A9 JUMPI PUSH2 0x26AE PUSH2 0x26B7 SWAP3 PUSH1 0x64 SWAP5 PUSH2 0x2296 JUMP JUMPDEST PUSH1 0x1 SHR SWAP1 PUSH2 0x22BF JUMP JUMPDEST DIV SWAP1 PUSH2 0x2710 PUSH2 0x26CC PUSH2 0xFFFF PUSH1 0x2 SLOAD AND DUP5 PUSH2 0x2296 JUMP JUMPDEST DIV SWAP1 PUSH2 0x259D DUP3 DUP5 PUSH2 0x22BF JUMP JUMPDEST PUSH1 0x0 SLOAD PUSH1 0x1 PUSH1 0x1 PUSH1 0xA0 SHL SUB AND CALLER SUB PUSH2 0x26EC JUMPI JUMP JUMPDEST PUSH1 0x64 PUSH1 0x40 MLOAD PUSH3 0x461BCD PUSH1 0xE5 SHL DUP2 MSTORE PUSH1 0x20 PUSH1 0x4 DUP3 ADD MSTORE PUSH1 0x20 PUSH1 0x24 DUP3 ADD MSTORE PUSH32 0x4F776E61626C653A2063616C6C6572206973206E6F7420746865206F776E6572 PUSH1 0x44 DUP3 ADD MSTORE REVERT INVALID LOG2 PUSH5 0x6970667358 0x22 SLT KECCAK256 0xAD BYTE 0xB3 0xD8 0xBF 0x4F PUSH27 0x82409E4ED0814DD10C506D6F3DC0B3DE4E0EA0E2ACCE4C9FB46473 PUSH16 0x6C634300081800330000000000000000 "},"methodIdentifiers":{"REVENUE()":"0e3a7dc7","TREASURY()":"2d2c5565","USDC()":"89a30271","addCountry(uint256,string,address,uint256,uint32,uint32,uint256)":"d0ee7c0c","attack(uint256,uint256,uint256)":"407f85f8","attackBatch((uint256,uint256,uint256)[])":"c2b73154","buy(uint256,uint256,uint256,uint256)":"1281311d","buyFeeBps()":"77d2300e","countries(uint256)":"08e9daa5","getWarBalanceState(address)":"5a807e65","isAuthorized(address)":"fe9fbb80","mintCountryTokens(uint256,uint256)":"27cd2705","owner()":"8da5cb5b","pause()":"8456cb59","paused()":"5c975abb","previewAttackFee(address,uint256)":"cec18a62","pullUSDCFrom(address,uint256,address)":"7c4e34c6","quoteBuy(uint256,uint256)":"f998a865","quoteSell(uint256,uint256)":"0277dd67","remainingSupply(uint256)":"47fda41a","renounceOwnership()":"715018a6","sell(uint256,uint256,uint256,uint256)":"3620875e","sellFeeBps()":"23cbe1f3","sellWithPermit(uint256,uint256,uint256,uint256,uint256,uint8,bytes32,bytes32)":"fd507d30","setAuthorized(address,bool)":"711bf9b2","setFees(uint16,uint16)":"9ef833d4","transferOwnership(address)":"f2fde38b","unpause()":"3f4ba83a"}}}}}