{"contracts/FlagWarsCore_Static.sol":{"FlagWarsCore":{"abi":[{"inputs":[{"internalType":"address","name":"_payToken","type":"address"},{"internalType":"address","name":"_treasury","type":"address"},{"internalType":"address","name":"_revenue","type":"address"},{"internalType":"address","name":"_commissions","type":"address"}],"stateMutability":"nonpayable","type":"constructor"},{"inputs":[],"name":"CountryAlreadyExists","type":"error"},{"inputs":[],"name":"CountryAlreadyTouched","type":"error"},{"inputs":[],"name":"CountryNotExists","type":"error"},{"inputs":[],"name":"DeadlineExceeded","type":"error"},{"inputs":[],"name":"FloorPriceViolation","type":"error"},{"inputs":[],"name":"FreeAttackExhausted","type":"error"},{"inputs":[],"name":"InsufficientSupply","type":"error"},{"inputs":[],"name":"InsufficientTreasuryUSDC","type":"error"},{"inputs":[],"name":"InvalidAmount","type":"error"},{"inputs":[],"name":"InvalidSeedPrice","type":"error"},{"inputs":[],"name":"InvalidSeedSupply","type":"error"},{"inputs":[],"name":"MinBuyNotMet","type":"error"},{"inputs":[],"name":"PriceAlreadySet","type":"error"},{"inputs":[{"internalType":"uint256","name":"until","type":"uint256"}],"name":"SellCooldown","type":"error"},{"inputs":[],"name":"SlippageExceeded","type":"error"},{"inputs":[],"name":"SupplyAlreadySet","type":"error"},{"anonymous":false,"inputs":[{"indexed":true,"internalType":"address","name":"user","type":"address"},{"indexed":false,"internalType":"uint256","name":"extraFeeUSDC6","type":"uint256"},{"indexed":false,"internalType":"uint256","name":"cooldownSec","type":"uint256"}],"name":"AntiDumpApplied","type":"event"},{"anonymous":false,"inputs":[{"indexed":true,"internalType":"uint256","name":"fromId","type":"uint256"},{"indexed":true,"internalType":"uint256","name":"toId","type":"uint256"},{"indexed":true,"internalType":"address","name":"attacker","type":"address"},{"indexed":false,"internalType":"uint256","name":"feeUSDC6","type":"uint256"},{"indexed":false,"internalType":"uint256","name":"deltaPrice8","type":"uint256"}],"name":"Attack","type":"event"},{"anonymous":false,"inputs":[{"indexed":true,"internalType":"uint256","name":"countryId","type":"uint256"},{"indexed":true,"internalType":"address","name":"buyer","type":"address"},{"indexed":false,"internalType":"uint256","name":"amountToken18","type":"uint256"},{"indexed":false,"internalType":"uint256","name":"priceUSDC8","type":"uint256"},{"indexed":false,"internalType":"uint256","name":"totalCostUSDC6","type":"uint256"}],"name":"Buy","type":"event"},{"anonymous":false,"inputs":[{"indexed":true,"internalType":"address","name":"payToken","type":"address"},{"indexed":true,"internalType":"address","name":"treasury","type":"address"},{"indexed":true,"internalType":"address","name":"revenue","type":"address"},{"indexed":false,"internalType":"address","name":"commissions","type":"address"}],"name":"ConfigUpdated","type":"event"},{"anonymous":false,"inputs":[{"indexed":true,"internalType":"uint256","name":"countryId","type":"uint256"},{"indexed":false,"internalType":"string","name":"name","type":"string"},{"indexed":false,"internalType":"address","name":"token","type":"address"}],"name":"CountryCreated","type":"event"},{"anonymous":false,"inputs":[{"indexed":true,"internalType":"bytes32","name":"kind","type":"bytes32"},{"indexed":false,"internalType":"uint256","name":"amount","type":"uint256"},{"indexed":true,"internalType":"address","name":"to","type":"address"}],"name":"FeeDistributed","type":"event"},{"anonymous":false,"inputs":[{"indexed":true,"internalType":"address","name":"to","type":"address"},{"indexed":false,"internalType":"uint256","name":"amount","type":"uint256"}],"name":"FeeWithdrawn","type":"event"},{"anonymous":false,"inputs":[{"indexed":true,"internalType":"address","name":"user","type":"address"},{"indexed":false,"internalType":"uint256","name":"fromId","type":"uint256"},{"indexed":false,"internalType":"uint256","name":"toId","type":"uint256"},{"indexed":false,"internalType":"uint8","name":"usedCount","type":"uint8"},{"indexed":false,"internalType":"uint256","name":"timestamp","type":"uint256"}],"name":"FreeAttackUsed","type":"event"},{"anonymous":false,"inputs":[{"indexed":true,"internalType":"address","name":"previousOwner","type":"address"},{"indexed":true,"internalType":"address","name":"newOwner","type":"address"}],"name":"OwnershipTransferStarted","type":"event"},{"anonymous":false,"inputs":[{"indexed":true,"internalType":"address","name":"previousOwner","type":"address"},{"indexed":true,"internalType":"address","name":"newOwner","type":"address"}],"name":"OwnershipTransferred","type":"event"},{"anonymous":false,"inputs":[{"indexed":false,"internalType":"address","name":"account","type":"address"}],"name":"Paused","type":"event"},{"anonymous":false,"inputs":[{"indexed":true,"internalType":"uint256","name":"countryId","type":"uint256"},{"indexed":false,"internalType":"uint256","name":"priceUSDC6","type":"uint256"}],"name":"PriceSeeded","type":"event"},{"anonymous":false,"inputs":[{"indexed":true,"internalType":"uint256","name":"countryId","type":"uint256"},{"indexed":true,"internalType":"address","name":"seller","type":"address"},{"indexed":false,"internalType":"uint256","name":"amountToken18","type":"uint256"},{"indexed":false,"internalType":"uint256","name":"priceUSDC8","type":"uint256"},{"indexed":false,"internalType":"uint256","name":"proceedsUSDC6","type":"uint256"}],"name":"Sell","type":"event"},{"anonymous":false,"inputs":[{"indexed":true,"internalType":"uint256","name":"countryId","type":"uint256"},{"indexed":false,"internalType":"uint256","name":"initialSupplyToken18","type":"uint256"}],"name":"SupplySeeded","type":"event"},{"anonymous":false,"inputs":[{"indexed":true,"internalType":"uint256","name":"countryId","type":"uint256"},{"indexed":false,"internalType":"uint256","name":"amount","type":"uint256"}],"name":"TokensDeposited","type":"event"},{"anonymous":false,"inputs":[{"indexed":false,"internalType":"address","name":"account","type":"address"}],"name":"Unpaused","type":"event"},{"anonymous":false,"inputs":[{"indexed":true,"internalType":"address","name":"user","type":"address"},{"indexed":false,"internalType":"uint256","name":"tier","type":"uint256"},{"indexed":false,"internalType":"uint256","name":"multiplierBps","type":"uint256"}],"name":"WarBalanceApplied","type":"event"},{"inputs":[],"name":"BUY_FEE_BPS","outputs":[{"internalType":"uint256","name":"","type":"uint256"}],"stateMutability":"view","type":"function"},{"inputs":[],"name":"FREE_ATTACK_DELTA8","outputs":[{"internalType":"uint256","name":"","type":"uint256"}],"stateMutability":"view","type":"function"},{"inputs":[],"name":"KAPPA","outputs":[{"internalType":"uint256","name":"","type":"uint256"}],"stateMutability":"view","type":"function"},{"inputs":[],"name":"LAMBDA","outputs":[{"internalType":"uint256","name":"","type":"uint256"}],"stateMutability":"view","type":"function"},{"inputs":[],"name":"PRICE_MIN","outputs":[{"internalType":"uint256","name":"","type":"uint256"}],"stateMutability":"view","type":"function"},{"inputs":[],"name":"PRICE_PRECISION","outputs":[{"internalType":"uint256","name":"","type":"uint256"}],"stateMutability":"view","type":"function"},{"inputs":[],"name":"REFERRAL_SHARE_BPS","outputs":[{"internalType":"uint256","name":"","type":"uint256"}],"stateMutability":"view","type":"function"},{"inputs":[],"name":"REVENUE_SHARE_BPS","outputs":[{"internalType":"uint256","name":"","type":"uint256"}],"stateMutability":"view","type":"function"},{"inputs":[],"name":"SELL_FEE_BPS","outputs":[{"internalType":"uint256","name":"","type":"uint256"}],"stateMutability":"view","type":"function"},{"inputs":[],"name":"acceptOwnership","outputs":[],"stateMutability":"nonpayable","type":"function"},{"inputs":[{"internalType":"uint256","name":"","type":"uint256"}],"name":"antiDumpTiers","outputs":[{"internalType":"uint256","name":"thresholdPctBps","type":"uint256"},{"internalType":"uint256","name":"extraFeeBps","type":"uint256"},{"internalType":"uint256","name":"cooldownSec","type":"uint256"}],"stateMutability":"view","type":"function"},{"inputs":[{"internalType":"uint256","name":"fromId","type":"uint256"},{"internalType":"uint256","name":"toId","type":"uint256"}],"name":"attack","outputs":[],"stateMutability":"nonpayable","type":"function"},{"inputs":[{"components":[{"internalType":"uint256","name":"fromId","type":"uint256"},{"internalType":"uint256","name":"toId","type":"uint256"}],"internalType":"struct FlagWarsCore.AttackItem[]","name":"items","type":"tuple[]"}],"name":"attackBatch","outputs":[],"stateMutability":"nonpayable","type":"function"},{"inputs":[{"internalType":"uint256","name":"countryId","type":"uint256"},{"internalType":"uint256","name":"amountToken18","type":"uint256"},{"internalType":"uint256","name":"maxInUSDC6","type":"uint256"},{"internalType":"uint256","name":"deadline","type":"uint256"}],"name":"buy","outputs":[],"stateMutability":"nonpayable","type":"function"},{"inputs":[],"name":"config","outputs":[{"internalType":"address","name":"payToken","type":"address"},{"internalType":"address","name":"treasury","type":"address"},{"internalType":"address","name":"revenue","type":"address"},{"internalType":"address","name":"commissions","type":"address"},{"internalType":"uint256","name":"entryFeeBps","type":"uint256"},{"internalType":"uint256","name":"sellFeeBps","type":"uint256"}],"stateMutability":"view","type":"function"},{"inputs":[{"internalType":"uint256","name":"","type":"uint256"}],"name":"countries","outputs":[{"internalType":"string","name":"name","type":"string"},{"internalType":"address","name":"token","type":"address"},{"internalType":"uint256","name":"price","type":"uint256"},{"internalType":"uint256","name":"totalSupply","type":"uint256"},{"internalType":"uint256","name":"attacks","type":"uint256"},{"internalType":"bool","name":"exists","type":"bool"}],"stateMutability":"view","type":"function"},{"inputs":[{"internalType":"uint256","name":"","type":"uint256"}],"name":"countryTouched","outputs":[{"internalType":"bool","name":"","type":"bool"}],"stateMutability":"view","type":"function"},{"inputs":[{"internalType":"uint256","name":"countryId","type":"uint256"},{"internalType":"string","name":"name","type":"string"},{"internalType":"address","name":"token","type":"address"}],"name":"createCountry","outputs":[],"stateMutability":"nonpayable","type":"function"},{"inputs":[{"internalType":"uint256","name":"countryId","type":"uint256"},{"internalType":"uint256","name":"amount","type":"uint256"}],"name":"depositCountryTokens","outputs":[],"stateMutability":"nonpayable","type":"function"},{"inputs":[{"internalType":"address","name":"token","type":"address"},{"internalType":"uint256","name":"amount","type":"uint256"}],"name":"emergencyWithdraw","outputs":[],"stateMutability":"nonpayable","type":"function"},{"inputs":[{"internalType":"uint256","name":"countryId","type":"uint256"},{"internalType":"uint256","name":"amountToken18","type":"uint256"}],"name":"getAntiDumpInfo","outputs":[{"internalType":"uint256","name":"sellAmount","type":"uint256"},{"internalType":"uint256","name":"sellPercentage","type":"uint256"},{"internalType":"uint256","name":"extraFeeBps","type":"uint256"},{"internalType":"uint256","name":"cooldown","type":"uint256"},{"internalType":"uint256","name":"nextSellTime","type":"uint256"},{"internalType":"bool","name":"canSellNow","type":"bool"}],"stateMutability":"view","type":"function"},{"inputs":[{"internalType":"uint256","name":"countryId","type":"uint256"},{"internalType":"uint256","name":"amountToken18","type":"uint256"}],"name":"getBuyPrice","outputs":[{"internalType":"uint256","name":"","type":"uint256"}],"stateMutability":"view","type":"function"},{"inputs":[],"name":"getConfig","outputs":[{"internalType":"address","name":"payToken","type":"address"},{"internalType":"address","name":"feeToken","type":"address"},{"internalType":"address","name":"treasury","type":"address"},{"internalType":"address","name":"revenue","type":"address"},{"internalType":"address","name":"commissions","type":"address"},{"internalType":"uint16","name":"buyFeeBps","type":"uint16"},{"internalType":"uint16","name":"sellFeeBps","type":"uint16"},{"internalType":"uint16","name":"referralShareBps","type":"uint16"},{"internalType":"uint16","name":"revenueShareBps","type":"uint16"},{"internalType":"uint64","name":"priceMin8","type":"uint64"},{"internalType":"uint64","name":"kappa","type":"uint64"},{"internalType":"uint64","name":"lambda","type":"uint64"},{"internalType":"bool","name":"attackFeeInUSDC","type":"bool"},{"internalType":"uint64","name":"tier1Price8","type":"uint64"},{"internalType":"uint64","name":"tier2Price8","type":"uint64"},{"internalType":"uint64","name":"tier3Price8","type":"uint64"},{"internalType":"uint64","name":"delta1_8","type":"uint64"},{"internalType":"uint64","name":"delta2_8","type":"uint64"},{"internalType":"uint64","name":"delta3_8","type":"uint64"},{"internalType":"uint64","name":"delta4_8","type":"uint64"},{"internalType":"uint32","name":"fee1_USDC6","type":"uint32"},{"internalType":"uint32","name":"fee2_USDC6","type":"uint32"},{"internalType":"uint32","name":"fee3_USDC6","type":"uint32"},{"internalType":"uint32","name":"fee4_USDC6","type":"uint32"},{"internalType":"uint256","name":"fee1_TOKEN18","type":"uint256"},{"internalType":"uint256","name":"fee2_TOKEN18","type":"uint256"},{"internalType":"uint256","name":"fee3_TOKEN18","type":"uint256"},{"internalType":"uint256","name":"fee4_TOKEN18","type":"uint256"}],"stateMutability":"view","type":"function"},{"inputs":[{"internalType":"uint256","name":"countryId","type":"uint256"}],"name":"getCountryInfo","outputs":[{"internalType":"string","name":"name","type":"string"},{"internalType":"address","name":"token","type":"address"},{"internalType":"uint256","name":"price","type":"uint256"},{"internalType":"uint256","name":"totalSupply","type":"uint256"},{"internalType":"uint256","name":"attacks","type":"uint256"},{"internalType":"bool","name":"exists","type":"bool"}],"stateMutability":"view","type":"function"},{"inputs":[{"internalType":"uint256","name":"countryId","type":"uint256"}],"name":"getCurrentTier","outputs":[{"internalType":"uint256","name":"maxPrice8","type":"uint256"},{"internalType":"uint256","name":"delta8","type":"uint256"},{"internalType":"uint256","name":"attackFeeUSDC6_orETHwei","type":"uint256"}],"stateMutability":"view","type":"function"},{"inputs":[{"internalType":"address","name":"user","type":"address"}],"name":"getFreeAttackCount","outputs":[{"internalType":"uint8","name":"used","type":"uint8"},{"internalType":"uint8","name":"maxCount","type":"uint8"},{"internalType":"uint8","name":"remaining","type":"uint8"}],"stateMutability":"view","type":"function"},{"inputs":[{"internalType":"uint256","name":"id","type":"uint256"}],"name":"getRemainingSupply","outputs":[{"internalType":"uint256","name":"remaining","type":"uint256"}],"stateMutability":"view","type":"function"},{"inputs":[{"internalType":"uint256","name":"countryId","type":"uint256"},{"internalType":"uint256","name":"amountToken18","type":"uint256"}],"name":"getSellPrice","outputs":[{"internalType":"uint256","name":"","type":"uint256"}],"stateMutability":"view","type":"function"},{"inputs":[{"internalType":"uint256","name":"id","type":"uint256"},{"internalType":"address","name":"user","type":"address"}],"name":"getUserBalance","outputs":[{"internalType":"uint256","name":"balance","type":"uint256"}],"stateMutability":"view","type":"function"},{"inputs":[{"internalType":"address","name":"user","type":"address"},{"internalType":"uint256","name":"countryId","type":"uint256"}],"name":"getUserCooldownInfo","outputs":[{"internalType":"bool","name":"isInCooldown","type":"bool"},{"internalType":"uint256","name":"remainingSeconds","type":"uint256"},{"internalType":"uint256","name":"lastTierApplied","type":"uint256"}],"stateMutability":"view","type":"function"},{"inputs":[{"internalType":"address","name":"user","type":"address"}],"name":"getWarBalanceState","outputs":[{"internalType":"uint256","name":"wb1Count","type":"uint256"},{"internalType":"uint256","name":"wb1Threshold","type":"uint256"},{"internalType":"uint256","name":"wb1RemainSec","type":"uint256"},{"internalType":"uint256","name":"wb2Count","type":"uint256"},{"internalType":"uint256","name":"wb2Threshold","type":"uint256"},{"internalType":"uint256","name":"wb2RemainSec","type":"uint256"},{"internalType":"uint8","name":"freeAttacksUsed","type":"uint8"},{"internalType":"uint8","name":"freeAttacksMax","type":"uint8"}],"stateMutability":"view","type":"function"},{"inputs":[{"internalType":"uint256","name":"countryId","type":"uint256"}],"name":"getWarBalanceStateByTarget","outputs":[{"internalType":"uint256","name":"wb1Count","type":"uint256"},{"internalType":"uint256","name":"wb1Threshold","type":"uint256"},{"internalType":"uint256","name":"wb1RemainSec","type":"uint256"},{"internalType":"uint256","name":"wb2Count","type":"uint256"},{"internalType":"uint256","name":"wb2Threshold","type":"uint256"},{"internalType":"uint256","name":"wb2RemainSec","type":"uint256"},{"internalType":"uint256","name":"currentDeltaMultiplierBps","type":"uint256"}],"stateMutability":"view","type":"function"},{"inputs":[],"name":"nextCountryId","outputs":[{"internalType":"uint256","name":"","type":"uint256"}],"stateMutability":"view","type":"function"},{"inputs":[],"name":"owner","outputs":[{"internalType":"address","name":"","type":"address"}],"stateMutability":"view","type":"function"},{"inputs":[],"name":"pause","outputs":[],"stateMutability":"nonpayable","type":"function"},{"inputs":[],"name":"paused","outputs":[{"internalType":"bool","name":"","type":"bool"}],"stateMutability":"view","type":"function"},{"inputs":[],"name":"pendingOwner","outputs":[{"internalType":"address","name":"","type":"address"}],"stateMutability":"view","type":"function"},{"inputs":[{"internalType":"address","name":"","type":"address"}],"name":"pendingWithdrawals","outputs":[{"internalType":"uint256","name":"","type":"uint256"}],"stateMutability":"view","type":"function"},{"inputs":[{"internalType":"address","name":"user","type":"address"},{"internalType":"uint256","name":"attackerPrice8","type":"uint256"}],"name":"previewAttackFee","outputs":[{"internalType":"uint256","name":"baseFeeUSDC6","type":"uint256"},{"internalType":"uint256","name":"appliedTier","type":"uint256"},{"internalType":"uint256","name":"appliedMulBps","type":"uint256"},{"internalType":"uint256","name":"finalFeeUSDC6","type":"uint256"},{"internalType":"bool","name":"isFreeAttackAvailable","type":"bool"}],"stateMutability":"view","type":"function"},{"inputs":[{"internalType":"uint256","name":"id","type":"uint256"}],"name":"remainingSupply","outputs":[{"internalType":"uint256","name":"remaining","type":"uint256"}],"stateMutability":"view","type":"function"},{"inputs":[],"name":"renounceOwnership","outputs":[],"stateMutability":"nonpayable","type":"function"},{"inputs":[{"internalType":"uint256","name":"countryId","type":"uint256"},{"internalType":"uint256","name":"priceUSDC6","type":"uint256"}],"name":"seedCountryPrice","outputs":[],"stateMutability":"nonpayable","type":"function"},{"inputs":[{"internalType":"uint256","name":"countryId","type":"uint256"},{"internalType":"uint256","name":"initialSupplyToken18","type":"uint256"}],"name":"seedCountrySupply","outputs":[],"stateMutability":"nonpayable","type":"function"},{"inputs":[{"internalType":"uint256","name":"countryId","type":"uint256"},{"internalType":"uint256","name":"amountToken18","type":"uint256"},{"internalType":"uint256","name":"minOutUSDC6","type":"uint256"},{"internalType":"uint256","name":"deadline","type":"uint256"}],"name":"sell","outputs":[],"stateMutability":"nonpayable","type":"function"},{"inputs":[{"internalType":"address","name":"_payToken","type":"address"},{"internalType":"address","name":"_treasury","type":"address"},{"internalType":"address","name":"_revenue","type":"address"},{"internalType":"address","name":"_commissions","type":"address"}],"name":"setConfig","outputs":[],"stateMutability":"nonpayable","type":"function"},{"inputs":[{"internalType":"uint256","name":"_entryFeeBps","type":"uint256"},{"internalType":"uint256","name":"_sellFeeBps","type":"uint256"}],"name":"setFees","outputs":[],"stateMutability":"nonpayable","type":"function"},{"inputs":[{"internalType":"address","name":"newOwner","type":"address"}],"name":"transferOwnership","outputs":[],"stateMutability":"nonpayable","type":"function"},{"inputs":[],"name":"unpause","outputs":[],"stateMutability":"nonpayable","type":"function"},{"inputs":[{"internalType":"address","name":"","type":"address"},{"internalType":"uint256","name":"","type":"uint256"}],"name":"userCooldownUntil","outputs":[{"internalType":"uint256","name":"","type":"uint256"}],"stateMutability":"view","type":"function"},{"inputs":[{"internalType":"address","name":"","type":"address"},{"internalType":"uint256","name":"","type":"uint256"}],"name":"userLastTier","outputs":[{"internalType":"uint8","name":"","type":"uint8"}],"stateMutability":"view","type":"function"},{"inputs":[{"internalType":"address","name":"","type":"address"}],"name":"userState","outputs":[{"internalType":"uint8","name":"freeAttacksUsed","type":"uint8"}],"stateMutability":"view","type":"function"},{"inputs":[{"internalType":"uint256","name":"","type":"uint256"}],"name":"wb1ByTarget","outputs":[{"internalType":"uint256","name":"windowStart","type":"uint256"},{"internalType":"uint256","name":"attackCount","type":"uint256"}],"stateMutability":"view","type":"function"},{"inputs":[],"name":"wb1Tier","outputs":[{"internalType":"uint256","name":"threshold","type":"uint256"},{"internalType":"uint256","name":"windowSec","type":"uint256"},{"internalType":"uint256","name":"multiplierBps","type":"uint256"}],"stateMutability":"view","type":"function"},{"inputs":[{"internalType":"uint256","name":"","type":"uint256"}],"name":"wb2ByTarget","outputs":[{"internalType":"uint256","name":"windowStart","type":"uint256"},{"internalType":"uint256","name":"attackCount","type":"uint256"}],"stateMutability":"view","type":"function"},{"inputs":[],"name":"wb2Tier","outputs":[{"internalType":"uint256","name":"threshold","type":"uint256"},{"internalType":"uint256","name":"windowSec","type":"uint256"},{"internalType":"uint256","name":"multiplierBps","type":"uint256"}],"stateMutability":"view","type":"function"},{"inputs":[{"internalType":"address","name":"to","type":"address"},{"internalType":"uint256","name":"amount","type":"uint256"}],"name":"withdraw","outputs":[],"stateMutability":"nonpayable","type":"function"},{"inputs":[],"name":"withdrawFees","outputs":[],"stateMutability":"nonpayable","type":"function"}],"evm":{"bytecode":{"linkReferences":{},"object":"6080346200028b57601f6200392d38819003918201601f19168301916001600160401b039182841185851017620002905781608092869260409687528339810103126200028b576200005183620002c6565b9060209162000062838601620002c6565b506200007e606062000076868801620002c6565b9601620002c6565b600160008181556002548254336001600160a01b03198083168217909555929993956001600160a01b03938493849390919084167f8be0079c531659141344cd1fd0a4f28419497f9722a3daafe3b4186f6b6457e08e80a36001600160a81b03191660025560016011551692620000f7841515620002db565b169262000106841515620002db565b169362000115851515620002db565b86519060c0820190811182821017620002775792620001a4959260a09592899a958a528181523089820152828a8201528460608201528560808201526101f49687910152826003541617600355308260045416176004558160055416176005556006541617600655600755806008556200018e620002a6565b906103e8825283820152603c8482015262000314565b81620001af620002a6565b6105dc80825261032084830152620001cf61012c92838582015262000314565b6200021c620001dd620002a6565b91620001fb6107d0938481526104b080898301528782015262000314565b62000205620002a6565b906109c48252868201526138408582015262000314565b62000226620002a6565b8181528285820152611770938491015260135560145560155562000249620002a6565b61271090818152610e108093820152611f409384910152601655601755601855516135b390816200037a8239f35b634e487b7160e01b89526041600452602489fd5b600080fd5b634e487b7160e01b600052604160045260246000fd5b60405190606082016001600160401b038111838210176200029057604052565b51906001600160a01b03821682036200028b57565b15620002e357565b60405162461bcd60e51b81526020600482015260096024820152683d32b9379030b2323960b91b6044820152606490fd5b6012546801000000000000000081101562000290576001810180601255811015620003635760406002916012600052600360206000209102019280518455602081015160018501550151910155565b634e487b7160e01b600052603260045260246000fdfe608080604052600436101561001357600080fd5b60003560e01c90816305acb1a81461282357508063087bc2281461274557806308e9daa5146126e55780630a2cc9dc146126b35780630b5d86b2146126965780630b78f9c01461266a5780630c8f81b51461262d5780631281311d146123aa57806324706ff3146123755780633620875e14611fc357806338c88cb414611f415780633f4ba83a14611ea55780634191524414611e88578063476343ee14611dd057806347fda41a146114f2578063533cd23f14611d9b5780635914ac9a14611d7e5780635a807e6514611cfc5780635c975abb14611cd65780635fe05c1614611ca45780636e61a4a114611c735780636f16a59514611c575780636f61b8ca14611c17578063715018a614611bb057806379502c5514611b5757806379ba509714611a945780637aee1d37146119815780637ecdd2f4146115595780638456cb59146114f75780638c858a14146114f25780638da5cb5b146114c95780638fab2543146113f357806392edfdb5146113ab5780639477d85d146112dd57806395082d25146112be57806395ccea67146112355780639731aa2e14611218578063a03805aa146111fb578063b2304c5b14611164578063bcfc1b9e1461108d578063bf98199514610ffd578063c157253d14610f59578063c2cc7c3114610c6b578063c3b297a214610b0f578063c3f909d4146109ee578063c74a5dcf1461089f578063cdfb6cf3146107f4578063cec18a6214610771578063df3225ac14610754578063e1fa76381461046f578063e30c397814610446578063e5d5d6fb146103ee578063f2fde38b14610381578063f3f4370314610347578063f3fef3a3146102fe578063f4364515146102e25763f4da1e2a1461029257600080fd5b346102dd5760403660031901126102dd576001600160a01b036102b361283e565b16600052600d6020526040600020602435600052602052602060ff60406000205416604051908152f35b600080fd5b346102dd5760003660031901126102dd57602060405160008152f35b346102dd5760403660031901126102dd5761034061031a61283e565b610322612ee9565b61032a612f41565b60035460243591906001600160a01b0316613037565b6001600055005b346102dd5760203660031901126102dd576001600160a01b0361036861283e565b1660005260106020526020604060002054604051908152f35b346102dd5760203660031901126102dd5761039a61283e565b6103a2612ee9565b600280546001600160a01b0319166001600160a01b039283169081179091556001549091167f38d16b8cac22d99fc7c124b9cd0de2d3fa1faef420bfe791d8c362d765e22700600080a3005b346102dd5760203660031901126102dd576004356012548110156102dd5761041590612b53565b50805461044260026001840154930154604051938493846040919493926060820195825260208201520152565b0390f35b346102dd5760003660031901126102dd576002546040516001600160a01b039091168152602090f35b346102dd5761047d36612a52565b90610486612f41565b61048e612f97565b80600052602091600983526040600020918160005260406000209260ff600582015416158015610745575b610733578282146106e0576001818101546040516370a0823160e01b81523360048201529196916001600160a01b039183908290602490829086165afa8015610727576000906106f2575b670de0b6b3a76400009150106106e0576002830180549661052d61052789613244565b98613272565b33600052600b85526040600020805460ff8116916002831061065b575b50505090600461055b81938a6132a0565b968a15159485610644575b8c6105728a8354612c0b565b90811161063e57508c905b55600283018c61058e8a8354612c3b565b90811161063857508c905b55016105a58154612eda565b9055016105b28154612eda565b90556105ee575b506040519485528401527fef329f5fb6c9847cf872e344b0b2e169ffa718dc97ca5b0f306e8c3143c4807760403394a4600055005b806005541660005260108252604060002061060a878254612c0b565b90556005541660405186815260008051602061355e833981519152836561747461636b60d01b92a3866105b9565b90610599565b9061057d565b6106568c886003541630903390612fde565b610566565b919a5092915060009961c35060ff82146106ca57600494859360ff8f61055b950116809260ff1916179055604051908b82528c8a83015260408201524260608201527f1c13d90649ec790c33b7fe69253d8ff8ee991511ae1f33c04c76fbf4da2144fe60803392a2929361054a565b634e487b7160e01b600052601160045260246000fd5b60405163162908e360e11b8152600490fd5b508281813d8311610720575b610708818361290e565b810103126102dd57670de0b6b3a76400009051610504565b503d6106fe565b6040513d6000823e3d90fd5b60405163dc78682560e01b8152600490fd5b5060ff600585015416156104b9565b346102dd5760003660031901126102dd576020604051610bb88152f35b346102dd5760403660031901126102dd5760a061078c61283e565b610797602435613244565b90600180841b0316600052600b6020526002604060002060ff604051916107bd836128ba565b541680915210806000146107ee5760005b604051928352600060208401526000604084015260608301526080820152f35b816107ce565b346102dd5760403660031901126102dd5761080d612854565b60043560005260209060098252604060002060ff6005820154161561073357600101546040516370a0823160e01b81526001600160a01b03928316600482015291839183916024918391165afa90811561072757600091610872575b50604051908152f35b90508181813d8311610898575b610889818361290e565b810103126102dd575182610869565b503d61087f565b346102dd576020806003193601126102dd5760e09060043580600052600e825260406000206001604051916108d3836128f2565b80548352015491838201928352600052600f83526040600020906001604051926108fc846128f2565b80548452015490848301918252600090805180151590816109d9575b506109c0575b50600092805180151590816109ab575b5061098a575b509051601654916127108383106109755750611f40945b51956013549060405197885287015260408601526060850152608084015260a083015260c0820152f35b9480516013541161094b57611770955061094b565b6109a491935061099e601754915142612c3b565b90612c3b565b9186610934565b6109b6915042612c3b565b601754118861092e565b6109d3915061099e601454915142612c3b565b8661091e565b6109e4915042612c3b565b6014541188610918565b346102dd5760003660031901126102dd5761038060018060a01b038060035416908060055416906006541661ffff908160075416916008541692604051948552600060208601523060408601526060850152608084015260a083015260c0820152610bb860e0820152611b58610100820152600161012082015261d6d861014082015261d8fe6101608201526001610180820152631dcd65006101a0820152633b9aca006101c082015260006101e08201526201adb061020082015262015f906102208201526201117061024082015261c350610260820152620493e0610280820152620557306102a082015262061a806102c082015260006102e08201526000610300820152600061032082015260006103408201526000610360820152f35b346102dd57610b1d36612a52565b610b25612ee9565b610b2d612f41565b8160005260206009815260406000209160ff600584015416156107335760038301928354610c595784600052600a835260ff60406000205416610c4757690a968163f0a57b4000008203610c355760249360018492018360018060a01b0392610b9d828585541630903390612fde565b555416604051948580926370a0823160e01b82523060048301525afa92831561072757600093610c04575b50610bf6817f12bf2f58bcd7842e8641f77f59a71f9c54319ad731425208d546cf83acbe4410941015612e2d565b604051908152a26001600055005b92508183813d8311610c2e575b610c1b818361290e565b810103126102dd57915191610bf6610bc8565b503d610c11565b60405163f556274b60e01b8152600490fd5b604051632344b20d60e21b8152600490fd5b6040516348aa010560e11b8152600490fd5b346102dd5760603660031901126102dd5767ffffffffffffffff6024358181116102dd57366023820112156102dd578060040135610ca881612b37565b91610cb6604051938461290e565b81835236602483830101116102dd57816000926024602093018386013783010152610cdf61286a565b90610ce8612ee9565b600435600052600960205260ff60056040600020015416610f47576001600160a01b038216156106e057604051610d1e816128d6565b81815260018060a01b0383166020820152600060408201526000606082015260006080820152600160a0820152600435600052600960205260406000209381518051918211610f3157610d718654612880565b601f8111610eed575b50602090601f8311600114610e5c57958260a0936005937f93ec52636adb98887fbb2b11fff34e049c2d8a477aa6fdf3f843f04e312545289899600092610e51575b50508160011b916000199060031b1c19161781555b60018101600180851b036020860151166001600160601b03851b82541617905560408401516002820155606084015160038201556080840151600482015501910151151560ff80198354169116179055610e36604051916040835260408301906129d5565b6001600160a01b0390931660208201526004359281900390a2005b015190508980610dbc565b908660005260206000209160005b601f1985168110610ed55750836005937f93ec52636adb98887fbb2b11fff34e049c2d8a477aa6fdf3f843f04e3125452898999360019360a097601f19811610610ebc575b505050811b018155610dd1565b015160001960f88460031b161c19169055898080610eaf565b91926020600181928685015181550194019201610e6a565b866000526020600020601f840160051c810160208510610f2a575b601f830160051c82018110610f1e575050610d7a565b60008155600101610f08565b5080610f08565b634e487b7160e01b600052604160045260246000fd5b6040516357399e9560e11b8152600490fd5b346102dd57610f6736612a52565b9060005260096020526040600020604051610f81816128d6565b610f8a82612930565b815260018060a01b03600183015416602082015260ff6005600284015493604084019485526003810154606085015260048101546080850152015416159060a0821591015261073357670de0b6b3a7640000610ff3602093610fee60649451612bfc565b612c18565b0404604051908152f35b346102dd5760203660031901126102dd57600435600052600960205260406000206040519061102b826128d6565b61044260a061103983612930565b92838552600180831b0360018201541694856020820152600282015480604083015260038301549182606082015260ff60056004860154958660808501520154161515948591015260405196879687612a15565b346102dd5761109b36612a52565b6110a3612ee9565b6110ab612f41565b816000526009602052604060002060ff6005820154161561073357600281019081546111525760030154610c595782600052600a60205260ff60406000205416610c4757624c4b408203611140576064820291808304606414811517156106ca577f3d8ae201f3349eb8d82e56213de7e48589b5249a4e28aa500c7433a13fe5bc109260209255604051908152a26001600055005b6040516336f27e0760e21b8152600490fd5b604051633ea8fac960e21b8152600490fd5b346102dd5760403660031901126102dd57606061117f61283e565b6001600160a01b03166000818152600c602090815260408083206024358085529252909120549190428311156111f0576111bc6001934290612c3b565b915b600052600d60205260406000209060005260205260ff6040600020541690604051921515835260208301526040820152f35b6000925082916111be565b346102dd5760003660031901126102dd57602060405161c3508152f35b346102dd5760003660031901126102dd5760206040516101f48152f35b346102dd5760403660031901126102dd5761124e61283e565b611256612ee9565b61125e612f41565b6003546001600160a01b039182169190811682146112885761034091602435916001541690613037565b60405162461bcd60e51b815260206004820152600e60248201526d757365207769746864726177282960901b6044820152606490fd5b346102dd5760003660031901126102dd5760206040516305f5e1008152f35b346102dd576112eb36612a52565b906000526009602052604060002090604051611306816128d6565b61130f83612930565b815260018060a01b03600184015416602082015260ff6005600285015494604084019586526003810154606085015260048101546080850152015416159060a08215910152610733576064670de0b6b3a764000061138361139b9360209551616c7f81116000146113a357610fee90612c2b565b040461271061139460085483612c18565b0490612c3b565b604051908152f35b506001612c18565b346102dd5760403660031901126102dd576001600160a01b036113cc61283e565b16600052600c60205260406000206024356000526020526020604060002054604051908152f35b346102dd5760203660031901126102dd5760043560005260096020526040600020604051611420816128d6565b61142982612930565b815260018060a01b03600183015416602082015260ff6005600284015493604084019485526003810154606085015260048101546080850152015416159060a08215910152610733575160649004624c4b4081116114a1575060606201adb0620493e05b604051916000835260208301526040820152f35b6298968011156114ba57606062015f906205573061148d565b60606201117062061a8061148d565b346102dd5760003660031901126102dd576001546040516001600160a01b039091168152602090f35b612a86565b346102dd5760003660031901126102dd57611510612ee9565b611518612f97565b6002805460ff60a01b1916600160a01b1790556040513381527f62e78cea01bee320cd4e420270b5ea74000d11b0c9f74754ebdbfc544b05a25890602090a1005b346102dd576020806003193601126102dd5760043567ffffffffffffffff8082116102dd57366023830112156102dd5781600401359081116102dd57602480830192602436918460061b0101116102dd576115b2612f41565b6115ba612f97565b60058083036106e05760005b8381106119195750506115d882612e94565b9060009160005b8481106118af575060005b83811061181657505050506115fe81612e94565b9061160881612e94565b9160005b8281106117ca575060009360005b8381106117ab5750841515938461178b575b60005b84811061169c57878787611644576001600055005b60008051602061355e83398151915260018060a01b038060055416600052601084526040600020611676848254612c0b565b905560055460405193845216926b0c2e8e8c2c6d6bec4c2e8c6d60a31b92a38080610340565b806116aa6001928786612e6c565b35896116b7838988612e6c565b01358160005260098b526040600020918160005260046040600020816116e76116e0888b612ec6565b51866132a0565b956002808201906116f9898354612c0b565b8b9290808410611785575082905b55840190611716898354612c3b565b80821061177d5750905b550161172c8154612eda565b9055016117398154612eda565b90556117458489612ec6565b51926040519384528c8401527fef329f5fb6c9847cf872e344b0b2e169ffa718dc97ca5b0f306e8c3143c4807760403394a40161162f565b905090611720565b90611707565b6003546117a6908790309033906001600160a01b0316612fde565b61162c565b946117c36001916117bc8886612ec6565b5190612c0b565b950161161a565b806117d86001928588612e6c565b35600052600987526118056002604060002001546117f581613244565b6117ff8487612ec6565b52613272565b61180f8287612ec6565b520161160c565b6118208183612ec6565b5160005260098752828760018060a01b0360016040600020015416604051928380926370a0823160e01b82523360048301525afa80156107275760009061187a575b670de0b6b3a76400009150106106e0576001016115ea565b508781813d83116118a8575b611890818361290e565b810103126102dd57670de0b6b3a76400009051611862565b503d611886565b6118ba818688612e6c565b356000805b8681106118f6575b50156118d7575b506001016115df565b846118ef916118e96001949786612ec6565b52612eda565b93906118ce565b826119018287612ec6565b511461190f576001016118bf565b50506001896118c7565b611924818587612e6c565b3586611931838789612e6c565b0135908181146106e05760005260098752604060002090600052828060406000209260ff92839101541615928315611973575b505050610733576001016115c6565b015416159050878381611964565b346102dd5761198f36612a52565b611997612ee9565b61199f612f41565b8160005260206009815260406000209160ff60058401541615610733576024826001850194600360018060a01b03916119df86848a541630903390612fde565b01956119ec858854612c0b565b8097555416604051928380926370a0823160e01b82523060048301525afa90811561072757600091611a47575b507f41fb7ad419fc7623dde1142cd095a12727aa6965ab1d484a6d0d9327403d98ba93610bf6911015612e2d565b90508281813d8311611a8d575b611a5e818361290e565b810103126102dd57517f41fb7ad419fc7623dde1142cd095a12727aa6965ab1d484a6d0d9327403d98ba611a19565b503d611a54565b346102dd5760003660031901126102dd576002546001600160a01b033381831603611b00576001600160601b0360a01b8092166002556001549133908316176001553391167f8be0079c531659141344cd1fd0a4f28419497f9722a3daafe3b4186f6b6457e0600080a3005b60405162461bcd60e51b815260206004820152602960248201527f4f776e61626c6532537465703a2063616c6c6572206973206e6f7420746865206044820152683732bb9037bbb732b960b91b6064820152608490fd5b346102dd5760003660031901126102dd5760c060018060a01b03806003541690806004541690806005541690600654166007549160085493604051958652602086015260408501526060840152608083015260a0820152f35b346102dd5760003660031901126102dd57611bc9612ee9565b600280546001600160a01b03199081169091556001805491821690556000906001600160a01b03167f8be0079c531659141344cd1fd0a4f28419497f9722a3daafe3b4186f6b6457e08280a3005b346102dd5760c0611c30611c2a36612a52565b90612c8e565b936040939193519586526020860152604085015260608401526080830152151560a0820152f35b346102dd5760003660031901126102dd57602060405160018152f35b346102dd5760203660031901126102dd57600435600052600a602052602060ff604060002054166040519015158152f35b346102dd5760003660031901126102dd5760165460175460185460408051938452602084019290925290820152606090f35b346102dd5760003660031901126102dd57602060ff60025460a01c166040519015158152f35b346102dd5760203660031901126102dd576001600160a01b03611d1d61283e565b16600052600b602052610100604060002060ff60405191611d3d836128ba565b5416809152601354906016546040519260008452602084015260006040840152600060608401526080830152600060a083015260c0820152600260e0820152f35b346102dd5760003660031901126102dd576020604051611b588152f35b346102dd5760203660031901126102dd57600435600052600e6020526040806000206001815491015482519182526020820152f35b346102dd5760003660031901126102dd57611de9612f41565b3360005260106020526040600020548015611e585733600081815260106020526040812055600354611e259183916001600160a01b0316613037565b6040519081527f78473f3f373f7673597f4f0fa5873cb4d375fea6d4339ad6b56dbd411513cb3f60203392a26001600055005b60405162461bcd60e51b81526020600482015260086024820152676e6f2066756e647360c01b6044820152606490fd5b346102dd5760003660031901126102dd57602060405161d8fe8152f35b346102dd5760003660031901126102dd57611ebe612ee9565b60025460ff8160a01c1615611f055760ff60a01b19166002556040513381527f5db9ee0a495bf2e6ff9c91a7834c1ba4fdd244a5e8aa4e537bd38aeae4b073aa90602090a1005b60405162461bcd60e51b815260206004820152601460248201527314185d5cd8589b194e881b9bdd081c185d5cd95960621b6044820152606490fd5b346102dd5760203660031901126102dd576001600160a01b03611f6261283e565b16600052600b602052604060002060ff60405191611f7f836128ba565b541680915260028110600014611fb757806002039060ff82116106ca5760ff6060925b60405192835260026020840152166040820152f35b60609060ff6000611fa2565b346102dd57611fd136612a68565b611fdc939293612f41565b611fe4612f97565b42116123635782156106e05781600052602060098152604060002060ff600582015416156107335760028101918254616c7f811160001461235a5761202890612c2b565b915b670de0b6b3a76400006064816120408a87612c18565b04049068056bc75e2d63100000890482106123485761207a61207261271061206a60085486612c18565b048094612c3b565b8a8a33613087565b6003546040516370a0823160e01b81523060048201526001600160a01b039a9399929693918890829060249082908f165afa8015610727578a91600091612317575b50106123055788106122f3576120da8b30338c600187015416612fde565b805461d8fe908c82029182048d036106ca576003946120fa920490612c3b565b600181116122ed57506001905b5501612114898254612c0b565b905586600052600a83526040600020600160ff19825416179055801580156121e2575b50507f5e0922a23309a2659c544f945243e9b10b81c64914f7fc78e194f8a7e8545b7d9461217492828693612193575b5050339060035416613037565b6040805195865260208601919091528401523392606090a36001600055005b82600554166000526010825260406000206121af828254612c0b565b905560008051602061355e833981519152836005541692604051928352680616e74695f64756d760bc1b92a38880612167565b91959092610bb892838502938585041417156106ca577f5e0922a23309a2659c544f945243e9b10b81c64914f7fc78e194f8a7e8545b7d966121749461222e6127108996048092612c3b565b908061229a575b5080612248575b50925092819650612137565b8360055416600052601083526040600020612264828254612c0b565b905583600554169060405190815260008051602061355e833981519152846b73656c6c5f726576656e756560a01b92a38a61223c565b84600654166000526010845260406000206122b6828254612c0b565b905584600654169060405190815260008051602061355e833981519152856c1cd95b1b17dc9959995c9c985b609a1b92a38b612235565b90612107565b604051638199f5f360e01b8152600490fd5b60405163681c950b60e01b8152600490fd5b809250898092503d8311612341575b612330818361290e565b810103126102dd578990518e6120bc565b503d612326565b604051632f03815560e11b8152600490fd5b5060019161202a565b60405163559895a360e01b8152600490fd5b346102dd5760203660031901126102dd57600435600052600f6020526040806000206001815491015482519182526020820152f35b346102dd576123b836612a68565b6123c3939293612f41565b6123cb612f97565b42116123635782156106e05781600052602060098152604060002060ff600582015416156107335760028101906124028254612bfc565b91670de0b6b3a76400009460648661241a8a87612c18565b0404946127109182871061261b5786116122f3576003840189815410612609576003546001600160a01b039490612458908990309033908916612fde565b805461d6d8908c82029182048d036106ca578c9a612477920490612c0b565b6001811161260357506001905b55612490888254612c3b565b905587600052600a81526040600020600160ff19825416179055816124b760075488612c18565b049182159182156124fa575b5050505093612174917f7280bdf45dbd84499327763e7e91b31324c8fc5e8d556813089f71c9a8d91f5c9560013392015416613037565b90939194929750610bb894858902958987041417156106ca577f7280bdf45dbd84499327763e7e91b31324c8fc5e8d556813089f71c9a8d91f5c976125468b9561217497048092612c3b565b90806125b1575b5080612560575b829498508395506124c3565b826005541660005260108252604060002061257c828254612c0b565b905560008051602061355e8339815191528360055416926040519283526a6275795f726576656e756560a81b92a38980612554565b83600654166000526010835260406000206125cd828254612c0b565b905583600654169060405190815260008051602061355e833981519152846b189d5e57dc9959995c9c985b60a21b92a38b61254d565b90612484565b604051630cea840760e21b8152600490fd5b6040516302144cb960e11b8152600490fd5b346102dd5760203660031901126102dd576001600160a01b0361264e61283e565b16600052600b602052602060ff60406000205416604051908152f35b346102dd5761267836612a52565b90612681612ee9565b612689612f41565b6007556008556001600055005b346102dd5760003660031901126102dd57602060405161d6d88152f35b346102dd5760003660031901126102dd5760135460145460155460408051938452602084019290925290820152606090f35b346102dd5760203660031901126102dd576004356000526009602052604060002061270f81612930565b61044260018060a01b0360018401541692600281015490600381015460ff60056004840154930154169260405196879687612a15565b346102dd5760803660031901126102dd5761275e61283e565b612766612854565b5061276f61286a565b906001600160a01b0360643581811692908390036102dd578190612791612ee9565b612799612f41565b16926127a6841515612ba4565b16916127b3831515612ba4565b6127be821515612ba4565b816001600160601b0360a01b82816003541617600355308160045416176004558481600554161760055560065416176006556040519182527ffd1f2d277be92e04d3e6142d258c9156bc483adb4d9dee83c28740f1b77e610060203093a46001600055005b346102dd5760003660031901126102dd576020906011548152f35b600435906001600160a01b03821682036102dd57565b602435906001600160a01b03821682036102dd57565b604435906001600160a01b03821682036102dd57565b90600182811c921680156128b0575b602083101461289a57565b634e487b7160e01b600052602260045260246000fd5b91607f169161288f565b6020810190811067ffffffffffffffff821117610f3157604052565b60c0810190811067ffffffffffffffff821117610f3157604052565b6040810190811067ffffffffffffffff821117610f3157604052565b90601f8019910116810190811067ffffffffffffffff821117610f3157604052565b9060405191826000825461294381612880565b908184526020946001916001811690816000146129b35750600114612974575b5050506129729250038361290e565b565b600090815285812095935091905b81831061299b5750506129729350820101388080612963565b85548884018501529485019487945091830191612982565b9250505061297294925060ff191682840152151560051b820101388080612963565b919082519283825260005b848110612a01575050826000602080949584010152601f8019910116010190565b6020818301810151848301820152016129e0565b9491969592612a2f60a0959260c0885260c08801906129d5565b97600180871b031660208701526040860152606085015260808401521515910152565b60409060031901126102dd576004359060243590565b60809060031901126102dd5760043590602435906044359060643590565b346102dd576020806003193601126102dd5760006004358152600982526040812060ff6005820154161561073357600101546040516370a0823160e01b8152306004820152908390829060249082906001600160a01b03165afa918215612b2b578092612af8575b5050604051908152f35b9091508282813d8311612b24575b612b10818361290e565b81010312612b215750513880612aee565b80fd5b503d612b06565b604051903d90823e3d90fd5b67ffffffffffffffff8111610f3157601f01601f191660200190565b601254811015612b8e576003906012600052027fbb8a6a4669ba250d26cd7a459eca9d215f8307e33aebe50379bc5a3617ec34440190600090565b634e487b7160e01b600052603260045260246000fd5b15612bab57565b60405162461bcd60e51b81526020600482015260096024820152683d32b9379030b2323960b91b6044820152606490fd5b8115612be6570490565b634e487b7160e01b600052601260045260246000fd5b90616b6c82018092116106ca57565b919082018092116106ca57565b818102929181159184041417156106ca57565b616c7e198101919082116106ca57565b919082039182116106ca57565b80156106ca576000190190565b906040516060810181811067ffffffffffffffff821117610f315760405260406002829480548452600181015460208501520154910152565b91906000908382526009602052604092838320908451612cad816128d6565b612cb683612930565b815260019060018060a01b0360018501541660208201526002840154878201526003840154906060810191825260ff600560049660048101546080850152015416159060a08215910152612e1c57518015612e1257612710808602908682041486151715612dfe5790612d2891612bdc565b965b85938692601254805b612dac575b505050338652600c60205286862090865260205285852054904282119315612d8f57612d66612d6c91612b53565b50612c55565b6020810151960151948315612d875750925b95949392911590565b905092612d7e565b509094508115612da457915b94938392911590565b508291612d9b565b6000198101818111612deb57612dc181612b53565b50548c1015612dda5750612dd490612c48565b80612d33565b939650509250509092388080612d38565b634e487b7160e01b8a526011845260248afd5b634e487b7160e01b87526011600452602487fd5b5061271096612d2a565b865163dc78682560e01b8152600490fd5b15612e3457565b60405162461bcd60e51b815260206004820152601060248201526f0e4cae6cae4ecca40dad2e6dac2e8c6d60831b6044820152606490fd5b9190811015612b8e5760061b0190565b67ffffffffffffffff8111610f315760051b60200190565b90612e9e82612e7c565b612eab604051918261290e565b8281528092612ebc601f1991612e7c565b0190602036910137565b8051821015612b8e5760209160051b010190565b60001981146106ca5760010190565b6001546001600160a01b03163303612efd57565b606460405162461bcd60e51b815260206004820152602060248201527f4f776e61626c653a2063616c6c6572206973206e6f7420746865206f776e65726044820152fd5b600260005414612f52576002600055565b60405162461bcd60e51b815260206004820152601f60248201527f5265656e7472616e637947756172643a207265656e7472616e742063616c6c006044820152606490fd5b60ff60025460a01c16612fa657565b60405162461bcd60e51b815260206004820152601060248201526f14185d5cd8589b194e881c185d5cd95960821b6044820152606490fd5b6040516323b872dd60e01b60208201526001600160a01b03928316602482015292909116604483015260648083019390935291815260a081019181831067ffffffffffffffff841117610f3157612972926040526133a5565b60405163a9059cbb60e01b60208201526001600160a01b039092166024830152604480830193909352918152608081019167ffffffffffffffff831182841017610f3157612972926040526133a5565b9091939293600092808452602093600985526040928382209460018060a01b031694858352600c87528483208484528752848320544210613219576003015490811561320e57612710908181029181830414901517156131fa57906130eb91612bdc565b905b808192601254805b6131a8575b50501561319f57918160ff8580957f2a838f5c104d650ae035f2d2ec3bf5a15d487e067b22a128310750c7c669254e9761315461271061314c8f6131428f9b612d6690612b53565b9e8f015190612c18565b04809e612c3b565b9a0194613162865142612c0b565b8a8352600c8852838320828452885283832055898252600d8752828220908252865220911660ff1982541617905551825191888352820152a29190565b95945050505050565b60001981018181116131e6576131bd81612b53565b50548310156131d657506131d090612c48565b806130f5565b93945050505090600138806130fa565b634e487b7160e01b85526011600452602485fd5b634e487b7160e01b83526011600452602483fd5b5050612710906130ed565b50509060249483948352600c815283832091835252205490519063083968db60e11b82526004820152fd5b60649004624c4b40811161325a5750620493e090565b62989680111561326b576205573090565b62061a8090565b60649004624c4b40811115613298576298968011613291576201117090565b62015f9090565b506201adb090565b6127109161332691600052600e602052604060002090600f60205260406000206132cb835442612c3b565b6014541015613390574283556001808401555b6132e9815442612c3b565b601754101561337b574281556001808201555b6001015460165485936000929091116133625750509050611f409060025b8061332a575b50612c18565b0490565b6040519081528260208201527f27f4adaa563534a29b469eeca560d7c16c57d90a056d9649a00fd3fa777f04cd60403392a238613320565b600101546013541161331a57506117709150600161331a565b600181016133898154612eda565b90556132fc565b6001830161339e8154612eda565b90556132de565b60018060a01b0316906134226040516133bd816128f2565b6020938482527f5361666545524332303a206c6f772d6c6576656c2063616c6c206661696c6564858301526000808587829751910182855af13d156134bc573d9161340783612b37565b92613415604051948561290e565b83523d868885013e6134c0565b805191821591848315613494575b50505090501561343d5750565b6084906040519062461bcd60e51b82526004820152602a60248201527f5361666545524332303a204552433230206f7065726174696f6e20646964206e6044820152691bdd081cdd58d8d9595960b21b6064820152fd5b9193818094500103126134b857820151908115158203612b21575080388084613430565b5080fd5b6060915b9192901561352257508151156134d4575090565b3b156134dd5790565b60405162461bcd60e51b815260206004820152601d60248201527f416464726573733a2063616c6c20746f206e6f6e2d636f6e74726163740000006044820152606490fd5b8251909150156135355750805190602001fd5b60405162461bcd60e51b8152602060048201529081906135599060248301906129d5565b0390fdfe6d6af3da37cd7b25b9387163800a48ac6b2b0c6caa0c58df427accdf107798b8a26469706673582212208e9803da4540ba5271fe4ac8da8a2b45fea1abfc697e34da188249ce40796a8d64736f6c63430008180033","opcodes":"PUSH1 0x80 CALLVALUE PUSH3 0x28B JUMPI PUSH1 0x1F PUSH3 0x392D CODESIZE DUP2 SWAP1 SUB SWAP2 DUP3 ADD PUSH1 0x1F NOT AND DUP4 ADD SWAP2 PUSH1 0x1 PUSH1 0x1 PUSH1 0x40 SHL SUB SWAP2 DUP3 DUP5 GT DUP6 DUP6 LT OR PUSH3 0x290 JUMPI DUP2 PUSH1 0x80 SWAP3 DUP7 SWAP3 PUSH1 0x40 SWAP7 DUP8 MSTORE DUP4 CODECOPY DUP2 ADD SUB SLT PUSH3 0x28B JUMPI PUSH3 0x51 DUP4 PUSH3 0x2C6 JUMP JUMPDEST SWAP1 PUSH1 0x20 SWAP2 PUSH3 0x62 DUP4 DUP7 ADD PUSH3 0x2C6 JUMP JUMPDEST POP PUSH3 0x7E PUSH1 0x60 PUSH3 0x76 DUP7 DUP9 ADD PUSH3 0x2C6 JUMP JUMPDEST SWAP7 ADD PUSH3 0x2C6 JUMP JUMPDEST PUSH1 0x1 PUSH1 0x0 DUP2 DUP2 SSTORE PUSH1 0x2 SLOAD DUP3 SLOAD CALLER PUSH1 0x1 PUSH1 0x1 PUSH1 0xA0 SHL SUB NOT DUP1 DUP4 AND DUP3 OR SWAP1 SWAP6 SSTORE SWAP3 SWAP10 SWAP4 SWAP6 PUSH1 0x1 PUSH1 0x1 PUSH1 0xA0 SHL SUB SWAP4 DUP5 SWAP4 DUP5 SWAP4 SWAP1 SWAP2 SWAP1 DUP5 AND PUSH32 0x8BE0079C531659141344CD1FD0A4F28419497F9722A3DAAFE3B4186F6B6457E0 DUP15 DUP1 LOG3 PUSH1 0x1 PUSH1 0x1 PUSH1 0xA8 SHL SUB NOT AND PUSH1 0x2 SSTORE PUSH1 0x1 PUSH1 0x11 SSTORE AND SWAP3 PUSH3 0xF7 DUP5 ISZERO ISZERO PUSH3 0x2DB JUMP JUMPDEST AND SWAP3 PUSH3 0x106 DUP5 ISZERO ISZERO PUSH3 0x2DB JUMP JUMPDEST AND SWAP4 PUSH3 0x115 DUP6 ISZERO ISZERO PUSH3 0x2DB JUMP JUMPDEST DUP7 MLOAD SWAP1 PUSH1 0xC0 DUP3 ADD SWAP1 DUP2 GT DUP3 DUP3 LT OR PUSH3 0x277 JUMPI SWAP3 PUSH3 0x1A4 SWAP6 SWAP3 PUSH1 0xA0 SWAP6 SWAP3 DUP10 SWAP11 SWAP6 DUP11 MSTORE DUP2 DUP2 MSTORE ADDRESS DUP10 DUP3 ADD MSTORE DUP3 DUP11 DUP3 ADD MSTORE DUP5 PUSH1 0x60 DUP3 ADD MSTORE DUP6 PUSH1 0x80 DUP3 ADD MSTORE PUSH2 0x1F4 SWAP7 DUP8 SWAP2 ADD MSTORE DUP3 PUSH1 0x3 SLOAD AND OR PUSH1 0x3 SSTORE ADDRESS DUP3 PUSH1 0x4 SLOAD AND OR PUSH1 0x4 SSTORE DUP2 PUSH1 0x5 SLOAD AND OR PUSH1 0x5 SSTORE PUSH1 0x6 SLOAD AND OR PUSH1 0x6 SSTORE PUSH1 0x7 SSTORE DUP1 PUSH1 0x8 SSTORE PUSH3 0x18E PUSH3 0x2A6 JUMP JUMPDEST SWAP1 PUSH2 0x3E8 DUP3 MSTORE DUP4 DUP3 ADD MSTORE PUSH1 0x3C DUP5 DUP3 ADD MSTORE PUSH3 0x314 JUMP JUMPDEST DUP2 PUSH3 0x1AF PUSH3 0x2A6 JUMP JUMPDEST PUSH2 0x5DC DUP1 DUP3 MSTORE PUSH2 0x320 DUP5 DUP4 ADD MSTORE PUSH3 0x1CF PUSH2 0x12C SWAP3 DUP4 DUP6 DUP3 ADD MSTORE PUSH3 0x314 JUMP JUMPDEST PUSH3 0x21C PUSH3 0x1DD PUSH3 0x2A6 JUMP JUMPDEST SWAP2 PUSH3 0x1FB PUSH2 0x7D0 SWAP4 DUP5 DUP2 MSTORE PUSH2 0x4B0 DUP1 DUP10 DUP4 ADD MSTORE DUP8 DUP3 ADD MSTORE PUSH3 0x314 JUMP JUMPDEST PUSH3 0x205 PUSH3 0x2A6 JUMP JUMPDEST SWAP1 PUSH2 0x9C4 DUP3 MSTORE DUP7 DUP3 ADD MSTORE PUSH2 0x3840 DUP6 DUP3 ADD MSTORE PUSH3 0x314 JUMP JUMPDEST PUSH3 0x226 PUSH3 0x2A6 JUMP JUMPDEST DUP2 DUP2 MSTORE DUP3 DUP6 DUP3 ADD MSTORE PUSH2 0x1770 SWAP4 DUP5 SWAP2 ADD MSTORE PUSH1 0x13 SSTORE PUSH1 0x14 SSTORE PUSH1 0x15 SSTORE PUSH3 0x249 PUSH3 0x2A6 JUMP JUMPDEST PUSH2 0x2710 SWAP1 DUP2 DUP2 MSTORE PUSH2 0xE10 DUP1 SWAP4 DUP3 ADD MSTORE PUSH2 0x1F40 SWAP4 DUP5 SWAP2 ADD MSTORE PUSH1 0x16 SSTORE PUSH1 0x17 SSTORE PUSH1 0x18 SSTORE MLOAD PUSH2 0x35B3 SWAP1 DUP2 PUSH3 0x37A DUP3 CODECOPY RETURN JUMPDEST PUSH4 0x4E487B71 PUSH1 0xE0 SHL DUP10 MSTORE PUSH1 0x41 PUSH1 0x4 MSTORE PUSH1 0x24 DUP10 REVERT JUMPDEST PUSH1 0x0 DUP1 REVERT JUMPDEST PUSH4 0x4E487B71 PUSH1 0xE0 SHL PUSH1 0x0 MSTORE PUSH1 0x41 PUSH1 0x4 MSTORE PUSH1 0x24 PUSH1 0x0 REVERT JUMPDEST PUSH1 0x40 MLOAD SWAP1 PUSH1 0x60 DUP3 ADD PUSH1 0x1 PUSH1 0x1 PUSH1 0x40 SHL SUB DUP2 GT DUP4 DUP3 LT OR PUSH3 0x290 JUMPI PUSH1 0x40 MSTORE JUMP JUMPDEST MLOAD SWAP1 PUSH1 0x1 PUSH1 0x1 PUSH1 0xA0 SHL SUB DUP3 AND DUP3 SUB PUSH3 0x28B JUMPI JUMP JUMPDEST ISZERO PUSH3 0x2E3 JUMPI JUMP JUMPDEST PUSH1 0x40 MLOAD PUSH3 0x461BCD PUSH1 0xE5 SHL DUP2 MSTORE PUSH1 0x20 PUSH1 0x4 DUP3 ADD MSTORE PUSH1 0x9 PUSH1 0x24 DUP3 ADD MSTORE PUSH9 0x3D32B9379030B23239 PUSH1 0xB9 SHL PUSH1 0x44 DUP3 ADD MSTORE PUSH1 0x64 SWAP1 REVERT JUMPDEST PUSH1 0x12 SLOAD PUSH9 0x10000000000000000 DUP2 LT ISZERO PUSH3 0x290 JUMPI PUSH1 0x1 DUP2 ADD DUP1 PUSH1 0x12 SSTORE DUP2 LT ISZERO PUSH3 0x363 JUMPI PUSH1 0x40 PUSH1 0x2 SWAP2 PUSH1 0x12 PUSH1 0x0 MSTORE PUSH1 0x3 PUSH1 0x20 PUSH1 0x0 KECCAK256 SWAP2 MUL ADD SWAP3 DUP1 MLOAD DUP5 SSTORE PUSH1 0x20 DUP2 ADD MLOAD PUSH1 0x1 DUP6 ADD SSTORE ADD MLOAD SWAP2 ADD SSTORE JUMP JUMPDEST PUSH4 0x4E487B71 PUSH1 0xE0 SHL PUSH1 0x0 MSTORE PUSH1 0x32 PUSH1 0x4 MSTORE PUSH1 0x24 PUSH1 0x0 REVERT INVALID PUSH1 0x80 DUP1 PUSH1 0x40 MSTORE PUSH1 0x4 CALLDATASIZE LT ISZERO PUSH2 0x13 JUMPI PUSH1 0x0 DUP1 REVERT JUMPDEST PUSH1 0x0 CALLDATALOAD PUSH1 0xE0 SHR SWAP1 DUP2 PUSH4 0x5ACB1A8 EQ PUSH2 0x2823 JUMPI POP DUP1 PUSH4 0x87BC228 EQ PUSH2 0x2745 JUMPI DUP1 PUSH4 0x8E9DAA5 EQ PUSH2 0x26E5 JUMPI DUP1 PUSH4 0xA2CC9DC EQ PUSH2 0x26B3 JUMPI DUP1 PUSH4 0xB5D86B2 EQ PUSH2 0x2696 JUMPI DUP1 PUSH4 0xB78F9C0 EQ PUSH2 0x266A JUMPI DUP1 PUSH4 0xC8F81B5 EQ PUSH2 0x262D JUMPI DUP1 PUSH4 0x1281311D EQ PUSH2 0x23AA JUMPI DUP1 PUSH4 0x24706FF3 EQ PUSH2 0x2375 JUMPI DUP1 PUSH4 0x3620875E EQ PUSH2 0x1FC3 JUMPI DUP1 PUSH4 0x38C88CB4 EQ PUSH2 0x1F41 JUMPI DUP1 PUSH4 0x3F4BA83A EQ PUSH2 0x1EA5 JUMPI DUP1 PUSH4 0x41915244 EQ PUSH2 0x1E88 JUMPI DUP1 PUSH4 0x476343EE EQ PUSH2 0x1DD0 JUMPI DUP1 PUSH4 0x47FDA41A EQ PUSH2 0x14F2 JUMPI DUP1 PUSH4 0x533CD23F EQ PUSH2 0x1D9B JUMPI DUP1 PUSH4 0x5914AC9A EQ PUSH2 0x1D7E JUMPI DUP1 PUSH4 0x5A807E65 EQ PUSH2 0x1CFC JUMPI DUP1 PUSH4 0x5C975ABB EQ PUSH2 0x1CD6 JUMPI DUP1 PUSH4 0x5FE05C16 EQ PUSH2 0x1CA4 JUMPI DUP1 PUSH4 0x6E61A4A1 EQ PUSH2 0x1C73 JUMPI DUP1 PUSH4 0x6F16A595 EQ PUSH2 0x1C57 JUMPI DUP1 PUSH4 0x6F61B8CA EQ PUSH2 0x1C17 JUMPI DUP1 PUSH4 0x715018A6 EQ PUSH2 0x1BB0 JUMPI DUP1 PUSH4 0x79502C55 EQ PUSH2 0x1B57 JUMPI DUP1 PUSH4 0x79BA5097 EQ PUSH2 0x1A94 JUMPI DUP1 PUSH4 0x7AEE1D37 EQ PUSH2 0x1981 JUMPI DUP1 PUSH4 0x7ECDD2F4 EQ PUSH2 0x1559 JUMPI DUP1 PUSH4 0x8456CB59 EQ PUSH2 0x14F7 JUMPI DUP1 PUSH4 0x8C858A14 EQ PUSH2 0x14F2 JUMPI DUP1 PUSH4 0x8DA5CB5B EQ PUSH2 0x14C9 JUMPI DUP1 PUSH4 0x8FAB2543 EQ PUSH2 0x13F3 JUMPI DUP1 PUSH4 0x92EDFDB5 EQ PUSH2 0x13AB JUMPI DUP1 PUSH4 0x9477D85D EQ PUSH2 0x12DD JUMPI DUP1 PUSH4 0x95082D25 EQ PUSH2 0x12BE JUMPI DUP1 PUSH4 0x95CCEA67 EQ PUSH2 0x1235 JUMPI DUP1 PUSH4 0x9731AA2E EQ PUSH2 0x1218 JUMPI DUP1 PUSH4 0xA03805AA EQ PUSH2 0x11FB JUMPI DUP1 PUSH4 0xB2304C5B EQ PUSH2 0x1164 JUMPI DUP1 PUSH4 0xBCFC1B9E EQ PUSH2 0x108D JUMPI DUP1 PUSH4 0xBF981995 EQ PUSH2 0xFFD JUMPI DUP1 PUSH4 0xC157253D EQ PUSH2 0xF59 JUMPI DUP1 PUSH4 0xC2CC7C31 EQ PUSH2 0xC6B JUMPI DUP1 PUSH4 0xC3B297A2 EQ PUSH2 0xB0F JUMPI DUP1 PUSH4 0xC3F909D4 EQ PUSH2 0x9EE JUMPI DUP1 PUSH4 0xC74A5DCF EQ PUSH2 0x89F JUMPI DUP1 PUSH4 0xCDFB6CF3 EQ PUSH2 0x7F4 JUMPI DUP1 PUSH4 0xCEC18A62 EQ PUSH2 0x771 JUMPI DUP1 PUSH4 0xDF3225AC EQ PUSH2 0x754 JUMPI DUP1 PUSH4 0xE1FA7638 EQ PUSH2 0x46F JUMPI DUP1 PUSH4 0xE30C3978 EQ PUSH2 0x446 JUMPI DUP1 PUSH4 0xE5D5D6FB EQ PUSH2 0x3EE JUMPI DUP1 PUSH4 0xF2FDE38B EQ PUSH2 0x381 JUMPI DUP1 PUSH4 0xF3F43703 EQ PUSH2 0x347 JUMPI DUP1 PUSH4 0xF3FEF3A3 EQ PUSH2 0x2FE JUMPI DUP1 PUSH4 0xF4364515 EQ PUSH2 0x2E2 JUMPI PUSH4 0xF4DA1E2A EQ PUSH2 0x292 JUMPI PUSH1 0x0 DUP1 REVERT JUMPDEST CALLVALUE PUSH2 0x2DD JUMPI PUSH1 0x40 CALLDATASIZE PUSH1 0x3 NOT ADD SLT PUSH2 0x2DD JUMPI PUSH1 0x1 PUSH1 0x1 PUSH1 0xA0 SHL SUB PUSH2 0x2B3 PUSH2 0x283E JUMP JUMPDEST AND PUSH1 0x0 MSTORE PUSH1 0xD PUSH1 0x20 MSTORE PUSH1 0x40 PUSH1 0x0 KECCAK256 PUSH1 0x24 CALLDATALOAD PUSH1 0x0 MSTORE PUSH1 0x20 MSTORE PUSH1 0x20 PUSH1 0xFF PUSH1 0x40 PUSH1 0x0 KECCAK256 SLOAD AND PUSH1 0x40 MLOAD SWAP1 DUP2 MSTORE RETURN JUMPDEST PUSH1 0x0 DUP1 REVERT JUMPDEST CALLVALUE PUSH2 0x2DD JUMPI PUSH1 0x0 CALLDATASIZE PUSH1 0x3 NOT ADD SLT PUSH2 0x2DD JUMPI PUSH1 0x20 PUSH1 0x40 MLOAD PUSH1 0x0 DUP2 MSTORE RETURN JUMPDEST CALLVALUE PUSH2 0x2DD JUMPI PUSH1 0x40 CALLDATASIZE PUSH1 0x3 NOT ADD SLT PUSH2 0x2DD JUMPI PUSH2 0x340 PUSH2 0x31A PUSH2 0x283E JUMP JUMPDEST PUSH2 0x322 PUSH2 0x2EE9 JUMP JUMPDEST PUSH2 0x32A PUSH2 0x2F41 JUMP JUMPDEST PUSH1 0x3 SLOAD PUSH1 0x24 CALLDATALOAD SWAP2 SWAP1 PUSH1 0x1 PUSH1 0x1 PUSH1 0xA0 SHL SUB AND PUSH2 0x3037 JUMP JUMPDEST PUSH1 0x1 PUSH1 0x0 SSTORE STOP JUMPDEST CALLVALUE PUSH2 0x2DD JUMPI PUSH1 0x20 CALLDATASIZE PUSH1 0x3 NOT ADD SLT PUSH2 0x2DD JUMPI PUSH1 0x1 PUSH1 0x1 PUSH1 0xA0 SHL SUB PUSH2 0x368 PUSH2 0x283E JUMP JUMPDEST AND PUSH1 0x0 MSTORE PUSH1 0x10 PUSH1 0x20 MSTORE PUSH1 0x20 PUSH1 0x40 PUSH1 0x0 KECCAK256 SLOAD PUSH1 0x40 MLOAD SWAP1 DUP2 MSTORE RETURN JUMPDEST CALLVALUE PUSH2 0x2DD JUMPI PUSH1 0x20 CALLDATASIZE PUSH1 0x3 NOT ADD SLT PUSH2 0x2DD JUMPI PUSH2 0x39A PUSH2 0x283E JUMP JUMPDEST PUSH2 0x3A2 PUSH2 0x2EE9 JUMP JUMPDEST PUSH1 0x2 DUP1 SLOAD PUSH1 0x1 PUSH1 0x1 PUSH1 0xA0 SHL SUB NOT AND PUSH1 0x1 PUSH1 0x1 PUSH1 0xA0 SHL SUB SWAP3 DUP4 AND SWAP1 DUP2 OR SWAP1 SWAP2 SSTORE PUSH1 0x1 SLOAD SWAP1 SWAP2 AND PUSH32 0x38D16B8CAC22D99FC7C124B9CD0DE2D3FA1FAEF420BFE791D8C362D765E22700 PUSH1 0x0 DUP1 LOG3 STOP JUMPDEST CALLVALUE PUSH2 0x2DD JUMPI PUSH1 0x20 CALLDATASIZE PUSH1 0x3 NOT ADD SLT PUSH2 0x2DD JUMPI PUSH1 0x4 CALLDATALOAD PUSH1 0x12 SLOAD DUP2 LT ISZERO PUSH2 0x2DD JUMPI PUSH2 0x415 SWAP1 PUSH2 0x2B53 JUMP JUMPDEST POP DUP1 SLOAD PUSH2 0x442 PUSH1 0x2 PUSH1 0x1 DUP5 ADD SLOAD SWAP4 ADD SLOAD PUSH1 0x40 MLOAD SWAP4 DUP5 SWAP4 DUP5 PUSH1 0x40 SWAP2 SWAP5 SWAP4 SWAP3 PUSH1 0x60 DUP3 ADD SWAP6 DUP3 MSTORE PUSH1 0x20 DUP3 ADD MSTORE ADD MSTORE JUMP JUMPDEST SUB SWAP1 RETURN JUMPDEST CALLVALUE PUSH2 0x2DD JUMPI PUSH1 0x0 CALLDATASIZE PUSH1 0x3 NOT ADD SLT PUSH2 0x2DD JUMPI PUSH1 0x2 SLOAD PUSH1 0x40 MLOAD PUSH1 0x1 PUSH1 0x1 PUSH1 0xA0 SHL SUB SWAP1 SWAP2 AND DUP2 MSTORE PUSH1 0x20 SWAP1 RETURN JUMPDEST CALLVALUE PUSH2 0x2DD JUMPI PUSH2 0x47D CALLDATASIZE PUSH2 0x2A52 JUMP JUMPDEST SWAP1 PUSH2 0x486 PUSH2 0x2F41 JUMP JUMPDEST PUSH2 0x48E PUSH2 0x2F97 JUMP JUMPDEST DUP1 PUSH1 0x0 MSTORE PUSH1 0x20 SWAP2 PUSH1 0x9 DUP4 MSTORE PUSH1 0x40 PUSH1 0x0 KECCAK256 SWAP2 DUP2 PUSH1 0x0 MSTORE PUSH1 0x40 PUSH1 0x0 KECCAK256 SWAP3 PUSH1 0xFF PUSH1 0x5 DUP3 ADD SLOAD AND ISZERO DUP1 ISZERO PUSH2 0x745 JUMPI JUMPDEST PUSH2 0x733 JUMPI DUP3 DUP3 EQ PUSH2 0x6E0 JUMPI PUSH1 0x1 DUP2 DUP2 ADD SLOAD PUSH1 0x40 MLOAD PUSH4 0x70A08231 PUSH1 0xE0 SHL DUP2 MSTORE CALLER PUSH1 0x4 DUP3 ADD MSTORE SWAP2 SWAP7 SWAP2 PUSH1 0x1 PUSH1 0x1 PUSH1 0xA0 SHL SUB SWAP2 DUP4 SWAP1 DUP3 SWAP1 PUSH1 0x24 SWAP1 DUP3 SWAP1 DUP7 AND GAS STATICCALL DUP1 ISZERO PUSH2 0x727 JUMPI PUSH1 0x0 SWAP1 PUSH2 0x6F2 JUMPI JUMPDEST PUSH8 0xDE0B6B3A7640000 SWAP2 POP LT PUSH2 0x6E0 JUMPI PUSH1 0x2 DUP4 ADD DUP1 SLOAD SWAP7 PUSH2 0x52D PUSH2 0x527 DUP10 PUSH2 0x3244 JUMP JUMPDEST SWAP9 PUSH2 0x3272 JUMP JUMPDEST CALLER PUSH1 0x0 MSTORE PUSH1 0xB DUP6 MSTORE PUSH1 0x40 PUSH1 0x0 KECCAK256 DUP1 SLOAD PUSH1 0xFF DUP2 AND SWAP2 PUSH1 0x2 DUP4 LT PUSH2 0x65B JUMPI JUMPDEST POP POP POP SWAP1 PUSH1 0x4 PUSH2 0x55B DUP2 SWAP4 DUP11 PUSH2 0x32A0 JUMP JUMPDEST SWAP7 DUP11 ISZERO ISZERO SWAP5 DUP6 PUSH2 0x644 JUMPI JUMPDEST DUP13 PUSH2 0x572 DUP11 DUP4 SLOAD PUSH2 0x2C0B JUMP JUMPDEST SWAP1 DUP2 GT PUSH2 0x63E JUMPI POP DUP13 SWAP1 JUMPDEST SSTORE PUSH1 0x2 DUP4 ADD DUP13 PUSH2 0x58E DUP11 DUP4 SLOAD PUSH2 0x2C3B JUMP JUMPDEST SWAP1 DUP2 GT PUSH2 0x638 JUMPI POP DUP13 SWAP1 JUMPDEST SSTORE ADD PUSH2 0x5A5 DUP2 SLOAD PUSH2 0x2EDA JUMP JUMPDEST SWAP1 SSTORE ADD PUSH2 0x5B2 DUP2 SLOAD PUSH2 0x2EDA JUMP JUMPDEST SWAP1 SSTORE PUSH2 0x5EE JUMPI JUMPDEST POP PUSH1 0x40 MLOAD SWAP5 DUP6 MSTORE DUP5 ADD MSTORE PUSH32 0xEF329F5FB6C9847CF872E344B0B2E169FFA718DC97CA5B0F306E8C3143C48077 PUSH1 0x40 CALLER SWAP5 LOG4 PUSH1 0x0 SSTORE STOP JUMPDEST DUP1 PUSH1 0x5 SLOAD AND PUSH1 0x0 MSTORE PUSH1 0x10 DUP3 MSTORE PUSH1 0x40 PUSH1 0x0 KECCAK256 PUSH2 0x60A DUP8 DUP3 SLOAD PUSH2 0x2C0B JUMP JUMPDEST SWAP1 SSTORE PUSH1 0x5 SLOAD AND PUSH1 0x40 MLOAD DUP7 DUP2 MSTORE PUSH1 0x0 DUP1 MLOAD PUSH1 0x20 PUSH2 0x355E DUP4 CODECOPY DUP2 MLOAD SWAP2 MSTORE DUP4 PUSH6 0x61747461636B PUSH1 0xD0 SHL SWAP3 LOG3 DUP7 PUSH2 0x5B9 JUMP JUMPDEST SWAP1 PUSH2 0x599 JUMP JUMPDEST SWAP1 PUSH2 0x57D JUMP JUMPDEST PUSH2 0x656 DUP13 DUP9 PUSH1 0x3 SLOAD AND ADDRESS SWAP1 CALLER SWAP1 PUSH2 0x2FDE JUMP JUMPDEST PUSH2 0x566 JUMP JUMPDEST SWAP2 SWAP11 POP SWAP3 SWAP2 POP PUSH1 0x0 SWAP10 PUSH2 0xC350 PUSH1 0xFF DUP3 EQ PUSH2 0x6CA JUMPI PUSH1 0x4 SWAP5 DUP6 SWAP4 PUSH1 0xFF DUP16 PUSH2 0x55B SWAP6 ADD AND DUP1 SWAP3 PUSH1 0xFF NOT AND OR SWAP1 SSTORE PUSH1 0x40 MLOAD SWAP1 DUP12 DUP3 MSTORE DUP13 DUP11 DUP4 ADD MSTORE PUSH1 0x40 DUP3 ADD MSTORE TIMESTAMP PUSH1 0x60 DUP3 ADD MSTORE PUSH32 0x1C13D90649EC790C33B7FE69253D8FF8EE991511AE1F33C04C76FBF4DA2144FE PUSH1 0x80 CALLER SWAP3 LOG2 SWAP3 SWAP4 PUSH2 0x54A JUMP JUMPDEST PUSH4 0x4E487B71 PUSH1 0xE0 SHL PUSH1 0x0 MSTORE PUSH1 0x11 PUSH1 0x4 MSTORE PUSH1 0x24 PUSH1 0x0 REVERT JUMPDEST PUSH1 0x40 MLOAD PUSH4 0x162908E3 PUSH1 0xE1 SHL DUP2 MSTORE PUSH1 0x4 SWAP1 REVERT JUMPDEST POP DUP3 DUP2 DUP2 RETURNDATASIZE DUP4 GT PUSH2 0x720 JUMPI JUMPDEST PUSH2 0x708 DUP2 DUP4 PUSH2 0x290E JUMP JUMPDEST DUP2 ADD SUB SLT PUSH2 0x2DD JUMPI PUSH8 0xDE0B6B3A7640000 SWAP1 MLOAD PUSH2 0x504 JUMP JUMPDEST POP RETURNDATASIZE PUSH2 0x6FE JUMP JUMPDEST PUSH1 0x40 MLOAD RETURNDATASIZE PUSH1 0x0 DUP3 RETURNDATACOPY RETURNDATASIZE SWAP1 REVERT JUMPDEST PUSH1 0x40 MLOAD PUSH4 0xDC786825 PUSH1 0xE0 SHL DUP2 MSTORE PUSH1 0x4 SWAP1 REVERT JUMPDEST POP PUSH1 0xFF PUSH1 0x5 DUP6 ADD SLOAD AND ISZERO PUSH2 0x4B9 JUMP JUMPDEST CALLVALUE PUSH2 0x2DD JUMPI PUSH1 0x0 CALLDATASIZE PUSH1 0x3 NOT ADD SLT PUSH2 0x2DD JUMPI PUSH1 0x20 PUSH1 0x40 MLOAD PUSH2 0xBB8 DUP2 MSTORE RETURN JUMPDEST CALLVALUE PUSH2 0x2DD JUMPI PUSH1 0x40 CALLDATASIZE PUSH1 0x3 NOT ADD SLT PUSH2 0x2DD JUMPI PUSH1 0xA0 PUSH2 0x78C PUSH2 0x283E JUMP JUMPDEST PUSH2 0x797 PUSH1 0x24 CALLDATALOAD PUSH2 0x3244 JUMP JUMPDEST SWAP1 PUSH1 0x1 DUP1 DUP5 SHL SUB AND PUSH1 0x0 MSTORE PUSH1 0xB PUSH1 0x20 MSTORE PUSH1 0x2 PUSH1 0x40 PUSH1 0x0 KECCAK256 PUSH1 0xFF PUSH1 0x40 MLOAD SWAP2 PUSH2 0x7BD DUP4 PUSH2 0x28BA JUMP JUMPDEST SLOAD AND DUP1 SWAP2 MSTORE LT DUP1 PUSH1 0x0 EQ PUSH2 0x7EE JUMPI PUSH1 0x0 JUMPDEST PUSH1 0x40 MLOAD SWAP3 DUP4 MSTORE PUSH1 0x0 PUSH1 0x20 DUP5 ADD MSTORE PUSH1 0x0 PUSH1 0x40 DUP5 ADD MSTORE PUSH1 0x60 DUP4 ADD MSTORE PUSH1 0x80 DUP3 ADD MSTORE RETURN JUMPDEST DUP2 PUSH2 0x7CE JUMP JUMPDEST CALLVALUE PUSH2 0x2DD JUMPI PUSH1 0x40 CALLDATASIZE PUSH1 0x3 NOT ADD SLT PUSH2 0x2DD JUMPI PUSH2 0x80D PUSH2 0x2854 JUMP JUMPDEST PUSH1 0x4 CALLDATALOAD PUSH1 0x0 MSTORE PUSH1 0x20 SWAP1 PUSH1 0x9 DUP3 MSTORE PUSH1 0x40 PUSH1 0x0 KECCAK256 PUSH1 0xFF PUSH1 0x5 DUP3 ADD SLOAD AND ISZERO PUSH2 0x733 JUMPI PUSH1 0x1 ADD SLOAD PUSH1 0x40 MLOAD PUSH4 0x70A08231 PUSH1 0xE0 SHL DUP2 MSTORE PUSH1 0x1 PUSH1 0x1 PUSH1 0xA0 SHL SUB SWAP3 DUP4 AND PUSH1 0x4 DUP3 ADD MSTORE SWAP2 DUP4 SWAP2 DUP4 SWAP2 PUSH1 0x24 SWAP2 DUP4 SWAP2 AND GAS STATICCALL SWAP1 DUP2 ISZERO PUSH2 0x727 JUMPI PUSH1 0x0 SWAP2 PUSH2 0x872 JUMPI JUMPDEST POP PUSH1 0x40 MLOAD SWAP1 DUP2 MSTORE RETURN JUMPDEST SWAP1 POP DUP2 DUP2 DUP2 RETURNDATASIZE DUP4 GT PUSH2 0x898 JUMPI JUMPDEST PUSH2 0x889 DUP2 DUP4 PUSH2 0x290E JUMP JUMPDEST DUP2 ADD SUB SLT PUSH2 0x2DD JUMPI MLOAD DUP3 PUSH2 0x869 JUMP JUMPDEST POP RETURNDATASIZE PUSH2 0x87F JUMP JUMPDEST CALLVALUE PUSH2 0x2DD JUMPI PUSH1 0x20 DUP1 PUSH1 0x3 NOT CALLDATASIZE ADD SLT PUSH2 0x2DD JUMPI PUSH1 0xE0 SWAP1 PUSH1 0x4 CALLDATALOAD DUP1 PUSH1 0x0 MSTORE PUSH1 0xE DUP3 MSTORE PUSH1 0x40 PUSH1 0x0 KECCAK256 PUSH1 0x1 PUSH1 0x40 MLOAD SWAP2 PUSH2 0x8D3 DUP4 PUSH2 0x28F2 JUMP JUMPDEST DUP1 SLOAD DUP4 MSTORE ADD SLOAD SWAP2 DUP4 DUP3 ADD SWAP3 DUP4 MSTORE PUSH1 0x0 MSTORE PUSH1 0xF DUP4 MSTORE PUSH1 0x40 PUSH1 0x0 KECCAK256 SWAP1 PUSH1 0x1 PUSH1 0x40 MLOAD SWAP3 PUSH2 0x8FC DUP5 PUSH2 0x28F2 JUMP JUMPDEST DUP1 SLOAD DUP5 MSTORE ADD SLOAD SWAP1 DUP5 DUP4 ADD SWAP2 DUP3 MSTORE PUSH1 0x0 SWAP1 DUP1 MLOAD DUP1 ISZERO ISZERO SWAP1 DUP2 PUSH2 0x9D9 JUMPI JUMPDEST POP PUSH2 0x9C0 JUMPI JUMPDEST POP PUSH1 0x0 SWAP3 DUP1 MLOAD DUP1 ISZERO ISZERO SWAP1 DUP2 PUSH2 0x9AB JUMPI JUMPDEST POP PUSH2 0x98A JUMPI JUMPDEST POP SWAP1 MLOAD PUSH1 0x16 SLOAD SWAP2 PUSH2 0x2710 DUP4 DUP4 LT PUSH2 0x975 JUMPI POP PUSH2 0x1F40 SWAP5 JUMPDEST MLOAD SWAP6 PUSH1 0x13 SLOAD SWAP1 PUSH1 0x40 MLOAD SWAP8 DUP9 MSTORE DUP8 ADD MSTORE PUSH1 0x40 DUP7 ADD MSTORE PUSH1 0x60 DUP6 ADD MSTORE PUSH1 0x80 DUP5 ADD MSTORE PUSH1 0xA0 DUP4 ADD MSTORE PUSH1 0xC0 DUP3 ADD MSTORE RETURN JUMPDEST SWAP5 DUP1 MLOAD PUSH1 0x13 SLOAD GT PUSH2 0x94B JUMPI PUSH2 0x1770 SWAP6 POP PUSH2 0x94B JUMP JUMPDEST PUSH2 0x9A4 SWAP2 SWAP4 POP PUSH2 0x99E PUSH1 0x17 SLOAD SWAP2 MLOAD TIMESTAMP PUSH2 0x2C3B JUMP JUMPDEST SWAP1 PUSH2 0x2C3B JUMP JUMPDEST SWAP2 DUP7 PUSH2 0x934 JUMP JUMPDEST PUSH2 0x9B6 SWAP2 POP TIMESTAMP PUSH2 0x2C3B JUMP JUMPDEST PUSH1 0x17 SLOAD GT DUP9 PUSH2 0x92E JUMP JUMPDEST PUSH2 0x9D3 SWAP2 POP PUSH2 0x99E PUSH1 0x14 SLOAD SWAP2 MLOAD TIMESTAMP PUSH2 0x2C3B JUMP JUMPDEST DUP7 PUSH2 0x91E JUMP JUMPDEST PUSH2 0x9E4 SWAP2 POP TIMESTAMP PUSH2 0x2C3B JUMP JUMPDEST PUSH1 0x14 SLOAD GT DUP9 PUSH2 0x918 JUMP JUMPDEST CALLVALUE PUSH2 0x2DD JUMPI PUSH1 0x0 CALLDATASIZE PUSH1 0x3 NOT ADD SLT PUSH2 0x2DD JUMPI PUSH2 0x380 PUSH1 0x1 DUP1 PUSH1 0xA0 SHL SUB DUP1 PUSH1 0x3 SLOAD AND SWAP1 DUP1 PUSH1 0x5 SLOAD AND SWAP1 PUSH1 0x6 SLOAD AND PUSH2 0xFFFF SWAP1 DUP2 PUSH1 0x7 SLOAD AND SWAP2 PUSH1 0x8 SLOAD AND SWAP3 PUSH1 0x40 MLOAD SWAP5 DUP6 MSTORE PUSH1 0x0 PUSH1 0x20 DUP7 ADD MSTORE ADDRESS PUSH1 0x40 DUP7 ADD MSTORE PUSH1 0x60 DUP6 ADD MSTORE PUSH1 0x80 DUP5 ADD MSTORE PUSH1 0xA0 DUP4 ADD MSTORE PUSH1 0xC0 DUP3 ADD MSTORE PUSH2 0xBB8 PUSH1 0xE0 DUP3 ADD MSTORE PUSH2 0x1B58 PUSH2 0x100 DUP3 ADD MSTORE PUSH1 0x1 PUSH2 0x120 DUP3 ADD MSTORE PUSH2 0xD6D8 PUSH2 0x140 DUP3 ADD MSTORE PUSH2 0xD8FE PUSH2 0x160 DUP3 ADD MSTORE PUSH1 0x1 PUSH2 0x180 DUP3 ADD MSTORE PUSH4 0x1DCD6500 PUSH2 0x1A0 DUP3 ADD MSTORE PUSH4 0x3B9ACA00 PUSH2 0x1C0 DUP3 ADD MSTORE PUSH1 0x0 PUSH2 0x1E0 DUP3 ADD MSTORE PUSH3 0x1ADB0 PUSH2 0x200 DUP3 ADD MSTORE PUSH3 0x15F90 PUSH2 0x220 DUP3 ADD MSTORE PUSH3 0x11170 PUSH2 0x240 DUP3 ADD MSTORE PUSH2 0xC350 PUSH2 0x260 DUP3 ADD MSTORE PUSH3 0x493E0 PUSH2 0x280 DUP3 ADD MSTORE PUSH3 0x55730 PUSH2 0x2A0 DUP3 ADD MSTORE PUSH3 0x61A80 PUSH2 0x2C0 DUP3 ADD MSTORE PUSH1 0x0 PUSH2 0x2E0 DUP3 ADD MSTORE PUSH1 0x0 PUSH2 0x300 DUP3 ADD MSTORE PUSH1 0x0 PUSH2 0x320 DUP3 ADD MSTORE PUSH1 0x0 PUSH2 0x340 DUP3 ADD MSTORE PUSH1 0x0 PUSH2 0x360 DUP3 ADD MSTORE RETURN JUMPDEST CALLVALUE PUSH2 0x2DD JUMPI PUSH2 0xB1D CALLDATASIZE PUSH2 0x2A52 JUMP JUMPDEST PUSH2 0xB25 PUSH2 0x2EE9 JUMP JUMPDEST PUSH2 0xB2D PUSH2 0x2F41 JUMP JUMPDEST DUP2 PUSH1 0x0 MSTORE PUSH1 0x20 PUSH1 0x9 DUP2 MSTORE PUSH1 0x40 PUSH1 0x0 KECCAK256 SWAP2 PUSH1 0xFF PUSH1 0x5 DUP5 ADD SLOAD AND ISZERO PUSH2 0x733 JUMPI PUSH1 0x3 DUP4 ADD SWAP3 DUP4 SLOAD PUSH2 0xC59 JUMPI DUP5 PUSH1 0x0 MSTORE PUSH1 0xA DUP4 MSTORE PUSH1 0xFF PUSH1 0x40 PUSH1 0x0 KECCAK256 SLOAD AND PUSH2 0xC47 JUMPI PUSH10 0xA968163F0A57B400000 DUP3 SUB PUSH2 0xC35 JUMPI PUSH1 0x24 SWAP4 PUSH1 0x1 DUP5 SWAP3 ADD DUP4 PUSH1 0x1 DUP1 PUSH1 0xA0 SHL SUB SWAP3 PUSH2 0xB9D DUP3 DUP6 DUP6 SLOAD AND ADDRESS SWAP1 CALLER SWAP1 PUSH2 0x2FDE JUMP JUMPDEST SSTORE SLOAD AND PUSH1 0x40 MLOAD SWAP5 DUP6 DUP1 SWAP3 PUSH4 0x70A08231 PUSH1 0xE0 SHL DUP3 MSTORE ADDRESS PUSH1 0x4 DUP4 ADD MSTORE GAS STATICCALL SWAP3 DUP4 ISZERO PUSH2 0x727 JUMPI PUSH1 0x0 SWAP4 PUSH2 0xC04 JUMPI JUMPDEST POP PUSH2 0xBF6 DUP2 PUSH32 0x12BF2F58BCD7842E8641F77F59A71F9C54319AD731425208D546CF83ACBE4410 SWAP5 LT ISZERO PUSH2 0x2E2D JUMP JUMPDEST PUSH1 0x40 MLOAD SWAP1 DUP2 MSTORE LOG2 PUSH1 0x1 PUSH1 0x0 SSTORE STOP JUMPDEST SWAP3 POP DUP2 DUP4 DUP2 RETURNDATASIZE DUP4 GT PUSH2 0xC2E JUMPI JUMPDEST PUSH2 0xC1B DUP2 DUP4 PUSH2 0x290E JUMP JUMPDEST DUP2 ADD SUB SLT PUSH2 0x2DD JUMPI SWAP2 MLOAD SWAP2 PUSH2 0xBF6 PUSH2 0xBC8 JUMP JUMPDEST POP RETURNDATASIZE PUSH2 0xC11 JUMP JUMPDEST PUSH1 0x40 MLOAD PUSH4 0xF556274B PUSH1 0xE0 SHL DUP2 MSTORE PUSH1 0x4 SWAP1 REVERT JUMPDEST PUSH1 0x40 MLOAD PUSH4 0x2344B20D PUSH1 0xE2 SHL DUP2 MSTORE PUSH1 0x4 SWAP1 REVERT JUMPDEST PUSH1 0x40 MLOAD PUSH4 0x48AA0105 PUSH1 0xE1 SHL DUP2 MSTORE PUSH1 0x4 SWAP1 REVERT JUMPDEST CALLVALUE PUSH2 0x2DD JUMPI PUSH1 0x60 CALLDATASIZE PUSH1 0x3 NOT ADD SLT PUSH2 0x2DD JUMPI PUSH8 0xFFFFFFFFFFFFFFFF PUSH1 0x24 CALLDATALOAD DUP2 DUP2 GT PUSH2 0x2DD JUMPI CALLDATASIZE PUSH1 0x23 DUP3 ADD SLT ISZERO PUSH2 0x2DD JUMPI DUP1 PUSH1 0x4 ADD CALLDATALOAD PUSH2 0xCA8 DUP2 PUSH2 0x2B37 JUMP JUMPDEST SWAP2 PUSH2 0xCB6 PUSH1 0x40 MLOAD SWAP4 DUP5 PUSH2 0x290E JUMP JUMPDEST DUP2 DUP4 MSTORE CALLDATASIZE PUSH1 0x24 DUP4 DUP4 ADD ADD GT PUSH2 0x2DD JUMPI DUP2 PUSH1 0x0 SWAP3 PUSH1 0x24 PUSH1 0x20 SWAP4 ADD DUP4 DUP7 ADD CALLDATACOPY DUP4 ADD ADD MSTORE PUSH2 0xCDF PUSH2 0x286A JUMP JUMPDEST SWAP1 PUSH2 0xCE8 PUSH2 0x2EE9 JUMP JUMPDEST PUSH1 0x4 CALLDATALOAD PUSH1 0x0 MSTORE PUSH1 0x9 PUSH1 0x20 MSTORE PUSH1 0xFF PUSH1 0x5 PUSH1 0x40 PUSH1 0x0 KECCAK256 ADD SLOAD AND PUSH2 0xF47 JUMPI PUSH1 0x1 PUSH1 0x1 PUSH1 0xA0 SHL SUB DUP3 AND ISZERO PUSH2 0x6E0 JUMPI PUSH1 0x40 MLOAD PUSH2 0xD1E DUP2 PUSH2 0x28D6 JUMP JUMPDEST DUP2 DUP2 MSTORE PUSH1 0x1 DUP1 PUSH1 0xA0 SHL SUB DUP4 AND PUSH1 0x20 DUP3 ADD MSTORE PUSH1 0x0 PUSH1 0x40 DUP3 ADD MSTORE PUSH1 0x0 PUSH1 0x60 DUP3 ADD MSTORE PUSH1 0x0 PUSH1 0x80 DUP3 ADD MSTORE PUSH1 0x1 PUSH1 0xA0 DUP3 ADD MSTORE PUSH1 0x4 CALLDATALOAD PUSH1 0x0 MSTORE PUSH1 0x9 PUSH1 0x20 MSTORE PUSH1 0x40 PUSH1 0x0 KECCAK256 SWAP4 DUP2 MLOAD DUP1 MLOAD SWAP2 DUP3 GT PUSH2 0xF31 JUMPI PUSH2 0xD71 DUP7 SLOAD PUSH2 0x2880 JUMP JUMPDEST PUSH1 0x1F DUP2 GT PUSH2 0xEED JUMPI JUMPDEST POP PUSH1 0x20 SWAP1 PUSH1 0x1F DUP4 GT PUSH1 0x1 EQ PUSH2 0xE5C JUMPI SWAP6 DUP3 PUSH1 0xA0 SWAP4 PUSH1 0x5 SWAP4 PUSH32 0x93EC52636ADB98887FBB2B11FFF34E049C2D8A477AA6FDF3F843F04E31254528 SWAP9 SWAP10 PUSH1 0x0 SWAP3 PUSH2 0xE51 JUMPI JUMPDEST POP POP DUP2 PUSH1 0x1 SHL SWAP2 PUSH1 0x0 NOT SWAP1 PUSH1 0x3 SHL SHR NOT AND OR DUP2 SSTORE JUMPDEST PUSH1 0x1 DUP2 ADD PUSH1 0x1 DUP1 DUP6 SHL SUB PUSH1 0x20 DUP7 ADD MLOAD AND PUSH1 0x1 PUSH1 0x1 PUSH1 0x60 SHL SUB DUP6 SHL DUP3 SLOAD AND OR SWAP1 SSTORE PUSH1 0x40 DUP5 ADD MLOAD PUSH1 0x2 DUP3 ADD SSTORE PUSH1 0x60 DUP5 ADD MLOAD PUSH1 0x3 DUP3 ADD SSTORE PUSH1 0x80 DUP5 ADD MLOAD PUSH1 0x4 DUP3 ADD SSTORE ADD SWAP2 ADD MLOAD ISZERO ISZERO PUSH1 0xFF DUP1 NOT DUP4 SLOAD AND SWAP2 AND OR SWAP1 SSTORE PUSH2 0xE36 PUSH1 0x40 MLOAD SWAP2 PUSH1 0x40 DUP4 MSTORE PUSH1 0x40 DUP4 ADD SWAP1 PUSH2 0x29D5 JUMP JUMPDEST PUSH1 0x1 PUSH1 0x1 PUSH1 0xA0 SHL SUB SWAP1 SWAP4 AND PUSH1 0x20 DUP3 ADD MSTORE PUSH1 0x4 CALLDATALOAD SWAP3 DUP2 SWAP1 SUB SWAP1 LOG2 STOP JUMPDEST ADD MLOAD SWAP1 POP DUP10 DUP1 PUSH2 0xDBC JUMP JUMPDEST SWAP1 DUP7 PUSH1 0x0 MSTORE PUSH1 0x20 PUSH1 0x0 KECCAK256 SWAP2 PUSH1 0x0 JUMPDEST PUSH1 0x1F NOT DUP6 AND DUP2 LT PUSH2 0xED5 JUMPI POP DUP4 PUSH1 0x5 SWAP4 PUSH32 0x93EC52636ADB98887FBB2B11FFF34E049C2D8A477AA6FDF3F843F04E31254528 SWAP9 SWAP10 SWAP4 PUSH1 0x1 SWAP4 PUSH1 0xA0 SWAP8 PUSH1 0x1F NOT DUP2 AND LT PUSH2 0xEBC JUMPI JUMPDEST POP POP POP DUP2 SHL ADD DUP2 SSTORE PUSH2 0xDD1 JUMP JUMPDEST ADD MLOAD PUSH1 0x0 NOT PUSH1 0xF8 DUP5 PUSH1 0x3 SHL AND SHR NOT AND SWAP1 SSTORE DUP10 DUP1 DUP1 PUSH2 0xEAF JUMP JUMPDEST SWAP2 SWAP3 PUSH1 0x20 PUSH1 0x1 DUP2 SWAP3 DUP7 DUP6 ADD MLOAD DUP2 SSTORE ADD SWAP5 ADD SWAP3 ADD PUSH2 0xE6A JUMP JUMPDEST DUP7 PUSH1 0x0 MSTORE PUSH1 0x20 PUSH1 0x0 KECCAK256 PUSH1 0x1F DUP5 ADD PUSH1 0x5 SHR DUP2 ADD PUSH1 0x20 DUP6 LT PUSH2 0xF2A JUMPI JUMPDEST PUSH1 0x1F DUP4 ADD PUSH1 0x5 SHR DUP3 ADD DUP2 LT PUSH2 0xF1E JUMPI POP POP PUSH2 0xD7A JUMP JUMPDEST PUSH1 0x0 DUP2 SSTORE PUSH1 0x1 ADD PUSH2 0xF08 JUMP JUMPDEST POP DUP1 PUSH2 0xF08 JUMP JUMPDEST PUSH4 0x4E487B71 PUSH1 0xE0 SHL PUSH1 0x0 MSTORE PUSH1 0x41 PUSH1 0x4 MSTORE PUSH1 0x24 PUSH1 0x0 REVERT JUMPDEST PUSH1 0x40 MLOAD PUSH4 0x57399E95 PUSH1 0xE1 SHL DUP2 MSTORE PUSH1 0x4 SWAP1 REVERT JUMPDEST CALLVALUE PUSH2 0x2DD JUMPI PUSH2 0xF67 CALLDATASIZE PUSH2 0x2A52 JUMP JUMPDEST SWAP1 PUSH1 0x0 MSTORE PUSH1 0x9 PUSH1 0x20 MSTORE PUSH1 0x40 PUSH1 0x0 KECCAK256 PUSH1 0x40 MLOAD PUSH2 0xF81 DUP2 PUSH2 0x28D6 JUMP JUMPDEST PUSH2 0xF8A DUP3 PUSH2 0x2930 JUMP JUMPDEST DUP2 MSTORE PUSH1 0x1 DUP1 PUSH1 0xA0 SHL SUB PUSH1 0x1 DUP4 ADD SLOAD AND PUSH1 0x20 DUP3 ADD MSTORE PUSH1 0xFF PUSH1 0x5 PUSH1 0x2 DUP5 ADD SLOAD SWAP4 PUSH1 0x40 DUP5 ADD SWAP5 DUP6 MSTORE PUSH1 0x3 DUP2 ADD SLOAD PUSH1 0x60 DUP6 ADD MSTORE PUSH1 0x4 DUP2 ADD SLOAD PUSH1 0x80 DUP6 ADD MSTORE ADD SLOAD AND ISZERO SWAP1 PUSH1 0xA0 DUP3 ISZERO SWAP2 ADD MSTORE PUSH2 0x733 JUMPI PUSH8 0xDE0B6B3A7640000 PUSH2 0xFF3 PUSH1 0x20 SWAP4 PUSH2 0xFEE PUSH1 0x64 SWAP5 MLOAD PUSH2 0x2BFC JUMP JUMPDEST PUSH2 0x2C18 JUMP JUMPDEST DIV DIV PUSH1 0x40 MLOAD SWAP1 DUP2 MSTORE RETURN JUMPDEST CALLVALUE PUSH2 0x2DD JUMPI PUSH1 0x20 CALLDATASIZE PUSH1 0x3 NOT ADD SLT PUSH2 0x2DD JUMPI PUSH1 0x4 CALLDATALOAD PUSH1 0x0 MSTORE PUSH1 0x9 PUSH1 0x20 MSTORE PUSH1 0x40 PUSH1 0x0 KECCAK256 PUSH1 0x40 MLOAD SWAP1 PUSH2 0x102B DUP3 PUSH2 0x28D6 JUMP JUMPDEST PUSH2 0x442 PUSH1 0xA0 PUSH2 0x1039 DUP4 PUSH2 0x2930 JUMP JUMPDEST SWAP3 DUP4 DUP6 MSTORE PUSH1 0x1 DUP1 DUP4 SHL SUB PUSH1 0x1 DUP3 ADD SLOAD AND SWAP5 DUP6 PUSH1 0x20 DUP3 ADD MSTORE PUSH1 0x2 DUP3 ADD SLOAD DUP1 PUSH1 0x40 DUP4 ADD MSTORE PUSH1 0x3 DUP4 ADD SLOAD SWAP2 DUP3 PUSH1 0x60 DUP3 ADD MSTORE PUSH1 0xFF PUSH1 0x5 PUSH1 0x4 DUP7 ADD SLOAD SWAP6 DUP7 PUSH1 0x80 DUP6 ADD MSTORE ADD SLOAD AND ISZERO ISZERO SWAP5 DUP6 SWAP2 ADD MSTORE PUSH1 0x40 MLOAD SWAP7 DUP8 SWAP7 DUP8 PUSH2 0x2A15 JUMP JUMPDEST CALLVALUE PUSH2 0x2DD JUMPI PUSH2 0x109B CALLDATASIZE PUSH2 0x2A52 JUMP JUMPDEST PUSH2 0x10A3 PUSH2 0x2EE9 JUMP JUMPDEST PUSH2 0x10AB PUSH2 0x2F41 JUMP JUMPDEST DUP2 PUSH1 0x0 MSTORE PUSH1 0x9 PUSH1 0x20 MSTORE PUSH1 0x40 PUSH1 0x0 KECCAK256 PUSH1 0xFF PUSH1 0x5 DUP3 ADD SLOAD AND ISZERO PUSH2 0x733 JUMPI PUSH1 0x2 DUP2 ADD SWAP1 DUP2 SLOAD PUSH2 0x1152 JUMPI PUSH1 0x3 ADD SLOAD PUSH2 0xC59 JUMPI DUP3 PUSH1 0x0 MSTORE PUSH1 0xA PUSH1 0x20 MSTORE PUSH1 0xFF PUSH1 0x40 PUSH1 0x0 KECCAK256 SLOAD AND PUSH2 0xC47 JUMPI PUSH3 0x4C4B40 DUP3 SUB PUSH2 0x1140 JUMPI PUSH1 0x64 DUP3 MUL SWAP2 DUP1 DUP4 DIV PUSH1 0x64 EQ DUP2 ISZERO OR ISZERO PUSH2 0x6CA JUMPI PUSH32 0x3D8AE201F3349EB8D82E56213DE7E48589B5249A4E28AA500C7433A13FE5BC10 SWAP3 PUSH1 0x20 SWAP3 SSTORE PUSH1 0x40 MLOAD SWAP1 DUP2 MSTORE LOG2 PUSH1 0x1 PUSH1 0x0 SSTORE STOP JUMPDEST PUSH1 0x40 MLOAD PUSH4 0x36F27E07 PUSH1 0xE2 SHL DUP2 MSTORE PUSH1 0x4 SWAP1 REVERT JUMPDEST PUSH1 0x40 MLOAD PUSH4 0x3EA8FAC9 PUSH1 0xE2 SHL DUP2 MSTORE PUSH1 0x4 SWAP1 REVERT JUMPDEST CALLVALUE PUSH2 0x2DD JUMPI PUSH1 0x40 CALLDATASIZE PUSH1 0x3 NOT ADD SLT PUSH2 0x2DD JUMPI PUSH1 0x60 PUSH2 0x117F PUSH2 0x283E JUMP JUMPDEST PUSH1 0x1 PUSH1 0x1 PUSH1 0xA0 SHL SUB AND PUSH1 0x0 DUP2 DUP2 MSTORE PUSH1 0xC PUSH1 0x20 SWAP1 DUP2 MSTORE PUSH1 0x40 DUP1 DUP4 KECCAK256 PUSH1 0x24 CALLDATALOAD DUP1 DUP6 MSTORE SWAP3 MSTORE SWAP1 SWAP2 KECCAK256 SLOAD SWAP2 SWAP1 TIMESTAMP DUP4 GT ISZERO PUSH2 0x11F0 JUMPI PUSH2 0x11BC PUSH1 0x1 SWAP4 TIMESTAMP SWAP1 PUSH2 0x2C3B JUMP JUMPDEST SWAP2 JUMPDEST PUSH1 0x0 MSTORE PUSH1 0xD PUSH1 0x20 MSTORE PUSH1 0x40 PUSH1 0x0 KECCAK256 SWAP1 PUSH1 0x0 MSTORE PUSH1 0x20 MSTORE PUSH1 0xFF PUSH1 0x40 PUSH1 0x0 KECCAK256 SLOAD AND SWAP1 PUSH1 0x40 MLOAD SWAP3 ISZERO ISZERO DUP4 MSTORE PUSH1 0x20 DUP4 ADD MSTORE PUSH1 0x40 DUP3 ADD MSTORE RETURN JUMPDEST PUSH1 0x0 SWAP3 POP DUP3 SWAP2 PUSH2 0x11BE JUMP JUMPDEST CALLVALUE PUSH2 0x2DD JUMPI PUSH1 0x0 CALLDATASIZE PUSH1 0x3 NOT ADD SLT PUSH2 0x2DD JUMPI PUSH1 0x20 PUSH1 0x40 MLOAD PUSH2 0xC350 DUP2 MSTORE RETURN JUMPDEST CALLVALUE PUSH2 0x2DD JUMPI PUSH1 0x0 CALLDATASIZE PUSH1 0x3 NOT ADD SLT PUSH2 0x2DD JUMPI PUSH1 0x20 PUSH1 0x40 MLOAD PUSH2 0x1F4 DUP2 MSTORE RETURN JUMPDEST CALLVALUE PUSH2 0x2DD JUMPI PUSH1 0x40 CALLDATASIZE PUSH1 0x3 NOT ADD SLT PUSH2 0x2DD JUMPI PUSH2 0x124E PUSH2 0x283E JUMP JUMPDEST PUSH2 0x1256 PUSH2 0x2EE9 JUMP JUMPDEST PUSH2 0x125E PUSH2 0x2F41 JUMP JUMPDEST PUSH1 0x3 SLOAD PUSH1 0x1 PUSH1 0x1 PUSH1 0xA0 SHL SUB SWAP2 DUP3 AND SWAP2 SWAP1 DUP2 AND DUP3 EQ PUSH2 0x1288 JUMPI PUSH2 0x340 SWAP2 PUSH1 0x24 CALLDATALOAD SWAP2 PUSH1 0x1 SLOAD AND SWAP1 PUSH2 0x3037 JUMP JUMPDEST PUSH1 0x40 MLOAD PUSH3 0x461BCD PUSH1 0xE5 SHL DUP2 MSTORE PUSH1 0x20 PUSH1 0x4 DUP3 ADD MSTORE PUSH1 0xE PUSH1 0x24 DUP3 ADD MSTORE PUSH14 0x7573652077697468647261772829 PUSH1 0x90 SHL PUSH1 0x44 DUP3 ADD MSTORE PUSH1 0x64 SWAP1 REVERT JUMPDEST CALLVALUE PUSH2 0x2DD JUMPI PUSH1 0x0 CALLDATASIZE PUSH1 0x3 NOT ADD SLT PUSH2 0x2DD JUMPI PUSH1 0x20 PUSH1 0x40 MLOAD PUSH4 0x5F5E100 DUP2 MSTORE RETURN JUMPDEST CALLVALUE PUSH2 0x2DD JUMPI PUSH2 0x12EB CALLDATASIZE PUSH2 0x2A52 JUMP JUMPDEST SWAP1 PUSH1 0x0 MSTORE PUSH1 0x9 PUSH1 0x20 MSTORE PUSH1 0x40 PUSH1 0x0 KECCAK256 SWAP1 PUSH1 0x40 MLOAD PUSH2 0x1306 DUP2 PUSH2 0x28D6 JUMP JUMPDEST PUSH2 0x130F DUP4 PUSH2 0x2930 JUMP JUMPDEST DUP2 MSTORE PUSH1 0x1 DUP1 PUSH1 0xA0 SHL SUB PUSH1 0x1 DUP5 ADD SLOAD AND PUSH1 0x20 DUP3 ADD MSTORE PUSH1 0xFF PUSH1 0x5 PUSH1 0x2 DUP6 ADD SLOAD SWAP5 PUSH1 0x40 DUP5 ADD SWAP6 DUP7 MSTORE PUSH1 0x3 DUP2 ADD SLOAD PUSH1 0x60 DUP6 ADD MSTORE PUSH1 0x4 DUP2 ADD SLOAD PUSH1 0x80 DUP6 ADD MSTORE ADD SLOAD AND ISZERO SWAP1 PUSH1 0xA0 DUP3 ISZERO SWAP2 ADD MSTORE PUSH2 0x733 JUMPI PUSH1 0x64 PUSH8 0xDE0B6B3A7640000 PUSH2 0x1383 PUSH2 0x139B SWAP4 PUSH1 0x20 SWAP6 MLOAD PUSH2 0x6C7F DUP2 GT PUSH1 0x0 EQ PUSH2 0x13A3 JUMPI PUSH2 0xFEE SWAP1 PUSH2 0x2C2B JUMP JUMPDEST DIV DIV PUSH2 0x2710 PUSH2 0x1394 PUSH1 0x8 SLOAD DUP4 PUSH2 0x2C18 JUMP JUMPDEST DIV SWAP1 PUSH2 0x2C3B JUMP JUMPDEST PUSH1 0x40 MLOAD SWAP1 DUP2 MSTORE RETURN JUMPDEST POP PUSH1 0x1 PUSH2 0x2C18 JUMP JUMPDEST CALLVALUE PUSH2 0x2DD JUMPI PUSH1 0x40 CALLDATASIZE PUSH1 0x3 NOT ADD SLT PUSH2 0x2DD JUMPI PUSH1 0x1 PUSH1 0x1 PUSH1 0xA0 SHL SUB PUSH2 0x13CC PUSH2 0x283E JUMP JUMPDEST AND PUSH1 0x0 MSTORE PUSH1 0xC PUSH1 0x20 MSTORE PUSH1 0x40 PUSH1 0x0 KECCAK256 PUSH1 0x24 CALLDATALOAD PUSH1 0x0 MSTORE PUSH1 0x20 MSTORE PUSH1 0x20 PUSH1 0x40 PUSH1 0x0 KECCAK256 SLOAD PUSH1 0x40 MLOAD SWAP1 DUP2 MSTORE RETURN JUMPDEST CALLVALUE PUSH2 0x2DD JUMPI PUSH1 0x20 CALLDATASIZE PUSH1 0x3 NOT ADD SLT PUSH2 0x2DD JUMPI PUSH1 0x4 CALLDATALOAD PUSH1 0x0 MSTORE PUSH1 0x9 PUSH1 0x20 MSTORE PUSH1 0x40 PUSH1 0x0 KECCAK256 PUSH1 0x40 MLOAD PUSH2 0x1420 DUP2 PUSH2 0x28D6 JUMP JUMPDEST PUSH2 0x1429 DUP3 PUSH2 0x2930 JUMP JUMPDEST DUP2 MSTORE PUSH1 0x1 DUP1 PUSH1 0xA0 SHL SUB PUSH1 0x1 DUP4 ADD SLOAD AND PUSH1 0x20 DUP3 ADD MSTORE PUSH1 0xFF PUSH1 0x5 PUSH1 0x2 DUP5 ADD SLOAD SWAP4 PUSH1 0x40 DUP5 ADD SWAP5 DUP6 MSTORE PUSH1 0x3 DUP2 ADD SLOAD PUSH1 0x60 DUP6 ADD MSTORE PUSH1 0x4 DUP2 ADD SLOAD PUSH1 0x80 DUP6 ADD MSTORE ADD SLOAD AND ISZERO SWAP1 PUSH1 0xA0 DUP3 ISZERO SWAP2 ADD MSTORE PUSH2 0x733 JUMPI MLOAD PUSH1 0x64 SWAP1 DIV PUSH3 0x4C4B40 DUP2 GT PUSH2 0x14A1 JUMPI POP PUSH1 0x60 PUSH3 0x1ADB0 PUSH3 0x493E0 JUMPDEST PUSH1 0x40 MLOAD SWAP2 PUSH1 0x0 DUP4 MSTORE PUSH1 0x20 DUP4 ADD MSTORE PUSH1 0x40 DUP3 ADD MSTORE RETURN JUMPDEST PUSH3 0x989680 GT ISZERO PUSH2 0x14BA JUMPI PUSH1 0x60 PUSH3 0x15F90 PUSH3 0x55730 PUSH2 0x148D JUMP JUMPDEST PUSH1 0x60 PUSH3 0x11170 PUSH3 0x61A80 PUSH2 0x148D JUMP JUMPDEST CALLVALUE PUSH2 0x2DD JUMPI PUSH1 0x0 CALLDATASIZE PUSH1 0x3 NOT ADD SLT PUSH2 0x2DD JUMPI PUSH1 0x1 SLOAD PUSH1 0x40 MLOAD PUSH1 0x1 PUSH1 0x1 PUSH1 0xA0 SHL SUB SWAP1 SWAP2 AND DUP2 MSTORE PUSH1 0x20 SWAP1 RETURN JUMPDEST PUSH2 0x2A86 JUMP JUMPDEST CALLVALUE PUSH2 0x2DD JUMPI PUSH1 0x0 CALLDATASIZE PUSH1 0x3 NOT ADD SLT PUSH2 0x2DD JUMPI PUSH2 0x1510 PUSH2 0x2EE9 JUMP JUMPDEST PUSH2 0x1518 PUSH2 0x2F97 JUMP JUMPDEST PUSH1 0x2 DUP1 SLOAD PUSH1 0xFF PUSH1 0xA0 SHL NOT AND PUSH1 0x1 PUSH1 0xA0 SHL OR SWAP1 SSTORE PUSH1 0x40 MLOAD CALLER DUP2 MSTORE PUSH32 0x62E78CEA01BEE320CD4E420270B5EA74000D11B0C9F74754EBDBFC544B05A258 SWAP1 PUSH1 0x20 SWAP1 LOG1 STOP JUMPDEST CALLVALUE PUSH2 0x2DD JUMPI PUSH1 0x20 DUP1 PUSH1 0x3 NOT CALLDATASIZE ADD SLT PUSH2 0x2DD JUMPI PUSH1 0x4 CALLDATALOAD PUSH8 0xFFFFFFFFFFFFFFFF DUP1 DUP3 GT PUSH2 0x2DD JUMPI CALLDATASIZE PUSH1 0x23 DUP4 ADD SLT ISZERO PUSH2 0x2DD JUMPI DUP2 PUSH1 0x4 ADD CALLDATALOAD SWAP1 DUP2 GT PUSH2 0x2DD JUMPI PUSH1 0x24 DUP1 DUP4 ADD SWAP3 PUSH1 0x24 CALLDATASIZE SWAP2 DUP5 PUSH1 0x6 SHL ADD ADD GT PUSH2 0x2DD JUMPI PUSH2 0x15B2 PUSH2 0x2F41 JUMP JUMPDEST PUSH2 0x15BA PUSH2 0x2F97 JUMP JUMPDEST PUSH1 0x5 DUP1 DUP4 SUB PUSH2 0x6E0 JUMPI PUSH1 0x0 JUMPDEST DUP4 DUP2 LT PUSH2 0x1919 JUMPI POP POP PUSH2 0x15D8 DUP3 PUSH2 0x2E94 JUMP JUMPDEST SWAP1 PUSH1 0x0 SWAP2 PUSH1 0x0 JUMPDEST DUP5 DUP2 LT PUSH2 0x18AF JUMPI POP PUSH1 0x0 JUMPDEST DUP4 DUP2 LT PUSH2 0x1816 JUMPI POP POP POP POP PUSH2 0x15FE DUP2 PUSH2 0x2E94 JUMP JUMPDEST SWAP1 PUSH2 0x1608 DUP2 PUSH2 0x2E94 JUMP JUMPDEST SWAP2 PUSH1 0x0 JUMPDEST DUP3 DUP2 LT PUSH2 0x17CA JUMPI POP PUSH1 0x0 SWAP4 PUSH1 0x0 JUMPDEST DUP4 DUP2 LT PUSH2 0x17AB JUMPI POP DUP5 ISZERO ISZERO SWAP4 DUP5 PUSH2 0x178B JUMPI JUMPDEST PUSH1 0x0 JUMPDEST DUP5 DUP2 LT PUSH2 0x169C JUMPI DUP8 DUP8 DUP8 PUSH2 0x1644 JUMPI PUSH1 0x1 PUSH1 0x0 SSTORE STOP JUMPDEST PUSH1 0x0 DUP1 MLOAD PUSH1 0x20 PUSH2 0x355E DUP4 CODECOPY DUP2 MLOAD SWAP2 MSTORE PUSH1 0x1 DUP1 PUSH1 0xA0 SHL SUB DUP1 PUSH1 0x5 SLOAD AND PUSH1 0x0 MSTORE PUSH1 0x10 DUP5 MSTORE PUSH1 0x40 PUSH1 0x0 KECCAK256 PUSH2 0x1676 DUP5 DUP3 SLOAD PUSH2 0x2C0B JUMP JUMPDEST SWAP1 SSTORE PUSH1 0x5 SLOAD PUSH1 0x40 MLOAD SWAP4 DUP5 MSTORE AND SWAP3 PUSH12 0xC2E8E8C2C6D6BEC4C2E8C6D PUSH1 0xA3 SHL SWAP3 LOG3 DUP1 DUP1 PUSH2 0x340 JUMP JUMPDEST DUP1 PUSH2 0x16AA PUSH1 0x1 SWAP3 DUP8 DUP7 PUSH2 0x2E6C JUMP JUMPDEST CALLDATALOAD DUP10 PUSH2 0x16B7 DUP4 DUP10 DUP9 PUSH2 0x2E6C JUMP JUMPDEST ADD CALLDATALOAD DUP2 PUSH1 0x0 MSTORE PUSH1 0x9 DUP12 MSTORE PUSH1 0x40 PUSH1 0x0 KECCAK256 SWAP2 DUP2 PUSH1 0x0 MSTORE PUSH1 0x4 PUSH1 0x40 PUSH1 0x0 KECCAK256 DUP2 PUSH2 0x16E7 PUSH2 0x16E0 DUP9 DUP12 PUSH2 0x2EC6 JUMP JUMPDEST MLOAD DUP7 PUSH2 0x32A0 JUMP JUMPDEST SWAP6 PUSH1 0x2 DUP1 DUP3 ADD SWAP1 PUSH2 0x16F9 DUP10 DUP4 SLOAD PUSH2 0x2C0B JUMP JUMPDEST DUP12 SWAP3 SWAP1 DUP1 DUP5 LT PUSH2 0x1785 JUMPI POP DUP3 SWAP1 JUMPDEST SSTORE DUP5 ADD SWAP1 PUSH2 0x1716 DUP10 DUP4 SLOAD PUSH2 0x2C3B JUMP JUMPDEST DUP1 DUP3 LT PUSH2 0x177D JUMPI POP SWAP1 JUMPDEST SSTORE ADD PUSH2 0x172C DUP2 SLOAD PUSH2 0x2EDA JUMP JUMPDEST SWAP1 SSTORE ADD PUSH2 0x1739 DUP2 SLOAD PUSH2 0x2EDA JUMP JUMPDEST SWAP1 SSTORE PUSH2 0x1745 DUP5 DUP10 PUSH2 0x2EC6 JUMP JUMPDEST MLOAD SWAP3 PUSH1 0x40 MLOAD SWAP4 DUP5 MSTORE DUP13 DUP5 ADD MSTORE PUSH32 0xEF329F5FB6C9847CF872E344B0B2E169FFA718DC97CA5B0F306E8C3143C48077 PUSH1 0x40 CALLER SWAP5 LOG4 ADD PUSH2 0x162F JUMP JUMPDEST SWAP1 POP SWAP1 PUSH2 0x1720 JUMP JUMPDEST SWAP1 PUSH2 0x1707 JUMP JUMPDEST PUSH1 0x3 SLOAD PUSH2 0x17A6 SWAP1 DUP8 SWAP1 ADDRESS SWAP1 CALLER SWAP1 PUSH1 0x1 PUSH1 0x1 PUSH1 0xA0 SHL SUB AND PUSH2 0x2FDE JUMP JUMPDEST PUSH2 0x162C JUMP JUMPDEST SWAP5 PUSH2 0x17C3 PUSH1 0x1 SWAP2 PUSH2 0x17BC DUP9 DUP7 PUSH2 0x2EC6 JUMP JUMPDEST MLOAD SWAP1 PUSH2 0x2C0B JUMP JUMPDEST SWAP6 ADD PUSH2 0x161A JUMP JUMPDEST DUP1 PUSH2 0x17D8 PUSH1 0x1 SWAP3 DUP6 DUP9 PUSH2 0x2E6C JUMP JUMPDEST CALLDATALOAD PUSH1 0x0 MSTORE PUSH1 0x9 DUP8 MSTORE PUSH2 0x1805 PUSH1 0x2 PUSH1 0x40 PUSH1 0x0 KECCAK256 ADD SLOAD PUSH2 0x17F5 DUP2 PUSH2 0x3244 JUMP JUMPDEST PUSH2 0x17FF DUP5 DUP8 PUSH2 0x2EC6 JUMP JUMPDEST MSTORE PUSH2 0x3272 JUMP JUMPDEST PUSH2 0x180F DUP3 DUP8 PUSH2 0x2EC6 JUMP JUMPDEST MSTORE ADD PUSH2 0x160C JUMP JUMPDEST PUSH2 0x1820 DUP2 DUP4 PUSH2 0x2EC6 JUMP JUMPDEST MLOAD PUSH1 0x0 MSTORE PUSH1 0x9 DUP8 MSTORE DUP3 DUP8 PUSH1 0x1 DUP1 PUSH1 0xA0 SHL SUB PUSH1 0x1 PUSH1 0x40 PUSH1 0x0 KECCAK256 ADD SLOAD AND PUSH1 0x40 MLOAD SWAP3 DUP4 DUP1 SWAP3 PUSH4 0x70A08231 PUSH1 0xE0 SHL DUP3 MSTORE CALLER PUSH1 0x4 DUP4 ADD MSTORE GAS STATICCALL DUP1 ISZERO PUSH2 0x727 JUMPI PUSH1 0x0 SWAP1 PUSH2 0x187A JUMPI JUMPDEST PUSH8 0xDE0B6B3A7640000 SWAP2 POP LT PUSH2 0x6E0 JUMPI PUSH1 0x1 ADD PUSH2 0x15EA JUMP JUMPDEST POP DUP8 DUP2 DUP2 RETURNDATASIZE DUP4 GT PUSH2 0x18A8 JUMPI JUMPDEST PUSH2 0x1890 DUP2 DUP4 PUSH2 0x290E JUMP JUMPDEST DUP2 ADD SUB SLT PUSH2 0x2DD JUMPI PUSH8 0xDE0B6B3A7640000 SWAP1 MLOAD PUSH2 0x1862 JUMP JUMPDEST POP RETURNDATASIZE PUSH2 0x1886 JUMP JUMPDEST PUSH2 0x18BA DUP2 DUP7 DUP9 PUSH2 0x2E6C JUMP JUMPDEST CALLDATALOAD PUSH1 0x0 DUP1 JUMPDEST DUP7 DUP2 LT PUSH2 0x18F6 JUMPI JUMPDEST POP ISZERO PUSH2 0x18D7 JUMPI JUMPDEST POP PUSH1 0x1 ADD PUSH2 0x15DF JUMP JUMPDEST DUP5 PUSH2 0x18EF SWAP2 PUSH2 0x18E9 PUSH1 0x1 SWAP5 SWAP8 DUP7 PUSH2 0x2EC6 JUMP JUMPDEST MSTORE PUSH2 0x2EDA JUMP JUMPDEST SWAP4 SWAP1 PUSH2 0x18CE JUMP JUMPDEST DUP3 PUSH2 0x1901 DUP3 DUP8 PUSH2 0x2EC6 JUMP JUMPDEST MLOAD EQ PUSH2 0x190F JUMPI PUSH1 0x1 ADD PUSH2 0x18BF JUMP JUMPDEST POP POP PUSH1 0x1 DUP10 PUSH2 0x18C7 JUMP JUMPDEST PUSH2 0x1924 DUP2 DUP6 DUP8 PUSH2 0x2E6C JUMP JUMPDEST CALLDATALOAD DUP7 PUSH2 0x1931 DUP4 DUP8 DUP10 PUSH2 0x2E6C JUMP JUMPDEST ADD CALLDATALOAD SWAP1 DUP2 DUP2 EQ PUSH2 0x6E0 JUMPI PUSH1 0x0 MSTORE PUSH1 0x9 DUP8 MSTORE PUSH1 0x40 PUSH1 0x0 KECCAK256 SWAP1 PUSH1 0x0 MSTORE DUP3 DUP1 PUSH1 0x40 PUSH1 0x0 KECCAK256 SWAP3 PUSH1 0xFF SWAP3 DUP4 SWAP2 ADD SLOAD AND ISZERO SWAP3 DUP4 ISZERO PUSH2 0x1973 JUMPI JUMPDEST POP POP POP PUSH2 0x733 JUMPI PUSH1 0x1 ADD PUSH2 0x15C6 JUMP JUMPDEST ADD SLOAD AND ISZERO SWAP1 POP DUP8 DUP4 DUP2 PUSH2 0x1964 JUMP JUMPDEST CALLVALUE PUSH2 0x2DD JUMPI PUSH2 0x198F CALLDATASIZE PUSH2 0x2A52 JUMP JUMPDEST PUSH2 0x1997 PUSH2 0x2EE9 JUMP JUMPDEST PUSH2 0x199F PUSH2 0x2F41 JUMP JUMPDEST DUP2 PUSH1 0x0 MSTORE PUSH1 0x20 PUSH1 0x9 DUP2 MSTORE PUSH1 0x40 PUSH1 0x0 KECCAK256 SWAP2 PUSH1 0xFF PUSH1 0x5 DUP5 ADD SLOAD AND ISZERO PUSH2 0x733 JUMPI PUSH1 0x24 DUP3 PUSH1 0x1 DUP6 ADD SWAP5 PUSH1 0x3 PUSH1 0x1 DUP1 PUSH1 0xA0 SHL SUB SWAP2 PUSH2 0x19DF DUP7 DUP5 DUP11 SLOAD AND ADDRESS SWAP1 CALLER SWAP1 PUSH2 0x2FDE JUMP JUMPDEST ADD SWAP6 PUSH2 0x19EC DUP6 DUP9 SLOAD PUSH2 0x2C0B JUMP JUMPDEST DUP1 SWAP8 SSTORE SLOAD AND PUSH1 0x40 MLOAD SWAP3 DUP4 DUP1 SWAP3 PUSH4 0x70A08231 PUSH1 0xE0 SHL DUP3 MSTORE ADDRESS PUSH1 0x4 DUP4 ADD MSTORE GAS STATICCALL SWAP1 DUP2 ISZERO PUSH2 0x727 JUMPI PUSH1 0x0 SWAP2 PUSH2 0x1A47 JUMPI JUMPDEST POP PUSH32 0x41FB7AD419FC7623DDE1142CD095A12727AA6965AB1D484A6D0D9327403D98BA SWAP4 PUSH2 0xBF6 SWAP2 LT ISZERO PUSH2 0x2E2D JUMP JUMPDEST SWAP1 POP DUP3 DUP2 DUP2 RETURNDATASIZE DUP4 GT PUSH2 0x1A8D JUMPI JUMPDEST PUSH2 0x1A5E DUP2 DUP4 PUSH2 0x290E JUMP JUMPDEST DUP2 ADD SUB SLT PUSH2 0x2DD JUMPI MLOAD PUSH32 0x41FB7AD419FC7623DDE1142CD095A12727AA6965AB1D484A6D0D9327403D98BA PUSH2 0x1A19 JUMP JUMPDEST POP RETURNDATASIZE PUSH2 0x1A54 JUMP JUMPDEST CALLVALUE PUSH2 0x2DD JUMPI PUSH1 0x0 CALLDATASIZE PUSH1 0x3 NOT ADD SLT PUSH2 0x2DD JUMPI PUSH1 0x2 SLOAD PUSH1 0x1 PUSH1 0x1 PUSH1 0xA0 SHL SUB CALLER DUP2 DUP4 AND SUB PUSH2 0x1B00 JUMPI PUSH1 0x1 PUSH1 0x1 PUSH1 0x60 SHL SUB PUSH1 0xA0 SHL DUP1 SWAP3 AND PUSH1 0x2 SSTORE PUSH1 0x1 SLOAD SWAP2 CALLER SWAP1 DUP4 AND OR PUSH1 0x1 SSTORE CALLER SWAP2 AND PUSH32 0x8BE0079C531659141344CD1FD0A4F28419497F9722A3DAAFE3B4186F6B6457E0 PUSH1 0x0 DUP1 LOG3 STOP JUMPDEST PUSH1 0x40 MLOAD PUSH3 0x461BCD PUSH1 0xE5 SHL DUP2 MSTORE PUSH1 0x20 PUSH1 0x4 DUP3 ADD MSTORE PUSH1 0x29 PUSH1 0x24 DUP3 ADD MSTORE PUSH32 0x4F776E61626C6532537465703A2063616C6C6572206973206E6F742074686520 PUSH1 0x44 DUP3 ADD MSTORE PUSH9 0x3732BB9037BBB732B9 PUSH1 0xB9 SHL PUSH1 0x64 DUP3 ADD MSTORE PUSH1 0x84 SWAP1 REVERT JUMPDEST CALLVALUE PUSH2 0x2DD JUMPI PUSH1 0x0 CALLDATASIZE PUSH1 0x3 NOT ADD SLT PUSH2 0x2DD JUMPI PUSH1 0xC0 PUSH1 0x1 DUP1 PUSH1 0xA0 SHL SUB DUP1 PUSH1 0x3 SLOAD AND SWAP1 DUP1 PUSH1 0x4 SLOAD AND SWAP1 DUP1 PUSH1 0x5 SLOAD AND SWAP1 PUSH1 0x6 SLOAD AND PUSH1 0x7 SLOAD SWAP2 PUSH1 0x8 SLOAD SWAP4 PUSH1 0x40 MLOAD SWAP6 DUP7 MSTORE PUSH1 0x20 DUP7 ADD MSTORE PUSH1 0x40 DUP6 ADD MSTORE PUSH1 0x60 DUP5 ADD MSTORE PUSH1 0x80 DUP4 ADD MSTORE PUSH1 0xA0 DUP3 ADD MSTORE RETURN JUMPDEST CALLVALUE PUSH2 0x2DD JUMPI PUSH1 0x0 CALLDATASIZE PUSH1 0x3 NOT ADD SLT PUSH2 0x2DD JUMPI PUSH2 0x1BC9 PUSH2 0x2EE9 JUMP JUMPDEST PUSH1 0x2 DUP1 SLOAD PUSH1 0x1 PUSH1 0x1 PUSH1 0xA0 SHL SUB NOT SWAP1 DUP2 AND SWAP1 SWAP2 SSTORE PUSH1 0x1 DUP1 SLOAD SWAP2 DUP3 AND SWAP1 SSTORE PUSH1 0x0 SWAP1 PUSH1 0x1 PUSH1 0x1 PUSH1 0xA0 SHL SUB AND PUSH32 0x8BE0079C531659141344CD1FD0A4F28419497F9722A3DAAFE3B4186F6B6457E0 DUP3 DUP1 LOG3 STOP JUMPDEST CALLVALUE PUSH2 0x2DD JUMPI PUSH1 0xC0 PUSH2 0x1C30 PUSH2 0x1C2A CALLDATASIZE PUSH2 0x2A52 JUMP JUMPDEST SWAP1 PUSH2 0x2C8E JUMP JUMPDEST SWAP4 PUSH1 0x40 SWAP4 SWAP2 SWAP4 MLOAD SWAP6 DUP7 MSTORE PUSH1 0x20 DUP7 ADD MSTORE PUSH1 0x40 DUP6 ADD MSTORE PUSH1 0x60 DUP5 ADD MSTORE PUSH1 0x80 DUP4 ADD MSTORE ISZERO ISZERO PUSH1 0xA0 DUP3 ADD MSTORE RETURN JUMPDEST CALLVALUE PUSH2 0x2DD JUMPI PUSH1 0x0 CALLDATASIZE PUSH1 0x3 NOT ADD SLT PUSH2 0x2DD JUMPI PUSH1 0x20 PUSH1 0x40 MLOAD PUSH1 0x1 DUP2 MSTORE RETURN JUMPDEST CALLVALUE PUSH2 0x2DD JUMPI PUSH1 0x20 CALLDATASIZE PUSH1 0x3 NOT ADD SLT PUSH2 0x2DD JUMPI PUSH1 0x4 CALLDATALOAD PUSH1 0x0 MSTORE PUSH1 0xA PUSH1 0x20 MSTORE PUSH1 0x20 PUSH1 0xFF PUSH1 0x40 PUSH1 0x0 KECCAK256 SLOAD AND PUSH1 0x40 MLOAD SWAP1 ISZERO ISZERO DUP2 MSTORE RETURN JUMPDEST CALLVALUE PUSH2 0x2DD JUMPI PUSH1 0x0 CALLDATASIZE PUSH1 0x3 NOT ADD SLT PUSH2 0x2DD JUMPI PUSH1 0x16 SLOAD PUSH1 0x17 SLOAD PUSH1 0x18 SLOAD PUSH1 0x40 DUP1 MLOAD SWAP4 DUP5 MSTORE PUSH1 0x20 DUP5 ADD SWAP3 SWAP1 SWAP3 MSTORE SWAP1 DUP3 ADD MSTORE PUSH1 0x60 SWAP1 RETURN JUMPDEST CALLVALUE PUSH2 0x2DD JUMPI PUSH1 0x0 CALLDATASIZE PUSH1 0x3 NOT ADD SLT PUSH2 0x2DD JUMPI PUSH1 0x20 PUSH1 0xFF PUSH1 0x2 SLOAD PUSH1 0xA0 SHR AND PUSH1 0x40 MLOAD SWAP1 ISZERO ISZERO DUP2 MSTORE RETURN JUMPDEST CALLVALUE PUSH2 0x2DD JUMPI PUSH1 0x20 CALLDATASIZE PUSH1 0x3 NOT ADD SLT PUSH2 0x2DD JUMPI PUSH1 0x1 PUSH1 0x1 PUSH1 0xA0 SHL SUB PUSH2 0x1D1D PUSH2 0x283E JUMP JUMPDEST AND PUSH1 0x0 MSTORE PUSH1 0xB PUSH1 0x20 MSTORE PUSH2 0x100 PUSH1 0x40 PUSH1 0x0 KECCAK256 PUSH1 0xFF PUSH1 0x40 MLOAD SWAP2 PUSH2 0x1D3D DUP4 PUSH2 0x28BA JUMP JUMPDEST SLOAD AND DUP1 SWAP2 MSTORE PUSH1 0x13 SLOAD SWAP1 PUSH1 0x16 SLOAD PUSH1 0x40 MLOAD SWAP3 PUSH1 0x0 DUP5 MSTORE PUSH1 0x20 DUP5 ADD MSTORE PUSH1 0x0 PUSH1 0x40 DUP5 ADD MSTORE PUSH1 0x0 PUSH1 0x60 DUP5 ADD MSTORE PUSH1 0x80 DUP4 ADD MSTORE PUSH1 0x0 PUSH1 0xA0 DUP4 ADD MSTORE PUSH1 0xC0 DUP3 ADD MSTORE PUSH1 0x2 PUSH1 0xE0 DUP3 ADD MSTORE RETURN JUMPDEST CALLVALUE PUSH2 0x2DD JUMPI PUSH1 0x0 CALLDATASIZE PUSH1 0x3 NOT ADD SLT PUSH2 0x2DD JUMPI PUSH1 0x20 PUSH1 0x40 MLOAD PUSH2 0x1B58 DUP2 MSTORE RETURN JUMPDEST CALLVALUE PUSH2 0x2DD JUMPI PUSH1 0x20 CALLDATASIZE PUSH1 0x3 NOT ADD SLT PUSH2 0x2DD JUMPI PUSH1 0x4 CALLDATALOAD PUSH1 0x0 MSTORE PUSH1 0xE PUSH1 0x20 MSTORE PUSH1 0x40 DUP1 PUSH1 0x0 KECCAK256 PUSH1 0x1 DUP2 SLOAD SWAP2 ADD SLOAD DUP3 MLOAD SWAP2 DUP3 MSTORE PUSH1 0x20 DUP3 ADD MSTORE RETURN JUMPDEST CALLVALUE PUSH2 0x2DD JUMPI PUSH1 0x0 CALLDATASIZE PUSH1 0x3 NOT ADD SLT PUSH2 0x2DD JUMPI PUSH2 0x1DE9 PUSH2 0x2F41 JUMP JUMPDEST CALLER PUSH1 0x0 MSTORE PUSH1 0x10 PUSH1 0x20 MSTORE PUSH1 0x40 PUSH1 0x0 KECCAK256 SLOAD DUP1 ISZERO PUSH2 0x1E58 JUMPI CALLER PUSH1 0x0 DUP2 DUP2 MSTORE PUSH1 0x10 PUSH1 0x20 MSTORE PUSH1 0x40 DUP2 KECCAK256 SSTORE PUSH1 0x3 SLOAD PUSH2 0x1E25 SWAP2 DUP4 SWAP2 PUSH1 0x1 PUSH1 0x1 PUSH1 0xA0 SHL SUB AND PUSH2 0x3037 JUMP JUMPDEST PUSH1 0x40 MLOAD SWAP1 DUP2 MSTORE PUSH32 0x78473F3F373F7673597F4F0FA5873CB4D375FEA6D4339AD6B56DBD411513CB3F PUSH1 0x20 CALLER SWAP3 LOG2 PUSH1 0x1 PUSH1 0x0 SSTORE STOP JUMPDEST PUSH1 0x40 MLOAD PUSH3 0x461BCD PUSH1 0xE5 SHL DUP2 MSTORE PUSH1 0x20 PUSH1 0x4 DUP3 ADD MSTORE PUSH1 0x8 PUSH1 0x24 DUP3 ADD MSTORE PUSH8 0x6E6F2066756E6473 PUSH1 0xC0 SHL PUSH1 0x44 DUP3 ADD MSTORE PUSH1 0x64 SWAP1 REVERT JUMPDEST CALLVALUE PUSH2 0x2DD JUMPI PUSH1 0x0 CALLDATASIZE PUSH1 0x3 NOT ADD SLT PUSH2 0x2DD JUMPI PUSH1 0x20 PUSH1 0x40 MLOAD PUSH2 0xD8FE DUP2 MSTORE RETURN JUMPDEST CALLVALUE PUSH2 0x2DD JUMPI PUSH1 0x0 CALLDATASIZE PUSH1 0x3 NOT ADD SLT PUSH2 0x2DD JUMPI PUSH2 0x1EBE PUSH2 0x2EE9 JUMP JUMPDEST PUSH1 0x2 SLOAD PUSH1 0xFF DUP2 PUSH1 0xA0 SHR AND ISZERO PUSH2 0x1F05 JUMPI PUSH1 0xFF PUSH1 0xA0 SHL NOT AND PUSH1 0x2 SSTORE PUSH1 0x40 MLOAD CALLER DUP2 MSTORE PUSH32 0x5DB9EE0A495BF2E6FF9C91A7834C1BA4FDD244A5E8AA4E537BD38AEAE4B073AA SWAP1 PUSH1 0x20 SWAP1 LOG1 STOP JUMPDEST PUSH1 0x40 MLOAD PUSH3 0x461BCD PUSH1 0xE5 SHL DUP2 MSTORE PUSH1 0x20 PUSH1 0x4 DUP3 ADD MSTORE PUSH1 0x14 PUSH1 0x24 DUP3 ADD MSTORE PUSH20 0x14185D5CD8589B194E881B9BDD081C185D5CD959 PUSH1 0x62 SHL PUSH1 0x44 DUP3 ADD MSTORE PUSH1 0x64 SWAP1 REVERT JUMPDEST CALLVALUE PUSH2 0x2DD JUMPI PUSH1 0x20 CALLDATASIZE PUSH1 0x3 NOT ADD SLT PUSH2 0x2DD JUMPI PUSH1 0x1 PUSH1 0x1 PUSH1 0xA0 SHL SUB PUSH2 0x1F62 PUSH2 0x283E JUMP JUMPDEST AND PUSH1 0x0 MSTORE PUSH1 0xB PUSH1 0x20 MSTORE PUSH1 0x40 PUSH1 0x0 KECCAK256 PUSH1 0xFF PUSH1 0x40 MLOAD SWAP2 PUSH2 0x1F7F DUP4 PUSH2 0x28BA JUMP JUMPDEST SLOAD AND DUP1 SWAP2 MSTORE PUSH1 0x2 DUP2 LT PUSH1 0x0 EQ PUSH2 0x1FB7 JUMPI DUP1 PUSH1 0x2 SUB SWAP1 PUSH1 0xFF DUP3 GT PUSH2 0x6CA JUMPI PUSH1 0xFF PUSH1 0x60 SWAP3 JUMPDEST PUSH1 0x40 MLOAD SWAP3 DUP4 MSTORE PUSH1 0x2 PUSH1 0x20 DUP5 ADD MSTORE AND PUSH1 0x40 DUP3 ADD MSTORE RETURN JUMPDEST PUSH1 0x60 SWAP1 PUSH1 0xFF PUSH1 0x0 PUSH2 0x1FA2 JUMP JUMPDEST CALLVALUE PUSH2 0x2DD JUMPI PUSH2 0x1FD1 CALLDATASIZE PUSH2 0x2A68 JUMP JUMPDEST PUSH2 0x1FDC SWAP4 SWAP3 SWAP4 PUSH2 0x2F41 JUMP JUMPDEST PUSH2 0x1FE4 PUSH2 0x2F97 JUMP JUMPDEST TIMESTAMP GT PUSH2 0x2363 JUMPI DUP3 ISZERO PUSH2 0x6E0 JUMPI DUP2 PUSH1 0x0 MSTORE PUSH1 0x20 PUSH1 0x9 DUP2 MSTORE PUSH1 0x40 PUSH1 0x0 KECCAK256 PUSH1 0xFF PUSH1 0x5 DUP3 ADD SLOAD AND ISZERO PUSH2 0x733 JUMPI PUSH1 0x2 DUP2 ADD SWAP2 DUP3 SLOAD PUSH2 0x6C7F DUP2 GT PUSH1 0x0 EQ PUSH2 0x235A JUMPI PUSH2 0x2028 SWAP1 PUSH2 0x2C2B JUMP JUMPDEST SWAP2 JUMPDEST PUSH8 0xDE0B6B3A7640000 PUSH1 0x64 DUP2 PUSH2 0x2040 DUP11 DUP8 PUSH2 0x2C18 JUMP JUMPDEST DIV DIV SWAP1 PUSH9 0x56BC75E2D63100000 DUP10 DIV DUP3 LT PUSH2 0x2348 JUMPI PUSH2 0x207A PUSH2 0x2072 PUSH2 0x2710 PUSH2 0x206A PUSH1 0x8 SLOAD DUP7 PUSH2 0x2C18 JUMP JUMPDEST DIV DUP1 SWAP5 PUSH2 0x2C3B JUMP JUMPDEST DUP11 DUP11 CALLER PUSH2 0x3087 JUMP JUMPDEST PUSH1 0x3 SLOAD PUSH1 0x40 MLOAD PUSH4 0x70A08231 PUSH1 0xE0 SHL DUP2 MSTORE ADDRESS PUSH1 0x4 DUP3 ADD MSTORE PUSH1 0x1 PUSH1 0x1 PUSH1 0xA0 SHL SUB SWAP11 SWAP4 SWAP10 SWAP3 SWAP7 SWAP4 SWAP2 DUP9 SWAP1 DUP3 SWAP1 PUSH1 0x24 SWAP1 DUP3 SWAP1 DUP16 AND GAS STATICCALL DUP1 ISZERO PUSH2 0x727 JUMPI DUP11 SWAP2 PUSH1 0x0 SWAP2 PUSH2 0x2317 JUMPI JUMPDEST POP LT PUSH2 0x2305 JUMPI DUP9 LT PUSH2 0x22F3 JUMPI PUSH2 0x20DA DUP12 ADDRESS CALLER DUP13 PUSH1 0x1 DUP8 ADD SLOAD AND PUSH2 0x2FDE JUMP JUMPDEST DUP1 SLOAD PUSH2 0xD8FE SWAP1 DUP13 DUP3 MUL SWAP2 DUP3 DIV DUP14 SUB PUSH2 0x6CA JUMPI PUSH1 0x3 SWAP5 PUSH2 0x20FA SWAP3 DIV SWAP1 PUSH2 0x2C3B JUMP JUMPDEST PUSH1 0x1 DUP2 GT PUSH2 0x22ED JUMPI POP PUSH1 0x1 SWAP1 JUMPDEST SSTORE ADD PUSH2 0x2114 DUP10 DUP3 SLOAD PUSH2 0x2C0B JUMP JUMPDEST SWAP1 SSTORE DUP7 PUSH1 0x0 MSTORE PUSH1 0xA DUP4 MSTORE PUSH1 0x40 PUSH1 0x0 KECCAK256 PUSH1 0x1 PUSH1 0xFF NOT DUP3 SLOAD AND OR SWAP1 SSTORE DUP1 ISZERO DUP1 ISZERO PUSH2 0x21E2 JUMPI JUMPDEST POP POP PUSH32 0x5E0922A23309A2659C544F945243E9B10B81C64914F7FC78E194F8A7E8545B7D SWAP5 PUSH2 0x2174 SWAP3 DUP3 DUP7 SWAP4 PUSH2 0x2193 JUMPI JUMPDEST POP POP CALLER SWAP1 PUSH1 0x3 SLOAD AND PUSH2 0x3037 JUMP JUMPDEST PUSH1 0x40 DUP1 MLOAD SWAP6 DUP7 MSTORE PUSH1 0x20 DUP7 ADD SWAP2 SWAP1 SWAP2 MSTORE DUP5 ADD MSTORE CALLER SWAP3 PUSH1 0x60 SWAP1 LOG3 PUSH1 0x1 PUSH1 0x0 SSTORE STOP JUMPDEST DUP3 PUSH1 0x5 SLOAD AND PUSH1 0x0 MSTORE PUSH1 0x10 DUP3 MSTORE PUSH1 0x40 PUSH1 0x0 KECCAK256 PUSH2 0x21AF DUP3 DUP3 SLOAD PUSH2 0x2C0B JUMP JUMPDEST SWAP1 SSTORE PUSH1 0x0 DUP1 MLOAD PUSH1 0x20 PUSH2 0x355E DUP4 CODECOPY DUP2 MLOAD SWAP2 MSTORE DUP4 PUSH1 0x5 SLOAD AND SWAP3 PUSH1 0x40 MLOAD SWAP3 DUP4 MSTORE PUSH9 0x616E74695F64756D7 PUSH1 0xBC SHL SWAP3 LOG3 DUP9 DUP1 PUSH2 0x2167 JUMP JUMPDEST SWAP2 SWAP6 SWAP1 SWAP3 PUSH2 0xBB8 SWAP3 DUP4 DUP6 MUL SWAP4 DUP6 DUP6 DIV EQ OR ISZERO PUSH2 0x6CA JUMPI PUSH32 0x5E0922A23309A2659C544F945243E9B10B81C64914F7FC78E194F8A7E8545B7D SWAP7 PUSH2 0x2174 SWAP5 PUSH2 0x222E PUSH2 0x2710 DUP10 SWAP7 DIV DUP1 SWAP3 PUSH2 0x2C3B JUMP JUMPDEST SWAP1 DUP1 PUSH2 0x229A JUMPI JUMPDEST POP DUP1 PUSH2 0x2248 JUMPI JUMPDEST POP SWAP3 POP SWAP3 DUP2 SWAP7 POP PUSH2 0x2137 JUMP JUMPDEST DUP4 PUSH1 0x5 SLOAD AND PUSH1 0x0 MSTORE PUSH1 0x10 DUP4 MSTORE PUSH1 0x40 PUSH1 0x0 KECCAK256 PUSH2 0x2264 DUP3 DUP3 SLOAD PUSH2 0x2C0B JUMP JUMPDEST SWAP1 SSTORE DUP4 PUSH1 0x5 SLOAD AND SWAP1 PUSH1 0x40 MLOAD SWAP1 DUP2 MSTORE PUSH1 0x0 DUP1 MLOAD PUSH1 0x20 PUSH2 0x355E DUP4 CODECOPY DUP2 MLOAD SWAP2 MSTORE DUP5 PUSH12 0x73656C6C5F726576656E7565 PUSH1 0xA0 SHL SWAP3 LOG3 DUP11 PUSH2 0x223C JUMP JUMPDEST DUP5 PUSH1 0x6 SLOAD AND PUSH1 0x0 MSTORE PUSH1 0x10 DUP5 MSTORE PUSH1 0x40 PUSH1 0x0 KECCAK256 PUSH2 0x22B6 DUP3 DUP3 SLOAD PUSH2 0x2C0B JUMP JUMPDEST SWAP1 SSTORE DUP5 PUSH1 0x6 SLOAD AND SWAP1 PUSH1 0x40 MLOAD SWAP1 DUP2 MSTORE PUSH1 0x0 DUP1 MLOAD PUSH1 0x20 PUSH2 0x355E DUP4 CODECOPY DUP2 MLOAD SWAP2 MSTORE DUP6 PUSH13 0x1CD95B1B17DC9959995C9C985B PUSH1 0x9A SHL SWAP3 LOG3 DUP12 PUSH2 0x2235 JUMP JUMPDEST SWAP1 PUSH2 0x2107 JUMP JUMPDEST PUSH1 0x40 MLOAD PUSH4 0x8199F5F3 PUSH1 0xE0 SHL DUP2 MSTORE PUSH1 0x4 SWAP1 REVERT JUMPDEST PUSH1 0x40 MLOAD PUSH4 0x681C950B PUSH1 0xE0 SHL DUP2 MSTORE PUSH1 0x4 SWAP1 REVERT JUMPDEST DUP1 SWAP3 POP DUP10 DUP1 SWAP3 POP RETURNDATASIZE DUP4 GT PUSH2 0x2341 JUMPI JUMPDEST PUSH2 0x2330 DUP2 DUP4 PUSH2 0x290E JUMP JUMPDEST DUP2 ADD SUB SLT PUSH2 0x2DD JUMPI DUP10 SWAP1 MLOAD DUP15 PUSH2 0x20BC JUMP JUMPDEST POP RETURNDATASIZE PUSH2 0x2326 JUMP JUMPDEST PUSH1 0x40 MLOAD PUSH4 0x2F038155 PUSH1 0xE1 SHL DUP2 MSTORE PUSH1 0x4 SWAP1 REVERT JUMPDEST POP PUSH1 0x1 SWAP2 PUSH2 0x202A JUMP JUMPDEST PUSH1 0x40 MLOAD PUSH4 0x559895A3 PUSH1 0xE0 SHL DUP2 MSTORE PUSH1 0x4 SWAP1 REVERT JUMPDEST CALLVALUE PUSH2 0x2DD JUMPI PUSH1 0x20 CALLDATASIZE PUSH1 0x3 NOT ADD SLT PUSH2 0x2DD JUMPI PUSH1 0x4 CALLDATALOAD PUSH1 0x0 MSTORE PUSH1 0xF PUSH1 0x20 MSTORE PUSH1 0x40 DUP1 PUSH1 0x0 KECCAK256 PUSH1 0x1 DUP2 SLOAD SWAP2 ADD SLOAD DUP3 MLOAD SWAP2 DUP3 MSTORE PUSH1 0x20 DUP3 ADD MSTORE RETURN JUMPDEST CALLVALUE PUSH2 0x2DD JUMPI PUSH2 0x23B8 CALLDATASIZE PUSH2 0x2A68 JUMP JUMPDEST PUSH2 0x23C3 SWAP4 SWAP3 SWAP4 PUSH2 0x2F41 JUMP JUMPDEST PUSH2 0x23CB PUSH2 0x2F97 JUMP JUMPDEST TIMESTAMP GT PUSH2 0x2363 JUMPI DUP3 ISZERO PUSH2 0x6E0 JUMPI DUP2 PUSH1 0x0 MSTORE PUSH1 0x20 PUSH1 0x9 DUP2 MSTORE PUSH1 0x40 PUSH1 0x0 KECCAK256 PUSH1 0xFF PUSH1 0x5 DUP3 ADD SLOAD AND ISZERO PUSH2 0x733 JUMPI PUSH1 0x2 DUP2 ADD SWAP1 PUSH2 0x2402 DUP3 SLOAD PUSH2 0x2BFC JUMP JUMPDEST SWAP2 PUSH8 0xDE0B6B3A7640000 SWAP5 PUSH1 0x64 DUP7 PUSH2 0x241A DUP11 DUP8 PUSH2 0x2C18 JUMP JUMPDEST DIV DIV SWAP5 PUSH2 0x2710 SWAP2 DUP3 DUP8 LT PUSH2 0x261B JUMPI DUP7 GT PUSH2 0x22F3 JUMPI PUSH1 0x3 DUP5 ADD DUP10 DUP2 SLOAD LT PUSH2 0x2609 JUMPI PUSH1 0x3 SLOAD PUSH1 0x1 PUSH1 0x1 PUSH1 0xA0 SHL SUB SWAP5 SWAP1 PUSH2 0x2458 SWAP1 DUP10 SWAP1 ADDRESS SWAP1 CALLER SWAP1 DUP10 AND PUSH2 0x2FDE JUMP JUMPDEST DUP1 SLOAD PUSH2 0xD6D8 SWAP1 DUP13 DUP3 MUL SWAP2 DUP3 DIV DUP14 SUB PUSH2 0x6CA JUMPI DUP13 SWAP11 PUSH2 0x2477 SWAP3 DIV SWAP1 PUSH2 0x2C0B JUMP JUMPDEST PUSH1 0x1 DUP2 GT PUSH2 0x2603 JUMPI POP PUSH1 0x1 SWAP1 JUMPDEST SSTORE PUSH2 0x2490 DUP9 DUP3 SLOAD PUSH2 0x2C3B JUMP JUMPDEST SWAP1 SSTORE DUP8 PUSH1 0x0 MSTORE PUSH1 0xA DUP2 MSTORE PUSH1 0x40 PUSH1 0x0 KECCAK256 PUSH1 0x1 PUSH1 0xFF NOT DUP3 SLOAD AND OR SWAP1 SSTORE DUP2 PUSH2 0x24B7 PUSH1 0x7 SLOAD DUP9 PUSH2 0x2C18 JUMP JUMPDEST DIV SWAP2 DUP3 ISZERO SWAP2 DUP3 ISZERO PUSH2 0x24FA JUMPI JUMPDEST POP POP POP POP SWAP4 PUSH2 0x2174 SWAP2 PUSH32 0x7280BDF45DBD84499327763E7E91B31324C8FC5E8D556813089F71C9A8D91F5C SWAP6 PUSH1 0x1 CALLER SWAP3 ADD SLOAD AND PUSH2 0x3037 JUMP JUMPDEST SWAP1 SWAP4 SWAP2 SWAP5 SWAP3 SWAP8 POP PUSH2 0xBB8 SWAP5 DUP6 DUP10 MUL SWAP6 DUP10 DUP8 DIV EQ OR ISZERO PUSH2 0x6CA JUMPI PUSH32 0x7280BDF45DBD84499327763E7E91B31324C8FC5E8D556813089F71C9A8D91F5C SWAP8 PUSH2 0x2546 DUP12 SWAP6 PUSH2 0x2174 SWAP8 DIV DUP1 SWAP3 PUSH2 0x2C3B JUMP JUMPDEST SWAP1 DUP1 PUSH2 0x25B1 JUMPI JUMPDEST POP DUP1 PUSH2 0x2560 JUMPI JUMPDEST DUP3 SWAP5 SWAP9 POP DUP4 SWAP6 POP PUSH2 0x24C3 JUMP JUMPDEST DUP3 PUSH1 0x5 SLOAD AND PUSH1 0x0 MSTORE PUSH1 0x10 DUP3 MSTORE PUSH1 0x40 PUSH1 0x0 KECCAK256 PUSH2 0x257C DUP3 DUP3 SLOAD PUSH2 0x2C0B JUMP JUMPDEST SWAP1 SSTORE PUSH1 0x0 DUP1 MLOAD PUSH1 0x20 PUSH2 0x355E DUP4 CODECOPY DUP2 MLOAD SWAP2 MSTORE DUP4 PUSH1 0x5 SLOAD AND SWAP3 PUSH1 0x40 MLOAD SWAP3 DUP4 MSTORE PUSH11 0x6275795F726576656E7565 PUSH1 0xA8 SHL SWAP3 LOG3 DUP10 DUP1 PUSH2 0x2554 JUMP JUMPDEST DUP4 PUSH1 0x6 SLOAD AND PUSH1 0x0 MSTORE PUSH1 0x10 DUP4 MSTORE PUSH1 0x40 PUSH1 0x0 KECCAK256 PUSH2 0x25CD DUP3 DUP3 SLOAD PUSH2 0x2C0B JUMP JUMPDEST SWAP1 SSTORE DUP4 PUSH1 0x6 SLOAD AND SWAP1 PUSH1 0x40 MLOAD SWAP1 DUP2 MSTORE PUSH1 0x0 DUP1 MLOAD PUSH1 0x20 PUSH2 0x355E DUP4 CODECOPY DUP2 MLOAD SWAP2 MSTORE DUP5 PUSH12 0x189D5E57DC9959995C9C985B PUSH1 0xA2 SHL SWAP3 LOG3 DUP12 PUSH2 0x254D JUMP JUMPDEST SWAP1 PUSH2 0x2484 JUMP JUMPDEST PUSH1 0x40 MLOAD PUSH4 0xCEA8407 PUSH1 0xE2 SHL DUP2 MSTORE PUSH1 0x4 SWAP1 REVERT JUMPDEST PUSH1 0x40 MLOAD PUSH4 0x2144CB9 PUSH1 0xE1 SHL DUP2 MSTORE PUSH1 0x4 SWAP1 REVERT JUMPDEST CALLVALUE PUSH2 0x2DD JUMPI PUSH1 0x20 CALLDATASIZE PUSH1 0x3 NOT ADD SLT PUSH2 0x2DD JUMPI PUSH1 0x1 PUSH1 0x1 PUSH1 0xA0 SHL SUB PUSH2 0x264E PUSH2 0x283E JUMP JUMPDEST AND PUSH1 0x0 MSTORE PUSH1 0xB PUSH1 0x20 MSTORE PUSH1 0x20 PUSH1 0xFF PUSH1 0x40 PUSH1 0x0 KECCAK256 SLOAD AND PUSH1 0x40 MLOAD SWAP1 DUP2 MSTORE RETURN JUMPDEST CALLVALUE PUSH2 0x2DD JUMPI PUSH2 0x2678 CALLDATASIZE PUSH2 0x2A52 JUMP JUMPDEST SWAP1 PUSH2 0x2681 PUSH2 0x2EE9 JUMP JUMPDEST PUSH2 0x2689 PUSH2 0x2F41 JUMP JUMPDEST PUSH1 0x7 SSTORE PUSH1 0x8 SSTORE PUSH1 0x1 PUSH1 0x0 SSTORE STOP JUMPDEST CALLVALUE PUSH2 0x2DD JUMPI PUSH1 0x0 CALLDATASIZE PUSH1 0x3 NOT ADD SLT PUSH2 0x2DD JUMPI PUSH1 0x20 PUSH1 0x40 MLOAD PUSH2 0xD6D8 DUP2 MSTORE RETURN JUMPDEST CALLVALUE PUSH2 0x2DD JUMPI PUSH1 0x0 CALLDATASIZE PUSH1 0x3 NOT ADD SLT PUSH2 0x2DD JUMPI PUSH1 0x13 SLOAD PUSH1 0x14 SLOAD PUSH1 0x15 SLOAD PUSH1 0x40 DUP1 MLOAD SWAP4 DUP5 MSTORE PUSH1 0x20 DUP5 ADD SWAP3 SWAP1 SWAP3 MSTORE SWAP1 DUP3 ADD MSTORE PUSH1 0x60 SWAP1 RETURN JUMPDEST CALLVALUE PUSH2 0x2DD JUMPI PUSH1 0x20 CALLDATASIZE PUSH1 0x3 NOT ADD SLT PUSH2 0x2DD JUMPI PUSH1 0x4 CALLDATALOAD PUSH1 0x0 MSTORE PUSH1 0x9 PUSH1 0x20 MSTORE PUSH1 0x40 PUSH1 0x0 KECCAK256 PUSH2 0x270F DUP2 PUSH2 0x2930 JUMP JUMPDEST PUSH2 0x442 PUSH1 0x1 DUP1 PUSH1 0xA0 SHL SUB PUSH1 0x1 DUP5 ADD SLOAD AND SWAP3 PUSH1 0x2 DUP2 ADD SLOAD SWAP1 PUSH1 0x3 DUP2 ADD SLOAD PUSH1 0xFF PUSH1 0x5 PUSH1 0x4 DUP5 ADD SLOAD SWAP4 ADD SLOAD AND SWAP3 PUSH1 0x40 MLOAD SWAP7 DUP8 SWAP7 DUP8 PUSH2 0x2A15 JUMP JUMPDEST CALLVALUE PUSH2 0x2DD JUMPI PUSH1 0x80 CALLDATASIZE PUSH1 0x3 NOT ADD SLT PUSH2 0x2DD JUMPI PUSH2 0x275E PUSH2 0x283E JUMP JUMPDEST PUSH2 0x2766 PUSH2 0x2854 JUMP JUMPDEST POP PUSH2 0x276F PUSH2 0x286A JUMP JUMPDEST SWAP1 PUSH1 0x1 PUSH1 0x1 PUSH1 0xA0 SHL SUB PUSH1 0x64 CALLDATALOAD DUP2 DUP2 AND SWAP3 SWAP1 DUP4 SWAP1 SUB PUSH2 0x2DD JUMPI DUP2 SWAP1 PUSH2 0x2791 PUSH2 0x2EE9 JUMP JUMPDEST PUSH2 0x2799 PUSH2 0x2F41 JUMP JUMPDEST AND SWAP3 PUSH2 0x27A6 DUP5 ISZERO ISZERO PUSH2 0x2BA4 JUMP JUMPDEST AND SWAP2 PUSH2 0x27B3 DUP4 ISZERO ISZERO PUSH2 0x2BA4 JUMP JUMPDEST PUSH2 0x27BE DUP3 ISZERO ISZERO PUSH2 0x2BA4 JUMP JUMPDEST DUP2 PUSH1 0x1 PUSH1 0x1 PUSH1 0x60 SHL SUB PUSH1 0xA0 SHL DUP3 DUP2 PUSH1 0x3 SLOAD AND OR PUSH1 0x3 SSTORE ADDRESS DUP2 PUSH1 0x4 SLOAD AND OR PUSH1 0x4 SSTORE DUP5 DUP2 PUSH1 0x5 SLOAD AND OR PUSH1 0x5 SSTORE PUSH1 0x6 SLOAD AND OR PUSH1 0x6 SSTORE PUSH1 0x40 MLOAD SWAP2 DUP3 MSTORE PUSH32 0xFD1F2D277BE92E04D3E6142D258C9156BC483ADB4D9DEE83C28740F1B77E6100 PUSH1 0x20 ADDRESS SWAP4 LOG4 PUSH1 0x1 PUSH1 0x0 SSTORE STOP JUMPDEST CALLVALUE PUSH2 0x2DD JUMPI PUSH1 0x0 CALLDATASIZE PUSH1 0x3 NOT ADD SLT PUSH2 0x2DD JUMPI PUSH1 0x20 SWAP1 PUSH1 0x11 SLOAD DUP2 MSTORE RETURN JUMPDEST PUSH1 0x4 CALLDATALOAD SWAP1 PUSH1 0x1 PUSH1 0x1 PUSH1 0xA0 SHL SUB DUP3 AND DUP3 SUB PUSH2 0x2DD JUMPI JUMP JUMPDEST PUSH1 0x24 CALLDATALOAD SWAP1 PUSH1 0x1 PUSH1 0x1 PUSH1 0xA0 SHL SUB DUP3 AND DUP3 SUB PUSH2 0x2DD JUMPI JUMP JUMPDEST PUSH1 0x44 CALLDATALOAD SWAP1 PUSH1 0x1 PUSH1 0x1 PUSH1 0xA0 SHL SUB DUP3 AND DUP3 SUB PUSH2 0x2DD JUMPI JUMP JUMPDEST SWAP1 PUSH1 0x1 DUP3 DUP2 SHR SWAP3 AND DUP1 ISZERO PUSH2 0x28B0 JUMPI JUMPDEST PUSH1 0x20 DUP4 LT EQ PUSH2 0x289A JUMPI JUMP JUMPDEST PUSH4 0x4E487B71 PUSH1 0xE0 SHL PUSH1 0x0 MSTORE PUSH1 0x22 PUSH1 0x4 MSTORE PUSH1 0x24 PUSH1 0x0 REVERT JUMPDEST SWAP2 PUSH1 0x7F AND SWAP2 PUSH2 0x288F JUMP JUMPDEST PUSH1 0x20 DUP2 ADD SWAP1 DUP2 LT PUSH8 0xFFFFFFFFFFFFFFFF DUP3 GT OR PUSH2 0xF31 JUMPI PUSH1 0x40 MSTORE JUMP JUMPDEST PUSH1 0xC0 DUP2 ADD SWAP1 DUP2 LT PUSH8 0xFFFFFFFFFFFFFFFF DUP3 GT OR PUSH2 0xF31 JUMPI PUSH1 0x40 MSTORE JUMP JUMPDEST PUSH1 0x40 DUP2 ADD SWAP1 DUP2 LT PUSH8 0xFFFFFFFFFFFFFFFF DUP3 GT OR PUSH2 0xF31 JUMPI PUSH1 0x40 MSTORE JUMP JUMPDEST SWAP1 PUSH1 0x1F DUP1 NOT SWAP2 ADD AND DUP2 ADD SWAP1 DUP2 LT PUSH8 0xFFFFFFFFFFFFFFFF DUP3 GT OR PUSH2 0xF31 JUMPI PUSH1 0x40 MSTORE JUMP JUMPDEST SWAP1 PUSH1 0x40 MLOAD SWAP2 DUP3 PUSH1 0x0 DUP3 SLOAD PUSH2 0x2943 DUP2 PUSH2 0x2880 JUMP JUMPDEST SWAP1 DUP2 DUP5 MSTORE PUSH1 0x20 SWAP5 PUSH1 0x1 SWAP2 PUSH1 0x1 DUP2 AND SWAP1 DUP2 PUSH1 0x0 EQ PUSH2 0x29B3 JUMPI POP PUSH1 0x1 EQ PUSH2 0x2974 JUMPI JUMPDEST POP POP POP PUSH2 0x2972 SWAP3 POP SUB DUP4 PUSH2 0x290E JUMP JUMPDEST JUMP JUMPDEST PUSH1 0x0 SWAP1 DUP2 MSTORE DUP6 DUP2 KECCAK256 SWAP6 SWAP4 POP SWAP2 SWAP1 JUMPDEST DUP2 DUP4 LT PUSH2 0x299B JUMPI POP POP PUSH2 0x2972 SWAP4 POP DUP3 ADD ADD CODESIZE DUP1 DUP1 PUSH2 0x2963 JUMP JUMPDEST DUP6 SLOAD DUP9 DUP5 ADD DUP6 ADD MSTORE SWAP5 DUP6 ADD SWAP5 DUP8 SWAP5 POP SWAP2 DUP4 ADD SWAP2 PUSH2 0x2982 JUMP JUMPDEST SWAP3 POP POP POP PUSH2 0x2972 SWAP5 SWAP3 POP PUSH1 0xFF NOT AND DUP3 DUP5 ADD MSTORE ISZERO ISZERO PUSH1 0x5 SHL DUP3 ADD ADD CODESIZE DUP1 DUP1 PUSH2 0x2963 JUMP JUMPDEST SWAP2 SWAP1 DUP3 MLOAD SWAP3 DUP4 DUP3 MSTORE PUSH1 0x0 JUMPDEST DUP5 DUP2 LT PUSH2 0x2A01 JUMPI POP POP DUP3 PUSH1 0x0 PUSH1 0x20 DUP1 SWAP5 SWAP6 DUP5 ADD ADD MSTORE PUSH1 0x1F DUP1 NOT SWAP2 ADD AND ADD ADD SWAP1 JUMP JUMPDEST PUSH1 0x20 DUP2 DUP4 ADD DUP2 ADD MLOAD DUP5 DUP4 ADD DUP3 ADD MSTORE ADD PUSH2 0x29E0 JUMP JUMPDEST SWAP5 SWAP2 SWAP7 SWAP6 SWAP3 PUSH2 0x2A2F PUSH1 0xA0 SWAP6 SWAP3 PUSH1 0xC0 DUP9 MSTORE PUSH1 0xC0 DUP9 ADD SWAP1 PUSH2 0x29D5 JUMP JUMPDEST SWAP8 PUSH1 0x1 DUP1 DUP8 SHL SUB AND PUSH1 0x20 DUP8 ADD MSTORE PUSH1 0x40 DUP7 ADD MSTORE PUSH1 0x60 DUP6 ADD MSTORE PUSH1 0x80 DUP5 ADD MSTORE ISZERO ISZERO SWAP2 ADD MSTORE JUMP JUMPDEST PUSH1 0x40 SWAP1 PUSH1 0x3 NOT ADD SLT PUSH2 0x2DD JUMPI PUSH1 0x4 CALLDATALOAD SWAP1 PUSH1 0x24 CALLDATALOAD SWAP1 JUMP JUMPDEST PUSH1 0x80 SWAP1 PUSH1 0x3 NOT ADD SLT PUSH2 0x2DD JUMPI PUSH1 0x4 CALLDATALOAD SWAP1 PUSH1 0x24 CALLDATALOAD SWAP1 PUSH1 0x44 CALLDATALOAD SWAP1 PUSH1 0x64 CALLDATALOAD SWAP1 JUMP JUMPDEST CALLVALUE PUSH2 0x2DD JUMPI PUSH1 0x20 DUP1 PUSH1 0x3 NOT CALLDATASIZE ADD SLT PUSH2 0x2DD JUMPI PUSH1 0x0 PUSH1 0x4 CALLDATALOAD DUP2 MSTORE PUSH1 0x9 DUP3 MSTORE PUSH1 0x40 DUP2 KECCAK256 PUSH1 0xFF PUSH1 0x5 DUP3 ADD SLOAD AND ISZERO PUSH2 0x733 JUMPI PUSH1 0x1 ADD SLOAD PUSH1 0x40 MLOAD PUSH4 0x70A08231 PUSH1 0xE0 SHL DUP2 MSTORE ADDRESS PUSH1 0x4 DUP3 ADD MSTORE SWAP1 DUP4 SWAP1 DUP3 SWAP1 PUSH1 0x24 SWAP1 DUP3 SWAP1 PUSH1 0x1 PUSH1 0x1 PUSH1 0xA0 SHL SUB AND GAS STATICCALL SWAP2 DUP3 ISZERO PUSH2 0x2B2B JUMPI DUP1 SWAP3 PUSH2 0x2AF8 JUMPI JUMPDEST POP POP PUSH1 0x40 MLOAD SWAP1 DUP2 MSTORE RETURN JUMPDEST SWAP1 SWAP2 POP DUP3 DUP3 DUP2 RETURNDATASIZE DUP4 GT PUSH2 0x2B24 JUMPI JUMPDEST PUSH2 0x2B10 DUP2 DUP4 PUSH2 0x290E JUMP JUMPDEST DUP2 ADD SUB SLT PUSH2 0x2B21 JUMPI POP MLOAD CODESIZE DUP1 PUSH2 0x2AEE JUMP JUMPDEST DUP1 REVERT JUMPDEST POP RETURNDATASIZE PUSH2 0x2B06 JUMP JUMPDEST PUSH1 0x40 MLOAD SWAP1 RETURNDATASIZE SWAP1 DUP3 RETURNDATACOPY RETURNDATASIZE SWAP1 REVERT JUMPDEST PUSH8 0xFFFFFFFFFFFFFFFF DUP2 GT PUSH2 0xF31 JUMPI PUSH1 0x1F ADD PUSH1 0x1F NOT AND PUSH1 0x20 ADD SWAP1 JUMP JUMPDEST PUSH1 0x12 SLOAD DUP2 LT ISZERO PUSH2 0x2B8E JUMPI PUSH1 0x3 SWAP1 PUSH1 0x12 PUSH1 0x0 MSTORE MUL PUSH32 0xBB8A6A4669BA250D26CD7A459ECA9D215F8307E33AEBE50379BC5A3617EC3444 ADD SWAP1 PUSH1 0x0 SWAP1 JUMP JUMPDEST PUSH4 0x4E487B71 PUSH1 0xE0 SHL PUSH1 0x0 MSTORE PUSH1 0x32 PUSH1 0x4 MSTORE PUSH1 0x24 PUSH1 0x0 REVERT JUMPDEST ISZERO PUSH2 0x2BAB JUMPI JUMP JUMPDEST PUSH1 0x40 MLOAD PUSH3 0x461BCD PUSH1 0xE5 SHL DUP2 MSTORE PUSH1 0x20 PUSH1 0x4 DUP3 ADD MSTORE PUSH1 0x9 PUSH1 0x24 DUP3 ADD MSTORE PUSH9 0x3D32B9379030B23239 PUSH1 0xB9 SHL PUSH1 0x44 DUP3 ADD MSTORE PUSH1 0x64 SWAP1 REVERT JUMPDEST DUP2 ISZERO PUSH2 0x2BE6 JUMPI DIV SWAP1 JUMP JUMPDEST PUSH4 0x4E487B71 PUSH1 0xE0 SHL PUSH1 0x0 MSTORE PUSH1 0x12 PUSH1 0x4 MSTORE PUSH1 0x24 PUSH1 0x0 REVERT JUMPDEST SWAP1 PUSH2 0x6B6C DUP3 ADD DUP1 SWAP3 GT PUSH2 0x6CA JUMPI JUMP JUMPDEST SWAP2 SWAP1 DUP3 ADD DUP1 SWAP3 GT PUSH2 0x6CA JUMPI JUMP JUMPDEST DUP2 DUP2 MUL SWAP3 SWAP2 DUP2 ISZERO SWAP2 DUP5 DIV EQ OR ISZERO PUSH2 0x6CA JUMPI JUMP JUMPDEST PUSH2 0x6C7E NOT DUP2 ADD SWAP2 SWAP1 DUP3 GT PUSH2 0x6CA JUMPI JUMP JUMPDEST SWAP2 SWAP1 DUP3 SUB SWAP2 DUP3 GT PUSH2 0x6CA JUMPI JUMP JUMPDEST DUP1 ISZERO PUSH2 0x6CA JUMPI PUSH1 0x0 NOT ADD SWAP1 JUMP JUMPDEST SWAP1 PUSH1 0x40 MLOAD PUSH1 0x60 DUP2 ADD DUP2 DUP2 LT PUSH8 0xFFFFFFFFFFFFFFFF DUP3 GT OR PUSH2 0xF31 JUMPI PUSH1 0x40 MSTORE PUSH1 0x40 PUSH1 0x2 DUP3 SWAP5 DUP1 SLOAD DUP5 MSTORE PUSH1 0x1 DUP2 ADD SLOAD PUSH1 0x20 DUP6 ADD MSTORE ADD SLOAD SWAP2 ADD MSTORE JUMP JUMPDEST SWAP2 SWAP1 PUSH1 0x0 SWAP1 DUP4 DUP3 MSTORE PUSH1 0x9 PUSH1 0x20 MSTORE PUSH1 0x40 SWAP3 DUP4 DUP4 KECCAK256 SWAP1 DUP5 MLOAD PUSH2 0x2CAD DUP2 PUSH2 0x28D6 JUMP JUMPDEST PUSH2 0x2CB6 DUP4 PUSH2 0x2930 JUMP JUMPDEST DUP2 MSTORE PUSH1 0x1 SWAP1 PUSH1 0x1 DUP1 PUSH1 0xA0 SHL SUB PUSH1 0x1 DUP6 ADD SLOAD AND PUSH1 0x20 DUP3 ADD MSTORE PUSH1 0x2 DUP5 ADD SLOAD DUP8 DUP3 ADD MSTORE PUSH1 0x3 DUP5 ADD SLOAD SWAP1 PUSH1 0x60 DUP2 ADD SWAP2 DUP3 MSTORE PUSH1 0xFF PUSH1 0x5 PUSH1 0x4 SWAP7 PUSH1 0x4 DUP2 ADD SLOAD PUSH1 0x80 DUP6 ADD MSTORE ADD SLOAD AND ISZERO SWAP1 PUSH1 0xA0 DUP3 ISZERO SWAP2 ADD MSTORE PUSH2 0x2E1C JUMPI MLOAD DUP1 ISZERO PUSH2 0x2E12 JUMPI PUSH2 0x2710 DUP1 DUP7 MUL SWAP1 DUP7 DUP3 DIV EQ DUP7 ISZERO OR ISZERO PUSH2 0x2DFE JUMPI SWAP1 PUSH2 0x2D28 SWAP2 PUSH2 0x2BDC JUMP JUMPDEST SWAP7 JUMPDEST DUP6 SWAP4 DUP7 SWAP3 PUSH1 0x12 SLOAD DUP1 JUMPDEST PUSH2 0x2DAC JUMPI JUMPDEST POP POP POP CALLER DUP7 MSTORE PUSH1 0xC PUSH1 0x20 MSTORE DUP7 DUP7 KECCAK256 SWAP1 DUP7 MSTORE PUSH1 0x20 MSTORE DUP6 DUP6 KECCAK256 SLOAD SWAP1 TIMESTAMP DUP3 GT SWAP4 ISZERO PUSH2 0x2D8F JUMPI PUSH2 0x2D66 PUSH2 0x2D6C SWAP2 PUSH2 0x2B53 JUMP JUMPDEST POP PUSH2 0x2C55 JUMP JUMPDEST PUSH1 0x20 DUP2 ADD MLOAD SWAP7 ADD MLOAD SWAP5 DUP4 ISZERO PUSH2 0x2D87 JUMPI POP SWAP3 JUMPDEST SWAP6 SWAP5 SWAP4 SWAP3 SWAP2 ISZERO SWAP1 JUMP JUMPDEST SWAP1 POP SWAP3 PUSH2 0x2D7E JUMP JUMPDEST POP SWAP1 SWAP5 POP DUP2 ISZERO PUSH2 0x2DA4 JUMPI SWAP2 JUMPDEST SWAP5 SWAP4 DUP4 SWAP3 SWAP2 ISZERO SWAP1 JUMP JUMPDEST POP DUP3 SWAP2 PUSH2 0x2D9B JUMP JUMPDEST PUSH1 0x0 NOT DUP2 ADD DUP2 DUP2 GT PUSH2 0x2DEB JUMPI PUSH2 0x2DC1 DUP2 PUSH2 0x2B53 JUMP JUMPDEST POP SLOAD DUP13 LT ISZERO PUSH2 0x2DDA JUMPI POP PUSH2 0x2DD4 SWAP1 PUSH2 0x2C48 JUMP JUMPDEST DUP1 PUSH2 0x2D33 JUMP JUMPDEST SWAP4 SWAP7 POP POP SWAP3 POP POP SWAP1 SWAP3 CODESIZE DUP1 DUP1 PUSH2 0x2D38 JUMP JUMPDEST PUSH4 0x4E487B71 PUSH1 0xE0 SHL DUP11 MSTORE PUSH1 0x11 DUP5 MSTORE PUSH1 0x24 DUP11 REVERT JUMPDEST PUSH4 0x4E487B71 PUSH1 0xE0 SHL DUP8 MSTORE PUSH1 0x11 PUSH1 0x4 MSTORE PUSH1 0x24 DUP8 REVERT JUMPDEST POP PUSH2 0x2710 SWAP7 PUSH2 0x2D2A JUMP JUMPDEST DUP7 MLOAD PUSH4 0xDC786825 PUSH1 0xE0 SHL DUP2 MSTORE PUSH1 0x4 SWAP1 REVERT JUMPDEST ISZERO PUSH2 0x2E34 JUMPI JUMP JUMPDEST PUSH1 0x40 MLOAD PUSH3 0x461BCD PUSH1 0xE5 SHL DUP2 MSTORE PUSH1 0x20 PUSH1 0x4 DUP3 ADD MSTORE PUSH1 0x10 PUSH1 0x24 DUP3 ADD MSTORE PUSH16 0xE4CAE6CAE4ECCA40DAD2E6DAC2E8C6D PUSH1 0x83 SHL PUSH1 0x44 DUP3 ADD MSTORE PUSH1 0x64 SWAP1 REVERT JUMPDEST SWAP2 SWAP1 DUP2 LT ISZERO PUSH2 0x2B8E JUMPI PUSH1 0x6 SHL ADD SWAP1 JUMP JUMPDEST PUSH8 0xFFFFFFFFFFFFFFFF DUP2 GT PUSH2 0xF31 JUMPI PUSH1 0x5 SHL PUSH1 0x20 ADD SWAP1 JUMP JUMPDEST SWAP1 PUSH2 0x2E9E DUP3 PUSH2 0x2E7C JUMP JUMPDEST PUSH2 0x2EAB PUSH1 0x40 MLOAD SWAP2 DUP3 PUSH2 0x290E JUMP JUMPDEST DUP3 DUP2 MSTORE DUP1 SWAP3 PUSH2 0x2EBC PUSH1 0x1F NOT SWAP2 PUSH2 0x2E7C JUMP JUMPDEST ADD SWAP1 PUSH1 0x20 CALLDATASIZE SWAP2 ADD CALLDATACOPY JUMP JUMPDEST DUP1 MLOAD DUP3 LT ISZERO PUSH2 0x2B8E JUMPI PUSH1 0x20 SWAP2 PUSH1 0x5 SHL ADD ADD SWAP1 JUMP JUMPDEST PUSH1 0x0 NOT DUP2 EQ PUSH2 0x6CA JUMPI PUSH1 0x1 ADD SWAP1 JUMP JUMPDEST PUSH1 0x1 SLOAD PUSH1 0x1 PUSH1 0x1 PUSH1 0xA0 SHL SUB AND CALLER SUB PUSH2 0x2EFD JUMPI JUMP JUMPDEST PUSH1 0x64 PUSH1 0x40 MLOAD PUSH3 0x461BCD PUSH1 0xE5 SHL DUP2 MSTORE PUSH1 0x20 PUSH1 0x4 DUP3 ADD MSTORE PUSH1 0x20 PUSH1 0x24 DUP3 ADD MSTORE PUSH32 0x4F776E61626C653A2063616C6C6572206973206E6F7420746865206F776E6572 PUSH1 0x44 DUP3 ADD MSTORE REVERT JUMPDEST PUSH1 0x2 PUSH1 0x0 SLOAD EQ PUSH2 0x2F52 JUMPI PUSH1 0x2 PUSH1 0x0 SSTORE JUMP JUMPDEST PUSH1 0x40 MLOAD PUSH3 0x461BCD PUSH1 0xE5 SHL DUP2 MSTORE PUSH1 0x20 PUSH1 0x4 DUP3 ADD MSTORE PUSH1 0x1F PUSH1 0x24 DUP3 ADD MSTORE PUSH32 0x5265656E7472616E637947756172643A207265656E7472616E742063616C6C00 PUSH1 0x44 DUP3 ADD MSTORE PUSH1 0x64 SWAP1 REVERT JUMPDEST PUSH1 0xFF PUSH1 0x2 SLOAD PUSH1 0xA0 SHR AND PUSH2 0x2FA6 JUMPI JUMP JUMPDEST PUSH1 0x40 MLOAD PUSH3 0x461BCD PUSH1 0xE5 SHL DUP2 MSTORE PUSH1 0x20 PUSH1 0x4 DUP3 ADD MSTORE PUSH1 0x10 PUSH1 0x24 DUP3 ADD MSTORE PUSH16 0x14185D5CD8589B194E881C185D5CD959 PUSH1 0x82 SHL PUSH1 0x44 DUP3 ADD MSTORE PUSH1 0x64 SWAP1 REVERT JUMPDEST PUSH1 0x40 MLOAD PUSH4 0x23B872DD PUSH1 0xE0 SHL PUSH1 0x20 DUP3 ADD MSTORE PUSH1 0x1 PUSH1 0x1 PUSH1 0xA0 SHL SUB SWAP3 DUP4 AND PUSH1 0x24 DUP3 ADD MSTORE SWAP3 SWAP1 SWAP2 AND PUSH1 0x44 DUP4 ADD MSTORE PUSH1 0x64 DUP1 DUP4 ADD SWAP4 SWAP1 SWAP4 MSTORE SWAP2 DUP2 MSTORE PUSH1 0xA0 DUP2 ADD SWAP2 DUP2 DUP4 LT PUSH8 0xFFFFFFFFFFFFFFFF DUP5 GT OR PUSH2 0xF31 JUMPI PUSH2 0x2972 SWAP3 PUSH1 0x40 MSTORE PUSH2 0x33A5 JUMP JUMPDEST PUSH1 0x40 MLOAD PUSH4 0xA9059CBB PUSH1 0xE0 SHL PUSH1 0x20 DUP3 ADD MSTORE PUSH1 0x1 PUSH1 0x1 PUSH1 0xA0 SHL SUB SWAP1 SWAP3 AND PUSH1 0x24 DUP4 ADD MSTORE PUSH1 0x44 DUP1 DUP4 ADD SWAP4 SWAP1 SWAP4 MSTORE SWAP2 DUP2 MSTORE PUSH1 0x80 DUP2 ADD SWAP2 PUSH8 0xFFFFFFFFFFFFFFFF DUP4 GT DUP3 DUP5 LT OR PUSH2 0xF31 JUMPI PUSH2 0x2972 SWAP3 PUSH1 0x40 MSTORE PUSH2 0x33A5 JUMP JUMPDEST SWAP1 SWAP2 SWAP4 SWAP3 SWAP4 PUSH1 0x0 SWAP3 DUP1 DUP5 MSTORE PUSH1 0x20 SWAP4 PUSH1 0x9 DUP6 MSTORE PUSH1 0x40 SWAP3 DUP4 DUP3 KECCAK256 SWAP5 PUSH1 0x1 DUP1 PUSH1 0xA0 SHL SUB AND SWAP5 DUP6 DUP4 MSTORE PUSH1 0xC DUP8 MSTORE DUP5 DUP4 KECCAK256 DUP5 DUP5 MSTORE DUP8 MSTORE DUP5 DUP4 KECCAK256 SLOAD TIMESTAMP LT PUSH2 0x3219 JUMPI PUSH1 0x3 ADD SLOAD SWAP1 DUP2 ISZERO PUSH2 0x320E JUMPI PUSH2 0x2710 SWAP1 DUP2 DUP2 MUL SWAP2 DUP2 DUP4 DIV EQ SWAP1 ISZERO OR ISZERO PUSH2 0x31FA JUMPI SWAP1 PUSH2 0x30EB SWAP2 PUSH2 0x2BDC JUMP JUMPDEST SWAP1 JUMPDEST DUP1 DUP2 SWAP3 PUSH1 0x12 SLOAD DUP1 JUMPDEST PUSH2 0x31A8 JUMPI JUMPDEST POP POP ISZERO PUSH2 0x319F JUMPI SWAP2 DUP2 PUSH1 0xFF DUP6 DUP1 SWAP6 PUSH32 0x2A838F5C104D650AE035F2D2EC3BF5A15D487E067B22A128310750C7C669254E SWAP8 PUSH2 0x3154 PUSH2 0x2710 PUSH2 0x314C DUP16 PUSH2 0x3142 DUP16 SWAP12 PUSH2 0x2D66 SWAP1 PUSH2 0x2B53 JUMP JUMPDEST SWAP15 DUP16 ADD MLOAD SWAP1 PUSH2 0x2C18 JUMP JUMPDEST DIV DUP1 SWAP15 PUSH2 0x2C3B JUMP JUMPDEST SWAP11 ADD SWAP5 PUSH2 0x3162 DUP7 MLOAD TIMESTAMP PUSH2 0x2C0B JUMP JUMPDEST DUP11 DUP4 MSTORE PUSH1 0xC DUP9 MSTORE DUP4 DUP4 KECCAK256 DUP3 DUP5 MSTORE DUP9 MSTORE DUP4 DUP4 KECCAK256 SSTORE DUP10 DUP3 MSTORE PUSH1 0xD DUP8 MSTORE DUP3 DUP3 KECCAK256 SWAP1 DUP3 MSTORE DUP7 MSTORE KECCAK256 SWAP2 AND PUSH1 0xFF NOT DUP3 SLOAD AND OR SWAP1 SSTORE MLOAD DUP3 MLOAD SWAP2 DUP9 DUP4 MSTORE DUP3 ADD MSTORE LOG2 SWAP2 SWAP1 JUMP JUMPDEST SWAP6 SWAP5 POP POP POP POP POP JUMP JUMPDEST PUSH1 0x0 NOT DUP2 ADD DUP2 DUP2 GT PUSH2 0x31E6 JUMPI PUSH2 0x31BD DUP2 PUSH2 0x2B53 JUMP JUMPDEST POP SLOAD DUP4 LT ISZERO PUSH2 0x31D6 JUMPI POP PUSH2 0x31D0 SWAP1 PUSH2 0x2C48 JUMP JUMPDEST DUP1 PUSH2 0x30F5 JUMP JUMPDEST SWAP4 SWAP5 POP POP POP POP SWAP1 PUSH1 0x1 CODESIZE DUP1 PUSH2 0x30FA JUMP JUMPDEST PUSH4 0x4E487B71 PUSH1 0xE0 SHL DUP6 MSTORE PUSH1 0x11 PUSH1 0x4 MSTORE PUSH1 0x24 DUP6 REVERT JUMPDEST PUSH4 0x4E487B71 PUSH1 0xE0 SHL DUP4 MSTORE PUSH1 0x11 PUSH1 0x4 MSTORE PUSH1 0x24 DUP4 REVERT JUMPDEST POP POP PUSH2 0x2710 SWAP1 PUSH2 0x30ED JUMP JUMPDEST POP POP SWAP1 PUSH1 0x24 SWAP5 DUP4 SWAP5 DUP4 MSTORE PUSH1 0xC DUP2 MSTORE DUP4 DUP4 KECCAK256 SWAP2 DUP4 MSTORE MSTORE KECCAK256 SLOAD SWAP1 MLOAD SWAP1 PUSH4 0x83968DB PUSH1 0xE1 SHL DUP3 MSTORE PUSH1 0x4 DUP3 ADD MSTORE REVERT JUMPDEST PUSH1 0x64 SWAP1 DIV PUSH3 0x4C4B40 DUP2 GT PUSH2 0x325A JUMPI POP PUSH3 0x493E0 SWAP1 JUMP JUMPDEST PUSH3 0x989680 GT ISZERO PUSH2 0x326B JUMPI PUSH3 0x55730 SWAP1 JUMP JUMPDEST PUSH3 0x61A80 SWAP1 JUMP JUMPDEST PUSH1 0x64 SWAP1 DIV PUSH3 0x4C4B40 DUP2 GT ISZERO PUSH2 0x3298 JUMPI PUSH3 0x989680 GT PUSH2 0x3291 JUMPI PUSH3 0x11170 SWAP1 JUMP JUMPDEST PUSH3 0x15F90 SWAP1 JUMP JUMPDEST POP PUSH3 0x1ADB0 SWAP1 JUMP JUMPDEST PUSH2 0x2710 SWAP2 PUSH2 0x3326 SWAP2 PUSH1 0x0 MSTORE PUSH1 0xE PUSH1 0x20 MSTORE PUSH1 0x40 PUSH1 0x0 KECCAK256 SWAP1 PUSH1 0xF PUSH1 0x20 MSTORE PUSH1 0x40 PUSH1 0x0 KECCAK256 PUSH2 0x32CB DUP4 SLOAD TIMESTAMP PUSH2 0x2C3B JUMP JUMPDEST PUSH1 0x14 SLOAD LT ISZERO PUSH2 0x3390 JUMPI TIMESTAMP DUP4 SSTORE PUSH1 0x1 DUP1 DUP5 ADD SSTORE JUMPDEST PUSH2 0x32E9 DUP2 SLOAD TIMESTAMP PUSH2 0x2C3B JUMP JUMPDEST PUSH1 0x17 SLOAD LT ISZERO PUSH2 0x337B JUMPI TIMESTAMP DUP2 SSTORE PUSH1 0x1 DUP1 DUP3 ADD SSTORE JUMPDEST PUSH1 0x1 ADD SLOAD PUSH1 0x16 SLOAD DUP6 SWAP4 PUSH1 0x0 SWAP3 SWAP1 SWAP2 GT PUSH2 0x3362 JUMPI POP POP SWAP1 POP PUSH2 0x1F40 SWAP1 PUSH1 0x2 JUMPDEST DUP1 PUSH2 0x332A JUMPI JUMPDEST POP PUSH2 0x2C18 JUMP JUMPDEST DIV SWAP1 JUMP JUMPDEST PUSH1 0x40 MLOAD SWAP1 DUP2 MSTORE DUP3 PUSH1 0x20 DUP3 ADD MSTORE PUSH32 0x27F4ADAA563534A29B469EECA560D7C16C57D90A056D9649A00FD3FA777F04CD PUSH1 0x40 CALLER SWAP3 LOG2 CODESIZE PUSH2 0x3320 JUMP JUMPDEST PUSH1 0x1 ADD SLOAD PUSH1 0x13 SLOAD GT PUSH2 0x331A JUMPI POP PUSH2 0x1770 SWAP2 POP PUSH1 0x1 PUSH2 0x331A JUMP JUMPDEST PUSH1 0x1 DUP2 ADD PUSH2 0x3389 DUP2 SLOAD PUSH2 0x2EDA JUMP JUMPDEST SWAP1 SSTORE PUSH2 0x32FC JUMP JUMPDEST PUSH1 0x1 DUP4 ADD PUSH2 0x339E DUP2 SLOAD PUSH2 0x2EDA JUMP JUMPDEST SWAP1 SSTORE PUSH2 0x32DE JUMP JUMPDEST PUSH1 0x1 DUP1 PUSH1 0xA0 SHL SUB AND SWAP1 PUSH2 0x3422 PUSH1 0x40 MLOAD PUSH2 0x33BD DUP2 PUSH2 0x28F2 JUMP JUMPDEST PUSH1 0x20 SWAP4 DUP5 DUP3 MSTORE PUSH32 0x5361666545524332303A206C6F772D6C6576656C2063616C6C206661696C6564 DUP6 DUP4 ADD MSTORE PUSH1 0x0 DUP1 DUP6 DUP8 DUP3 SWAP8 MLOAD SWAP2 ADD DUP3 DUP6 GAS CALL RETURNDATASIZE ISZERO PUSH2 0x34BC JUMPI RETURNDATASIZE SWAP2 PUSH2 0x3407 DUP4 PUSH2 0x2B37 JUMP JUMPDEST SWAP3 PUSH2 0x3415 PUSH1 0x40 MLOAD SWAP5 DUP6 PUSH2 0x290E JUMP JUMPDEST DUP4 MSTORE RETURNDATASIZE DUP7 DUP9 DUP6 ADD RETURNDATACOPY PUSH2 0x34C0 JUMP JUMPDEST DUP1 MLOAD SWAP2 DUP3 ISZERO SWAP2 DUP5 DUP4 ISZERO PUSH2 0x3494 JUMPI JUMPDEST POP POP POP SWAP1 POP ISZERO PUSH2 0x343D JUMPI POP JUMP JUMPDEST PUSH1 0x84 SWAP1 PUSH1 0x40 MLOAD SWAP1 PUSH3 0x461BCD PUSH1 0xE5 SHL DUP3 MSTORE PUSH1 0x4 DUP3 ADD MSTORE PUSH1 0x2A PUSH1 0x24 DUP3 ADD MSTORE PUSH32 0x5361666545524332303A204552433230206F7065726174696F6E20646964206E PUSH1 0x44 DUP3 ADD MSTORE PUSH10 0x1BDD081CDD58D8D95959 PUSH1 0xB2 SHL PUSH1 0x64 DUP3 ADD MSTORE REVERT JUMPDEST SWAP2 SWAP4 DUP2 DUP1 SWAP5 POP ADD SUB SLT PUSH2 0x34B8 JUMPI DUP3 ADD MLOAD SWAP1 DUP2 ISZERO ISZERO DUP3 SUB PUSH2 0x2B21 JUMPI POP DUP1 CODESIZE DUP1 DUP5 PUSH2 0x3430 JUMP JUMPDEST POP DUP1 REVERT JUMPDEST PUSH1 0x60 SWAP2 JUMPDEST SWAP2 SWAP3 SWAP1 ISZERO PUSH2 0x3522 JUMPI POP DUP2 MLOAD ISZERO PUSH2 0x34D4 JUMPI POP SWAP1 JUMP JUMPDEST EXTCODESIZE ISZERO PUSH2 0x34DD JUMPI SWAP1 JUMP JUMPDEST PUSH1 0x40 MLOAD PUSH3 0x461BCD PUSH1 0xE5 SHL DUP2 MSTORE PUSH1 0x20 PUSH1 0x4 DUP3 ADD MSTORE PUSH1 0x1D PUSH1 0x24 DUP3 ADD MSTORE PUSH32 0x416464726573733A2063616C6C20746F206E6F6E2D636F6E7472616374000000 PUSH1 0x44 DUP3 ADD MSTORE PUSH1 0x64 SWAP1 REVERT JUMPDEST DUP3 MLOAD SWAP1 SWAP2 POP ISZERO PUSH2 0x3535 JUMPI POP DUP1 MLOAD SWAP1 PUSH1 0x20 ADD REVERT JUMPDEST PUSH1 0x40 MLOAD PUSH3 0x461BCD PUSH1 0xE5 SHL DUP2 MSTORE PUSH1 0x20 PUSH1 0x4 DUP3 ADD MSTORE SWAP1 DUP2 SWAP1 PUSH2 0x3559 SWAP1 PUSH1 0x24 DUP4 ADD SWAP1 PUSH2 0x29D5 JUMP JUMPDEST SUB SWAP1 REVERT INVALID PUSH14 0x6AF3DA37CD7B25B9387163800A48 0xAC PUSH12 0x2B0C6CAA0C58DF427ACCDF10 PUSH24 0x98B8A26469706673582212208E9803DA4540BA5271FE4AC8 0xDA DUP11 0x2B GASLIMIT INVALID LOG1 0xAB 0xFC PUSH10 0x7E34DA188249CE40796A DUP14 PUSH5 0x736F6C6343 STOP ADDMOD XOR STOP CALLER "},"methodIdentifiers":{"BUY_FEE_BPS()":"f4364515","FREE_ATTACK_DELTA8()":"a03805aa","KAPPA()":"0b5d86b2","LAMBDA()":"41915244","PRICE_MIN()":"6f16a595","PRICE_PRECISION()":"95082d25","REFERRAL_SHARE_BPS()":"df3225ac","REVENUE_SHARE_BPS()":"5914ac9a","SELL_FEE_BPS()":"9731aa2e","acceptOwnership()":"79ba5097","antiDumpTiers(uint256)":"e5d5d6fb","attack(uint256,uint256)":"e1fa7638","attackBatch((uint256,uint256)[])":"7ecdd2f4","buy(uint256,uint256,uint256,uint256)":"1281311d","config()":"79502c55","countries(uint256)":"08e9daa5","countryTouched(uint256)":"6e61a4a1","createCountry(uint256,string,address)":"c2cc7c31","depositCountryTokens(uint256,uint256)":"7aee1d37","emergencyWithdraw(address,uint256)":"95ccea67","getAntiDumpInfo(uint256,uint256)":"6f61b8ca","getBuyPrice(uint256,uint256)":"c157253d","getConfig()":"c3f909d4","getCountryInfo(uint256)":"bf981995","getCurrentTier(uint256)":"8fab2543","getFreeAttackCount(address)":"38c88cb4","getRemainingSupply(uint256)":"8c858a14","getSellPrice(uint256,uint256)":"9477d85d","getUserBalance(uint256,address)":"cdfb6cf3","getUserCooldownInfo(address,uint256)":"b2304c5b","getWarBalanceState(address)":"5a807e65","getWarBalanceStateByTarget(uint256)":"c74a5dcf","nextCountryId()":"05acb1a8","owner()":"8da5cb5b","pause()":"8456cb59","paused()":"5c975abb","pendingOwner()":"e30c3978","pendingWithdrawals(address)":"f3f43703","previewAttackFee(address,uint256)":"cec18a62","remainingSupply(uint256)":"47fda41a","renounceOwnership()":"715018a6","seedCountryPrice(uint256,uint256)":"bcfc1b9e","seedCountrySupply(uint256,uint256)":"c3b297a2","sell(uint256,uint256,uint256,uint256)":"3620875e","setConfig(address,address,address,address)":"087bc228","setFees(uint256,uint256)":"0b78f9c0","transferOwnership(address)":"f2fde38b","unpause()":"3f4ba83a","userCooldownUntil(address,uint256)":"92edfdb5","userLastTier(address,uint256)":"f4da1e2a","userState(address)":"0c8f81b5","wb1ByTarget(uint256)":"533cd23f","wb1Tier()":"0a2cc9dc","wb2ByTarget(uint256)":"24706ff3","wb2Tier()":"5fe05c16","withdraw(address,uint256)":"f3fef3a3","withdrawFees()":"476343ee"}}}}}