{
  "_format": "hh-sol-artifact-1",
  "contractName": "FlagWarsCore_v1_5_5_AntiDump",
  "sourceName": "contracts/FlagWarsCore_v1_5_5_AntiDump.sol",
  "abi": [
    {
      "inputs": [],
      "stateMutability": "nonpayable",
      "type": "constructor"
    },
    {
      "anonymous": false,
      "inputs": [
        {
          "indexed": true,
          "internalType": "address",
          "name": "attacker",
          "type": "address"
        },
        {
          "indexed": true,
          "internalType": "uint256",
          "name": "attackerId",
          "type": "uint256"
        },
        {
          "indexed": true,
          "internalType": "uint256",
          "name": "targetId",
          "type": "uint256"
        },
        {
          "indexed": false,
          "internalType": "uint256",
          "name": "feePaid",
          "type": "uint256"
        },
        {
          "indexed": false,
          "internalType": "uint64",
          "name": "attackerPrice",
          "type": "uint64"
        },
        {
          "indexed": false,
          "internalType": "uint64",
          "name": "targetPrice",
          "type": "uint64"
        }
      ],
      "name": "Attack",
      "type": "event"
    },
    {
      "anonymous": false,
      "inputs": [
        {
          "indexed": true,
          "internalType": "address",
          "name": "buyer",
          "type": "address"
        },
        {
          "indexed": true,
          "internalType": "uint256",
          "name": "countryId",
          "type": "uint256"
        },
        {
          "indexed": false,
          "internalType": "uint32",
          "name": "amount",
          "type": "uint32"
        },
        {
          "indexed": false,
          "internalType": "uint64",
          "name": "unitPrice",
          "type": "uint64"
        },
        {
          "indexed": false,
          "internalType": "uint64",
          "name": "newPrice",
          "type": "uint64"
        },
        {
          "indexed": false,
          "internalType": "uint256",
          "name": "totalCost",
          "type": "uint256"
        }
      ],
      "name": "Buy",
      "type": "event"
    },
    {
      "anonymous": false,
      "inputs": [
        {
          "indexed": true,
          "internalType": "address",
          "name": "previousOwner",
          "type": "address"
        },
        {
          "indexed": true,
          "internalType": "address",
          "name": "newOwner",
          "type": "address"
        }
      ],
      "name": "OwnershipTransferred",
      "type": "event"
    },
    {
      "anonymous": false,
      "inputs": [
        {
          "indexed": true,
          "internalType": "address",
          "name": "seller",
          "type": "address"
        },
        {
          "indexed": true,
          "internalType": "uint256",
          "name": "countryId",
          "type": "uint256"
        },
        {
          "indexed": false,
          "internalType": "uint32",
          "name": "amount",
          "type": "uint32"
        },
        {
          "indexed": false,
          "internalType": "uint64",
          "name": "unitPrice",
          "type": "uint64"
        },
        {
          "indexed": false,
          "internalType": "uint64",
          "name": "newPrice",
          "type": "uint64"
        },
        {
          "indexed": false,
          "internalType": "uint256",
          "name": "netProceeds",
          "type": "uint256"
        },
        {
          "indexed": false,
          "internalType": "uint256",
          "name": "totalFee",
          "type": "uint256"
        },
        {
          "indexed": false,
          "internalType": "uint256",
          "name": "extraFee",
          "type": "uint256"
        },
        {
          "indexed": false,
          "internalType": "uint256",
          "name": "cooldownApplied",
          "type": "uint256"
        }
      ],
      "name": "Sell",
      "type": "event"
    },
    {
      "inputs": [],
      "name": "PRICE_MIN",
      "outputs": [
        {
          "internalType": "uint64",
          "name": "",
          "type": "uint64"
        }
      ],
      "stateMutability": "view",
      "type": "function"
    },
    {
      "inputs": [],
      "name": "PRICE_PRECISION",
      "outputs": [
        {
          "internalType": "uint64",
          "name": "",
          "type": "uint64"
        }
      ],
      "stateMutability": "view",
      "type": "function"
    },
    {
      "inputs": [],
      "name": "SELL_FEE_BPS",
      "outputs": [
        {
          "internalType": "uint64",
          "name": "",
          "type": "uint64"
        }
      ],
      "stateMutability": "view",
      "type": "function"
    },
    {
      "inputs": [],
      "name": "TOTAL_SUPPLY_PER_COUNTRY",
      "outputs": [
        {
          "internalType": "uint32",
          "name": "",
          "type": "uint32"
        }
      ],
      "stateMutability": "view",
      "type": "function"
    },
    {
      "inputs": [
        {
          "internalType": "uint256",
          "name": "countryId",
          "type": "uint256"
        },
        {
          "internalType": "string",
          "name": "name",
          "type": "string"
        },
        {
          "internalType": "address",
          "name": "token",
          "type": "address"
        }
      ],
      "name": "addCountry",
      "outputs": [],
      "stateMutability": "nonpayable",
      "type": "function"
    },
    {
      "inputs": [
        {
          "internalType": "uint256",
          "name": "attackerId",
          "type": "uint256"
        },
        {
          "internalType": "uint256",
          "name": "targetId",
          "type": "uint256"
        }
      ],
      "name": "attack",
      "outputs": [],
      "stateMutability": "nonpayable",
      "type": "function"
    },
    {
      "inputs": [
        {
          "internalType": "uint256",
          "name": "countryId",
          "type": "uint256"
        },
        {
          "internalType": "uint256",
          "name": "amount",
          "type": "uint256"
        },
        {
          "internalType": "uint256",
          "name": "minOut",
          "type": "uint256"
        },
        {
          "internalType": "uint256",
          "name": "deadline",
          "type": "uint256"
        }
      ],
      "name": "buy",
      "outputs": [],
      "stateMutability": "payable",
      "type": "function"
    },
    {
      "inputs": [],
      "name": "config",
      "outputs": [
        {
          "internalType": "address",
          "name": "payToken",
          "type": "address"
        }
      ],
      "stateMutability": "view",
      "type": "function"
    },
    {
      "inputs": [
        {
          "internalType": "address",
          "name": "",
          "type": "address"
        },
        {
          "internalType": "uint256",
          "name": "",
          "type": "uint256"
        }
      ],
      "name": "cooldowns",
      "outputs": [
        {
          "internalType": "uint256",
          "name": "lastSellTime",
          "type": "uint256"
        },
        {
          "internalType": "uint256",
          "name": "cooldownEndTime",
          "type": "uint256"
        },
        {
          "internalType": "uint256",
          "name": "tierApplied",
          "type": "uint256"
        }
      ],
      "stateMutability": "view",
      "type": "function"
    },
    {
      "inputs": [
        {
          "internalType": "uint256",
          "name": "",
          "type": "uint256"
        }
      ],
      "name": "countries",
      "outputs": [
        {
          "internalType": "string",
          "name": "name",
          "type": "string"
        },
        {
          "internalType": "address",
          "name": "token",
          "type": "address"
        },
        {
          "internalType": "uint256",
          "name": "price",
          "type": "uint256"
        },
        {
          "internalType": "uint256",
          "name": "attacks",
          "type": "uint256"
        },
        {
          "internalType": "bool",
          "name": "exists",
          "type": "bool"
        }
      ],
      "stateMutability": "view",
      "type": "function"
    },
    {
      "inputs": [
        {
          "internalType": "uint256",
          "name": "",
          "type": "uint256"
        }
      ],
      "name": "countryTouched",
      "outputs": [
        {
          "internalType": "bool",
          "name": "",
          "type": "bool"
        }
      ],
      "stateMutability": "view",
      "type": "function"
    },
    {
      "inputs": [
        {
          "internalType": "address",
          "name": "token",
          "type": "address"
        },
        {
          "internalType": "uint256",
          "name": "amount",
          "type": "uint256"
        }
      ],
      "name": "emergencyWithdraw",
      "outputs": [],
      "stateMutability": "nonpayable",
      "type": "function"
    },
    {
      "inputs": [],
      "name": "getAntiDumpConstants",
      "outputs": [
        {
          "internalType": "uint256",
          "name": "tier1Threshold",
          "type": "uint256"
        },
        {
          "internalType": "uint256",
          "name": "tier1ExtraFee",
          "type": "uint256"
        },
        {
          "internalType": "uint256",
          "name": "tier1Cooldown",
          "type": "uint256"
        },
        {
          "internalType": "uint256",
          "name": "tier2Threshold",
          "type": "uint256"
        },
        {
          "internalType": "uint256",
          "name": "tier2ExtraFee",
          "type": "uint256"
        },
        {
          "internalType": "uint256",
          "name": "tier2Cooldown",
          "type": "uint256"
        },
        {
          "internalType": "uint256",
          "name": "tier3Threshold",
          "type": "uint256"
        },
        {
          "internalType": "uint256",
          "name": "tier3ExtraFee",
          "type": "uint256"
        },
        {
          "internalType": "uint256",
          "name": "tier3Cooldown",
          "type": "uint256"
        },
        {
          "internalType": "uint256",
          "name": "tier4Threshold",
          "type": "uint256"
        },
        {
          "internalType": "uint256",
          "name": "tier4ExtraFee",
          "type": "uint256"
        },
        {
          "internalType": "uint256",
          "name": "tier4Cooldown",
          "type": "uint256"
        }
      ],
      "stateMutability": "pure",
      "type": "function"
    },
    {
      "inputs": [
        {
          "internalType": "uint256",
          "name": "countryId",
          "type": "uint256"
        },
        {
          "internalType": "uint256",
          "name": "amount",
          "type": "uint256"
        }
      ],
      "name": "getAntiDumpInfo",
      "outputs": [
        {
          "internalType": "uint256",
          "name": "extraFeeBps",
          "type": "uint256"
        },
        {
          "internalType": "uint256",
          "name": "cooldownSeconds",
          "type": "uint256"
        },
        {
          "internalType": "uint256",
          "name": "tierApplied",
          "type": "uint256"
        },
        {
          "internalType": "uint256",
          "name": "sellPercentBps",
          "type": "uint256"
        }
      ],
      "stateMutability": "view",
      "type": "function"
    },
    {
      "inputs": [
        {
          "internalType": "uint256",
          "name": "countryId",
          "type": "uint256"
        },
        {
          "internalType": "uint256",
          "name": "amount",
          "type": "uint256"
        }
      ],
      "name": "getBuyPrice",
      "outputs": [
        {
          "internalType": "uint256",
          "name": "",
          "type": "uint256"
        }
      ],
      "stateMutability": "view",
      "type": "function"
    },
    {
      "inputs": [],
      "name": "getConstants",
      "outputs": [
        {
          "internalType": "uint256",
          "name": "kappaTicks",
          "type": "uint256"
        },
        {
          "internalType": "uint256",
          "name": "lambdaTicks",
          "type": "uint256"
        },
        {
          "internalType": "uint64",
          "name": "priceMin",
          "type": "uint64"
        },
        {
          "internalType": "uint64",
          "name": "pricePrecision",
          "type": "uint64"
        },
        {
          "internalType": "uint32",
          "name": "totalSupplyPerCountry",
          "type": "uint32"
        }
      ],
      "stateMutability": "pure",
      "type": "function"
    },
    {
      "inputs": [
        {
          "internalType": "uint256",
          "name": "countryId",
          "type": "uint256"
        },
        {
          "internalType": "uint256",
          "name": "amount",
          "type": "uint256"
        }
      ],
      "name": "getSellPrice",
      "outputs": [
        {
          "internalType": "uint256",
          "name": "",
          "type": "uint256"
        }
      ],
      "stateMutability": "view",
      "type": "function"
    },
    {
      "inputs": [
        {
          "internalType": "address",
          "name": "user",
          "type": "address"
        },
        {
          "internalType": "uint256",
          "name": "countryId",
          "type": "uint256"
        }
      ],
      "name": "getUserCooldownInfo",
      "outputs": [
        {
          "internalType": "bool",
          "name": "isInCooldown",
          "type": "bool"
        },
        {
          "internalType": "uint256",
          "name": "cooldownEndTime",
          "type": "uint256"
        },
        {
          "internalType": "uint256",
          "name": "remainingSeconds",
          "type": "uint256"
        },
        {
          "internalType": "uint256",
          "name": "lastTierApplied",
          "type": "uint256"
        }
      ],
      "stateMutability": "view",
      "type": "function"
    },
    {
      "inputs": [],
      "name": "owner",
      "outputs": [
        {
          "internalType": "address",
          "name": "",
          "type": "address"
        }
      ],
      "stateMutability": "view",
      "type": "function"
    },
    {
      "inputs": [
        {
          "internalType": "uint256",
          "name": "",
          "type": "uint256"
        }
      ],
      "name": "remainingSupply",
      "outputs": [
        {
          "internalType": "uint32",
          "name": "",
          "type": "uint32"
        }
      ],
      "stateMutability": "view",
      "type": "function"
    },
    {
      "inputs": [],
      "name": "renounceOwnership",
      "outputs": [],
      "stateMutability": "nonpayable",
      "type": "function"
    },
    {
      "inputs": [
        {
          "internalType": "uint256",
          "name": "countryId",
          "type": "uint256"
        },
        {
          "internalType": "uint256",
          "name": "amount",
          "type": "uint256"
        },
        {
          "internalType": "uint256",
          "name": "minOut",
          "type": "uint256"
        },
        {
          "internalType": "uint256",
          "name": "deadline",
          "type": "uint256"
        }
      ],
      "name": "sell",
      "outputs": [],
      "stateMutability": "nonpayable",
      "type": "function"
    },
    {
      "inputs": [
        {
          "internalType": "address",
          "name": "payToken",
          "type": "address"
        }
      ],
      "name": "setPayToken",
      "outputs": [],
      "stateMutability": "nonpayable",
      "type": "function"
    },
    {
      "inputs": [
        {
          "internalType": "address",
          "name": "newOwner",
          "type": "address"
        }
      ],
      "name": "transferOwnership",
      "outputs": [],
      "stateMutability": "nonpayable",
      "type": "function"
    },
    {
      "inputs": [
        {
          "internalType": "address",
          "name": "",
          "type": "address"
        },
        {
          "internalType": "uint256",
          "name": "",
          "type": "uint256"
        }
      ],
      "name": "userBalances",
      "outputs": [
        {
          "internalType": "uint32",
          "name": "",
          "type": "uint32"
        }
      ],
      "stateMutability": "view",
      "type": "function"
    }
  ],
  "bytecode": "0x6080806040523461005e57600160008181558154336001600160a01b0319821681179093556001600160a01b0316907f8be0079c531659141344cd1fd0a4f28419497f9722a3daafe3b4186f6b6457e09080a3611ae890816100648239f35b600080fdfe6080604052600436101561001257600080fd5b60003560e01c806308e9daa51461138e5780631281311d1461117b5780633620875e14610db957806347fda41a14610d875780636e61a4a114610d565780636f16a59514610d385780636f61b8ca14610bd75780636f96e99c14610b94578063715018a614610b37578063751766551461089757806379502c551461086e5780638da5cb5b1461084557806394035647146107d25780639477d85d146106af57806395082d25146106905780639560e12f1461063157806395ccea67146105f257806396dfec7c146105d55780639731aa2e146105b85780639a295e7314610578578063b2304c5b146104ad578063c157253d1461041e578063e1fa76381461024b578063f2fde38b146101825763fa3bdc461461012f57600080fd5b3461017d57604036600319011261017d576001600160a01b0361015061159e565b1660005260036020526040600020602435600052602052602063ffffffff60406000205416604051908152f35b600080fd5b3461017d57602036600319011261017d5761019b61159e565b6101a361188c565b6001600160a01b039081169081156101f757600154826bffffffffffffffffffffffff60a01b821617600155167f8be0079c531659141344cd1fd0a4f28419497f9722a3daafe3b4186f6b6457e0600080a3005b60405162461bcd60e51b815260206004820152602660248201527f4f776e61626c653a206e6577206f776e657220697320746865207a65726f206160448201526564647265737360d01b6064820152608490fd5b3461017d5761025936611588565b9061026261179f565b8181146103ec57806000526002602052604060002082600052604060002060ff6004830154161580156103dd575b6103a657600282018054621e8480811061037a57506003620186a0928162061a80955b6007546102ce908890309033906001600160a01b03166117f5565b6102d9868654611767565b620f424090808211156103755750805b86556102fa60028501978854611767565b8082111561036e57505b8655016103118154611790565b90550161031e8154611790565b905567ffffffffffffffff8091541691541690604051928352602083015260408201527fbd4c28a2b474c002039cb5b265a280b4298fc827345d2ed51882ff574637c10560603392a46001600055005b9050610304565b6102e9565b6216e36011610395576003620124f8928162055730956102b3565b600361c3509281620493e0956102b3565b60405162461bcd60e51b815260206004820152600f60248201526e10dbdd5b9d1c9e539bdd119bdd5b99608a1b6044820152606490fd5b5060ff60048201541615610290565b60405162461bcd60e51b815260206004820152600a60248201526953656c6641747461636b60b01b6044820152606490fd5b3461017d5760206104a561043136611588565b90600052600283526104a0604060002061049a608060405161045281611447565b61045b84611485565b815260018401546001600160a01b0316888201526002840154604082019081526003850154606083015260049094015460ff161515910181905261162f565b5161168e565b6116c1565b604051908152f35b3461017d57604036600319011261017d576104c661159e565b60018060a01b0316600052600660205260406000206024356000526020526040600020604051906060820182811067ffffffffffffffff821117610562576080926040918252825481526002600184015493846020840152015491829101528142106000146105575760019161053c4282611767565b905b6040519315158452602084015260408301526060820152f35b60009160009061053e565b634e487b7160e01b600052604160045260246000fd5b3461017d57600036600319011261017d5760a060405161d6d8815261d8fe6020820152620f424060408201526305f5e100606082015261c3506080820152f35b3461017d57600036600319011261017d5760206040516101f48152f35b3461017d57600036600319011261017d57602060405161c3508152f35b3461017d57604036600319011261017d5761062f61060e61159e565b61061661188c565b600154602435916001600160a01b03918216911661183c565b005b3461017d57604036600319011261017d576001600160a01b0361065261159e565b166000526006602052604060002060243560005260205260606040600020805490600260018201549101549060405192835260208301526040820152f35b3461017d57600036600319011261017d5760206040516305f5e1008152f35b3461017d576106bd36611588565b90806000526002602052610733826104a0604060002061072d60806040516106e481611447565b6106ed84611485565b815260018401546001600160a01b031660208201526002840154604082019081526003850154606083015260049094015460ff161515910181905261162f565b51611757565b91604051916337b0dc6560e11b835260048301526024820152608081604481305afa9081156107c657600091610793575b60206104a58461078d856127106107868161077e866116aa565b0492856116c1565b049061169d565b90611767565b90506080813d6080116107be575b816107ae60809383611463565b8101031261017d57516020610764565b3d91506107a1565b6040513d6000823e3d90fd5b3461017d57600036600319011261017d576101806040516101f48082526020820152603c60408201526103e86060820152610320608082015261012c60a08201526105dc8060c08301526104b08060e08401526101008301526109c4610120830152610140820152613840610160820152f35b3461017d57600036600319011261017d576001546040516001600160a01b039091168152602090f35b3461017d57600036600319011261017d576007546040516001600160a01b039091168152602090f35b3461017d57606036600319011261017d5760243567ffffffffffffffff80821161017d573660238301121561017d5781600401359181831161017d57366024848301011161017d576044356001600160a01b038116919082900361017d576108fd61188c565b600435600052600260205260ff60046040600020015416610b0257600060206040519561092987611447565b80602461093582611774565b956109436040519788611463565b82875201838601378301015283526020830152620f42406040830152600060608301526001608083015260043560005260026020526040600020908251805191821161056257610993835461140d565b601f8111610aba575b50602090601f8311600114610a4d57918060809492600494600092610a42575b50508160011b916000199060031b1c19161781555b6001810160018060a01b036020860151166bffffffffffffffffffffffff60a01b825416179055604084015160028201556060840151600382015501910151151560ff801983541691161790556004356000526004602052604060002061c35063ffffffff19825416179055600080f35b0151905086806109bc565b90601f198316918460005260206000209260005b818110610aa257509260019285926004966080989610610a89575b505050811b0181556109d1565b015160001960f88460031b161c19169055868080610a7c565b92936020600181928786015181550195019301610a61565b836000526020600020601f840160051c81019160208510610af8575b601f0160051c01905b818110610aec575061099c565b60008155600101610adf565b9091508190610ad6565b60405162461bcd60e51b815260206004820152600d60248201526c436f756e74727945786973747360981b6044820152606490fd5b3461017d57600036600319011261017d57610b5061188c565b600180546001600160a01b031981169091556000906001600160a01b03167f8be0079c531659141344cd1fd0a4f28419497f9722a3daafe3b4186f6b6457e08280a3005b3461017d57602036600319011261017d57610bad61159e565b610bb561188c565b600780546001600160a01b0319166001600160a01b0392909216919091179055005b3461017d57610be536611588565b90600090600090600090806000526002602052610c546080604060002060ff600460405192610c1384611447565b610c1c81611485565b845260018101546001600160a01b0316602085015260028101546040850152600381015460608501520154161515910181905261162f565b600052600460205263ffffffff610c7b8160406000205416610c7581611713565b9061173f565b169361271090818102918183041490151715610d2257608094610c9d9161166e565b916109c48310610ccc57506105dc9250600490506138405b604051938452602084015260408301526060820152f35b6105dc8310610ce557506104b092506003905082610cb5565b6103e88310610d00575061032092506002905061012c610cb5565b6101f480841015610d12575b50610cb5565b935060019150603c905085610d0c565b634e487b7160e01b600052601160045260246000fd5b3461017d57600036600319011261017d576020604051620f42408152f35b3461017d57602036600319011261017d576004356000526005602052602060ff604060002054166040519015158152f35b3461017d57602036600319011261017d576004356000526004602052602063ffffffff60406000205416604051908152f35b3461017d57610ddf610dca3661156a565b610dd7949192939461179f565b4211156115b4565b8115610deb81156115f3565b836000526002602052604060002090610e0a60ff60048401541661162f565b3360005260036020526040600020856000526020528363ffffffff604060002054161061113657336000526006602052604060002085600052602052604060002092600184015442106111005785600052600460205263ffffffff610e798160406000205416610c7581611713565b1691612710928387029187830485141715610d2257610e979161166e565b600090819081906109c481106110a057505050506105dc92613840946004915b610ec46002820154611757565b92610efa610ef3610ed58b876116c1565b97610eeb81610ee38b6116aa565b049a8a6116c1565b04809961169d565b8097611767565b94620f4240861061106b57610f11908610156116d4565b600754610f2d90606487049033906001600160a01b031661183c565b600282015461d8fe93848b8102048b03610d2257610f52600295928c87940290611767565b80620f4240116000146110665750620f42405b8285015533600052600360205260406000208c6000526020528a604060002063ffffffff610f998183549416828516611729565b1663ffffffff198093161790558c60005260046020528b60406000209163ffffffff610fcb818554941682851661173f565b1691161790558b60005260056020526040600020600160ff19825416179055428155610ff78a4261169d565b6001820155015567ffffffffffffffff9182910154169163ffffffff6040519816885216602087015260408601526060850152608084015260a083015260c08201527fba926bc9beb6260c95a8c71c06967e237e9e344777252e99ed25e67bcb86217460e03392a36001600055005b610f65565b60405162461bcd60e51b815260206004820152600d60248201526c135a5b94d95b1b139bdd13595d609a1b6044820152606490fd5b6105dc81106110bb57505050506104b0928394600391610eb7565b6103e881106110d857505050506103209261012c94600291610eb7565b6101f4979296919397809110156110f0575b50610eb7565b603c9750955060019250896110ea565b60405162461bcd60e51b815260206004820152600e60248201526d436f6f6c646f776e41637469766560901b6044820152606490fd5b60405162461bcd60e51b815260206004820152601760248201527f496e73756666696369656e745573657242616c616e63650000000000000000006044820152606490fd5b6111936111873661156a565b610dd79491939461179f565b61119e8115156115f3565b82600052602091600283526040600020926111bf60ff60048601541661162f565b846000526004815263ffffffff9383856040600020541610611352576002016111e8815461168e565b926111f385856116c1565b94620f42409182871061131e5761120c908710156116d4565b60075461122a906064880490309033906001600160a01b03166117f5565b82549161d6d8928284029384048303610d225788936112489161169d565b8082111561131757505b8355169486600052600483526040600020908154918161127489828616611729565b1663ffffffff19809416179055336000526003845260406000208860005284526040600020918254916112a98982851661173f565b16911617905585600052600582526040600020600160ff1982541617905567ffffffffffffffff80915416926040519586521690840152604083015260608201527f9febc90f707688807fcfe1892e5d4d877ab245ff63286cf884e3e91abb2836ac60803392a36001600055005b9050611252565b60405162461bcd60e51b815260048101869052600c60248201526b135a5b909d5e539bdd13595d60a21b6044820152606490fd5b60405162461bcd60e51b8152600481018390526014602482015273496e73756666696369656e74547265617375727960601b6044820152606490fd5b3461017d57602036600319011261017d5760043560005260026020526113f260406000206113bb81611485565b9060018060a01b036001820154169060028101549060ff60046003830154920154169160405195869560a0875260a087019061152a565b93602086015260408501526060840152151560808301520390f35b90600182811c9216801561143d575b602083101461142757565b634e487b7160e01b600052602260045260246000fd5b91607f169161141c565b60a0810190811067ffffffffffffffff82111761056257604052565b90601f8019910116810190811067ffffffffffffffff82111761056257604052565b906040519182600082546114988161140d565b9081845260209460019160018116908160001461150857506001146114c9575b5050506114c792500383611463565b565b600090815285812095935091905b8183106114f05750506114c793508201013880806114b8565b855488840185015294850194879450918301916114d7565b925050506114c794925060ff191682840152151560051b8201013880806114b8565b919082519283825260005b848110611556575050826000602080949584010152601f8019910116010190565b602081830181015184830182015201611535565b608090600319011261017d5760043590602435906044359060643590565b604090600319011261017d576004359060243590565b600435906001600160a01b038216820361017d57565b156115bb57565b60405162461bcd60e51b815260206004820152601060248201526f111958591b1a5b99515e18d95959195960821b6044820152606490fd5b156115fa57565b60405162461bcd60e51b815260206004820152600d60248201526c125b9d985b1a59105b5bdd5b9d609a1b6044820152606490fd5b1561163657565b60405162461bcd60e51b815260206004820152601060248201526f436f756e7472794e6f7445786973747360801b6044820152606490fd5b8115611678570490565b634e487b7160e01b600052601260045260246000fd5b90616b6c8201809211610d2257565b91908201809211610d2257565b906101f491828102928184041490151715610d2257565b81810292918115918404141715610d2257565b156116db57565b60405162461bcd60e51b815260206004820152601060248201526f14db1a5c1c1859d9515e18d95959195960821b6044820152606490fd5b9063ffffffff80921661c35003918211610d2257565b63ffffffff9182169082160391908211610d2257565b91909163ffffffff80809416911601918211610d2257565b616c7e19810191908211610d2257565b91908203918211610d2257565b67ffffffffffffffff811161056257601f01601f191660200190565b6000198114610d225760010190565b6002600054146117b0576002600055565b60405162461bcd60e51b815260206004820152601f60248201527f5265656e7472616e637947756172643a207265656e7472616e742063616c6c006044820152606490fd5b6040516323b872dd60e01b60208201526001600160a01b0392831660248201529290911660448301526064808301939093529181526114c79161183782611447565b6118e4565b60405163a9059cbb60e01b60208201526001600160a01b039092166024830152604480830193909352918152608081019167ffffffffffffffff831182841017610562576114c7926040526118e4565b6001546001600160a01b031633036118a057565b606460405162461bcd60e51b815260206004820152602060248201527f4f776e61626c653a2063616c6c6572206973206e6f7420746865206f776e65726044820152fd5b60018060a01b031690604051604081019080821067ffffffffffffffff83111761056257611974916040526020938482527f5361666545524332303a206c6f772d6c6576656c2063616c6c206661696c6564858301526000808587829751910182855af13d15611a11573d9161195983611774565b926119676040519485611463565b83523d868885013e611a15565b8051918215918483156119e6575b50505090501561198f5750565b6084906040519062461bcd60e51b82526004820152602a60248201527f5361666545524332303a204552433230206f7065726174696f6e20646964206e6044820152691bdd081cdd58d8d9595960b21b6064820152fd5b919381809450010312611a0d57820151908115158203611a0a575080388084611982565b80fd5b5080fd5b6060915b91929015611a775750815115611a29575090565b3b15611a325790565b60405162461bcd60e51b815260206004820152601d60248201527f416464726573733a2063616c6c20746f206e6f6e2d636f6e74726163740000006044820152606490fd5b825190915015611a8a5750805190602001fd5b60405162461bcd60e51b815260206004820152908190611aae90602483019061152a565b0390fdfea2646970667358221220a42467f7ed352a01b1e5beec35588655cfd9a209f4cb6b1c5b3421435e31c6f664736f6c63430008180033",
  "linkReferences": {},
  "deployedLinkReferences": {}
}