{
  "_format": "hh-sol-artifact-1",
  "contractName": "FlagWarsCore_v1_5_4",
  "sourceName": "contracts/FlagWarsCore_v1_5_4.sol",
  "abi": [
    {
      "inputs": [
        {
          "internalType": "address",
          "name": "_payToken",
          "type": "address"
        }
      ],
      "stateMutability": "nonpayable",
      "type": "constructor"
    },
    {
      "anonymous": false,
      "inputs": [
        {
          "indexed": true,
          "internalType": "address",
          "name": "attacker",
          "type": "address"
        },
        {
          "indexed": true,
          "internalType": "uint256",
          "name": "attackerId",
          "type": "uint256"
        },
        {
          "indexed": true,
          "internalType": "uint256",
          "name": "targetId",
          "type": "uint256"
        },
        {
          "indexed": false,
          "internalType": "uint256",
          "name": "delta",
          "type": "uint256"
        },
        {
          "indexed": false,
          "internalType": "uint256",
          "name": "feeUSDC6",
          "type": "uint256"
        },
        {
          "indexed": false,
          "internalType": "uint256",
          "name": "attackerPriceAfter",
          "type": "uint256"
        },
        {
          "indexed": false,
          "internalType": "uint256",
          "name": "targetPriceAfter",
          "type": "uint256"
        }
      ],
      "name": "Attack",
      "type": "event"
    },
    {
      "anonymous": false,
      "inputs": [
        {
          "indexed": true,
          "internalType": "address",
          "name": "user",
          "type": "address"
        },
        {
          "indexed": true,
          "internalType": "uint256",
          "name": "countryId",
          "type": "uint256"
        },
        {
          "indexed": false,
          "internalType": "uint32",
          "name": "amount",
          "type": "uint32"
        },
        {
          "indexed": false,
          "internalType": "uint64",
          "name": "unitPrice1e8",
          "type": "uint64"
        },
        {
          "indexed": false,
          "internalType": "uint64",
          "name": "priceAfter1e8",
          "type": "uint64"
        },
        {
          "indexed": false,
          "internalType": "uint32",
          "name": "userBalanceAfter",
          "type": "uint32"
        },
        {
          "indexed": false,
          "internalType": "uint32",
          "name": "remainingAfter",
          "type": "uint32"
        },
        {
          "indexed": false,
          "internalType": "uint256",
          "name": "totalCostUSDC6",
          "type": "uint256"
        }
      ],
      "name": "Buy",
      "type": "event"
    },
    {
      "anonymous": false,
      "inputs": [
        {
          "indexed": true,
          "internalType": "address",
          "name": "commissionsWallet",
          "type": "address"
        }
      ],
      "name": "CommissionsWalletUpdated",
      "type": "event"
    },
    {
      "anonymous": false,
      "inputs": [
        {
          "indexed": true,
          "internalType": "uint256",
          "name": "countryId",
          "type": "uint256"
        },
        {
          "indexed": false,
          "internalType": "string",
          "name": "name",
          "type": "string"
        },
        {
          "indexed": false,
          "internalType": "address",
          "name": "token",
          "type": "address"
        }
      ],
      "name": "CountryCreated",
      "type": "event"
    },
    {
      "anonymous": false,
      "inputs": [
        {
          "indexed": true,
          "internalType": "address",
          "name": "previousOwner",
          "type": "address"
        },
        {
          "indexed": true,
          "internalType": "address",
          "name": "newOwner",
          "type": "address"
        }
      ],
      "name": "OwnershipTransferred",
      "type": "event"
    },
    {
      "anonymous": false,
      "inputs": [
        {
          "indexed": true,
          "internalType": "uint256",
          "name": "countryId",
          "type": "uint256"
        },
        {
          "indexed": false,
          "internalType": "uint64",
          "name": "priceFp",
          "type": "uint64"
        }
      ],
      "name": "PriceSeeded",
      "type": "event"
    },
    {
      "anonymous": false,
      "inputs": [
        {
          "indexed": true,
          "internalType": "uint256",
          "name": "countryId",
          "type": "uint256"
        },
        {
          "indexed": false,
          "internalType": "uint32",
          "name": "amount",
          "type": "uint32"
        }
      ],
      "name": "RemainingInit",
      "type": "event"
    },
    {
      "anonymous": false,
      "inputs": [
        {
          "indexed": true,
          "internalType": "address",
          "name": "revenueWallet",
          "type": "address"
        }
      ],
      "name": "RevenueWalletUpdated",
      "type": "event"
    },
    {
      "anonymous": false,
      "inputs": [
        {
          "indexed": true,
          "internalType": "address",
          "name": "user",
          "type": "address"
        },
        {
          "indexed": true,
          "internalType": "uint256",
          "name": "countryId",
          "type": "uint256"
        },
        {
          "indexed": false,
          "internalType": "uint32",
          "name": "amount",
          "type": "uint32"
        },
        {
          "indexed": false,
          "internalType": "uint64",
          "name": "unitPrice1e8",
          "type": "uint64"
        },
        {
          "indexed": false,
          "internalType": "uint64",
          "name": "priceAfter1e8",
          "type": "uint64"
        },
        {
          "indexed": false,
          "internalType": "uint32",
          "name": "userBalanceAfter",
          "type": "uint32"
        },
        {
          "indexed": false,
          "internalType": "uint32",
          "name": "remainingAfter",
          "type": "uint32"
        },
        {
          "indexed": false,
          "internalType": "uint256",
          "name": "netProceedsUSDC6",
          "type": "uint256"
        },
        {
          "indexed": false,
          "internalType": "uint256",
          "name": "feeUSDC6",
          "type": "uint256"
        }
      ],
      "name": "Sell",
      "type": "event"
    },
    {
      "anonymous": false,
      "inputs": [
        {
          "indexed": true,
          "internalType": "address",
          "name": "treasuryWallet",
          "type": "address"
        }
      ],
      "name": "TreasuryWalletUpdated",
      "type": "event"
    },
    {
      "inputs": [],
      "name": "PRICE_MIN",
      "outputs": [
        {
          "internalType": "uint64",
          "name": "",
          "type": "uint64"
        }
      ],
      "stateMutability": "view",
      "type": "function"
    },
    {
      "inputs": [],
      "name": "PRICE_PRECISION",
      "outputs": [
        {
          "internalType": "uint64",
          "name": "",
          "type": "uint64"
        }
      ],
      "stateMutability": "view",
      "type": "function"
    },
    {
      "inputs": [],
      "name": "SELL_FEE_BPS",
      "outputs": [
        {
          "internalType": "uint64",
          "name": "",
          "type": "uint64"
        }
      ],
      "stateMutability": "view",
      "type": "function"
    },
    {
      "inputs": [],
      "name": "TOTAL_SUPPLY_PER_COUNTRY",
      "outputs": [
        {
          "internalType": "uint32",
          "name": "",
          "type": "uint32"
        }
      ],
      "stateMutability": "view",
      "type": "function"
    },
    {
      "inputs": [
        {
          "internalType": "uint256",
          "name": "attackerId",
          "type": "uint256"
        },
        {
          "internalType": "uint256",
          "name": "targetId",
          "type": "uint256"
        }
      ],
      "name": "attack",
      "outputs": [],
      "stateMutability": "nonpayable",
      "type": "function"
    },
    {
      "inputs": [
        {
          "internalType": "uint256",
          "name": "countryId",
          "type": "uint256"
        },
        {
          "internalType": "uint256",
          "name": "amount",
          "type": "uint256"
        },
        {
          "internalType": "uint256",
          "name": "minOut",
          "type": "uint256"
        },
        {
          "internalType": "uint256",
          "name": "deadline",
          "type": "uint256"
        }
      ],
      "name": "buy",
      "outputs": [],
      "stateMutability": "nonpayable",
      "type": "function"
    },
    {
      "inputs": [],
      "name": "commissionsWallet",
      "outputs": [
        {
          "internalType": "address",
          "name": "",
          "type": "address"
        }
      ],
      "stateMutability": "view",
      "type": "function"
    },
    {
      "inputs": [],
      "name": "config",
      "outputs": [
        {
          "internalType": "address",
          "name": "payToken",
          "type": "address"
        }
      ],
      "stateMutability": "view",
      "type": "function"
    },
    {
      "inputs": [
        {
          "internalType": "uint256",
          "name": "",
          "type": "uint256"
        }
      ],
      "name": "countries",
      "outputs": [
        {
          "internalType": "string",
          "name": "name",
          "type": "string"
        },
        {
          "internalType": "address",
          "name": "token",
          "type": "address"
        },
        {
          "internalType": "uint256",
          "name": "price",
          "type": "uint256"
        },
        {
          "internalType": "uint256",
          "name": "attacks",
          "type": "uint256"
        },
        {
          "internalType": "bool",
          "name": "exists",
          "type": "bool"
        }
      ],
      "stateMutability": "view",
      "type": "function"
    },
    {
      "inputs": [
        {
          "internalType": "uint256",
          "name": "",
          "type": "uint256"
        }
      ],
      "name": "countryTouched",
      "outputs": [
        {
          "internalType": "bool",
          "name": "",
          "type": "bool"
        }
      ],
      "stateMutability": "view",
      "type": "function"
    },
    {
      "inputs": [
        {
          "internalType": "string",
          "name": "name",
          "type": "string"
        },
        {
          "internalType": "address",
          "name": "token",
          "type": "address"
        }
      ],
      "name": "createCountry",
      "outputs": [],
      "stateMutability": "nonpayable",
      "type": "function"
    },
    {
      "inputs": [
        {
          "internalType": "uint256",
          "name": "countryId",
          "type": "uint256"
        },
        {
          "internalType": "uint256",
          "name": "amount",
          "type": "uint256"
        }
      ],
      "name": "getBuyPrice",
      "outputs": [
        {
          "internalType": "uint256",
          "name": "",
          "type": "uint256"
        }
      ],
      "stateMutability": "view",
      "type": "function"
    },
    {
      "inputs": [],
      "name": "getConstants",
      "outputs": [
        {
          "internalType": "uint256",
          "name": "kappaTicks",
          "type": "uint256"
        },
        {
          "internalType": "uint256",
          "name": "lambdaTicks",
          "type": "uint256"
        },
        {
          "internalType": "uint64",
          "name": "priceMin",
          "type": "uint64"
        },
        {
          "internalType": "uint64",
          "name": "pricePrecision",
          "type": "uint64"
        },
        {
          "internalType": "uint32",
          "name": "totalSupplyPerCountry",
          "type": "uint32"
        }
      ],
      "stateMutability": "pure",
      "type": "function"
    },
    {
      "inputs": [
        {
          "internalType": "uint256",
          "name": "countryId",
          "type": "uint256"
        }
      ],
      "name": "getCountryInfo",
      "outputs": [
        {
          "internalType": "string",
          "name": "name",
          "type": "string"
        },
        {
          "internalType": "address",
          "name": "token",
          "type": "address"
        },
        {
          "internalType": "uint256",
          "name": "price",
          "type": "uint256"
        },
        {
          "internalType": "uint256",
          "name": "attacks",
          "type": "uint256"
        },
        {
          "internalType": "bool",
          "name": "exists",
          "type": "bool"
        }
      ],
      "stateMutability": "view",
      "type": "function"
    },
    {
      "inputs": [
        {
          "internalType": "uint256",
          "name": "countryId",
          "type": "uint256"
        }
      ],
      "name": "getRemainingSupply",
      "outputs": [
        {
          "internalType": "uint32",
          "name": "",
          "type": "uint32"
        }
      ],
      "stateMutability": "view",
      "type": "function"
    },
    {
      "inputs": [
        {
          "internalType": "uint256",
          "name": "countryId",
          "type": "uint256"
        },
        {
          "internalType": "uint256",
          "name": "amount",
          "type": "uint256"
        }
      ],
      "name": "getSellPrice",
      "outputs": [
        {
          "internalType": "uint256",
          "name": "",
          "type": "uint256"
        }
      ],
      "stateMutability": "view",
      "type": "function"
    },
    {
      "inputs": [
        {
          "internalType": "address",
          "name": "user",
          "type": "address"
        },
        {
          "internalType": "uint256",
          "name": "countryId",
          "type": "uint256"
        }
      ],
      "name": "getUserBalance",
      "outputs": [
        {
          "internalType": "uint32",
          "name": "",
          "type": "uint32"
        }
      ],
      "stateMutability": "view",
      "type": "function"
    },
    {
      "inputs": [
        {
          "internalType": "uint256",
          "name": "countryId",
          "type": "uint256"
        }
      ],
      "name": "initRemaining",
      "outputs": [],
      "stateMutability": "nonpayable",
      "type": "function"
    },
    {
      "inputs": [],
      "name": "listCountries",
      "outputs": [
        {
          "internalType": "uint256[]",
          "name": "",
          "type": "uint256[]"
        }
      ],
      "stateMutability": "view",
      "type": "function"
    },
    {
      "inputs": [],
      "name": "nextCountryId",
      "outputs": [
        {
          "internalType": "uint256",
          "name": "",
          "type": "uint256"
        }
      ],
      "stateMutability": "view",
      "type": "function"
    },
    {
      "inputs": [],
      "name": "owner",
      "outputs": [
        {
          "internalType": "address",
          "name": "",
          "type": "address"
        }
      ],
      "stateMutability": "view",
      "type": "function"
    },
    {
      "inputs": [
        {
          "internalType": "uint256",
          "name": "",
          "type": "uint256"
        }
      ],
      "name": "remainingSupply",
      "outputs": [
        {
          "internalType": "uint32",
          "name": "",
          "type": "uint32"
        }
      ],
      "stateMutability": "view",
      "type": "function"
    },
    {
      "inputs": [],
      "name": "renounceOwnership",
      "outputs": [],
      "stateMutability": "nonpayable",
      "type": "function"
    },
    {
      "inputs": [],
      "name": "revenueWallet",
      "outputs": [
        {
          "internalType": "address",
          "name": "",
          "type": "address"
        }
      ],
      "stateMutability": "view",
      "type": "function"
    },
    {
      "inputs": [
        {
          "internalType": "uint256",
          "name": "countryId",
          "type": "uint256"
        },
        {
          "internalType": "uint64",
          "name": "priceFp",
          "type": "uint64"
        }
      ],
      "name": "seedCountryPrice",
      "outputs": [],
      "stateMutability": "nonpayable",
      "type": "function"
    },
    {
      "inputs": [
        {
          "internalType": "uint256",
          "name": "countryId",
          "type": "uint256"
        },
        {
          "internalType": "uint256",
          "name": "amount",
          "type": "uint256"
        },
        {
          "internalType": "uint256",
          "name": "minOut",
          "type": "uint256"
        },
        {
          "internalType": "uint256",
          "name": "deadline",
          "type": "uint256"
        }
      ],
      "name": "sell",
      "outputs": [],
      "stateMutability": "nonpayable",
      "type": "function"
    },
    {
      "inputs": [
        {
          "internalType": "address",
          "name": "_commissionsWallet",
          "type": "address"
        }
      ],
      "name": "setCommissionsWallet",
      "outputs": [],
      "stateMutability": "nonpayable",
      "type": "function"
    },
    {
      "inputs": [
        {
          "internalType": "address",
          "name": "_revenueWallet",
          "type": "address"
        }
      ],
      "name": "setRevenueWallet",
      "outputs": [],
      "stateMutability": "nonpayable",
      "type": "function"
    },
    {
      "inputs": [
        {
          "internalType": "address",
          "name": "_treasuryWallet",
          "type": "address"
        }
      ],
      "name": "setTreasuryWallet",
      "outputs": [],
      "stateMutability": "nonpayable",
      "type": "function"
    },
    {
      "inputs": [
        {
          "internalType": "address",
          "name": "newOwner",
          "type": "address"
        }
      ],
      "name": "transferOwnership",
      "outputs": [],
      "stateMutability": "nonpayable",
      "type": "function"
    },
    {
      "inputs": [],
      "name": "treasuryWallet",
      "outputs": [
        {
          "internalType": "address",
          "name": "",
          "type": "address"
        }
      ],
      "stateMutability": "view",
      "type": "function"
    },
    {
      "inputs": [
        {
          "internalType": "address",
          "name": "",
          "type": "address"
        },
        {
          "internalType": "uint256",
          "name": "",
          "type": "uint256"
        }
      ],
      "name": "userBalances",
      "outputs": [
        {
          "internalType": "uint32",
          "name": "",
          "type": "uint32"
        }
      ],
      "stateMutability": "view",
      "type": "function"
    }
  ],
  "bytecode": "0x6080346100e3576001600160401b0390601f611d1238819003918201601f1916830191848311848410176100cd578084926020946040528339810103126100e357516001600160a01b038082169290918390036100e3576001600081815581546001600160a01b0319808216339081179094559416907f8be0079c531659141344cd1fd0a4f28419497f9722a3daafe3b4186f6b6457e09080a3600160075560405160208101918211818310176100cd578391604052526006541617600655604051611c2990816100e98239f35b634e487b7160e01b600052604160045260246000fd5b600080fdfe608080604052600436101561001357600080fd5b60003560e01c90816305acb1a8146114885750806308e9daa51461142d5780631281311d146111e75780631f0dc8f2146111805780632a26ff83146110cd5780633620875e14610e015780634447842514610dd85780634626402b14610daf57806347fda41a146108e757806360a87ac314610ad6578063650e2f21146109ee5780636e61a4a1146109bd5780636f16a5951461099f578063715018a61461094257806379502c55146109195780638c858a14146108e75780638da5cb5b146108be57806391a9648a146101eb5780639477d85d1461082657806395082d251461080757806396dfec7c146107ea5780639731aa2e146107cd5780639a295e731461078d578063a8602fea14610726578063bf9819951461069c578063c157253d1461060d578063c3bc63e4146105e4578063de4ea1ad1461048f578063e1fa763814610302578063f2fde38b14610239578063fa3bdc46146101eb5763fb235f341461017f57600080fd5b346101e65760203660031901126101e65761019861165a565b6101a061194c565b600980546001600160a01b0319166001600160a01b039290921691821790557facfd38a8c0e371d5f091a49bf6aafad89ed17a551f8b2f152420408a0d4b3e61600080a2005b600080fd5b346101e65760403660031901126101e6576001600160a01b0361020c61165a565b1660005260036020526040600020602435600052602052602063ffffffff60406000205416604051908152f35b346101e65760203660031901126101e65761025261165a565b61025a61194c565b6001600160a01b039081169081156102ae57600154826bffffffffffffffffffffffff60a01b821617600155167f8be0079c531659141344cd1fd0a4f28419497f9722a3daafe3b4186f6b6457e0600080a3005b60405162461bcd60e51b815260206004820152602660248201527f4f776e61626c653a206e6577206f776e657220697320746865207a65726f206160448201526564647265737360d01b6064820152608490fd5b346101e6576103103661168c565b906103196118af565b81811461045d57806000526002602052604060002082600052604060002060ff60048301541615801561044e575b610417576002908183016003815494610368610362876119a4565b966119e4565b92836103f7575b61037a87825461176b565b958695018054888082116000146103e9576103949161181f565b9687925b5555016103a5815461182c565b90556040519384526020840152604083015260608201527f6c93062ec3404e36ee88bb5937ea3adc0ebc774907c899b5779bbf6de98fe58760803392a46001600055005b5050620f4240968792610398565b600654610412908590309033906001600160a01b0316611905565b61036f565b60405162461bcd60e51b815260206004820152600f60248201526e10dbdd5b9d1c9e539bdd119bdd5b99608a1b6044820152606490fd5b5060ff60048201541615610347565b60405162461bcd60e51b815260206004820152600a60248201526953656c6641747461636b60b01b6044820152606490fd5b346101e65760403660031901126101e65760043560243567ffffffffffffffff81168091036101e6576104c061194c565b8160005260209060028252600260406000206104e260ff60048301541661171d565b0180546105ad57836000526005835260ff6040600020541661057057631dcd650082036105385790807f15270c346fbc9bc44c30ed9dfcaf7a163cb1b5219df72bb636c998f33fc3b668939255604051908152a2005b60405162461bcd60e51b815260048101849052601060248201526f496e76616c696453656564507269636560801b6044820152606490fd5b60405162461bcd60e51b815260048101849052601560248201527410dbdd5b9d1c9e505b1c9958591e551bdd58da1959605a1b6044820152606490fd5b60405162461bcd60e51b815260048101849052600f60248201526e141c9a58d9505b1c9958591e54d95d608a1b6044820152606490fd5b346101e65760003660031901126101e657600a546040516001600160a01b039091168152602090f35b346101e65760206106946106203661168c565b906000526002835261068f60406000206106896080604051610641816114dd565b61064a8461151b565b815260018401546001600160a01b0316888201526002840154604082019081526003850154606083015260049094015460ff161515910181905261171d565b5161175c565b61178f565b604051908152f35b346101e65760203660031901126101e65760043560005260026020526040600020604051906106ca826114dd565b61072260806106d88361151b565b9283855260018060a01b036001820154169485602082015260028201549081604082015260ff60046003850154948560608501520154161515938491015260405195869586611600565b0390f35b346101e65760203660031901126101e65761073f61165a565b61074761194c565b600880546001600160a01b0319166001600160a01b039290921691821790557f97c79b3848e51f57983ac89e4403452655c8d83ceba8199011de63a74f60d1a7600080a2005b346101e65760003660031901126101e65760a060405161d6d8815261d8fe6020820152620f424060408201526305f5e100606082015261c3506080820152f35b346101e65760003660031901126101e65760206040516101f48152f35b346101e65760003660031901126101e657602060405161c3508152f35b346101e65760003660031901126101e65760206040516305f5e1008152f35b346101e65760206106946108ab61083c3661168c565b906000526002845261068f60406000206108a5608060405161085d816114dd565b6108668461151b565b815260018401546001600160a01b0316898201526002840154604082019081526003850154606083015260049094015460ff161515910181905261171d565b5161180f565b6127106108b782611778565b049061181f565b346101e65760003660031901126101e6576001546040516001600160a01b039091168152602090f35b346101e65760203660031901126101e6576004356000526004602052602063ffffffff60406000205416604051908152f35b346101e65760003660031901126101e6576006546040516001600160a01b039091168152602090f35b346101e65760003660031901126101e65761095b61194c565b600180546001600160a01b031981169091556000906001600160a01b03167f8be0079c531659141344cd1fd0a4f28419497f9722a3daafe3b4186f6b6457e08280a3005b346101e65760003660031901126101e6576020604051620f42408152f35b346101e65760203660031901126101e6576004356000526005602052602060ff604060002054166040519015158152f35b346101e65760003660031901126101e657600754610a0b81611853565b9060009060005b818110610a94575050610a2481611853565b9160005b828110610a7557836040518091602080830160208452825180915260206040850193019160005b828110610a5e57505050500390f35b835185528695509381019392810192600101610a4f565b80610a8260019284611885565b51610a8d8287611885565b5201610a28565b80600052600260205260ff60046040600020015416610ab6575b600101610a12565b91610ace8184610ac860019488611885565b5261182c565b929050610aae565b346101e65760403660031901126101e65767ffffffffffffffff6004358181116101e657366023820112156101e6578060040135610b1381611670565b91610b2160405193846114f9565b81835236602483830101116101e6578160009260246020930183860137830101526024356001600160a01b03811681036101e65760075492610b628461182c565b60075560405190610b72826114dd565b83825260018060a01b038316602083015260006040830152600060608301526001608083015284600052600260205260406000209082518051918211610d9957610bbc83546114a3565b601f8111610d55575b50602090601f8311600114610cbf57610c9f9593837f93ec52636adb98887fbb2b11fff34e049c2d8a477aa6fdf3f843f04e31254528989694608094600494600092610cb4575b50508160011b916000199060031b1c19161781555b6001810160018060a01b036020860151166bffffffffffffffffffffffff60a01b825416179055604084015160028201556060840151600382015501910151151560ff80198354169116179055846000526004602052604060002061c35063ffffffff198254161790556040519283926040845260408401906115c0565b6001600160a01b0390911660208301520390a2005b015190508b80610c0c565b908360005260206000209160005b601f1985168110610d3d575093600184608094600494610c9f9a987f93ec52636adb98887fbb2b11fff34e049c2d8a477aa6fdf3f843f04e312545289c9a98601f19811610610d24575b505050811b018155610c21565b015160001960f88460031b161c191690558b8080610d17565b91926020600181928685015181550194019201610ccd565b836000526020600020601f840160051c810160208510610d92575b601f830160051c82018110610d86575050610bc5565b60008155600101610d70565b5080610d70565b634e487b7160e01b600052604160045260246000fd5b346101e65760003660031901126101e6576008546040516001600160a01b039091168152602090f35b346101e65760003660031901126101e6576009546040516001600160a01b039091168152602090f35b346101e657610e27610e123661163c565b610e1f94919293946118af565b4211156116a2565b610e328215156116e1565b8260005260209160028352604060002092610e5360ff60048601541661171d565b3360005260038152604060002085600052815263ffffffff93828560406000205416106110885760020193610e88855461180f565b90610e93848361178f565b93610eab612710610ea387611778565b04809661181f565b620f4240968782106110535790610ec66064928210156117a2565b049360018060a01b03600654169160405163a9059cbb60e01b8382015233602482015286604482015260448152608081019067ffffffffffffffff9481831086841117610d9957610f1992604052611a25565b88549061d8fe90808202918204810361103d57606499610f3b8793879561181f565b80821061103657505b8b551698336000526003835260406000208b6000528352604060002080549086610f708d8285166117e1565b1663ffffffff198093161790558b600052600484528a60406000209187610f9b8454938285166117f7565b1691161790558a600052600583526040600020600160ff19825416179055541691336000526003825260406000208a6000528252836040600020541693600483526040600020541694604051998a52169088015260408701526060860152608085015260a08401520460c08201527f9c43d93d05055933a4c3e3f50af0c3535d9c090e743a4852cef6bc1049d3b2d860e03392a36001600055005b9050610f44565b634e487b7160e01b600052601160045260246000fd5b60405162461bcd60e51b815260048101879052600d60248201526c135a5b94d95b1b139bdd13595d609a1b6044820152606490fd5b60405162461bcd60e51b815260048101839052601760248201527f496e73756666696369656e745573657242616c616e63650000000000000000006044820152606490fd5b346101e65760203660031901126101e6576004356110e961194c565b80600052600460205263ffffffff6040600020541661114d578060005260046020527f56a7b260f7526a7d42cfaada06eab7477373939f8e58bfe136b7cd9538f26d646020604060002061c350908163ffffffff19825416179055604051908152a2005b60405162461bcd60e51b815260206004820152600b60248201526a105b1c9958591e525b9a5d60aa1b6044820152606490fd5b346101e65760203660031901126101e65761119961165a565b6111a161194c565b600a80546001600160a01b0319166001600160a01b039290921691821790557ff7533f309e31500e3862b68a2ab829df1e4ef76428c7759d983dcd72595c52a6600080a2005b346101e6576112046111f83661163c565b610e1f949193946118af565b61120f8115156116e1565b8260005260209160028352604060002061122f60ff60048301541661171d565b846000526004845263ffffffff90838260406000205416106113f157600201611258815461175c565b92611263858561178f565b620f4240918282106113bd579061127e6064928210156117a2565b04946112988660018060a01b036006541630903390611905565b82549161d6d892828402938404830361103d5785936112b69161176b565b8082106113b657505b8355169486600052600481526040600020805490846112e0898285166117e1565b1663ffffffff1980931617905533600052600382526040600020886000528252604060002090815490856113168a8285166117f7565b16911617905586600052600581526040600020600160ff1982541617905567ffffffffffffffff809254169133600052600382526040600020886000528252836040600020541693600483526040600020541694604051978852169086015260408501526060840152608083015260a08201527f7ef7ad974fae1014787feb941d024b38f4ebb1d7b51a24b765d6b43e37856e7e60c03392a36001600055005b90506112bf565b60405162461bcd60e51b815260048101899052600c60248201526b135a5b909d5e539bdd13595d60a21b6044820152606490fd5b60405162461bcd60e51b8152600481018690526014602482015273496e73756666696369656e74547265617375727960601b6044820152606490fd5b346101e65760203660031901126101e657600435600052600260205260406000206114578161151b565b61072260018060a01b036001840154169260028101549060ff60046003830154920154169160405195869586611600565b346101e65760003660031901126101e6576020906007548152f35b90600182811c921680156114d3575b60208310146114bd57565b634e487b7160e01b600052602260045260246000fd5b91607f16916114b2565b60a0810190811067ffffffffffffffff821117610d9957604052565b90601f8019910116810190811067ffffffffffffffff821117610d9957604052565b9060405191826000825461152e816114a3565b9081845260209460019160018116908160001461159e575060011461155f575b50505061155d925003836114f9565b565b600090815285812095935091905b81831061158657505061155d935082010138808061154e565b8554888401850152948501948794509183019161156d565b9250505061155d94925060ff191682840152151560051b82010138808061154e565b919082519283825260005b8481106115ec575050826000602080949584010152601f8019910116010190565b6020818301810151848301820152016115cb565b93909261161b6080949796939760a0875260a08701906115c0565b6001600160a01b039097166020860152604085015260608401521515910152565b60809060031901126101e65760043590602435906044359060643590565b600435906001600160a01b03821682036101e657565b67ffffffffffffffff8111610d9957601f01601f191660200190565b60409060031901126101e6576004359060243590565b156116a957565b60405162461bcd60e51b815260206004820152601060248201526f111958591b1a5b99515e18d95959195960821b6044820152606490fd5b156116e857565b60405162461bcd60e51b815260206004820152600d60248201526c125b9d985b1a59105b5bdd5b9d609a1b6044820152606490fd5b1561172457565b60405162461bcd60e51b815260206004820152601060248201526f436f756e7472794e6f7445786973747360801b6044820152606490fd5b90616b6c820180921161103d57565b9190820180921161103d57565b906101f49182810292818404149015171561103d57565b8181029291811591840414171561103d57565b156117a957565b60405162461bcd60e51b815260206004820152601060248201526f14db1a5c1c1859d9515e18d95959195960821b6044820152606490fd5b63ffffffff918216908216039190821161103d57565b91909163ffffffff8080941691160191821161103d57565b616c7e1981019190821161103d57565b9190820391821161103d57565b600019811461103d5760010190565b67ffffffffffffffff8111610d995760051b60200190565b9061185d8261183b565b61186a60405191826114f9565b828152809261187b601f199161183b565b0190602036910137565b80518210156118995760209160051b010190565b634e487b7160e01b600052603260045260246000fd5b6002600054146118c0576002600055565b60405162461bcd60e51b815260206004820152601f60248201527f5265656e7472616e637947756172643a207265656e7472616e742063616c6c006044820152606490fd5b6040516323b872dd60e01b60208201526001600160a01b03928316602482015292909116604483015260648083019390935291815261155d91611947826114dd565b611a25565b6001546001600160a01b0316330361196057565b606460405162461bcd60e51b815260206004820152602060248201527f4f776e61626c653a2063616c6c6572206973206e6f7420746865206f776e65726044820152fd5b633b9aca008110156119b857506201adb090565b63773594008110156119cc575062015f9090565b63b2d05e0011156119de576201117090565b61c35090565b633b9aca008110156119f85750620493e090565b6377359400811015611a0c57506205573090565b63b2d05e001115611a1e5762061a8090565b6206ddd090565b60018060a01b031690604051604081019080821067ffffffffffffffff831117610d9957611ab5916040526020938482527f5361666545524332303a206c6f772d6c6576656c2063616c6c206661696c6564858301526000808587829751910182855af13d15611b52573d91611a9a83611670565b92611aa860405194856114f9565b83523d868885013e611b56565b805191821591848315611b27575b505050905015611ad05750565b6084906040519062461bcd60e51b82526004820152602a60248201527f5361666545524332303a204552433230206f7065726174696f6e20646964206e6044820152691bdd081cdd58d8d9595960b21b6064820152fd5b919381809450010312611b4e57820151908115158203611b4b575080388084611ac3565b80fd5b5080fd5b6060915b91929015611bb85750815115611b6a575090565b3b15611b735790565b60405162461bcd60e51b815260206004820152601d60248201527f416464726573733a2063616c6c20746f206e6f6e2d636f6e74726163740000006044820152606490fd5b825190915015611bcb5750805190602001fd5b60405162461bcd60e51b815260206004820152908190611bef9060248301906115c0565b0390fdfea2646970667358221220f34eb0fbcc9b9b70fd34328c440996c064ba35be347d4106bfaec57cfaf67b3864736f6c63430008180033",
  "linkReferences": {},
  "deployedLinkReferences": {}
}