{
  "_format": "hh-sol-artifact-1",
  "contractName": "FlagWarsCore_v1_5_6_WhiteFlag",
  "sourceName": "contracts/FlagWarsCore_v1_5_6_WhiteFlag.sol",
  "abi": [
    {
      "inputs": [],
      "stateMutability": "nonpayable",
      "type": "constructor"
    },
    {
      "anonymous": false,
      "inputs": [
        {
          "indexed": true,
          "internalType": "address",
          "name": "attacker",
          "type": "address"
        },
        {
          "indexed": true,
          "internalType": "uint256",
          "name": "attackerId",
          "type": "uint256"
        },
        {
          "indexed": true,
          "internalType": "uint256",
          "name": "targetId",
          "type": "uint256"
        },
        {
          "indexed": false,
          "internalType": "uint256",
          "name": "feePaid",
          "type": "uint256"
        },
        {
          "indexed": false,
          "internalType": "uint64",
          "name": "attackerPrice",
          "type": "uint64"
        },
        {
          "indexed": false,
          "internalType": "uint64",
          "name": "targetPrice",
          "type": "uint64"
        }
      ],
      "name": "Attack",
      "type": "event"
    },
    {
      "anonymous": false,
      "inputs": [
        {
          "indexed": true,
          "internalType": "address",
          "name": "buyer",
          "type": "address"
        },
        {
          "indexed": true,
          "internalType": "uint256",
          "name": "countryId",
          "type": "uint256"
        },
        {
          "indexed": false,
          "internalType": "uint32",
          "name": "amount",
          "type": "uint32"
        },
        {
          "indexed": false,
          "internalType": "uint64",
          "name": "unitPrice",
          "type": "uint64"
        },
        {
          "indexed": false,
          "internalType": "uint64",
          "name": "newPrice",
          "type": "uint64"
        },
        {
          "indexed": false,
          "internalType": "uint256",
          "name": "totalCost",
          "type": "uint256"
        }
      ],
      "name": "Buy",
      "type": "event"
    },
    {
      "anonymous": false,
      "inputs": [
        {
          "indexed": true,
          "internalType": "address",
          "name": "previousOwner",
          "type": "address"
        },
        {
          "indexed": true,
          "internalType": "address",
          "name": "newOwner",
          "type": "address"
        }
      ],
      "name": "OwnershipTransferred",
      "type": "event"
    },
    {
      "anonymous": false,
      "inputs": [
        {
          "indexed": true,
          "internalType": "address",
          "name": "seller",
          "type": "address"
        },
        {
          "indexed": true,
          "internalType": "uint256",
          "name": "countryId",
          "type": "uint256"
        },
        {
          "indexed": false,
          "internalType": "uint32",
          "name": "amount",
          "type": "uint32"
        },
        {
          "indexed": false,
          "internalType": "uint64",
          "name": "unitPrice",
          "type": "uint64"
        },
        {
          "indexed": false,
          "internalType": "uint64",
          "name": "newPrice",
          "type": "uint64"
        },
        {
          "indexed": false,
          "internalType": "uint256",
          "name": "netProceeds",
          "type": "uint256"
        },
        {
          "indexed": false,
          "internalType": "uint256",
          "name": "totalFee",
          "type": "uint256"
        },
        {
          "indexed": false,
          "internalType": "uint256",
          "name": "extraFee",
          "type": "uint256"
        },
        {
          "indexed": false,
          "internalType": "uint256",
          "name": "cooldownApplied",
          "type": "uint256"
        }
      ],
      "name": "Sell",
      "type": "event"
    },
    {
      "anonymous": false,
      "inputs": [
        {
          "indexed": false,
          "internalType": "string",
          "name": "configKey",
          "type": "string"
        },
        {
          "indexed": false,
          "internalType": "uint256",
          "name": "oldValue",
          "type": "uint256"
        },
        {
          "indexed": false,
          "internalType": "uint256",
          "name": "newValue",
          "type": "uint256"
        }
      ],
      "name": "WhiteFlagConfigUpdated",
      "type": "event"
    },
    {
      "anonymous": false,
      "inputs": [
        {
          "indexed": true,
          "internalType": "uint256",
          "name": "countryId",
          "type": "uint256"
        },
        {
          "indexed": false,
          "internalType": "uint256",
          "name": "netSold",
          "type": "uint256"
        },
        {
          "indexed": false,
          "internalType": "uint256",
          "name": "threshold",
          "type": "uint256"
        },
        {
          "indexed": false,
          "internalType": "uint256",
          "name": "haltDurationHours",
          "type": "uint256"
        }
      ],
      "name": "WhiteFlagHalt",
      "type": "event"
    },
    {
      "anonymous": false,
      "inputs": [
        {
          "indexed": true,
          "internalType": "uint256",
          "name": "countryId",
          "type": "uint256"
        },
        {
          "indexed": false,
          "internalType": "uint256",
          "name": "resumedAt",
          "type": "uint256"
        }
      ],
      "name": "WhiteFlagResume",
      "type": "event"
    },
    {
      "inputs": [],
      "name": "PRICE_MIN",
      "outputs": [
        {
          "internalType": "uint64",
          "name": "",
          "type": "uint64"
        }
      ],
      "stateMutability": "view",
      "type": "function"
    },
    {
      "inputs": [],
      "name": "PRICE_PRECISION",
      "outputs": [
        {
          "internalType": "uint64",
          "name": "",
          "type": "uint64"
        }
      ],
      "stateMutability": "view",
      "type": "function"
    },
    {
      "inputs": [],
      "name": "SELL_FEE_BPS",
      "outputs": [
        {
          "internalType": "uint64",
          "name": "",
          "type": "uint64"
        }
      ],
      "stateMutability": "view",
      "type": "function"
    },
    {
      "inputs": [],
      "name": "TOTAL_SUPPLY_PER_COUNTRY",
      "outputs": [
        {
          "internalType": "uint32",
          "name": "",
          "type": "uint32"
        }
      ],
      "stateMutability": "view",
      "type": "function"
    },
    {
      "inputs": [
        {
          "internalType": "uint256",
          "name": "countryId",
          "type": "uint256"
        },
        {
          "internalType": "string",
          "name": "name",
          "type": "string"
        },
        {
          "internalType": "address",
          "name": "token",
          "type": "address"
        }
      ],
      "name": "addCountry",
      "outputs": [],
      "stateMutability": "nonpayable",
      "type": "function"
    },
    {
      "inputs": [
        {
          "internalType": "uint256",
          "name": "attackerId",
          "type": "uint256"
        },
        {
          "internalType": "uint256",
          "name": "targetId",
          "type": "uint256"
        }
      ],
      "name": "attack",
      "outputs": [],
      "stateMutability": "nonpayable",
      "type": "function"
    },
    {
      "inputs": [
        {
          "internalType": "uint256",
          "name": "countryId",
          "type": "uint256"
        },
        {
          "internalType": "uint256",
          "name": "amount",
          "type": "uint256"
        },
        {
          "internalType": "uint256",
          "name": "minOut",
          "type": "uint256"
        },
        {
          "internalType": "uint256",
          "name": "deadline",
          "type": "uint256"
        }
      ],
      "name": "buy",
      "outputs": [],
      "stateMutability": "payable",
      "type": "function"
    },
    {
      "inputs": [
        {
          "internalType": "address",
          "name": "wallet",
          "type": "address"
        },
        {
          "internalType": "uint256",
          "name": "countryId",
          "type": "uint256"
        }
      ],
      "name": "checkWF1Cooldown",
      "outputs": [
        {
          "internalType": "bool",
          "name": "",
          "type": "bool"
        },
        {
          "internalType": "uint256",
          "name": "",
          "type": "uint256"
        }
      ],
      "stateMutability": "view",
      "type": "function"
    },
    {
      "inputs": [],
      "name": "config",
      "outputs": [
        {
          "internalType": "address",
          "name": "payToken",
          "type": "address"
        },
        {
          "internalType": "address",
          "name": "whiteFlagService",
          "type": "address"
        }
      ],
      "stateMutability": "view",
      "type": "function"
    },
    {
      "inputs": [
        {
          "internalType": "address",
          "name": "",
          "type": "address"
        },
        {
          "internalType": "uint256",
          "name": "",
          "type": "uint256"
        }
      ],
      "name": "cooldowns",
      "outputs": [
        {
          "internalType": "uint256",
          "name": "lastSellTime",
          "type": "uint256"
        },
        {
          "internalType": "uint256",
          "name": "cooldownEndTime",
          "type": "uint256"
        },
        {
          "internalType": "uint256",
          "name": "tierApplied",
          "type": "uint256"
        }
      ],
      "stateMutability": "view",
      "type": "function"
    },
    {
      "inputs": [
        {
          "internalType": "uint256",
          "name": "",
          "type": "uint256"
        }
      ],
      "name": "countries",
      "outputs": [
        {
          "internalType": "string",
          "name": "name",
          "type": "string"
        },
        {
          "internalType": "address",
          "name": "token",
          "type": "address"
        },
        {
          "internalType": "uint256",
          "name": "price",
          "type": "uint256"
        },
        {
          "internalType": "uint256",
          "name": "attacks",
          "type": "uint256"
        },
        {
          "internalType": "bool",
          "name": "exists",
          "type": "bool"
        },
        {
          "internalType": "bool",
          "name": "isWhiteFlagHalted",
          "type": "bool"
        },
        {
          "internalType": "uint256",
          "name": "whiteFlagHaltedAt",
          "type": "uint256"
        }
      ],
      "stateMutability": "view",
      "type": "function"
    },
    {
      "inputs": [
        {
          "internalType": "uint256",
          "name": "",
          "type": "uint256"
        }
      ],
      "name": "countryDayData",
      "outputs": [
        {
          "internalType": "uint256",
          "name": "sellCount",
          "type": "uint256"
        },
        {
          "internalType": "uint256",
          "name": "buyCount",
          "type": "uint256"
        },
        {
          "internalType": "uint256",
          "name": "netSold",
          "type": "uint256"
        },
        {
          "internalType": "uint256",
          "name": "dayTimestamp",
          "type": "uint256"
        },
        {
          "internalType": "bool",
          "name": "isHalted",
          "type": "bool"
        },
        {
          "internalType": "uint256",
          "name": "haltedAt",
          "type": "uint256"
        }
      ],
      "stateMutability": "view",
      "type": "function"
    },
    {
      "inputs": [
        {
          "internalType": "uint256",
          "name": "",
          "type": "uint256"
        }
      ],
      "name": "countryTouched",
      "outputs": [
        {
          "internalType": "bool",
          "name": "",
          "type": "bool"
        }
      ],
      "stateMutability": "view",
      "type": "function"
    },
    {
      "inputs": [
        {
          "internalType": "address",
          "name": "token",
          "type": "address"
        },
        {
          "internalType": "uint256",
          "name": "amount",
          "type": "uint256"
        }
      ],
      "name": "emergencyWithdraw",
      "outputs": [],
      "stateMutability": "nonpayable",
      "type": "function"
    },
    {
      "inputs": [],
      "name": "getAntiDumpConstants",
      "outputs": [
        {
          "internalType": "uint256",
          "name": "tier1Threshold",
          "type": "uint256"
        },
        {
          "internalType": "uint256",
          "name": "tier1ExtraFee",
          "type": "uint256"
        },
        {
          "internalType": "uint256",
          "name": "tier1Cooldown",
          "type": "uint256"
        },
        {
          "internalType": "uint256",
          "name": "tier2Threshold",
          "type": "uint256"
        },
        {
          "internalType": "uint256",
          "name": "tier2ExtraFee",
          "type": "uint256"
        },
        {
          "internalType": "uint256",
          "name": "tier2Cooldown",
          "type": "uint256"
        },
        {
          "internalType": "uint256",
          "name": "tier3Threshold",
          "type": "uint256"
        },
        {
          "internalType": "uint256",
          "name": "tier3ExtraFee",
          "type": "uint256"
        },
        {
          "internalType": "uint256",
          "name": "tier3Cooldown",
          "type": "uint256"
        },
        {
          "internalType": "uint256",
          "name": "tier4Threshold",
          "type": "uint256"
        },
        {
          "internalType": "uint256",
          "name": "tier4ExtraFee",
          "type": "uint256"
        },
        {
          "internalType": "uint256",
          "name": "tier4Cooldown",
          "type": "uint256"
        }
      ],
      "stateMutability": "pure",
      "type": "function"
    },
    {
      "inputs": [],
      "name": "getConstants",
      "outputs": [
        {
          "internalType": "uint256",
          "name": "kappaTicks",
          "type": "uint256"
        },
        {
          "internalType": "uint256",
          "name": "lambdaTicks",
          "type": "uint256"
        },
        {
          "internalType": "uint64",
          "name": "priceMin",
          "type": "uint64"
        },
        {
          "internalType": "uint64",
          "name": "pricePrecision",
          "type": "uint64"
        },
        {
          "internalType": "uint32",
          "name": "totalSupplyPerCountry",
          "type": "uint32"
        }
      ],
      "stateMutability": "pure",
      "type": "function"
    },
    {
      "inputs": [
        {
          "internalType": "uint256",
          "name": "countryId",
          "type": "uint256"
        }
      ],
      "name": "getCountryDayData",
      "outputs": [
        {
          "internalType": "uint256",
          "name": "sellCount",
          "type": "uint256"
        },
        {
          "internalType": "uint256",
          "name": "buyCount",
          "type": "uint256"
        },
        {
          "internalType": "uint256",
          "name": "netSold",
          "type": "uint256"
        },
        {
          "internalType": "uint256",
          "name": "dayTimestamp",
          "type": "uint256"
        },
        {
          "internalType": "bool",
          "name": "isHalted",
          "type": "bool"
        },
        {
          "internalType": "uint256",
          "name": "haltedAt",
          "type": "uint256"
        }
      ],
      "stateMutability": "view",
      "type": "function"
    },
    {
      "inputs": [
        {
          "internalType": "address",
          "name": "wallet",
          "type": "address"
        },
        {
          "internalType": "uint256",
          "name": "countryId",
          "type": "uint256"
        }
      ],
      "name": "getWalletDayData",
      "outputs": [
        {
          "internalType": "uint256",
          "name": "countrySellCount",
          "type": "uint256"
        },
        {
          "internalType": "uint256",
          "name": "totalSellCount",
          "type": "uint256"
        },
        {
          "internalType": "uint256",
          "name": "dayTimestamp",
          "type": "uint256"
        }
      ],
      "stateMutability": "view",
      "type": "function"
    },
    {
      "inputs": [],
      "name": "getWhiteFlagConstants",
      "outputs": [
        {
          "internalType": "uint256",
          "name": "countryThreshold",
          "type": "uint256"
        },
        {
          "internalType": "uint256",
          "name": "globalThreshold",
          "type": "uint256"
        },
        {
          "internalType": "uint256",
          "name": "cooldownHours",
          "type": "uint256"
        },
        {
          "internalType": "uint256",
          "name": "netSoldThreshold",
          "type": "uint256"
        },
        {
          "internalType": "uint256",
          "name": "haltHours",
          "type": "uint256"
        }
      ],
      "stateMutability": "view",
      "type": "function"
    },
    {
      "inputs": [
        {
          "internalType": "uint256",
          "name": "countryId",
          "type": "uint256"
        }
      ],
      "name": "isCountryWhiteFlagHalted",
      "outputs": [
        {
          "internalType": "bool",
          "name": "",
          "type": "bool"
        }
      ],
      "stateMutability": "view",
      "type": "function"
    },
    {
      "inputs": [],
      "name": "owner",
      "outputs": [
        {
          "internalType": "address",
          "name": "",
          "type": "address"
        }
      ],
      "stateMutability": "view",
      "type": "function"
    },
    {
      "inputs": [
        {
          "internalType": "uint256",
          "name": "",
          "type": "uint256"
        }
      ],
      "name": "remainingSupply",
      "outputs": [
        {
          "internalType": "uint32",
          "name": "",
          "type": "uint32"
        }
      ],
      "stateMutability": "view",
      "type": "function"
    },
    {
      "inputs": [],
      "name": "renounceOwnership",
      "outputs": [],
      "stateMutability": "nonpayable",
      "type": "function"
    },
    {
      "inputs": [
        {
          "internalType": "uint256",
          "name": "countryId",
          "type": "uint256"
        }
      ],
      "name": "resumeCountry",
      "outputs": [],
      "stateMutability": "nonpayable",
      "type": "function"
    },
    {
      "inputs": [
        {
          "internalType": "uint256",
          "name": "countryId",
          "type": "uint256"
        },
        {
          "internalType": "uint256",
          "name": "amount",
          "type": "uint256"
        },
        {
          "internalType": "uint256",
          "name": "minOut",
          "type": "uint256"
        },
        {
          "internalType": "uint256",
          "name": "deadline",
          "type": "uint256"
        }
      ],
      "name": "sell",
      "outputs": [],
      "stateMutability": "nonpayable",
      "type": "function"
    },
    {
      "inputs": [
        {
          "internalType": "address",
          "name": "payToken",
          "type": "address"
        }
      ],
      "name": "setPayToken",
      "outputs": [],
      "stateMutability": "nonpayable",
      "type": "function"
    },
    {
      "inputs": [
        {
          "internalType": "address",
          "name": "whiteFlagService",
          "type": "address"
        }
      ],
      "name": "setWhiteFlagService",
      "outputs": [],
      "stateMutability": "nonpayable",
      "type": "function"
    },
    {
      "inputs": [
        {
          "internalType": "address",
          "name": "newOwner",
          "type": "address"
        }
      ],
      "name": "transferOwnership",
      "outputs": [],
      "stateMutability": "nonpayable",
      "type": "function"
    },
    {
      "inputs": [
        {
          "internalType": "string",
          "name": "configKey",
          "type": "string"
        },
        {
          "internalType": "uint256",
          "name": "newValue",
          "type": "uint256"
        }
      ],
      "name": "updateWhiteFlagConfig",
      "outputs": [],
      "stateMutability": "nonpayable",
      "type": "function"
    },
    {
      "inputs": [
        {
          "internalType": "address",
          "name": "",
          "type": "address"
        },
        {
          "internalType": "uint256",
          "name": "",
          "type": "uint256"
        }
      ],
      "name": "userBalances",
      "outputs": [
        {
          "internalType": "uint32",
          "name": "",
          "type": "uint32"
        }
      ],
      "stateMutability": "view",
      "type": "function"
    },
    {
      "inputs": [
        {
          "internalType": "address",
          "name": "",
          "type": "address"
        },
        {
          "internalType": "uint256",
          "name": "",
          "type": "uint256"
        }
      ],
      "name": "walletDayData",
      "outputs": [
        {
          "internalType": "uint256",
          "name": "countrySellCount",
          "type": "uint256"
        },
        {
          "internalType": "uint256",
          "name": "totalSellCount",
          "type": "uint256"
        },
        {
          "internalType": "uint256",
          "name": "dayTimestamp",
          "type": "uint256"
        }
      ],
      "stateMutability": "view",
      "type": "function"
    },
    {
      "inputs": [],
      "name": "wf1CooldownHours",
      "outputs": [
        {
          "internalType": "uint256",
          "name": "",
          "type": "uint256"
        }
      ],
      "stateMutability": "view",
      "type": "function"
    },
    {
      "inputs": [],
      "name": "wf1CountryThreshold",
      "outputs": [
        {
          "internalType": "uint256",
          "name": "",
          "type": "uint256"
        }
      ],
      "stateMutability": "view",
      "type": "function"
    },
    {
      "inputs": [],
      "name": "wf1GlobalThreshold",
      "outputs": [
        {
          "internalType": "uint256",
          "name": "",
          "type": "uint256"
        }
      ],
      "stateMutability": "view",
      "type": "function"
    },
    {
      "inputs": [],
      "name": "wf2HaltHours",
      "outputs": [
        {
          "internalType": "uint256",
          "name": "",
          "type": "uint256"
        }
      ],
      "stateMutability": "view",
      "type": "function"
    },
    {
      "inputs": [],
      "name": "wf2NetSoldThreshold",
      "outputs": [
        {
          "internalType": "uint256",
          "name": "",
          "type": "uint256"
        }
      ],
      "stateMutability": "view",
      "type": "function"
    }
  ],
  "bytecode": "0x6080806040523461007857600160008181558154336001600160a01b0319821681179093556001600160a01b0316907f8be0079c531659141344cd1fd0a4f28419497f9722a3daafe3b4186f6b6457e09080a3606460025560fa6003556018600455610fa06005556008600655612375908161007e8239f35b600080fdfe608080604052600436101561001357600080fd5b60003560e01c90816308e9daa514611af5575080631281311d1461176f5780632b568fcd1461031a57806330c4595f146117515780633620875e1461112f57806347fda41a146110fd5780634f0150ac1461102657806360512a5f146110085780636e61a4a114610fd75780636f16a59514610fb95780636f96e99c14610f76578063701f075c1461093a578063715018a614610f195780637517665514610c3f57806379502c5514610c0c5780637d67f42214610bee578063857eb6db14610bab5780638bebaa4314610b8d5780638da5cb5b14610b645780639403564714610af157806395082d2514610ad25780639560e12f14610a6957806395ccea6714610a2a57806396dfec7c14610a0d5780639731aa2e146109f05780639a295e73146109b05780639c4477ab1461093a578063b88510cc146108fa578063c3390878146105dc578063dbe22dbc146105b4578063e1fa763814610387578063e3ef2d921461031a578063e803ea80146102fc578063edc6fd0a146102c7578063f2fde38b146101fe5763fa3bdc46146101ab57600080fd5b346101f95760403660031901126101f9576001600160a01b036101cc611ce3565b1660005260086020526040600020602435600052602052602063ffffffff60406000205416604051908152f35b600080fd5b346101f95760203660031901126101f957610217611ce3565b61021f6120f2565b6001600160a01b0390811690811561027357600154826bffffffffffffffffffffffff60a01b821617600155167f8be0079c531659141344cd1fd0a4f28419497f9722a3daafe3b4186f6b6457e0600080a3005b60405162461bcd60e51b815260206004820152602660248201527f4f776e61626c653a206e6577206f776e657220697320746865207a65726f206160448201526564647265737360d01b6064820152608490fd5b346101f95760403660031901126101f95760406102ee6102e5611ce3565b60243590611f37565b825191151582526020820152f35b346101f95760003660031901126101f9576020600454604051908152f35b346101f95760403660031901126101f9576001600160a01b0361033b611ce3565b16600052600c60205260406000206024356000526020526040600020805461038360026001840154930154604051938493846040919493926060820195825260208201520152565b0390f35b346101f95760403660031901126101f9576024356004356103a6611ff1565b81811461058257806000526007602052604060002082600052604060002060ff600483015416158015610573575b61053c576103e184611edc565b6104f757600282018054621e848081106104cb57506003620186a0928162061a80955b600e5461041f908890309033906001600160a01b0316612047565b61042a868654611eb3565b620f424090808211156104c65750805b865561044b60028501978854611eb3565b808211156104bf57505b8655016104628154611f28565b90550161046f8154611f28565b905567ffffffffffffffff8091541691541690604051928352602083015260408201527fbd4c28a2b474c002039cb5b265a280b4298fc827345d2ed51882ff574637c10560603392a46001600055005b9050610455565b61043a565b6216e360116104e6576003620124f892816205573095610404565b600361c3509281620493e095610404565b60405162461bcd60e51b815260206004820152601c60248201527f546172676574436f756e7472795768697465466c616748616c746564000000006044820152606490fd5b60405162461bcd60e51b815260206004820152600f60248201526e10dbdd5b9d1c9e539bdd119bdd5b99608a1b6044820152606490fd5b5060ff600482015416156103d4565b60405162461bcd60e51b815260206004820152600a60248201526953656c6641747461636b60b01b6044820152606490fd5b346101f95760203660031901126101f95760206105d2600435611edc565b6040519015158152f35b346101f95760403660031901126101f95760043567ffffffffffffffff81116101f95761060d903690600401611cf9565b602435916106196120f2565b6040519260209384810190848483376106418682878101600083820152038084520182611c63565b51902060405185810190741dd98c57d8dbdd5b9d1c9e57dd1a1c995cda1bdb19605a1b82526015815261067381611c47565b519020036106cc5790826080926000805160206123208339815191529560025490826002555b604051968795606087528160608801528787013760008585018701528401526040830152601f01601f19168101030190a1005b60405184810190848483376106f08682878101600083820152038084520182611c63565b51902060405185810190731dd98c57d9db1bd8985b17dd1a1c995cda1bdb1960621b82526014815261072181611c47565b5190200361074b579082608092600080516020612320833981519152956003549082600355610699565b604051848101908484833761076f8682878101600083820152038084520182611c63565b51902060405185810190717766315f636f6f6c646f776e5f686f75727360701b82526012815261079e81611c47565b519020036107c8579082608092600080516020612320833981519152956004549082600455610699565b60405184810190848483376107ec8682878101600083820152038084520182611c63565b51902060405185810190751dd98c97db995d17dcdbdb1917dd1a1c995cda1bdb1960521b82526016815261081f81611c47565b51902003610849579082608092600080516020612320833981519152956005549082600555610699565b604051848101908484833761086d8682878101600083820152038084520182611c63565b519020604051858101906d7766325f68616c745f686f75727360901b8252600e815261089881611c47565b519020036108c2579082608092600080516020612320833981519152956006549082600655610699565b60405162461bcd60e51b815260048101859052601060248201526f496e76616c6964436f6e6669674b657960801b6044820152606490fd5b346101f95760003660031901126101f95760a060025460035460045460055490600654926040519485526020850152604084015260608301526080820152f35b346101f95760203660031901126101f957600435600052600d602052604060002080546103836001830154926002810154906003810154600560ff60048401541692015492604051968796879260a094919796959260c08501988552602085015260408401526060830152151560808201520152565b346101f95760003660031901126101f95760a060405161d6d8815261d8fe6020820152620f424060408201526305f5e100606082015261c3506080820152f35b346101f95760003660031901126101f95760206040516101f48152f35b346101f95760003660031901126101f957602060405161c3508152f35b346101f95760403660031901126101f957610a67610a46611ce3565b610a4e6120f2565b600154602435916001600160a01b0391821691166120a2565b005b346101f95760403660031901126101f9576001600160a01b03610a8a611ce3565b16600052600b60205260406000206024356000526020526040600020805461038360026001840154930154604051938493846040919493926060820195825260208201520152565b346101f95760003660031901126101f95760206040516305f5e1008152f35b346101f95760003660031901126101f9576101806040516101f48082526020820152603c60408201526103e86060820152610320608082015261012c60a08201526105dc8060c08301526104b08060e08401526101008301526109c4610120830152610140820152613840610160820152f35b346101f95760003660031901126101f9576001546040516001600160a01b039091168152602090f35b346101f95760003660031901126101f9576020600254604051908152f35b346101f95760203660031901126101f957610bc4611ce3565b610bcc6120f2565b600f80546001600160a01b0319166001600160a01b0392909216919091179055005b346101f95760003660031901126101f9576020600654604051908152f35b346101f95760003660031901126101f957600e54600f54604080516001600160a01b039384168152919092166020820152f35b346101f95760603660031901126101f95767ffffffffffffffff6024358181116101f957610c71903690600401611cf9565b906044356001600160a01b03811691908290036101f957610c906120f2565b600435600052600760205260ff60046040600020015416610ee4576040519260e0840184811086821117610ece57604052610cca81611ec0565b91610cd86040519384611c63565b81835236828201116101f95781600092602092838601378301015282526020820152620f424060408201526000606082015260016080820152600060a0820152600060c0820152600435600052600760205260406000209181518051918211610ece57610d458454611c0d565b601f8111610e8a575b50602090601f8311600114610e1b5791806005949260c094600092610e10575b50508160011b916000199060031b1c19161784555b6001840160018060a01b036020830151166bffffffffffffffffffffffff60a01b82541617905560408101516002850155606081015160038501556004840160808201511515815460ff61ff0060a0860151151560081b1692169061ffff19161717905501519101556004356000526009602052604060002061c35063ffffffff19825416179055600080f35b015190508680610d6e565b908460005260206000209160005b601f1985168110610e725750926005949260019260c09583601f19811610610e59575b505050811b018455610d83565b015160001960f88460031b161c19169055868080610e4c565b91926020600181928685015181550194019201610e29565b846000526020600020601f840160051c810160208510610ec7575b601f830160051c82018110610ebb575050610d4e565b60008155600101610ea5565b5080610ea5565b634e487b7160e01b600052604160045260246000fd5b60405162461bcd60e51b815260206004820152600d60248201526c436f756e74727945786973747360981b6044820152606490fd5b346101f95760003660031901126101f957610f326120f2565b600180546001600160a01b031981169091556000906001600160a01b03167f8be0079c531659141344cd1fd0a4f28419497f9722a3daafe3b4186f6b6457e08280a3005b346101f95760203660031901126101f957610f8f611ce3565b610f976120f2565b600e80546001600160a01b0319166001600160a01b0392909216919091179055005b346101f95760003660031901126101f9576020604051620f42408152f35b346101f95760203660031901126101f957600435600052600a602052602060ff604060002054166040519015158152f35b346101f95760003660031901126101f9576020600554604051908152f35b346101f9576020806003193601126101f957600435906110446120f2565b816000526007815261106060ff60046040600020015416611da2565b816000526007815260ff60046040600020015460081c16156110c6577fd2f4b14b7530fe433f1010270f8984c9a1855abf078d0c43f31452d8ae9db68590826000526007815260006005604082206004810161ff001981541690550155604051428152a2005b6064906040519062461bcd60e51b82526004820152601060248201526f10dbdd5b9d1c9e539bdd12185b1d195960821b6044820152fd5b346101f95760203660031901126101f9576004356000526009602052602063ffffffff60406000205416604051908152f35b346101f95761115561114036611cc5565b61114d9491929394611ff1565b421115611d27565b81156111618115611d66565b836000526007602052604060002061117f60ff600483015416611da2565b3360005260086020526040600020856000526020528363ffffffff604060002054161061170c576111b86111b286611edc565b15611de1565b6111c28533611f37565b506116c75733600052600b602052604060002085600052602052604060002092600184015442106116915785600052600960205263ffffffff604060002054168061c350039063ffffffff82116115d05763ffffffff9161122291611e9b565b166127109384870290878204861417156115d057811561167b576000918291829190046109c4811061161b57505050506105dc91613840946004915b60028101549283616c7e198101116115d05761127f89616c7e198601611e33565b956101f4908188029188830414881517156115d0576112b791896112a66112b0938b611e33565b04998a9104611e26565b8097611eb3565b94620f424086106115e6576112ce90861015611e46565b600e546112ea90606487049033906001600160a01b03166120a2565b600282015461d8fe93848b8102048b036115d05761130f600295928c87940290611eb3565b80620f4240116000146115cb5750620f42405b8285015533600052600860205260406000208c6000526020528a604060002063ffffffff6113568183549416828516611e85565b1663ffffffff198093161790558c60005260096020528b60406000209163ffffffff6113888185549416828516611e9b565b1691161790558b600052600a6020526040600020600160ff198254161790554281556113b48a42611e26565b6001820155015560016113c561214a565b33600052600c60205260406000208b6000526020526040600020908085830154036115b7575b506113f78a8254611e26565b815501611405898254611e26565b90558861141061214a565b81600052600d602052604060002090600382018181540361156f575b50506114398a8254611e26565b81558381016114498b8254611e26565b918282556004810180549360ff8516159081611563575b506114d8575b505050505067ffffffffffffffff9182910154169163ffffffff60405198168852616c7e190116602087015260408601526060850152608084015260a083015260c08201527fba926bc9beb6260c95a8c71c06967e237e9e344777252e99ed25e67bcb86217460e03392a36001600055005b60017f818968fd7de116d42d625f188a813960b06331efd7677d17a7b000093ba8fab69460ff191617905560054291015582600052600760205260406000206004810161010061ff00198254161790556005429101555460055490611556600654604051938493846040919493926060820195825260208201520152565b0390a2888a808080611466565b9050600554108f611460565b5560008155600060018201556000848201556004810160ff19815416905560006005820155600760205260006005604082206004810161ff0019815416905501558b8061142c565b84820155600081556000828201558b6113eb565b611322565b634e487b7160e01b600052601160045260246000fd5b60405162461bcd60e51b815260206004820152600d60248201526c135a5b94d95b1b139bdd13595d609a1b6044820152606490fd5b6105dc811061163657505050506104b091829460039161125e565b6103e8811061165357505050506103209161012c9460029161125e565b6101f49792959193978091101561166b575b5061125e565b603c975094506001925089611665565b634e487b7160e01b600052601260045260246000fd5b60405162461bcd60e51b815260206004820152600e60248201526d436f6f6c646f776e41637469766560901b6044820152606490fd5b60405162461bcd60e51b815260206004820152601760248201527f5768697465466c6167436f6f6c646f776e4163746976650000000000000000006044820152606490fd5b60405162461bcd60e51b815260206004820152601760248201527f496e73756666696369656e745573657242616c616e63650000000000000000006044820152606490fd5b346101f95760003660031901126101f9576020600354604051908152f35b61178761177b36611cc5565b61114d94919394611ff1565b611792811515611d66565b82600052602091600783526040600020926117b360ff600486015416611da2565b846000526009815263ffffffff9383856040600020541610611ab9576002906117de6111b288611edc565b01805492616b6c84018094116115d0576117f88585611e33565b94620f424091828710611a855761181190871015611e46565b600e5461182f906064880490309033906001600160a01b0316612047565b82549161d6d89282840293840483036115d057899361184d91611e26565b80821115611a7e57505b83558681169682600052600985526040600020908154918161187b8b828616611e85565b1663ffffffff19809416179055336000526008865260406000208460005286526040600020918254916118b08b828516611e9b565b16911617905581600052600a845260406000209060ff19916001838254161790556118d961214a565b9083600052600d86526040600020916003830181815403611a38575b505061190660018301918254611e26565b809155815490808211600014611a2e5761191f91611eb3565b905b6002810191808355600482019081549060ff8216159081611a22575b50611999575b50505050505067ffffffffffffffff80915416926040519586521690840152604083015260608201527f9febc90f707688807fcfe1892e5d4d877ab245ff63286cf884e3e91abb2836ac60803392a36001600055005b7f818968fd7de116d42d625f188a813960b06331efd7677d17a7b000093ba8fab69460019116179055600542910155826000526007855260406000206004810161010061ff00198254161790556005429101555460055490611a14600654604051938493846040919493926060820195825260208201520152565b0390a2858780808080611943565b9050600554108d61193d565b5050600090611921565b5560008255600060018301556000600283015560048201838154169055600060058301556007865260006005604082206004810161ff0019815416905501558a806118f5565b9050611857565b60405162461bcd60e51b815260048101869052600c60248201526b135a5b909d5e539bdd13595d60a21b6044820152606490fd5b60405162461bcd60e51b8152600481018390526014602482015273496e73756666696369656e74547265617375727960601b6044820152606490fd5b346101f957602090816003193601126101f957600435600052600782526040600020916000928054611b2681611c0d565b80855290600190818116908115611bef5750600114611bb7575b5050611b5183611b8b950384611c63565b60ff60018060a01b03600183015416916002810154600382015490600560048401549301549460405198899860e08a5260e08a0190611c85565b96880152604087015260608601528181161515608086015260081c16151560a084015260c08301520390f35b60008381528481209096505b828710611bdc57505050928201810192611b5183611b40565b8054868801860152958401958101611bc3565b60ff1916858701525050151560051b830182019350611b5183611b40565b90600182811c92168015611c3d575b6020831014611c2757565b634e487b7160e01b600052602260045260246000fd5b91607f1691611c1c565b6040810190811067ffffffffffffffff821117610ece57604052565b90601f8019910116810190811067ffffffffffffffff821117610ece57604052565b919082519283825260005b848110611cb1575050826000602080949584010152601f8019910116010190565b602081830181015184830182015201611c90565b60809060031901126101f95760043590602435906044359060643590565b600435906001600160a01b03821682036101f957565b9181601f840112156101f95782359167ffffffffffffffff83116101f957602083818601950101116101f957565b15611d2e57565b60405162461bcd60e51b815260206004820152601060248201526f111958591b1a5b99515e18d95959195960821b6044820152606490fd5b15611d6d57565b60405162461bcd60e51b815260206004820152600d60248201526c125b9d985b1a59105b5bdd5b9d609a1b6044820152606490fd5b15611da957565b60405162461bcd60e51b815260206004820152601060248201526f436f756e7472794e6f7445786973747360801b6044820152606490fd5b15611de857565b60405162461bcd60e51b815260206004820152601660248201527510dbdd5b9d1c9e55da1a5d19519b1859d2185b1d195960521b6044820152606490fd5b919082018092116115d057565b818102929181159184041417156115d057565b15611e4d57565b60405162461bcd60e51b815260206004820152601060248201526f14db1a5c1c1859d9515e18d95959195960821b6044820152606490fd5b63ffffffff91821690821603919082116115d057565b91909163ffffffff808094169116019182116115d057565b919082039182116115d057565b67ffffffffffffffff8111610ece57601f01601f191660200190565b6000526007602052604060002060ff600482015460081c1615611f225760050154600654610e10908181029181830414901517156115d057611f1d91611e26565b421090565b50600090565b60001981146115d05760010190565b9190611f4161214a565b9060009360018060a01b03168452600c602052604084209084526020526040832081600282015403611feb5780546002541115611fc757600101546003541115611f8a57508190565b60045490610e1091828102928184041490151715611fb357611fad929350611e26565b42811191565b634e487b7160e01b84526011600452602484fd5b5060045490610e1091828102928184041490151715611fb357611fad929350611e26565b50508190565b600260005414612002576002600055565b60405162461bcd60e51b815260206004820152601f60248201527f5265656e7472616e637947756172643a207265656e7472616e742063616c6c006044820152606490fd5b6040516323b872dd60e01b60208201526001600160a01b03928316602482015292909116604483015260648083019390935291815260a081019181831067ffffffffffffffff841117610ece576120a092604052612164565b565b60405163a9059cbb60e01b60208201526001600160a01b039092166024830152604480830193909352918152608081019167ffffffffffffffff831182841017610ece576120a092604052612164565b6001546001600160a01b0316330361210657565b606460405162461bcd60e51b815260206004820152602060248201527f4f776e61626c653a2063616c6c6572206973206e6f7420746865206f776e65726044820152fd5b620151808042048181029181830414901517156115d05790565b60018060a01b0316906121e160405161217c81611c47565b6020938482527f5361666545524332303a206c6f772d6c6576656c2063616c6c206661696c6564858301526000808587829751910182855af13d1561227e573d916121c683611ec0565b926121d46040519485611c63565b83523d868885013e612282565b805191821591848315612253575b5050509050156121fc5750565b6084906040519062461bcd60e51b82526004820152602a60248201527f5361666545524332303a204552433230206f7065726174696f6e20646964206e6044820152691bdd081cdd58d8d9595960b21b6064820152fd5b91938180945001031261227a578201519081151582036122775750803880846121ef565b80fd5b5080fd5b6060915b919290156122e45750815115612296575090565b3b1561229f5790565b60405162461bcd60e51b815260206004820152601d60248201527f416464726573733a2063616c6c20746f206e6f6e2d636f6e74726163740000006044820152606490fd5b8251909150156122f75750805190602001fd5b60405162461bcd60e51b81526020600482015290819061231b906024830190611c85565b0390fdfe65e8a60b2bd2066c0b6ee8aa527bd19d67d8086e06871d2530033ba3360fb526a2646970667358221220978970514290f0846b99cf5b5ee42b0b963611ce3055e9e278b9890c17752f2564736f6c63430008180033",
  "linkReferences": {},
  "deployedLinkReferences": {}
}