{
  "_format": "hh-sol-artifact-1",
  "contractName": "FlagWarsTokenNonTransferable",
  "sourceName": "contracts/FlagWarsTokenNonTransferable.sol",
  "abi": [
    {
      "inputs": [
        {
          "internalType": "string",
          "name": "name",
          "type": "string"
        },
        {
          "internalType": "string",
          "name": "symbol",
          "type": "string"
        },
        {
          "internalType": "address",
          "name": "_coreContract",
          "type": "address"
        }
      ],
      "stateMutability": "nonpayable",
      "type": "constructor"
    },
    {
      "inputs": [],
      "name": "NonTransferable",
      "type": "error"
    },
    {
      "inputs": [],
      "name": "OnlyCoreContract",
      "type": "error"
    },
    {
      "anonymous": false,
      "inputs": [
        {
          "indexed": true,
          "internalType": "address",
          "name": "owner",
          "type": "address"
        },
        {
          "indexed": true,
          "internalType": "address",
          "name": "spender",
          "type": "address"
        },
        {
          "indexed": false,
          "internalType": "uint256",
          "name": "value",
          "type": "uint256"
        }
      ],
      "name": "Approval",
      "type": "event"
    },
    {
      "anonymous": false,
      "inputs": [
        {
          "indexed": true,
          "internalType": "address",
          "name": "previousOwner",
          "type": "address"
        },
        {
          "indexed": true,
          "internalType": "address",
          "name": "newOwner",
          "type": "address"
        }
      ],
      "name": "OwnershipTransferred",
      "type": "event"
    },
    {
      "anonymous": false,
      "inputs": [
        {
          "indexed": true,
          "internalType": "address",
          "name": "from",
          "type": "address"
        },
        {
          "indexed": true,
          "internalType": "address",
          "name": "to",
          "type": "address"
        },
        {
          "indexed": false,
          "internalType": "uint256",
          "name": "value",
          "type": "uint256"
        }
      ],
      "name": "Transfer",
      "type": "event"
    },
    {
      "anonymous": false,
      "inputs": [
        {
          "indexed": true,
          "internalType": "address",
          "name": "from",
          "type": "address"
        },
        {
          "indexed": true,
          "internalType": "address",
          "name": "to",
          "type": "address"
        },
        {
          "indexed": false,
          "internalType": "uint256",
          "name": "amount",
          "type": "uint256"
        },
        {
          "indexed": false,
          "internalType": "string",
          "name": "reason",
          "type": "string"
        }
      ],
      "name": "TransferBlocked",
      "type": "event"
    },
    {
      "inputs": [
        {
          "internalType": "address",
          "name": "owner",
          "type": "address"
        },
        {
          "internalType": "address",
          "name": "spender",
          "type": "address"
        }
      ],
      "name": "allowance",
      "outputs": [
        {
          "internalType": "uint256",
          "name": "",
          "type": "uint256"
        }
      ],
      "stateMutability": "view",
      "type": "function"
    },
    {
      "inputs": [
        {
          "internalType": "address",
          "name": "spender",
          "type": "address"
        },
        {
          "internalType": "uint256",
          "name": "amount",
          "type": "uint256"
        }
      ],
      "name": "approve",
      "outputs": [
        {
          "internalType": "bool",
          "name": "",
          "type": "bool"
        }
      ],
      "stateMutability": "pure",
      "type": "function"
    },
    {
      "inputs": [
        {
          "internalType": "address",
          "name": "account",
          "type": "address"
        }
      ],
      "name": "balanceOf",
      "outputs": [
        {
          "internalType": "uint256",
          "name": "",
          "type": "uint256"
        }
      ],
      "stateMutability": "view",
      "type": "function"
    },
    {
      "inputs": [
        {
          "internalType": "address",
          "name": "from",
          "type": "address"
        },
        {
          "internalType": "uint256",
          "name": "amount",
          "type": "uint256"
        }
      ],
      "name": "burn",
      "outputs": [],
      "stateMutability": "nonpayable",
      "type": "function"
    },
    {
      "inputs": [],
      "name": "coreContract",
      "outputs": [
        {
          "internalType": "address",
          "name": "",
          "type": "address"
        }
      ],
      "stateMutability": "view",
      "type": "function"
    },
    {
      "inputs": [],
      "name": "decimals",
      "outputs": [
        {
          "internalType": "uint8",
          "name": "",
          "type": "uint8"
        }
      ],
      "stateMutability": "view",
      "type": "function"
    },
    {
      "inputs": [
        {
          "internalType": "address",
          "name": "spender",
          "type": "address"
        },
        {
          "internalType": "uint256",
          "name": "subtractedValue",
          "type": "uint256"
        }
      ],
      "name": "decreaseAllowance",
      "outputs": [
        {
          "internalType": "bool",
          "name": "",
          "type": "bool"
        }
      ],
      "stateMutability": "pure",
      "type": "function"
    },
    {
      "inputs": [
        {
          "internalType": "address",
          "name": "spender",
          "type": "address"
        },
        {
          "internalType": "uint256",
          "name": "addedValue",
          "type": "uint256"
        }
      ],
      "name": "increaseAllowance",
      "outputs": [
        {
          "internalType": "bool",
          "name": "",
          "type": "bool"
        }
      ],
      "stateMutability": "pure",
      "type": "function"
    },
    {
      "inputs": [
        {
          "internalType": "address",
          "name": "to",
          "type": "address"
        },
        {
          "internalType": "uint256",
          "name": "amount",
          "type": "uint256"
        }
      ],
      "name": "mint",
      "outputs": [],
      "stateMutability": "nonpayable",
      "type": "function"
    },
    {
      "inputs": [],
      "name": "name",
      "outputs": [
        {
          "internalType": "string",
          "name": "",
          "type": "string"
        }
      ],
      "stateMutability": "view",
      "type": "function"
    },
    {
      "inputs": [],
      "name": "owner",
      "outputs": [
        {
          "internalType": "address",
          "name": "",
          "type": "address"
        }
      ],
      "stateMutability": "view",
      "type": "function"
    },
    {
      "inputs": [],
      "name": "renounceOwnership",
      "outputs": [],
      "stateMutability": "nonpayable",
      "type": "function"
    },
    {
      "inputs": [],
      "name": "symbol",
      "outputs": [
        {
          "internalType": "string",
          "name": "",
          "type": "string"
        }
      ],
      "stateMutability": "view",
      "type": "function"
    },
    {
      "inputs": [],
      "name": "totalSupply",
      "outputs": [
        {
          "internalType": "uint256",
          "name": "",
          "type": "uint256"
        }
      ],
      "stateMutability": "view",
      "type": "function"
    },
    {
      "inputs": [
        {
          "internalType": "address",
          "name": "to",
          "type": "address"
        },
        {
          "internalType": "uint256",
          "name": "amount",
          "type": "uint256"
        }
      ],
      "name": "transfer",
      "outputs": [
        {
          "internalType": "bool",
          "name": "",
          "type": "bool"
        }
      ],
      "stateMutability": "pure",
      "type": "function"
    },
    {
      "inputs": [
        {
          "internalType": "address",
          "name": "from",
          "type": "address"
        },
        {
          "internalType": "address",
          "name": "to",
          "type": "address"
        },
        {
          "internalType": "uint256",
          "name": "amount",
          "type": "uint256"
        }
      ],
      "name": "transferFrom",
      "outputs": [
        {
          "internalType": "bool",
          "name": "",
          "type": "bool"
        }
      ],
      "stateMutability": "pure",
      "type": "function"
    },
    {
      "inputs": [
        {
          "internalType": "address",
          "name": "newOwner",
          "type": "address"
        }
      ],
      "name": "transferOwnership",
      "outputs": [],
      "stateMutability": "nonpayable",
      "type": "function"
    }
  ],
  "bytecode": "0x60a0604052346200038f5762000d53803803806200001d8162000394565b92833981016060828203126200038f5781516001600160401b0391908281116200038f57816200004f918501620003ba565b602091828501518481116200038f576040916200006e918701620003ba565b9401516001600160a01b039490939085851685036200038f5782518281116200028f576003918254916001958684811c9416801562000384575b888510146200036e578190601f9485811162000318575b508890858311600114620002b157600092620002a5575b505060001982861b1c191690861b1783555b80519384116200028f5760049586548681811c9116801562000284575b828210146200026f5783811162000224575b5080928511600114620001b65750938394918492600095620001aa575b50501b92600019911b1c19161790555b60058054336001600160a01b03198216811790925560405193167f8be0079c531659141344cd1fd0a4f28419497f9722a3daafe3b4186f6b6457e0600080a360805261092690816200042d82396080518181816101c10152818161026c01526105a90152f35b01519350388062000134565b92919084601f1981168860005285600020956000905b89838310620002095750505010620001ee575b50505050811b01905562000144565b01519060f884600019921b161c1916905538808080620001df565b858701518955909701969485019488935090810190620001cc565b87600052816000208480880160051c82019284891062000265575b0160051c019087905b8281106200025857505062000117565b6000815501879062000248565b925081926200023f565b602288634e487b7160e01b6000525260246000fd5b90607f169062000105565b634e487b7160e01b600052604160045260246000fd5b015190503880620000d6565b90889350601f19831691876000528a6000209260005b8c828210620003015750508411620002e8575b505050811b018355620000e8565b015160001983881b60f8161c19169055388080620002da565b8385015186558c97909501949384019301620002c7565b90915085600052886000208580850160051c8201928b861062000364575b918a91869594930160051c01915b82811062000354575050620000bf565b600081558594508a910162000344565b9250819262000336565b634e487b7160e01b600052602260045260246000fd5b93607f1693620000a8565b600080fd5b6040519190601f01601f191682016001600160401b038111838210176200028f57604052565b919080601f840112156200038f5782516001600160401b0381116200028f57602090620003f0601f8201601f1916830162000394565b928184528282870101116200038f5760005b8181106200041857508260009394955001015290565b85810183015184820184015282016200040256fe6080604081815260048036101561001557600080fd5b600092833560e01c90816306fdde03146106fb57508063095ea7b31461023d57806318160ddd146106dc57806323b872dd146106a9578063313ce5671461068d578063395093511461023d57806340c10f191461057f57806370a0823114610548578063715018a6146104e85780638da5cb5b146104bf57806395d89b411461039d5780639dc29fac14610242578063a457c2d71461023d578063a9059cbb1461023d578063dd62ed3e146101f4578063e80db5db146101ac5763f2fde38b146100de57600080fd5b346101a85760203660031901126101a8576100f761083b565b90610100610898565b6001600160a01b03918216928315610156575050600554826bffffffffffffffffffffffff60a01b821617600555167f8be0079c531659141344cd1fd0a4f28419497f9722a3daafe3b4186f6b6457e08380a380f35b906020608492519162461bcd60e51b8352820152602660248201527f4f776e61626c653a206e6577206f776e657220697320746865207a65726f206160448201526564647265737360d01b6064820152fd5b8280fd5b5050346101f057816003193601126101f057517f00000000000000000000000000000000000000000000000000000000000000006001600160a01b03168152602090f35b5080fd5b5050346101f057806003193601126101f0578060209261021261083b565b61021a610856565b6001600160a01b0391821683526001865283832091168252845220549051908152f35b61086c565b508290346101f057826003193601126101f05761025d61083b565b602435906001600160a01b03907f00000000000000000000000000000000000000000000000000000000000000008216330361038d5716918215610340578284528360205284842054908282106102f257508184957fddf252ad1be2c89b69c2b068fc378daa952ba7f163c4a11628f55a4df523b3ef936020938688528785520381872055816002540360025551908152a380f35b608490602087519162461bcd60e51b8352820152602260248201527f45524332303a206275726e20616d6f756e7420657863656564732062616c616e604482015261636560f01b6064820152fd5b608490602086519162461bcd60e51b8352820152602160248201527f45524332303a206275726e2066726f6d20746865207a65726f206164647265736044820152607360f81b6064820152fd5b855163b8f087b760e01b81528490fd5b509190346101f057816003193601126101f05780519082845460018160011c90600183169283156104b5575b60209384841081146104a2578388529081156104865750600114610431575b505050829003601f01601f191682019267ffffffffffffffff84118385101761041e575082918261041a9252826107f2565b0390f35b634e487b7160e01b815260418552602490fd5b8787529192508591837f8a35acfbc15ff81a39ae7d344fd709f28e8600b4aa8c65c6b64bfe7fe36bd19b5b83851061047257505050508301013880806103e8565b80548886018301529301928490820161045c565b60ff1916878501525050151560051b84010190503880806103e8565b634e487b7160e01b895260228a52602489fd5b91607f16916103c9565b5050346101f057816003193601126101f05760055490516001600160a01b039091168152602090f35b8334610545578060031936011261054557610501610898565b600580546001600160a01b0319811690915581906001600160a01b03167f8be0079c531659141344cd1fd0a4f28419497f9722a3daafe3b4186f6b6457e08280a380f35b80fd5b5050346101f05760203660031901126101f05760209181906001600160a01b0361057061083b565b16815280845220549051908152f35b5090346101a857806003193601126101a85761059961083b565b60243591906001600160a01b03907f00000000000000000000000000000000000000000000000000000000000000008216330361067d571692831561063b5760025490838201809211610628575084927fddf252ad1be2c89b69c2b068fc378daa952ba7f163c4a11628f55a4df523b3ef9260209260025585855284835280852082815401905551908152a380f35b634e487b7160e01b865260119052602485fd5b6020606492519162461bcd60e51b8352820152601f60248201527f45524332303a206d696e7420746f20746865207a65726f2061646472657373006044820152fd5b825163b8f087b760e01b81528590fd5b5050346101f057816003193601126101f0576020905160128152f35b50913461054557606036600319011261054557506106c561083b565b506106ce610856565b5051639cbe235760e01b8152fd5b5050346101f057816003193601126101f0576020906002549051908152f35b84915083346101a857826003193601126101a8578260035460018160011c90600183169283156107e8575b60209384841081146104a2578388529081156107cc575060011461077657505050829003601f01601f191682019267ffffffffffffffff84118385101761041e575082918261041a9252826107f2565b600387529192508591837fc2575a0e9e593c00f959f8c92f12db2869c3395a3b0502d05e2516446f71f85b5b8385106107b857505050508301018580806103e8565b8054888601830152930192849082016107a2565b60ff1916878501525050151560051b84010190508580806103e8565b91607f1691610726565b6020808252825181830181905290939260005b82811061082757505060409293506000838284010152601f8019910116010190565b818101860151848201604001528501610805565b600435906001600160a01b038216820361085157565b600080fd5b602435906001600160a01b038216820361085157565b346108515760403660031901126108515761088561083b565b50604051639cbe235760e01b8152600490fd5b6005546001600160a01b031633036108ac57565b606460405162461bcd60e51b815260206004820152602060248201527f4f776e61626c653a2063616c6c6572206973206e6f7420746865206f776e65726044820152fdfea26469706673582212202ee567ab2ad0f463e732d4638a070d35285847cd6b4cffe9c333d2d2e044bcff64736f6c63430008180033",
  "linkReferences": {},
  "deployedLinkReferences": {}
}